{
	"contracts/tokenA.sol": {
		"tokenA": {
			"abi": [
				{
					"inputs": [],
					"stateMutability": "nonpayable",
					"type": "constructor"
				},
				{
					"inputs": [],
					"name": "ECDSAInvalidSignature",
					"type": "error"
				},
				{
					"inputs": [
						{
							"internalType": "uint256",
							"name": "length",
							"type": "uint256"
						}
					],
					"name": "ECDSAInvalidSignatureLength",
					"type": "error"
				},
				{
					"inputs": [
						{
							"internalType": "bytes32",
							"name": "s",
							"type": "bytes32"
						}
					],
					"name": "ECDSAInvalidSignatureS",
					"type": "error"
				},
				{
					"inputs": [
						{
							"internalType": "address",
							"name": "spender",
							"type": "address"
						},
						{
							"internalType": "uint256",
							"name": "allowance",
							"type": "uint256"
						},
						{
							"internalType": "uint256",
							"name": "needed",
							"type": "uint256"
						}
					],
					"name": "ERC20InsufficientAllowance",
					"type": "error"
				},
				{
					"inputs": [
						{
							"internalType": "address",
							"name": "sender",
							"type": "address"
						},
						{
							"internalType": "uint256",
							"name": "balance",
							"type": "uint256"
						},
						{
							"internalType": "uint256",
							"name": "needed",
							"type": "uint256"
						}
					],
					"name": "ERC20InsufficientBalance",
					"type": "error"
				},
				{
					"inputs": [
						{
							"internalType": "address",
							"name": "approver",
							"type": "address"
						}
					],
					"name": "ERC20InvalidApprover",
					"type": "error"
				},
				{
					"inputs": [
						{
							"internalType": "address",
							"name": "receiver",
							"type": "address"
						}
					],
					"name": "ERC20InvalidReceiver",
					"type": "error"
				},
				{
					"inputs": [
						{
							"internalType": "address",
							"name": "sender",
							"type": "address"
						}
					],
					"name": "ERC20InvalidSender",
					"type": "error"
				},
				{
					"inputs": [
						{
							"internalType": "address",
							"name": "spender",
							"type": "address"
						}
					],
					"name": "ERC20InvalidSpender",
					"type": "error"
				},
				{
					"inputs": [
						{
							"internalType": "uint256",
							"name": "deadline",
							"type": "uint256"
						}
					],
					"name": "ERC2612ExpiredSignature",
					"type": "error"
				},
				{
					"inputs": [
						{
							"internalType": "address",
							"name": "signer",
							"type": "address"
						},
						{
							"internalType": "address",
							"name": "owner",
							"type": "address"
						}
					],
					"name": "ERC2612InvalidSigner",
					"type": "error"
				},
				{
					"inputs": [
						{
							"internalType": "address",
							"name": "account",
							"type": "address"
						},
						{
							"internalType": "uint256",
							"name": "currentNonce",
							"type": "uint256"
						}
					],
					"name": "InvalidAccountNonce",
					"type": "error"
				},
				{
					"inputs": [],
					"name": "InvalidShortString",
					"type": "error"
				},
				{
					"inputs": [
						{
							"internalType": "string",
							"name": "str",
							"type": "string"
						}
					],
					"name": "StringTooLong",
					"type": "error"
				},
				{
					"anonymous": false,
					"inputs": [
						{
							"indexed": true,
							"internalType": "address",
							"name": "owner",
							"type": "address"
						},
						{
							"indexed": true,
							"internalType": "address",
							"name": "spender",
							"type": "address"
						},
						{
							"indexed": false,
							"internalType": "uint256",
							"name": "value",
							"type": "uint256"
						}
					],
					"name": "Approval",
					"type": "event"
				},
				{
					"anonymous": false,
					"inputs": [],
					"name": "EIP712DomainChanged",
					"type": "event"
				},
				{
					"anonymous": false,
					"inputs": [
						{
							"indexed": true,
							"internalType": "address",
							"name": "from",
							"type": "address"
						},
						{
							"indexed": true,
							"internalType": "address",
							"name": "to",
							"type": "address"
						},
						{
							"indexed": false,
							"internalType": "uint256",
							"name": "value",
							"type": "uint256"
						}
					],
					"name": "Transfer",
					"type": "event"
				},
				{
					"inputs": [],
					"name": "DOMAIN_SEPARATOR",
					"outputs": [
						{
							"internalType": "bytes32",
							"name": "",
							"type": "bytes32"
						}
					],
					"stateMutability": "view",
					"type": "function"
				},
				{
					"inputs": [],
					"name": "INITIAL_SUPPLY",
					"outputs": [
						{
							"internalType": "uint256",
							"name": "",
							"type": "uint256"
						}
					],
					"stateMutability": "view",
					"type": "function"
				},
				{
					"inputs": [
						{
							"internalType": "address",
							"name": "owner",
							"type": "address"
						},
						{
							"internalType": "address",
							"name": "spender",
							"type": "address"
						}
					],
					"name": "allowance",
					"outputs": [
						{
							"internalType": "uint256",
							"name": "",
							"type": "uint256"
						}
					],
					"stateMutability": "view",
					"type": "function"
				},
				{
					"inputs": [
						{
							"internalType": "address",
							"name": "spender",
							"type": "address"
						},
						{
							"internalType": "uint256",
							"name": "value",
							"type": "uint256"
						}
					],
					"name": "approve",
					"outputs": [
						{
							"internalType": "bool",
							"name": "",
							"type": "bool"
						}
					],
					"stateMutability": "nonpayable",
					"type": "function"
				},
				{
					"inputs": [
						{
							"internalType": "address",
							"name": "account",
							"type": "address"
						}
					],
					"name": "balanceOf",
					"outputs": [
						{
							"internalType": "uint256",
							"name": "",
							"type": "uint256"
						}
					],
					"stateMutability": "view",
					"type": "function"
				},
				{
					"inputs": [],
					"name": "decimals",
					"outputs": [
						{
							"internalType": "uint8",
							"name": "",
							"type": "uint8"
						}
					],
					"stateMutability": "view",
					"type": "function"
				},
				{
					"inputs": [],
					"name": "eip712Domain",
					"outputs": [
						{
							"internalType": "bytes1",
							"name": "fields",
							"type": "bytes1"
						},
						{
							"internalType": "string",
							"name": "name",
							"type": "string"
						},
						{
							"internalType": "string",
							"name": "version",
							"type": "string"
						},
						{
							"internalType": "uint256",
							"name": "chainId",
							"type": "uint256"
						},
						{
							"internalType": "address",
							"name": "verifyingContract",
							"type": "address"
						},
						{
							"internalType": "bytes32",
							"name": "salt",
							"type": "bytes32"
						},
						{
							"internalType": "uint256[]",
							"name": "extensions",
							"type": "uint256[]"
						}
					],
					"stateMutability": "view",
					"type": "function"
				},
				{
					"inputs": [
						{
							"internalType": "address",
							"name": "to",
							"type": "address"
						},
						{
							"internalType": "uint256",
							"name": "amount",
							"type": "uint256"
						}
					],
					"name": "mint",
					"outputs": [],
					"stateMutability": "nonpayable",
					"type": "function"
				},
				{
					"inputs": [],
					"name": "name",
					"outputs": [
						{
							"internalType": "string",
							"name": "",
							"type": "string"
						}
					],
					"stateMutability": "view",
					"type": "function"
				},
				{
					"inputs": [
						{
							"internalType": "address",
							"name": "owner",
							"type": "address"
						}
					],
					"name": "nonces",
					"outputs": [
						{
							"internalType": "uint256",
							"name": "",
							"type": "uint256"
						}
					],
					"stateMutability": "view",
					"type": "function"
				},
				{
					"inputs": [
						{
							"internalType": "address",
							"name": "owner",
							"type": "address"
						},
						{
							"internalType": "address",
							"name": "spender",
							"type": "address"
						},
						{
							"internalType": "uint256",
							"name": "value",
							"type": "uint256"
						},
						{
							"internalType": "uint256",
							"name": "deadline",
							"type": "uint256"
						},
						{
							"internalType": "uint8",
							"name": "v",
							"type": "uint8"
						},
						{
							"internalType": "bytes32",
							"name": "r",
							"type": "bytes32"
						},
						{
							"internalType": "bytes32",
							"name": "s",
							"type": "bytes32"
						}
					],
					"name": "permit",
					"outputs": [],
					"stateMutability": "nonpayable",
					"type": "function"
				},
				{
					"inputs": [],
					"name": "symbol",
					"outputs": [
						{
							"internalType": "string",
							"name": "",
							"type": "string"
						}
					],
					"stateMutability": "view",
					"type": "function"
				},
				{
					"inputs": [],
					"name": "totalSupply",
					"outputs": [
						{
							"internalType": "uint256",
							"name": "",
							"type": "uint256"
						}
					],
					"stateMutability": "view",
					"type": "function"
				},
				{
					"inputs": [
						{
							"internalType": "address",
							"name": "to",
							"type": "address"
						},
						{
							"internalType": "uint256",
							"name": "value",
							"type": "uint256"
						}
					],
					"name": "transfer",
					"outputs": [
						{
							"internalType": "bool",
							"name": "",
							"type": "bool"
						}
					],
					"stateMutability": "nonpayable",
					"type": "function"
				},
				{
					"inputs": [
						{
							"internalType": "address",
							"name": "from",
							"type": "address"
						},
						{
							"internalType": "address",
							"name": "to",
							"type": "address"
						},
						{
							"internalType": "uint256",
							"name": "value",
							"type": "uint256"
						}
					],
					"name": "transferFrom",
					"outputs": [
						{
							"internalType": "bool",
							"name": "",
							"type": "bool"
						}
					],
					"stateMutability": "nonpayable",
					"type": "function"
				}
			],
			"devdoc": {
				"errors": {
					"ECDSAInvalidSignature()": [
						{
							"details": "The signature derives the `address(0)`."
						}
					],
					"ECDSAInvalidSignatureLength(uint256)": [
						{
							"details": "The signature has an invalid length."
						}
					],
					"ECDSAInvalidSignatureS(bytes32)": [
						{
							"details": "The signature has an S value that is in the upper half order."
						}
					],
					"ERC20InsufficientAllowance(address,uint256,uint256)": [
						{
							"details": "Indicates a failure with the `spender`’s `allowance`. Used in transfers.",
							"params": {
								"allowance": "Amount of tokens a `spender` is allowed to operate with.",
								"needed": "Minimum amount required to perform a transfer.",
								"spender": "Address that may be allowed to operate on tokens without being their owner."
							}
						}
					],
					"ERC20InsufficientBalance(address,uint256,uint256)": [
						{
							"details": "Indicates an error related to the current `balance` of a `sender`. Used in transfers.",
							"params": {
								"balance": "Current balance for the interacting account.",
								"needed": "Minimum amount required to perform a transfer.",
								"sender": "Address whose tokens are being transferred."
							}
						}
					],
					"ERC20InvalidApprover(address)": [
						{
							"details": "Indicates a failure with the `approver` of a token to be approved. Used in approvals.",
							"params": {
								"approver": "Address initiating an approval operation."
							}
						}
					],
					"ERC20InvalidReceiver(address)": [
						{
							"details": "Indicates a failure with the token `receiver`. Used in transfers.",
							"params": {
								"receiver": "Address to which tokens are being transferred."
							}
						}
					],
					"ERC20InvalidSender(address)": [
						{
							"details": "Indicates a failure with the token `sender`. Used in transfers.",
							"params": {
								"sender": "Address whose tokens are being transferred."
							}
						}
					],
					"ERC20InvalidSpender(address)": [
						{
							"details": "Indicates a failure with the `spender` to be approved. Used in approvals.",
							"params": {
								"spender": "Address that may be allowed to operate on tokens without being their owner."
							}
						}
					],
					"ERC2612ExpiredSignature(uint256)": [
						{
							"details": "Permit deadline has expired."
						}
					],
					"ERC2612InvalidSigner(address,address)": [
						{
							"details": "Mismatched signature."
						}
					],
					"InvalidAccountNonce(address,uint256)": [
						{
							"details": "The nonce used for an `account` is not the expected current nonce."
						}
					]
				},
				"events": {
					"Approval(address,address,uint256)": {
						"details": "Emitted when the allowance of a `spender` for an `owner` is set by a call to {approve}. `value` is the new allowance."
					},
					"EIP712DomainChanged()": {
						"details": "MAY be emitted to signal that the domain could have changed."
					},
					"Transfer(address,address,uint256)": {
						"details": "Emitted when `value` tokens are moved from one account (`from`) to another (`to`). Note that `value` may be zero."
					}
				},
				"kind": "dev",
				"methods": {
					"DOMAIN_SEPARATOR()": {
						"details": "Returns the domain separator used in the encoding of the signature for {permit}, as defined by {EIP712}."
					},
					"allowance(address,address)": {
						"details": "See {IERC20-allowance}."
					},
					"approve(address,uint256)": {
						"details": "See {IERC20-approve}. NOTE: If `value` is the maximum `uint256`, the allowance is not updated on `transferFrom`. This is semantically equivalent to an infinite approval. Requirements: - `spender` cannot be the zero address."
					},
					"balanceOf(address)": {
						"details": "See {IERC20-balanceOf}."
					},
					"decimals()": {
						"details": "Returns the number of decimals used to get its user representation. For example, if `decimals` equals `2`, a balance of `505` tokens should be displayed to a user as `5.05` (`505 / 10 ** 2`). Tokens usually opt for a value of 18, imitating the relationship between Ether and Wei. This is the default value returned by this function, unless it's overridden. NOTE: This information is only used for _display_ purposes: it in no way affects any of the arithmetic of the contract, including {IERC20-balanceOf} and {IERC20-transfer}."
					},
					"eip712Domain()": {
						"details": "See {IERC-5267}."
					},
					"name()": {
						"details": "Returns the name of the token."
					},
					"nonces(address)": {
						"details": "Returns the current nonce for `owner`. This value must be included whenever a signature is generated for {permit}. Every successful call to {permit} increases ``owner``'s nonce by one. This prevents a signature from being used multiple times."
					},
					"permit(address,address,uint256,uint256,uint8,bytes32,bytes32)": {
						"details": "Sets `value` as the allowance of `spender` over ``owner``'s tokens, given ``owner``'s signed approval. IMPORTANT: The same issues {IERC20-approve} has related to transaction ordering also apply here. Emits an {Approval} event. Requirements: - `spender` cannot be the zero address. - `deadline` must be a timestamp in the future. - `v`, `r` and `s` must be a valid `secp256k1` signature from `owner` over the EIP712-formatted function arguments. - the signature must use ``owner``'s current nonce (see {nonces}). For more information on the signature format, see the https://eips.ethereum.org/EIPS/eip-2612#specification[relevant EIP section]. CAUTION: See Security Considerations above."
					},
					"symbol()": {
						"details": "Returns the symbol of the token, usually a shorter version of the name."
					},
					"totalSupply()": {
						"details": "See {IERC20-totalSupply}."
					},
					"transfer(address,uint256)": {
						"details": "See {IERC20-transfer}. Requirements: - `to` cannot be the zero address. - the caller must have a balance of at least `value`."
					},
					"transferFrom(address,address,uint256)": {
						"details": "See {IERC20-transferFrom}. Emits an {Approval} event indicating the updated allowance. This is not required by the EIP. See the note at the beginning of {ERC20}. NOTE: Does not update the allowance if the current allowance is the maximum `uint256`. Requirements: - `from` and `to` cannot be the zero address. - `from` must have a balance of at least `value`. - the caller must have allowance for ``from``'s tokens of at least `value`."
					}
				},
				"version": 1
			},
			"evm": {
				"assembly": "    /* \"contracts/tokenA.sol\":188:496  contract tokenA is ERC20, ERC20Permit {... */\n  mstore(0x40, 0x0160)\n    /* \"contracts/tokenA.sol\":278:288  decimals() */\n  tag_1\n    /* \"contracts/tokenA.sol\":278:286  decimals */\n  shl(0x20, tag_2)\n    /* \"contracts/tokenA.sol\":278:288  decimals() */\n  0x20\n  shr\n  jump\t// in\ntag_1:\n    /* \"contracts/tokenA.sol\":274:276  10 */\n  0x0a\n    /* \"contracts/tokenA.sol\":274:288  10**decimals() */\n  tag_3\n  swap2\n  swap1\n  tag_4\n  jump\t// in\ntag_3:\n    /* \"contracts/tokenA.sol\":264:271  1000000 */\n  0x0f4240\n    /* \"contracts/tokenA.sol\":264:288  1000000 * 10**decimals() */\n  tag_5\n  swap2\n  swap1\n  tag_6\n  jump\t// in\ntag_5:\n    /* \"contracts/tokenA.sol\":232:288  uint256 public INITIAL_SUPPLY = 1000000 * 10**decimals() */\n  0x08\n  sstore\n    /* \"contracts/tokenA.sol\":296:405  constructor() ERC20(\"tokenA\", \"TOA\") ERC20Permit(\"tokenA\") {... */\n  callvalue\n  dup1\n  iszero\n  tag_7\n  jumpi\n  0x00\n  dup1\n  revert\ntag_7:\n  pop\n    /* \"@openzeppelin/contracts/token/ERC20/extensions/ERC20Permit.sol\":1574:1626  constructor(string memory name) EIP712(name, \"1\") {} */\n  mload(0x40)\n  dup1\n  0x40\n  add\n  0x40\n  mstore\n  dup1\n  0x06\n  dup2\n  mstore\n  0x20\n  add\n  0x746f6b656e410000000000000000000000000000000000000000000000000000\n  dup2\n  mstore\n  pop\n    /* \"@openzeppelin/contracts/token/ERC20/extensions/ERC20Permit.sol\":1613:1617  name */\n  dup1\n    /* \"@openzeppelin/contracts/utils/cryptography/EIP712.sol\":3328:3759  constructor(string memory name, string memory version) {... */\n  mload(0x40)\n  dup1\n  0x40\n  add\n  0x40\n  mstore\n  dup1\n  0x01\n  dup2\n  mstore\n  0x20\n  add\n  0x3100000000000000000000000000000000000000000000000000000000000000\n  dup2\n  mstore\n  pop\n    /* \"@openzeppelin/contracts/token/ERC20/ERC20.sol\":1896:2009  constructor(string memory name_, string memory symbol_) {... */\n  mload(0x40)\n  dup1\n  0x40\n  add\n  0x40\n  mstore\n  dup1\n  0x06\n  dup2\n  mstore\n  0x20\n  add\n  0x746f6b656e410000000000000000000000000000000000000000000000000000\n  dup2\n  mstore\n  pop\n  mload(0x40)\n  dup1\n  0x40\n  add\n  0x40\n  mstore\n  dup1\n  0x03\n  dup2\n  mstore\n  0x20\n  add\n  0x544f410000000000000000000000000000000000000000000000000000000000\n  dup2\n  mstore\n  pop\n    /* \"@openzeppelin/contracts/token/ERC20/ERC20.sol\":1970:1975  name_ */\n  dup2\n    /* \"@openzeppelin/contracts/token/ERC20/ERC20.sol\":1962:1967  _name */\n  0x03\n    /* \"@openzeppelin/contracts/token/ERC20/ERC20.sol\":1962:1975  _name = name_ */\n  swap1\n  dup2\n  tag_13\n  swap2\n  swap1\n  tag_14\n  jump\t// in\ntag_13:\n  pop\n    /* \"@openzeppelin/contracts/token/ERC20/ERC20.sol\":1995:2002  symbol_ */\n  dup1\n    /* \"@openzeppelin/contracts/token/ERC20/ERC20.sol\":1985:1992  _symbol */\n  0x04\n    /* \"@openzeppelin/contracts/token/ERC20/ERC20.sol\":1985:2002  _symbol = symbol_ */\n  swap1\n  dup2\n  tag_15\n  swap2\n  swap1\n  tag_14\n  jump\t// in\ntag_15:\n  pop\n    /* \"@openzeppelin/contracts/token/ERC20/ERC20.sol\":1896:2009  constructor(string memory name_, string memory symbol_) {... */\n  pop\n  pop\n    /* \"@openzeppelin/contracts/utils/cryptography/EIP712.sol\":3401:3446  name.toShortStringWithFallback(_nameFallback) */\n  tag_17\n    /* \"@openzeppelin/contracts/utils/cryptography/EIP712.sol\":3432:3445  _nameFallback */\n  0x05\n    /* \"@openzeppelin/contracts/utils/cryptography/EIP712.sol\":3401:3405  name */\n  dup4\n    /* \"@openzeppelin/contracts/utils/cryptography/EIP712.sol\":3401:3431  name.toShortStringWithFallback */\n  shl(0x20, tag_18)\n  swap1\n    /* \"@openzeppelin/contracts/utils/cryptography/EIP712.sol\":3401:3446  name.toShortStringWithFallback(_nameFallback) */\n  swap2\n  swap1\n  0x20\n  shr\n  jump\t// in\ntag_17:\n    /* \"@openzeppelin/contracts/utils/cryptography/EIP712.sol\":3393:3446  _name = name.toShortStringWithFallback(_nameFallback) */\n  0x0120\n  dup2\n  dup2\n  mstore\n  pop\n  pop\n    /* \"@openzeppelin/contracts/utils/cryptography/EIP712.sol\":3467:3518  version.toShortStringWithFallback(_versionFallback) */\n  tag_19\n    /* \"@openzeppelin/contracts/utils/cryptography/EIP712.sol\":3501:3517  _versionFallback */\n  0x06\n    /* \"@openzeppelin/contracts/utils/cryptography/EIP712.sol\":3467:3474  version */\n  dup3\n    /* \"@openzeppelin/contracts/utils/cryptography/EIP712.sol\":3467:3500  version.toShortStringWithFallback */\n  shl(0x20, tag_18)\n  swap1\n    /* \"@openzeppelin/contracts/utils/cryptography/EIP712.sol\":3467:3518  version.toShortStringWithFallback(_versionFallback) */\n  swap2\n  swap1\n  0x20\n  shr\n  jump\t// in\ntag_19:\n    /* \"@openzeppelin/contracts/utils/cryptography/EIP712.sol\":3456:3518  _version = version.toShortStringWithFallback(_versionFallback) */\n  0x0140\n  dup2\n  dup2\n  mstore\n  pop\n  pop\n    /* \"@openzeppelin/contracts/utils/cryptography/EIP712.sol\":3558:3562  name */\n  dup2\n    /* \"@openzeppelin/contracts/utils/cryptography/EIP712.sol\":3542:3564  keccak256(bytes(name)) */\n  dup1\n  mload\n  swap1\n  0x20\n  add\n  keccak256\n    /* \"@openzeppelin/contracts/utils/cryptography/EIP712.sol\":3528:3564  _hashedName = keccak256(bytes(name)) */\n  0xe0\n  dup2\n  dup2\n  mstore\n  pop\n  pop\n    /* \"@openzeppelin/contracts/utils/cryptography/EIP712.sol\":3607:3614  version */\n  dup1\n    /* \"@openzeppelin/contracts/utils/cryptography/EIP712.sol\":3591:3616  keccak256(bytes(version)) */\n  dup1\n  mload\n  swap1\n  0x20\n  add\n  keccak256\n    /* \"@openzeppelin/contracts/utils/cryptography/EIP712.sol\":3574:3616  _hashedVersion = keccak256(bytes(version)) */\n  0x0100\n  dup2\n  dup2\n  mstore\n  pop\n  pop\n    /* \"@openzeppelin/contracts/utils/cryptography/EIP712.sol\":3644:3657  block.chainid */\n  chainid\n    /* \"@openzeppelin/contracts/utils/cryptography/EIP712.sol\":3627:3657  _cachedChainId = block.chainid */\n  0xa0\n  dup2\n  dup2\n  mstore\n  pop\n  pop\n    /* \"@openzeppelin/contracts/utils/cryptography/EIP712.sol\":3692:3715  _buildDomainSeparator() */\n  tag_20\n    /* \"@openzeppelin/contracts/utils/cryptography/EIP712.sol\":3692:3713  _buildDomainSeparator */\n  shl(0x20, tag_21)\n    /* \"@openzeppelin/contracts/utils/cryptography/EIP712.sol\":3692:3715  _buildDomainSeparator() */\n  0x20\n  shr\n  jump\t// in\ntag_20:\n    /* \"@openzeppelin/contracts/utils/cryptography/EIP712.sol\":3667:3715  _cachedDomainSeparator = _buildDomainSeparator() */\n  0x80\n  dup2\n  dup2\n  mstore\n  pop\n  pop\n    /* \"@openzeppelin/contracts/utils/cryptography/EIP712.sol\":3747:3751  this */\n  address\n    /* \"@openzeppelin/contracts/utils/cryptography/EIP712.sol\":3725:3752  _cachedThis = address(this) */\n  0xffffffffffffffffffffffffffffffffffffffff\n  and\n  0xc0\n  dup2\n  0xffffffffffffffffffffffffffffffffffffffff\n  and\n  dup2\n  mstore\n  pop\n  pop\n    /* \"@openzeppelin/contracts/utils/cryptography/EIP712.sol\":3328:3759  constructor(string memory name, string memory version) {... */\n  pop\n  pop\n    /* \"@openzeppelin/contracts/token/ERC20/extensions/ERC20Permit.sol\":1574:1626  constructor(string memory name) EIP712(name, \"1\") {} */\n  pop\n    /* \"contracts/tokenA.sol\":365:398  _mint(msg.sender, INITIAL_SUPPLY) */\n  tag_24\n    /* \"contracts/tokenA.sol\":371:381  msg.sender */\n  caller\n    /* \"contracts/tokenA.sol\":383:397  INITIAL_SUPPLY */\n  sload(0x08)\n    /* \"contracts/tokenA.sol\":365:370  _mint */\n  shl(0x20, tag_25)\n    /* \"contracts/tokenA.sol\":365:398  _mint(msg.sender, INITIAL_SUPPLY) */\n  0x20\n  shr\n  jump\t// in\ntag_24:\n    /* \"contracts/tokenA.sol\":188:496  contract tokenA is ERC20, ERC20Permit {... */\n  jump(tag_26)\n    /* \"@openzeppelin/contracts/token/ERC20/ERC20.sol\":3002:3084  function decimals() public view virtual returns (uint8) {... */\ntag_2:\n    /* \"@openzeppelin/contracts/token/ERC20/ERC20.sol\":3051:3056  uint8 */\n  0x00\n    /* \"@openzeppelin/contracts/token/ERC20/ERC20.sol\":3075:3077  18 */\n  0x12\n    /* \"@openzeppelin/contracts/token/ERC20/ERC20.sol\":3068:3077  return 18 */\n  swap1\n  pop\n    /* \"@openzeppelin/contracts/token/ERC20/ERC20.sol\":3002:3084  function decimals() public view virtual returns (uint8) {... */\n  swap1\n  jump\t// out\n    /* \"@openzeppelin/contracts/utils/ShortStrings.sol\":2914:3254  function toShortStringWithFallback(string memory value, string storage store) internal returns (ShortString) {... */\ntag_18:\n    /* \"@openzeppelin/contracts/utils/ShortStrings.sol\":3010:3021  ShortString */\n  0x00\n    /* \"@openzeppelin/contracts/utils/ShortStrings.sol\":3059:3061  32 */\n  0x20\n    /* \"@openzeppelin/contracts/utils/ShortStrings.sol\":3043:3048  value */\n  dup4\n    /* \"@openzeppelin/contracts/utils/ShortStrings.sol\":3037:3056  bytes(value).length */\n  mload\n    /* \"@openzeppelin/contracts/utils/ShortStrings.sol\":3037:3061  bytes(value).length < 32 */\n  lt\n    /* \"@openzeppelin/contracts/utils/ShortStrings.sol\":3033:3248  if (bytes(value).length < 32) {... */\n  iszero\n  tag_29\n  jumpi\n    /* \"@openzeppelin/contracts/utils/ShortStrings.sol\":3084:3104  toShortString(value) */\n  tag_30\n    /* \"@openzeppelin/contracts/utils/ShortStrings.sol\":3098:3103  value */\n  dup4\n    /* \"@openzeppelin/contracts/utils/ShortStrings.sol\":3084:3097  toShortString */\n  shl(0x20, tag_31)\n    /* \"@openzeppelin/contracts/utils/ShortStrings.sol\":3084:3104  toShortString(value) */\n  0x20\n  shr\n  jump\t// in\ntag_30:\n    /* \"@openzeppelin/contracts/utils/ShortStrings.sol\":3077:3104  return toShortString(value) */\n  swap1\n  pop\n  jump(tag_28)\n    /* \"@openzeppelin/contracts/utils/ShortStrings.sol\":3033:3248  if (bytes(value).length < 32) {... */\ntag_29:\n    /* \"@openzeppelin/contracts/utils/ShortStrings.sol\":3176:3181  value */\n  dup3\n    /* \"@openzeppelin/contracts/utils/ShortStrings.sol\":3135:3167  StorageSlot.getStringSlot(store) */\n  tag_33\n    /* \"@openzeppelin/contracts/utils/ShortStrings.sol\":3161:3166  store */\n  dup4\n    /* \"@openzeppelin/contracts/utils/ShortStrings.sol\":3135:3160  StorageSlot.getStringSlot */\n  shl(0x20, tag_34)\n    /* \"@openzeppelin/contracts/utils/ShortStrings.sol\":3135:3167  StorageSlot.getStringSlot(store) */\n  0x20\n  shr\n  jump\t// in\ntag_33:\n    /* \"@openzeppelin/contracts/utils/ShortStrings.sol\":3135:3173  StorageSlot.getStringSlot(store).value */\n  0x00\n  add\n    /* \"@openzeppelin/contracts/utils/ShortStrings.sol\":3135:3181  StorageSlot.getStringSlot(store).value = value */\n  swap1\n  dup2\n  tag_35\n  swap2\n  swap1\n  tag_14\n  jump\t// in\ntag_35:\n  pop\n    /* \"@openzeppelin/contracts/utils/ShortStrings.sol\":1390:1456  0x00000000000000000000000000000000000000000000000000000000000000FF */\n  0xff\n    /* \"@openzeppelin/contracts/utils/ShortStrings.sol\":3219:3236  FALLBACK_SENTINEL */\n  0x00\n  shl\n    /* \"@openzeppelin/contracts/utils/ShortStrings.sol\":3195:3237  return ShortString.wrap(FALLBACK_SENTINEL) */\n  swap1\n  pop\n    /* \"@openzeppelin/contracts/utils/ShortStrings.sol\":2914:3254  function toShortStringWithFallback(string memory value, string storage store) internal returns (ShortString) {... */\ntag_28:\n  swap3\n  swap2\n  pop\n  pop\n  jump\t// out\n    /* \"@openzeppelin/contracts/utils/cryptography/EIP712.sol\":4113:4292  function _buildDomainSeparator() private view returns (bytes32) {... */\ntag_21:\n    /* \"@openzeppelin/contracts/utils/cryptography/EIP712.sol\":4168:4175  bytes32 */\n  0x00\n    /* \"@openzeppelin/contracts/utils/cryptography/EIP712.sol\":2079:2174  keccak256(\"EIP712Domain(string name,string version,uint256 chainId,address verifyingContract)\") */\n  0x8b73c3c69bb8fe3d512ecc4cf759cc79239f7b179b0ffacaa9a75d522b39400f\n    /* \"@openzeppelin/contracts/utils/cryptography/EIP712.sol\":4226:4237  _hashedName */\n  mload(0xe0)\n    /* \"@openzeppelin/contracts/utils/cryptography/EIP712.sol\":4239:4253  _hashedVersion */\n  mload(0x0100)\n    /* \"@openzeppelin/contracts/utils/cryptography/EIP712.sol\":4255:4268  block.chainid */\n  chainid\n    /* \"@openzeppelin/contracts/utils/cryptography/EIP712.sol\":4278:4282  this */\n  address\n    /* \"@openzeppelin/contracts/utils/cryptography/EIP712.sol\":4204:4284  abi.encode(TYPE_HASH, _hashedName, _hashedVersion, block.chainid, address(this)) */\n  add(0x20, mload(0x40))\n  tag_37\n  swap6\n  swap5\n  swap4\n  swap3\n  swap2\n  swap1\n  tag_38\n  jump\t// in\ntag_37:\n  mload(0x40)\n  0x20\n  dup2\n  dup4\n  sub\n  sub\n  dup2\n  mstore\n  swap1\n  0x40\n  mstore\n    /* \"@openzeppelin/contracts/utils/cryptography/EIP712.sol\":4194:4285  keccak256(abi.encode(TYPE_HASH, _hashedName, _hashedVersion, block.chainid, address(this))) */\n  dup1\n  mload\n  swap1\n  0x20\n  add\n  keccak256\n    /* \"@openzeppelin/contracts/utils/cryptography/EIP712.sol\":4187:4285  return keccak256(abi.encode(TYPE_HASH, _hashedName, _hashedVersion, block.chainid, address(this))) */\n  swap1\n  pop\n    /* \"@openzeppelin/contracts/utils/cryptography/EIP712.sol\":4113:4292  function _buildDomainSeparator() private view returns (bytes32) {... */\n  swap1\n  jump\t// out\n    /* \"@openzeppelin/contracts/token/ERC20/ERC20.sol\":7721:7929  function _mint(address account, uint256 value) internal {... */\ntag_25:\n    /* \"@openzeppelin/contracts/token/ERC20/ERC20.sol\":7810:7811  0 */\n  0x00\n    /* \"@openzeppelin/contracts/token/ERC20/ERC20.sol\":7791:7812  account == address(0) */\n  0xffffffffffffffffffffffffffffffffffffffff\n  and\n    /* \"@openzeppelin/contracts/token/ERC20/ERC20.sol\":7791:7798  account */\n  dup3\n    /* \"@openzeppelin/contracts/token/ERC20/ERC20.sol\":7791:7812  account == address(0) */\n  0xffffffffffffffffffffffffffffffffffffffff\n  and\n  sub\n    /* \"@openzeppelin/contracts/token/ERC20/ERC20.sol\":7787:7878  if (account == address(0)) {... */\n  tag_40\n  jumpi\n    /* \"@openzeppelin/contracts/token/ERC20/ERC20.sol\":7864:7865  0 */\n  0x00\n    /* \"@openzeppelin/contracts/token/ERC20/ERC20.sol\":7835:7867  ERC20InvalidReceiver(address(0)) */\n  mload(0x40)\n  0xec442f0500000000000000000000000000000000000000000000000000000000\n  dup2\n  mstore\n  0x04\n  add\n  tag_41\n  swap2\n  swap1\n  tag_42\n  jump\t// in\ntag_41:\n  mload(0x40)\n  dup1\n  swap2\n  sub\n  swap1\n  revert\n    /* \"@openzeppelin/contracts/token/ERC20/ERC20.sol\":7787:7878  if (account == address(0)) {... */\ntag_40:\n    /* \"@openzeppelin/contracts/token/ERC20/ERC20.sol\":7887:7922  _update(address(0), account, value) */\n  tag_43\n    /* \"@openzeppelin/contracts/token/ERC20/ERC20.sol\":7903:7904  0 */\n  0x00\n    /* \"@openzeppelin/contracts/token/ERC20/ERC20.sol\":7907:7914  account */\n  dup4\n    /* \"@openzeppelin/contracts/token/ERC20/ERC20.sol\":7916:7921  value */\n  dup4\n    /* \"@openzeppelin/contracts/token/ERC20/ERC20.sol\":7887:7894  _update */\n  shl(0x20, tag_44)\n    /* \"@openzeppelin/contracts/token/ERC20/ERC20.sol\":7887:7922  _update(address(0), account, value) */\n  0x20\n  shr\n  jump\t// in\ntag_43:\n    /* \"@openzeppelin/contracts/token/ERC20/ERC20.sol\":7721:7929  function _mint(address account, uint256 value) internal {... */\n  pop\n  pop\n  jump\t// out\n    /* \"@openzeppelin/contracts/utils/ShortStrings.sol\":1708:1994  function toShortString(string memory str) internal pure returns (ShortString) {... */\ntag_31:\n    /* \"@openzeppelin/contracts/utils/ShortStrings.sol\":1773:1784  ShortString */\n  0x00\n    /* \"@openzeppelin/contracts/utils/ShortStrings.sol\":1796:1813  bytes memory bstr */\n  dup1\n    /* \"@openzeppelin/contracts/utils/ShortStrings.sol\":1822:1825  str */\n  dup3\n    /* \"@openzeppelin/contracts/utils/ShortStrings.sol\":1796:1826  bytes memory bstr = bytes(str) */\n  swap1\n  pop\n    /* \"@openzeppelin/contracts/utils/ShortStrings.sol\":1854:1856  31 */\n  0x1f\n    /* \"@openzeppelin/contracts/utils/ShortStrings.sol\":1840:1844  bstr */\n  dup2\n    /* \"@openzeppelin/contracts/utils/ShortStrings.sol\":1840:1851  bstr.length */\n  mload\n    /* \"@openzeppelin/contracts/utils/ShortStrings.sol\":1840:1856  bstr.length > 31 */\n  gt\n    /* \"@openzeppelin/contracts/utils/ShortStrings.sol\":1836:1908  if (bstr.length > 31) {... */\n  iszero\n  tag_46\n  jumpi\n    /* \"@openzeppelin/contracts/utils/ShortStrings.sol\":1893:1896  str */\n  dup3\n    /* \"@openzeppelin/contracts/utils/ShortStrings.sol\":1879:1897  StringTooLong(str) */\n  mload(0x40)\n  0x305a27a900000000000000000000000000000000000000000000000000000000\n  dup2\n  mstore\n  0x04\n  add\n  tag_47\n  swap2\n  swap1\n  tag_48\n  jump\t// in\ntag_47:\n  mload(0x40)\n  dup1\n  swap2\n  sub\n  swap1\n  revert\n    /* \"@openzeppelin/contracts/utils/ShortStrings.sol\":1836:1908  if (bstr.length > 31) {... */\ntag_46:\n    /* \"@openzeppelin/contracts/utils/ShortStrings.sol\":1974:1978  bstr */\n  dup1\n    /* \"@openzeppelin/contracts/utils/ShortStrings.sol\":1974:1985  bstr.length */\n  mload\n    /* \"@openzeppelin/contracts/utils/ShortStrings.sol\":1965:1969  bstr */\n  dup2\n    /* \"@openzeppelin/contracts/utils/ShortStrings.sol\":1957:1970  bytes32(bstr) */\n  tag_49\n  swap1\n  tag_50\n  jump\t// in\ntag_49:\n    /* \"@openzeppelin/contracts/utils/ShortStrings.sol\":1949:1971  uint256(bytes32(bstr)) */\n  0x00\n  shr\n    /* \"@openzeppelin/contracts/utils/ShortStrings.sol\":1949:1985  uint256(bytes32(bstr)) | bstr.length */\n  or\n    /* \"@openzeppelin/contracts/utils/ShortStrings.sol\":1941:1986  bytes32(uint256(bytes32(bstr)) | bstr.length) */\n  0x00\n  shl\n    /* \"@openzeppelin/contracts/utils/ShortStrings.sol\":1917:1987  return ShortString.wrap(bytes32(uint256(bytes32(bstr)) | bstr.length)) */\n  swap2\n  pop\n  pop\n    /* \"@openzeppelin/contracts/utils/ShortStrings.sol\":1708:1994  function toShortString(string memory str) internal pure returns (ShortString) {... */\n  swap2\n  swap1\n  pop\n  jump\t// out\n    /* \"@openzeppelin/contracts/utils/StorageSlot.sol\":3135:3337  function getStringSlot(string storage store) internal pure returns (StringSlot storage r) {... */\ntag_34:\n    /* \"@openzeppelin/contracts/utils/StorageSlot.sol\":3203:3223  StringSlot storage r */\n  0x00\n    /* \"@openzeppelin/contracts/utils/StorageSlot.sol\":3311:3321  store.slot */\n  dup2\n    /* \"@openzeppelin/contracts/utils/StorageSlot.sol\":3301:3321  r.slot := store.slot */\n  swap1\n  pop\n    /* \"@openzeppelin/contracts/utils/StorageSlot.sol\":3135:3337  function getStringSlot(string storage store) internal pure returns (StringSlot storage r) {... */\n  swap2\n  swap1\n  pop\n  jump\t// out\n    /* \"@openzeppelin/contracts/token/ERC20/ERC20.sol\":6271:7378  function _update(address from, address to, uint256 value) internal virtual {... */\ntag_44:\n    /* \"@openzeppelin/contracts/token/ERC20/ERC20.sol\":6376:6377  0 */\n  0x00\n    /* \"@openzeppelin/contracts/token/ERC20/ERC20.sol\":6360:6378  from == address(0) */\n  0xffffffffffffffffffffffffffffffffffffffff\n  and\n    /* \"@openzeppelin/contracts/token/ERC20/ERC20.sol\":6360:6364  from */\n  dup4\n    /* \"@openzeppelin/contracts/token/ERC20/ERC20.sol\":6360:6378  from == address(0) */\n  0xffffffffffffffffffffffffffffffffffffffff\n  and\n  sub\n    /* \"@openzeppelin/contracts/token/ERC20/ERC20.sol\":6356:6896  if (from == address(0)) {... */\n  tag_53\n  jumpi\n    /* \"@openzeppelin/contracts/token/ERC20/ERC20.sol\":6512:6517  value */\n  dup1\n    /* \"@openzeppelin/contracts/token/ERC20/ERC20.sol\":6496:6508  _totalSupply */\n  0x02\n  0x00\n    /* \"@openzeppelin/contracts/token/ERC20/ERC20.sol\":6496:6517  _totalSupply += value */\n  dup3\n  dup3\n  sload\n  tag_54\n  swap2\n  swap1\n  tag_55\n  jump\t// in\ntag_54:\n  swap3\n  pop\n  pop\n  dup2\n  swap1\n  sstore\n  pop\n    /* \"@openzeppelin/contracts/token/ERC20/ERC20.sol\":6356:6896  if (from == address(0)) {... */\n  jump(tag_56)\ntag_53:\n    /* \"@openzeppelin/contracts/token/ERC20/ERC20.sol\":6548:6567  uint256 fromBalance */\n  0x00\n    /* \"@openzeppelin/contracts/token/ERC20/ERC20.sol\":6570:6579  _balances */\n  dup1\n    /* \"@openzeppelin/contracts/token/ERC20/ERC20.sol\":6570:6585  _balances[from] */\n  0x00\n    /* \"@openzeppelin/contracts/token/ERC20/ERC20.sol\":6580:6584  from */\n  dup6\n    /* \"@openzeppelin/contracts/token/ERC20/ERC20.sol\":6570:6585  _balances[from] */\n  0xffffffffffffffffffffffffffffffffffffffff\n  and\n  0xffffffffffffffffffffffffffffffffffffffff\n  and\n  dup2\n  mstore\n  0x20\n  add\n  swap1\n  dup2\n  mstore\n  0x20\n  add\n  0x00\n  keccak256\n  sload\n    /* \"@openzeppelin/contracts/token/ERC20/ERC20.sol\":6548:6585  uint256 fromBalance = _balances[from] */\n  swap1\n  pop\n    /* \"@openzeppelin/contracts/token/ERC20/ERC20.sol\":6617:6622  value */\n  dup2\n    /* \"@openzeppelin/contracts/token/ERC20/ERC20.sol\":6603:6614  fromBalance */\n  dup2\n    /* \"@openzeppelin/contracts/token/ERC20/ERC20.sol\":6603:6622  fromBalance < value */\n  lt\n    /* \"@openzeppelin/contracts/token/ERC20/ERC20.sol\":6599:6714  if (fromBalance < value) {... */\n  iszero\n  tag_57\n  jumpi\n    /* \"@openzeppelin/contracts/token/ERC20/ERC20.sol\":6674:6678  from */\n  dup4\n    /* \"@openzeppelin/contracts/token/ERC20/ERC20.sol\":6680:6691  fromBalance */\n  dup2\n    /* \"@openzeppelin/contracts/token/ERC20/ERC20.sol\":6693:6698  value */\n  dup4\n    /* \"@openzeppelin/contracts/token/ERC20/ERC20.sol\":6649:6699  ERC20InsufficientBalance(from, fromBalance, value) */\n  mload(0x40)\n  0xe450d38c00000000000000000000000000000000000000000000000000000000\n  dup2\n  mstore\n  0x04\n  add\n  tag_58\n  swap4\n  swap3\n  swap2\n  swap1\n  tag_59\n  jump\t// in\ntag_58:\n  mload(0x40)\n  dup1\n  swap2\n  sub\n  swap1\n  revert\n    /* \"@openzeppelin/contracts/token/ERC20/ERC20.sol\":6599:6714  if (fromBalance < value) {... */\ntag_57:\n    /* \"@openzeppelin/contracts/token/ERC20/ERC20.sol\":6866:6871  value */\n  dup2\n    /* \"@openzeppelin/contracts/token/ERC20/ERC20.sol\":6852:6863  fromBalance */\n  dup2\n    /* \"@openzeppelin/contracts/token/ERC20/ERC20.sol\":6852:6871  fromBalance - value */\n  sub\n    /* \"@openzeppelin/contracts/token/ERC20/ERC20.sol\":6834:6843  _balances */\n  0x00\n    /* \"@openzeppelin/contracts/token/ERC20/ERC20.sol\":6834:6849  _balances[from] */\n  dup1\n    /* \"@openzeppelin/contracts/token/ERC20/ERC20.sol\":6844:6848  from */\n  dup7\n    /* \"@openzeppelin/contracts/token/ERC20/ERC20.sol\":6834:6849  _balances[from] */\n  0xffffffffffffffffffffffffffffffffffffffff\n  and\n  0xffffffffffffffffffffffffffffffffffffffff\n  and\n  dup2\n  mstore\n  0x20\n  add\n  swap1\n  dup2\n  mstore\n  0x20\n  add\n  0x00\n  keccak256\n    /* \"@openzeppelin/contracts/token/ERC20/ERC20.sol\":6834:6871  _balances[from] = fromBalance - value */\n  dup2\n  swap1\n  sstore\n  pop\n    /* \"@openzeppelin/contracts/token/ERC20/ERC20.sol\":6534:6896  {... */\n  pop\n    /* \"@openzeppelin/contracts/token/ERC20/ERC20.sol\":6356:6896  if (from == address(0)) {... */\ntag_56:\n    /* \"@openzeppelin/contracts/token/ERC20/ERC20.sol\":6924:6925  0 */\n  0x00\n    /* \"@openzeppelin/contracts/token/ERC20/ERC20.sol\":6910:6926  to == address(0) */\n  0xffffffffffffffffffffffffffffffffffffffff\n  and\n    /* \"@openzeppelin/contracts/token/ERC20/ERC20.sol\":6910:6912  to */\n  dup3\n    /* \"@openzeppelin/contracts/token/ERC20/ERC20.sol\":6910:6926  to == address(0) */\n  0xffffffffffffffffffffffffffffffffffffffff\n  and\n  sub\n    /* \"@openzeppelin/contracts/token/ERC20/ERC20.sol\":6906:7331  if (to == address(0)) {... */\n  tag_60\n  jumpi\n    /* \"@openzeppelin/contracts/token/ERC20/ERC20.sol\":7089:7094  value */\n  dup1\n    /* \"@openzeppelin/contracts/token/ERC20/ERC20.sol\":7073:7085  _totalSupply */\n  0x02\n  0x00\n    /* \"@openzeppelin/contracts/token/ERC20/ERC20.sol\":7073:7094  _totalSupply -= value */\n  dup3\n  dup3\n  sload\n  sub\n  swap3\n  pop\n  pop\n  dup2\n  swap1\n  sstore\n  pop\n    /* \"@openzeppelin/contracts/token/ERC20/ERC20.sol\":6906:7331  if (to == address(0)) {... */\n  jump(tag_61)\ntag_60:\n    /* \"@openzeppelin/contracts/token/ERC20/ERC20.sol\":7301:7306  value */\n  dup1\n    /* \"@openzeppelin/contracts/token/ERC20/ERC20.sol\":7284:7293  _balances */\n  0x00\n    /* \"@openzeppelin/contracts/token/ERC20/ERC20.sol\":7284:7297  _balances[to] */\n  dup1\n    /* \"@openzeppelin/contracts/token/ERC20/ERC20.sol\":7294:7296  to */\n  dup5\n    /* \"@openzeppelin/contracts/token/ERC20/ERC20.sol\":7284:7297  _balances[to] */\n  0xffffffffffffffffffffffffffffffffffffffff\n  and\n  0xffffffffffffffffffffffffffffffffffffffff\n  and\n  dup2\n  mstore\n  0x20\n  add\n  swap1\n  dup2\n  mstore\n  0x20\n  add\n  0x00\n  keccak256\n  0x00\n    /* \"@openzeppelin/contracts/token/ERC20/ERC20.sol\":7284:7306  _balances[to] += value */\n  dup3\n  dup3\n  sload\n  add\n  swap3\n  pop\n  pop\n  dup2\n  swap1\n  sstore\n  pop\n    /* \"@openzeppelin/contracts/token/ERC20/ERC20.sol\":6906:7331  if (to == address(0)) {... */\ntag_61:\n    /* \"@openzeppelin/contracts/token/ERC20/ERC20.sol\":7361:7363  to */\n  dup2\n    /* \"@openzeppelin/contracts/token/ERC20/ERC20.sol\":7346:7371  Transfer(from, to, value) */\n  0xffffffffffffffffffffffffffffffffffffffff\n  and\n    /* \"@openzeppelin/contracts/token/ERC20/ERC20.sol\":7355:7359  from */\n  dup4\n    /* \"@openzeppelin/contracts/token/ERC20/ERC20.sol\":7346:7371  Transfer(from, to, value) */\n  0xffffffffffffffffffffffffffffffffffffffff\n  and\n  0xddf252ad1be2c89b69c2b068fc378daa952ba7f163c4a11628f55a4df523b3ef\n    /* \"@openzeppelin/contracts/token/ERC20/ERC20.sol\":7365:7370  value */\n  dup4\n    /* \"@openzeppelin/contracts/token/ERC20/ERC20.sol\":7346:7371  Transfer(from, to, value) */\n  mload(0x40)\n  tag_62\n  swap2\n  swap1\n  tag_63\n  jump\t// in\ntag_62:\n  mload(0x40)\n  dup1\n  swap2\n  sub\n  swap1\n  log3\n    /* \"@openzeppelin/contracts/token/ERC20/ERC20.sol\":6271:7378  function _update(address from, address to, uint256 value) internal virtual {... */\n  pop\n  pop\n  pop\n  jump\t// out\n    /* \"#utility.yul\":7:187   */\ntag_64:\n    /* \"#utility.yul\":55:132   */\n  0x4e487b7100000000000000000000000000000000000000000000000000000000\n    /* \"#utility.yul\":52:53   */\n  0x00\n    /* \"#utility.yul\":45:133   */\n  mstore\n    /* \"#utility.yul\":152:156   */\n  0x11\n    /* \"#utility.yul\":149:150   */\n  0x04\n    /* \"#utility.yul\":142:157   */\n  mstore\n    /* \"#utility.yul\":176:180   */\n  0x24\n    /* \"#utility.yul\":173:174   */\n  0x00\n    /* \"#utility.yul\":166:181   */\n  revert\n    /* \"#utility.yul\":193:295   */\ntag_65:\n    /* \"#utility.yul\":235:243   */\n  0x00\n    /* \"#utility.yul\":282:287   */\n  dup2\n    /* \"#utility.yul\":279:280   */\n  0x01\n    /* \"#utility.yul\":275:288   */\n  shr\n    /* \"#utility.yul\":254:288   */\n  swap1\n  pop\n    /* \"#utility.yul\":193:295   */\n  swap2\n  swap1\n  pop\n  jump\t// out\n    /* \"#utility.yul\":301:1149   */\ntag_66:\n    /* \"#utility.yul\":362:367   */\n  0x00\n    /* \"#utility.yul\":369:373   */\n  dup1\n    /* \"#utility.yul\":393:399   */\n  dup3\n    /* \"#utility.yul\":384:399   */\n  swap2\n  pop\n    /* \"#utility.yul\":417:422   */\n  dup4\n    /* \"#utility.yul\":408:422   */\n  swap1\n  pop\n    /* \"#utility.yul\":431:1143   */\ntag_106:\n    /* \"#utility.yul\":452:453   */\n  0x01\n    /* \"#utility.yul\":442:450   */\n  dup6\n    /* \"#utility.yul\":439:454   */\n  gt\n    /* \"#utility.yul\":431:1143   */\n  iszero\n  tag_108\n  jumpi\n    /* \"#utility.yul\":547:551   */\n  dup1\n    /* \"#utility.yul\":542:545   */\n  dup7\n    /* \"#utility.yul\":538:552   */\n  div\n    /* \"#utility.yul\":532:536   */\n  dup2\n    /* \"#utility.yul\":529:553   */\n  gt\n    /* \"#utility.yul\":526:576   */\n  iszero\n  tag_109\n  jumpi\n    /* \"#utility.yul\":556:574   */\n  tag_110\n  tag_64\n  jump\t// in\ntag_110:\n    /* \"#utility.yul\":526:576   */\ntag_109:\n    /* \"#utility.yul\":606:607   */\n  0x01\n    /* \"#utility.yul\":596:604   */\n  dup6\n    /* \"#utility.yul\":592:608   */\n  and\n    /* \"#utility.yul\":589:1040   */\n  iszero\n  tag_111\n  jumpi\n    /* \"#utility.yul\":1021:1025   */\n  dup1\n    /* \"#utility.yul\":1014:1019   */\n  dup3\n    /* \"#utility.yul\":1010:1026   */\n  mul\n    /* \"#utility.yul\":1001:1026   */\n  swap2\n  pop\n    /* \"#utility.yul\":589:1040   */\ntag_111:\n    /* \"#utility.yul\":1071:1075   */\n  dup1\n    /* \"#utility.yul\":1065:1069   */\n  dup2\n    /* \"#utility.yul\":1061:1076   */\n  mul\n    /* \"#utility.yul\":1053:1076   */\n  swap1\n  pop\n    /* \"#utility.yul\":1101:1133   */\n  tag_112\n    /* \"#utility.yul\":1124:1132   */\n  dup6\n    /* \"#utility.yul\":1101:1133   */\n  tag_65\n  jump\t// in\ntag_112:\n    /* \"#utility.yul\":1089:1133   */\n  swap5\n  pop\n    /* \"#utility.yul\":431:1143   */\n  jump(tag_106)\ntag_108:\n    /* \"#utility.yul\":301:1149   */\n  swap5\n  pop\n  swap5\n  swap3\n  pop\n  pop\n  pop\n  jump\t// out\n    /* \"#utility.yul\":1155:2228   */\ntag_67:\n    /* \"#utility.yul\":1209:1214   */\n  0x00\n    /* \"#utility.yul\":1400:1408   */\n  dup3\n    /* \"#utility.yul\":1390:1430   */\n  tag_114\n  jumpi\n    /* \"#utility.yul\":1421:1422   */\n  0x01\n    /* \"#utility.yul\":1412:1422   */\n  swap1\n  pop\n    /* \"#utility.yul\":1423:1428   */\n  jump(tag_113)\n    /* \"#utility.yul\":1390:1430   */\ntag_114:\n    /* \"#utility.yul\":1449:1453   */\n  dup2\n    /* \"#utility.yul\":1439:1475   */\n  tag_115\n  jumpi\n    /* \"#utility.yul\":1466:1467   */\n  0x00\n    /* \"#utility.yul\":1457:1467   */\n  swap1\n  pop\n    /* \"#utility.yul\":1468:1473   */\n  jump(tag_113)\n    /* \"#utility.yul\":1439:1475   */\ntag_115:\n    /* \"#utility.yul\":1535:1539   */\n  dup2\n    /* \"#utility.yul\":1583:1584   */\n  0x01\n    /* \"#utility.yul\":1578:1605   */\n  dup2\n  eq\n  tag_117\n  jumpi\n    /* \"#utility.yul\":1619:1620   */\n  0x02\n    /* \"#utility.yul\":1614:1805   */\n  dup2\n  eq\n  tag_118\n  jumpi\n    /* \"#utility.yul\":1528:1805   */\n  jump(tag_116)\n    /* \"#utility.yul\":1578:1605   */\ntag_117:\n    /* \"#utility.yul\":1596:1597   */\n  0x01\n    /* \"#utility.yul\":1587:1597   */\n  swap2\n  pop\n    /* \"#utility.yul\":1598:1603   */\n  pop\n  jump(tag_113)\n    /* \"#utility.yul\":1614:1805   */\ntag_118:\n    /* \"#utility.yul\":1659:1662   */\n  0xff\n    /* \"#utility.yul\":1649:1657   */\n  dup5\n    /* \"#utility.yul\":1646:1663   */\n  gt\n    /* \"#utility.yul\":1643:1686   */\n  iszero\n  tag_119\n  jumpi\n    /* \"#utility.yul\":1666:1684   */\n  tag_120\n  tag_64\n  jump\t// in\ntag_120:\n    /* \"#utility.yul\":1643:1686   */\ntag_119:\n    /* \"#utility.yul\":1715:1723   */\n  dup4\n    /* \"#utility.yul\":1712:1713   */\n  0x02\n    /* \"#utility.yul\":1708:1724   */\n  exp\n    /* \"#utility.yul\":1699:1724   */\n  swap2\n  pop\n    /* \"#utility.yul\":1750:1753   */\n  dup5\n    /* \"#utility.yul\":1743:1748   */\n  dup3\n    /* \"#utility.yul\":1740:1754   */\n  gt\n    /* \"#utility.yul\":1737:1777   */\n  iszero\n  tag_121\n  jumpi\n    /* \"#utility.yul\":1757:1775   */\n  tag_122\n  tag_64\n  jump\t// in\ntag_122:\n    /* \"#utility.yul\":1737:1777   */\ntag_121:\n    /* \"#utility.yul\":1790:1795   */\n  pop\n  jump(tag_113)\n    /* \"#utility.yul\":1528:1805   */\ntag_116:\n  pop\n    /* \"#utility.yul\":1914:1916   */\n  0x20\n    /* \"#utility.yul\":1904:1912   */\n  dup4\n    /* \"#utility.yul\":1901:1917   */\n  lt\n    /* \"#utility.yul\":1895:1898   */\n  0x0133\n    /* \"#utility.yul\":1889:1893   */\n  dup4\n    /* \"#utility.yul\":1886:1899   */\n  lt\n    /* \"#utility.yul\":1882:1918   */\n  and\n    /* \"#utility.yul\":1864:1866   */\n  0x4e\n    /* \"#utility.yul\":1854:1862   */\n  dup5\n    /* \"#utility.yul\":1851:1867   */\n  lt\n    /* \"#utility.yul\":1846:1848   */\n  0x0b\n    /* \"#utility.yul\":1840:1844   */\n  dup5\n    /* \"#utility.yul\":1837:1849   */\n  lt\n    /* \"#utility.yul\":1833:1868   */\n  and\n    /* \"#utility.yul\":1817:1928   */\n  or\n    /* \"#utility.yul\":1814:2060   */\n  iszero\n  tag_123\n  jumpi\n    /* \"#utility.yul\":1970:1978   */\n  dup3\n    /* \"#utility.yul\":1964:1968   */\n  dup3\n    /* \"#utility.yul\":1960:1979   */\n  exp\n    /* \"#utility.yul\":1951:1979   */\n  swap1\n  pop\n    /* \"#utility.yul\":2005:2008   */\n  dup4\n    /* \"#utility.yul\":1998:2003   */\n  dup2\n    /* \"#utility.yul\":1995:2009   */\n  gt\n    /* \"#utility.yul\":1992:2032   */\n  iszero\n  tag_124\n  jumpi\n    /* \"#utility.yul\":2012:2030   */\n  tag_125\n  tag_64\n  jump\t// in\ntag_125:\n    /* \"#utility.yul\":1992:2032   */\ntag_124:\n    /* \"#utility.yul\":2045:2050   */\n  jump(tag_113)\n    /* \"#utility.yul\":1814:2060   */\ntag_123:\n    /* \"#utility.yul\":2085:2127   */\n  tag_126\n    /* \"#utility.yul\":2123:2126   */\n  dup5\n    /* \"#utility.yul\":2113:2121   */\n  dup5\n    /* \"#utility.yul\":2107:2111   */\n  dup5\n    /* \"#utility.yul\":2104:2105   */\n  0x01\n    /* \"#utility.yul\":2085:2127   */\n  tag_66\n  jump\t// in\ntag_126:\n    /* \"#utility.yul\":2070:2127   */\n  swap3\n  pop\n  swap1\n  pop\n    /* \"#utility.yul\":2159:2163   */\n  dup2\n    /* \"#utility.yul\":2154:2157   */\n  dup5\n    /* \"#utility.yul\":2150:2164   */\n  div\n    /* \"#utility.yul\":2143:2148   */\n  dup2\n    /* \"#utility.yul\":2140:2165   */\n  gt\n    /* \"#utility.yul\":2137:2188   */\n  iszero\n  tag_127\n  jumpi\n    /* \"#utility.yul\":2168:2186   */\n  tag_128\n  tag_64\n  jump\t// in\ntag_128:\n    /* \"#utility.yul\":2137:2188   */\ntag_127:\n    /* \"#utility.yul\":2217:2221   */\n  dup2\n    /* \"#utility.yul\":2210:2215   */\n  dup2\n    /* \"#utility.yul\":2206:2222   */\n  mul\n    /* \"#utility.yul\":2197:2222   */\n  swap1\n  pop\n    /* \"#utility.yul\":1155:2228   */\ntag_113:\n  swap4\n  swap3\n  pop\n  pop\n  pop\n  jump\t// out\n    /* \"#utility.yul\":2234:2311   */\ntag_68:\n    /* \"#utility.yul\":2271:2278   */\n  0x00\n    /* \"#utility.yul\":2300:2305   */\n  dup2\n    /* \"#utility.yul\":2289:2305   */\n  swap1\n  pop\n    /* \"#utility.yul\":2234:2311   */\n  swap2\n  swap1\n  pop\n  jump\t// out\n    /* \"#utility.yul\":2317:2403   */\ntag_69:\n    /* \"#utility.yul\":2352:2359   */\n  0x00\n    /* \"#utility.yul\":2392:2396   */\n  0xff\n    /* \"#utility.yul\":2385:2390   */\n  dup3\n    /* \"#utility.yul\":2381:2397   */\n  and\n    /* \"#utility.yul\":2370:2397   */\n  swap1\n  pop\n    /* \"#utility.yul\":2317:2403   */\n  swap2\n  swap1\n  pop\n  jump\t// out\n    /* \"#utility.yul\":2409:2690   */\ntag_4:\n    /* \"#utility.yul\":2467:2472   */\n  0x00\n    /* \"#utility.yul\":2491:2514   */\n  tag_132\n    /* \"#utility.yul\":2509:2513   */\n  dup3\n    /* \"#utility.yul\":2491:2514   */\n  tag_68\n  jump\t// in\ntag_132:\n    /* \"#utility.yul\":2483:2514   */\n  swap2\n  pop\n    /* \"#utility.yul\":2535:2560   */\n  tag_133\n    /* \"#utility.yul\":2551:2559   */\n  dup4\n    /* \"#utility.yul\":2535:2560   */\n  tag_69\n  jump\t// in\ntag_133:\n    /* \"#utility.yul\":2523:2560   */\n  swap3\n  pop\n    /* \"#utility.yul\":2579:2683   */\n  tag_134\n    /* \"#utility.yul\":2616:2682   */\n  0xffffffffffffffffffffffffffffffffffffffffffffffffffffffffffffffff\n    /* \"#utility.yul\":2606:2614   */\n  dup5\n    /* \"#utility.yul\":2600:2604   */\n  dup5\n    /* \"#utility.yul\":2579:2683   */\n  tag_67\n  jump\t// in\ntag_134:\n    /* \"#utility.yul\":2570:2683   */\n  swap1\n  pop\n    /* \"#utility.yul\":2409:2690   */\n  swap3\n  swap2\n  pop\n  pop\n  jump\t// out\n    /* \"#utility.yul\":2696:3106   */\ntag_6:\n    /* \"#utility.yul\":2736:2743   */\n  0x00\n    /* \"#utility.yul\":2759:2779   */\n  tag_136\n    /* \"#utility.yul\":2777:2778   */\n  dup3\n    /* \"#utility.yul\":2759:2779   */\n  tag_68\n  jump\t// in\ntag_136:\n    /* \"#utility.yul\":2754:2779   */\n  swap2\n  pop\n    /* \"#utility.yul\":2793:2813   */\n  tag_137\n    /* \"#utility.yul\":2811:2812   */\n  dup4\n    /* \"#utility.yul\":2793:2813   */\n  tag_68\n  jump\t// in\ntag_137:\n    /* \"#utility.yul\":2788:2813   */\n  swap3\n  pop\n    /* \"#utility.yul\":2848:2849   */\n  dup3\n    /* \"#utility.yul\":2845:2846   */\n  dup3\n    /* \"#utility.yul\":2841:2850   */\n  mul\n    /* \"#utility.yul\":2870:2900   */\n  tag_138\n    /* \"#utility.yul\":2888:2899   */\n  dup2\n    /* \"#utility.yul\":2870:2900   */\n  tag_68\n  jump\t// in\ntag_138:\n    /* \"#utility.yul\":2859:2900   */\n  swap2\n  pop\n    /* \"#utility.yul\":3049:3050   */\n  dup3\n    /* \"#utility.yul\":3040:3047   */\n  dup3\n    /* \"#utility.yul\":3036:3051   */\n  div\n    /* \"#utility.yul\":3033:3034   */\n  dup5\n    /* \"#utility.yul\":3030:3052   */\n  eq\n    /* \"#utility.yul\":3010:3011   */\n  dup4\n    /* \"#utility.yul\":3003:3012   */\n  iszero\n    /* \"#utility.yul\":2983:3066   */\n  or\n    /* \"#utility.yul\":2960:3099   */\n  tag_139\n  jumpi\n    /* \"#utility.yul\":3079:3097   */\n  tag_140\n  tag_64\n  jump\t// in\ntag_140:\n    /* \"#utility.yul\":2960:3099   */\ntag_139:\n    /* \"#utility.yul\":2744:3106   */\n  pop\n    /* \"#utility.yul\":2696:3106   */\n  swap3\n  swap2\n  pop\n  pop\n  jump\t// out\n    /* \"#utility.yul\":3112:3211   */\ntag_70:\n    /* \"#utility.yul\":3164:3170   */\n  0x00\n    /* \"#utility.yul\":3198:3203   */\n  dup2\n    /* \"#utility.yul\":3192:3204   */\n  mload\n    /* \"#utility.yul\":3182:3204   */\n  swap1\n  pop\n    /* \"#utility.yul\":3112:3211   */\n  swap2\n  swap1\n  pop\n  jump\t// out\n    /* \"#utility.yul\":3217:3397   */\ntag_71:\n    /* \"#utility.yul\":3265:3342   */\n  0x4e487b7100000000000000000000000000000000000000000000000000000000\n    /* \"#utility.yul\":3262:3263   */\n  0x00\n    /* \"#utility.yul\":3255:3343   */\n  mstore\n    /* \"#utility.yul\":3362:3366   */\n  0x41\n    /* \"#utility.yul\":3359:3360   */\n  0x04\n    /* \"#utility.yul\":3352:3367   */\n  mstore\n    /* \"#utility.yul\":3386:3390   */\n  0x24\n    /* \"#utility.yul\":3383:3384   */\n  0x00\n    /* \"#utility.yul\":3376:3391   */\n  revert\n    /* \"#utility.yul\":3403:3583   */\ntag_72:\n    /* \"#utility.yul\":3451:3528   */\n  0x4e487b7100000000000000000000000000000000000000000000000000000000\n    /* \"#utility.yul\":3448:3449   */\n  0x00\n    /* \"#utility.yul\":3441:3529   */\n  mstore\n    /* \"#utility.yul\":3548:3552   */\n  0x22\n    /* \"#utility.yul\":3545:3546   */\n  0x04\n    /* \"#utility.yul\":3538:3553   */\n  mstore\n    /* \"#utility.yul\":3572:3576   */\n  0x24\n    /* \"#utility.yul\":3569:3570   */\n  0x00\n    /* \"#utility.yul\":3562:3577   */\n  revert\n    /* \"#utility.yul\":3589:3909   */\ntag_73:\n    /* \"#utility.yul\":3633:3639   */\n  0x00\n    /* \"#utility.yul\":3670:3671   */\n  0x02\n    /* \"#utility.yul\":3664:3668   */\n  dup3\n    /* \"#utility.yul\":3660:3672   */\n  div\n    /* \"#utility.yul\":3650:3672   */\n  swap1\n  pop\n    /* \"#utility.yul\":3717:3718   */\n  0x01\n    /* \"#utility.yul\":3711:3715   */\n  dup3\n    /* \"#utility.yul\":3707:3719   */\n  and\n    /* \"#utility.yul\":3738:3756   */\n  dup1\n    /* \"#utility.yul\":3728:3809   */\n  tag_145\n  jumpi\n    /* \"#utility.yul\":3794:3798   */\n  0x7f\n    /* \"#utility.yul\":3786:3792   */\n  dup3\n    /* \"#utility.yul\":3782:3799   */\n  and\n    /* \"#utility.yul\":3772:3799   */\n  swap2\n  pop\n    /* \"#utility.yul\":3728:3809   */\ntag_145:\n    /* \"#utility.yul\":3856:3858   */\n  0x20\n    /* \"#utility.yul\":3848:3854   */\n  dup3\n    /* \"#utility.yul\":3845:3859   */\n  lt\n    /* \"#utility.yul\":3825:3843   */\n  dup2\n    /* \"#utility.yul\":3822:3860   */\n  sub\n    /* \"#utility.yul\":3819:3903   */\n  tag_146\n  jumpi\n    /* \"#utility.yul\":3875:3893   */\n  tag_147\n  tag_72\n  jump\t// in\ntag_147:\n    /* \"#utility.yul\":3819:3903   */\ntag_146:\n    /* \"#utility.yul\":3640:3909   */\n  pop\n    /* \"#utility.yul\":3589:3909   */\n  swap2\n  swap1\n  pop\n  jump\t// out\n    /* \"#utility.yul\":3915:4056   */\ntag_74:\n    /* \"#utility.yul\":3964:3968   */\n  0x00\n    /* \"#utility.yul\":3987:3990   */\n  dup2\n    /* \"#utility.yul\":3979:3990   */\n  swap1\n  pop\n    /* \"#utility.yul\":4010:4013   */\n  dup2\n    /* \"#utility.yul\":4007:4008   */\n  0x00\n    /* \"#utility.yul\":4000:4014   */\n  mstore\n    /* \"#utility.yul\":4044:4048   */\n  0x20\n    /* \"#utility.yul\":4041:4042   */\n  0x00\n    /* \"#utility.yul\":4031:4049   */\n  keccak256\n    /* \"#utility.yul\":4023:4049   */\n  swap1\n  pop\n    /* \"#utility.yul\":3915:4056   */\n  swap2\n  swap1\n  pop\n  jump\t// out\n    /* \"#utility.yul\":4062:4155   */\ntag_75:\n    /* \"#utility.yul\":4099:4105   */\n  0x00\n    /* \"#utility.yul\":4146:4148   */\n  0x20\n    /* \"#utility.yul\":4141:4143   */\n  0x1f\n    /* \"#utility.yul\":4134:4139   */\n  dup4\n    /* \"#utility.yul\":4130:4144   */\n  add\n    /* \"#utility.yul\":4126:4149   */\n  div\n    /* \"#utility.yul\":4116:4149   */\n  swap1\n  pop\n    /* \"#utility.yul\":4062:4155   */\n  swap2\n  swap1\n  pop\n  jump\t// out\n    /* \"#utility.yul\":4161:4268   */\ntag_76:\n    /* \"#utility.yul\":4205:4213   */\n  0x00\n    /* \"#utility.yul\":4255:4260   */\n  dup3\n    /* \"#utility.yul\":4249:4253   */\n  dup3\n    /* \"#utility.yul\":4245:4261   */\n  shl\n    /* \"#utility.yul\":4224:4261   */\n  swap1\n  pop\n    /* \"#utility.yul\":4161:4268   */\n  swap3\n  swap2\n  pop\n  pop\n  jump\t// out\n    /* \"#utility.yul\":4274:4667   */\ntag_77:\n    /* \"#utility.yul\":4343:4349   */\n  0x00\n    /* \"#utility.yul\":4393:4394   */\n  0x08\n    /* \"#utility.yul\":4381:4391   */\n  dup4\n    /* \"#utility.yul\":4377:4395   */\n  mul\n    /* \"#utility.yul\":4416:4513   */\n  tag_152\n    /* \"#utility.yul\":4446:4512   */\n  0xffffffffffffffffffffffffffffffffffffffffffffffffffffffffffffffff\n    /* \"#utility.yul\":4435:4444   */\n  dup3\n    /* \"#utility.yul\":4416:4513   */\n  tag_76\n  jump\t// in\ntag_152:\n    /* \"#utility.yul\":4534:4573   */\n  tag_153\n    /* \"#utility.yul\":4564:4572   */\n  dup7\n    /* \"#utility.yul\":4553:4562   */\n  dup4\n    /* \"#utility.yul\":4534:4573   */\n  tag_76\n  jump\t// in\ntag_153:\n    /* \"#utility.yul\":4522:4573   */\n  swap6\n  pop\n    /* \"#utility.yul\":4606:4610   */\n  dup1\n    /* \"#utility.yul\":4602:4611   */\n  not\n    /* \"#utility.yul\":4595:4600   */\n  dup5\n    /* \"#utility.yul\":4591:4612   */\n  and\n    /* \"#utility.yul\":4582:4612   */\n  swap4\n  pop\n    /* \"#utility.yul\":4655:4659   */\n  dup1\n    /* \"#utility.yul\":4645:4653   */\n  dup7\n    /* \"#utility.yul\":4641:4660   */\n  and\n    /* \"#utility.yul\":4634:4639   */\n  dup5\n    /* \"#utility.yul\":4631:4661   */\n  or\n    /* \"#utility.yul\":4621:4661   */\n  swap3\n  pop\n    /* \"#utility.yul\":4350:4667   */\n  pop\n  pop\n    /* \"#utility.yul\":4274:4667   */\n  swap4\n  swap3\n  pop\n  pop\n  pop\n  jump\t// out\n    /* \"#utility.yul\":4673:4733   */\ntag_78:\n    /* \"#utility.yul\":4701:4704   */\n  0x00\n    /* \"#utility.yul\":4722:4727   */\n  dup2\n    /* \"#utility.yul\":4715:4727   */\n  swap1\n  pop\n    /* \"#utility.yul\":4673:4733   */\n  swap2\n  swap1\n  pop\n  jump\t// out\n    /* \"#utility.yul\":4739:4881   */\ntag_79:\n    /* \"#utility.yul\":4789:4798   */\n  0x00\n    /* \"#utility.yul\":4822:4875   */\n  tag_156\n    /* \"#utility.yul\":4840:4874   */\n  tag_157\n    /* \"#utility.yul\":4849:4873   */\n  tag_158\n    /* \"#utility.yul\":4867:4872   */\n  dup5\n    /* \"#utility.yul\":4849:4873   */\n  tag_68\n  jump\t// in\ntag_158:\n    /* \"#utility.yul\":4840:4874   */\n  tag_78\n  jump\t// in\ntag_157:\n    /* \"#utility.yul\":4822:4875   */\n  tag_68\n  jump\t// in\ntag_156:\n    /* \"#utility.yul\":4809:4875   */\n  swap1\n  pop\n    /* \"#utility.yul\":4739:4881   */\n  swap2\n  swap1\n  pop\n  jump\t// out\n    /* \"#utility.yul\":4887:4962   */\ntag_80:\n    /* \"#utility.yul\":4930:4933   */\n  0x00\n    /* \"#utility.yul\":4951:4956   */\n  dup2\n    /* \"#utility.yul\":4944:4956   */\n  swap1\n  pop\n    /* \"#utility.yul\":4887:4962   */\n  swap2\n  swap1\n  pop\n  jump\t// out\n    /* \"#utility.yul\":4968:5237   */\ntag_81:\n    /* \"#utility.yul\":5078:5117   */\n  tag_161\n    /* \"#utility.yul\":5109:5116   */\n  dup4\n    /* \"#utility.yul\":5078:5117   */\n  tag_79\n  jump\t// in\ntag_161:\n    /* \"#utility.yul\":5139:5230   */\n  tag_162\n    /* \"#utility.yul\":5188:5229   */\n  tag_163\n    /* \"#utility.yul\":5212:5228   */\n  dup3\n    /* \"#utility.yul\":5188:5229   */\n  tag_80\n  jump\t// in\ntag_163:\n    /* \"#utility.yul\":5180:5186   */\n  dup5\n    /* \"#utility.yul\":5173:5177   */\n  dup5\n    /* \"#utility.yul\":5167:5178   */\n  sload\n    /* \"#utility.yul\":5139:5230   */\n  tag_77\n  jump\t// in\ntag_162:\n    /* \"#utility.yul\":5133:5137   */\n  dup3\n    /* \"#utility.yul\":5126:5231   */\n  sstore\n    /* \"#utility.yul\":5044:5237   */\n  pop\n    /* \"#utility.yul\":4968:5237   */\n  pop\n  pop\n  pop\n  jump\t// out\n    /* \"#utility.yul\":5243:5316   */\ntag_82:\n    /* \"#utility.yul\":5288:5291   */\n  0x00\n    /* \"#utility.yul\":5243:5316   */\n  swap1\n  jump\t// out\n    /* \"#utility.yul\":5322:5511   */\ntag_83:\n    /* \"#utility.yul\":5399:5431   */\n  tag_166\n  tag_82\n  jump\t// in\ntag_166:\n    /* \"#utility.yul\":5440:5505   */\n  tag_167\n    /* \"#utility.yul\":5498:5504   */\n  dup2\n    /* \"#utility.yul\":5490:5496   */\n  dup5\n    /* \"#utility.yul\":5484:5488   */\n  dup5\n    /* \"#utility.yul\":5440:5505   */\n  tag_81\n  jump\t// in\ntag_167:\n    /* \"#utility.yul\":5375:5511   */\n  pop\n    /* \"#utility.yul\":5322:5511   */\n  pop\n  pop\n  jump\t// out\n    /* \"#utility.yul\":5517:5703   */\ntag_84:\n    /* \"#utility.yul\":5577:5697   */\ntag_169:\n    /* \"#utility.yul\":5594:5597   */\n  dup2\n    /* \"#utility.yul\":5587:5592   */\n  dup2\n    /* \"#utility.yul\":5584:5598   */\n  lt\n    /* \"#utility.yul\":5577:5697   */\n  iszero\n  tag_171\n  jumpi\n    /* \"#utility.yul\":5648:5687   */\n  tag_172\n    /* \"#utility.yul\":5685:5686   */\n  0x00\n    /* \"#utility.yul\":5678:5683   */\n  dup3\n    /* \"#utility.yul\":5648:5687   */\n  tag_83\n  jump\t// in\ntag_172:\n    /* \"#utility.yul\":5621:5622   */\n  0x01\n    /* \"#utility.yul\":5614:5619   */\n  dup2\n    /* \"#utility.yul\":5610:5623   */\n  add\n    /* \"#utility.yul\":5601:5623   */\n  swap1\n  pop\n    /* \"#utility.yul\":5577:5697   */\n  jump(tag_169)\ntag_171:\n    /* \"#utility.yul\":5517:5703   */\n  pop\n  pop\n  jump\t// out\n    /* \"#utility.yul\":5709:6252   */\ntag_85:\n    /* \"#utility.yul\":5810:5812   */\n  0x1f\n    /* \"#utility.yul\":5805:5808   */\n  dup3\n    /* \"#utility.yul\":5802:5813   */\n  gt\n    /* \"#utility.yul\":5799:6245   */\n  iszero\n  tag_174\n  jumpi\n    /* \"#utility.yul\":5844:5882   */\n  tag_175\n    /* \"#utility.yul\":5876:5881   */\n  dup2\n    /* \"#utility.yul\":5844:5882   */\n  tag_74\n  jump\t// in\ntag_175:\n    /* \"#utility.yul\":5928:5957   */\n  tag_176\n    /* \"#utility.yul\":5946:5956   */\n  dup5\n    /* \"#utility.yul\":5928:5957   */\n  tag_75\n  jump\t// in\ntag_176:\n    /* \"#utility.yul\":5918:5926   */\n  dup2\n    /* \"#utility.yul\":5914:5958   */\n  add\n    /* \"#utility.yul\":6111:6113   */\n  0x20\n    /* \"#utility.yul\":6099:6109   */\n  dup6\n    /* \"#utility.yul\":6096:6114   */\n  lt\n    /* \"#utility.yul\":6093:6142   */\n  iszero\n  tag_177\n  jumpi\n    /* \"#utility.yul\":6132:6140   */\n  dup2\n    /* \"#utility.yul\":6117:6140   */\n  swap1\n  pop\n    /* \"#utility.yul\":6093:6142   */\ntag_177:\n    /* \"#utility.yul\":6155:6235   */\n  tag_178\n    /* \"#utility.yul\":6211:6233   */\n  tag_179\n    /* \"#utility.yul\":6229:6232   */\n  dup6\n    /* \"#utility.yul\":6211:6233   */\n  tag_75\n  jump\t// in\ntag_179:\n    /* \"#utility.yul\":6201:6209   */\n  dup4\n    /* \"#utility.yul\":6197:6234   */\n  add\n    /* \"#utility.yul\":6184:6195   */\n  dup3\n    /* \"#utility.yul\":6155:6235   */\n  tag_84\n  jump\t// in\ntag_178:\n    /* \"#utility.yul\":5814:6245   */\n  pop\n  pop\n    /* \"#utility.yul\":5799:6245   */\ntag_174:\n    /* \"#utility.yul\":5709:6252   */\n  pop\n  pop\n  pop\n  jump\t// out\n    /* \"#utility.yul\":6258:6375   */\ntag_86:\n    /* \"#utility.yul\":6312:6320   */\n  0x00\n    /* \"#utility.yul\":6362:6367   */\n  dup3\n    /* \"#utility.yul\":6356:6360   */\n  dup3\n    /* \"#utility.yul\":6352:6368   */\n  shr\n    /* \"#utility.yul\":6331:6368   */\n  swap1\n  pop\n    /* \"#utility.yul\":6258:6375   */\n  swap3\n  swap2\n  pop\n  pop\n  jump\t// out\n    /* \"#utility.yul\":6381:6550   */\ntag_87:\n    /* \"#utility.yul\":6425:6431   */\n  0x00\n    /* \"#utility.yul\":6458:6509   */\n  tag_182\n    /* \"#utility.yul\":6506:6507   */\n  0x00\n    /* \"#utility.yul\":6502:6508   */\n  not\n    /* \"#utility.yul\":6494:6499   */\n  dup5\n    /* \"#utility.yul\":6491:6492   */\n  0x08\n    /* \"#utility.yul\":6487:6500   */\n  mul\n    /* \"#utility.yul\":6458:6509   */\n  tag_86\n  jump\t// in\ntag_182:\n    /* \"#utility.yul\":6454:6510   */\n  not\n    /* \"#utility.yul\":6539:6543   */\n  dup1\n    /* \"#utility.yul\":6533:6537   */\n  dup4\n    /* \"#utility.yul\":6529:6544   */\n  and\n    /* \"#utility.yul\":6519:6544   */\n  swap2\n  pop\n    /* \"#utility.yul\":6432:6550   */\n  pop\n    /* \"#utility.yul\":6381:6550   */\n  swap3\n  swap2\n  pop\n  pop\n  jump\t// out\n    /* \"#utility.yul\":6555:6850   */\ntag_88:\n    /* \"#utility.yul\":6631:6635   */\n  0x00\n    /* \"#utility.yul\":6777:6806   */\n  tag_184\n    /* \"#utility.yul\":6802:6805   */\n  dup4\n    /* \"#utility.yul\":6796:6800   */\n  dup4\n    /* \"#utility.yul\":6777:6806   */\n  tag_87\n  jump\t// in\ntag_184:\n    /* \"#utility.yul\":6769:6806   */\n  swap2\n  pop\n    /* \"#utility.yul\":6839:6842   */\n  dup3\n    /* \"#utility.yul\":6836:6837   */\n  0x02\n    /* \"#utility.yul\":6832:6843   */\n  mul\n    /* \"#utility.yul\":6826:6830   */\n  dup3\n    /* \"#utility.yul\":6823:6844   */\n  or\n    /* \"#utility.yul\":6815:6844   */\n  swap1\n  pop\n    /* \"#utility.yul\":6555:6850   */\n  swap3\n  swap2\n  pop\n  pop\n  jump\t// out\n    /* \"#utility.yul\":6855:8250   */\ntag_14:\n    /* \"#utility.yul\":6972:7009   */\n  tag_186\n    /* \"#utility.yul\":7005:7008   */\n  dup3\n    /* \"#utility.yul\":6972:7009   */\n  tag_70\n  jump\t// in\ntag_186:\n    /* \"#utility.yul\":7074:7092   */\n  0xffffffffffffffff\n    /* \"#utility.yul\":7066:7072   */\n  dup2\n    /* \"#utility.yul\":7063:7093   */\n  gt\n    /* \"#utility.yul\":7060:7116   */\n  iszero\n  tag_187\n  jumpi\n    /* \"#utility.yul\":7096:7114   */\n  tag_188\n  tag_71\n  jump\t// in\ntag_188:\n    /* \"#utility.yul\":7060:7116   */\ntag_187:\n    /* \"#utility.yul\":7140:7178   */\n  tag_189\n    /* \"#utility.yul\":7172:7176   */\n  dup3\n    /* \"#utility.yul\":7166:7177   */\n  sload\n    /* \"#utility.yul\":7140:7178   */\n  tag_73\n  jump\t// in\ntag_189:\n    /* \"#utility.yul\":7225:7292   */\n  tag_190\n    /* \"#utility.yul\":7285:7291   */\n  dup3\n    /* \"#utility.yul\":7277:7283   */\n  dup3\n    /* \"#utility.yul\":7271:7275   */\n  dup6\n    /* \"#utility.yul\":7225:7292   */\n  tag_85\n  jump\t// in\ntag_190:\n    /* \"#utility.yul\":7319:7320   */\n  0x00\n    /* \"#utility.yul\":7343:7347   */\n  0x20\n    /* \"#utility.yul\":7330:7347   */\n  swap1\n  pop\n    /* \"#utility.yul\":7375:7377   */\n  0x1f\n    /* \"#utility.yul\":7367:7373   */\n  dup4\n    /* \"#utility.yul\":7364:7378   */\n  gt\n    /* \"#utility.yul\":7392:7393   */\n  0x01\n    /* \"#utility.yul\":7387:8005   */\n  dup2\n  eq\n  tag_192\n  jumpi\n    /* \"#utility.yul\":8049:8050   */\n  0x00\n    /* \"#utility.yul\":8066:8072   */\n  dup5\n    /* \"#utility.yul\":8063:8140   */\n  iszero\n  tag_193\n  jumpi\n    /* \"#utility.yul\":8115:8124   */\n  dup3\n    /* \"#utility.yul\":8110:8113   */\n  dup8\n    /* \"#utility.yul\":8106:8125   */\n  add\n    /* \"#utility.yul\":8100:8126   */\n  mload\n    /* \"#utility.yul\":8091:8126   */\n  swap1\n  pop\n    /* \"#utility.yul\":8063:8140   */\ntag_193:\n    /* \"#utility.yul\":8166:8233   */\n  tag_194\n    /* \"#utility.yul\":8226:8232   */\n  dup6\n    /* \"#utility.yul\":8219:8224   */\n  dup3\n    /* \"#utility.yul\":8166:8233   */\n  tag_88\n  jump\t// in\ntag_194:\n    /* \"#utility.yul\":8160:8164   */\n  dup7\n    /* \"#utility.yul\":8153:8234   */\n  sstore\n    /* \"#utility.yul\":8022:8244   */\n  pop\n    /* \"#utility.yul\":7357:8244   */\n  jump(tag_191)\n    /* \"#utility.yul\":7387:8005   */\ntag_192:\n    /* \"#utility.yul\":7439:7443   */\n  0x1f\n    /* \"#utility.yul\":7435:7444   */\n  not\n    /* \"#utility.yul\":7427:7433   */\n  dup5\n    /* \"#utility.yul\":7423:7445   */\n  and\n    /* \"#utility.yul\":7473:7510   */\n  tag_195\n    /* \"#utility.yul\":7505:7509   */\n  dup7\n    /* \"#utility.yul\":7473:7510   */\n  tag_74\n  jump\t// in\ntag_195:\n    /* \"#utility.yul\":7532:7533   */\n  0x00\n    /* \"#utility.yul\":7546:7754   */\ntag_196:\n    /* \"#utility.yul\":7560:7567   */\n  dup3\n    /* \"#utility.yul\":7557:7558   */\n  dup2\n    /* \"#utility.yul\":7554:7568   */\n  lt\n    /* \"#utility.yul\":7546:7754   */\n  iszero\n  tag_198\n  jumpi\n    /* \"#utility.yul\":7639:7648   */\n  dup5\n    /* \"#utility.yul\":7634:7637   */\n  dup10\n    /* \"#utility.yul\":7630:7649   */\n  add\n    /* \"#utility.yul\":7624:7650   */\n  mload\n    /* \"#utility.yul\":7616:7622   */\n  dup3\n    /* \"#utility.yul\":7609:7651   */\n  sstore\n    /* \"#utility.yul\":7690:7691   */\n  0x01\n    /* \"#utility.yul\":7682:7688   */\n  dup3\n    /* \"#utility.yul\":7678:7692   */\n  add\n    /* \"#utility.yul\":7668:7692   */\n  swap2\n  pop\n    /* \"#utility.yul\":7737:7739   */\n  0x20\n    /* \"#utility.yul\":7726:7735   */\n  dup6\n    /* \"#utility.yul\":7722:7740   */\n  add\n    /* \"#utility.yul\":7709:7740   */\n  swap5\n  pop\n    /* \"#utility.yul\":7583:7587   */\n  0x20\n    /* \"#utility.yul\":7580:7581   */\n  dup2\n    /* \"#utility.yul\":7576:7588   */\n  add\n    /* \"#utility.yul\":7571:7588   */\n  swap1\n  pop\n    /* \"#utility.yul\":7546:7754   */\n  jump(tag_196)\ntag_198:\n    /* \"#utility.yul\":7782:7788   */\n  dup7\n    /* \"#utility.yul\":7773:7780   */\n  dup4\n    /* \"#utility.yul\":7770:7789   */\n  lt\n    /* \"#utility.yul\":7767:7946   */\n  iszero\n  tag_199\n  jumpi\n    /* \"#utility.yul\":7840:7849   */\n  dup5\n    /* \"#utility.yul\":7835:7838   */\n  dup10\n    /* \"#utility.yul\":7831:7850   */\n  add\n    /* \"#utility.yul\":7825:7851   */\n  mload\n    /* \"#utility.yul\":7883:7931   */\n  tag_200\n    /* \"#utility.yul\":7925:7929   */\n  0x1f\n    /* \"#utility.yul\":7917:7923   */\n  dup10\n    /* \"#utility.yul\":7913:7930   */\n  and\n    /* \"#utility.yul\":7902:7911   */\n  dup3\n    /* \"#utility.yul\":7883:7931   */\n  tag_87\n  jump\t// in\ntag_200:\n    /* \"#utility.yul\":7875:7881   */\n  dup4\n    /* \"#utility.yul\":7868:7932   */\n  sstore\n    /* \"#utility.yul\":7790:7946   */\n  pop\n    /* \"#utility.yul\":7767:7946   */\ntag_199:\n    /* \"#utility.yul\":7992:7993   */\n  0x01\n    /* \"#utility.yul\":7988:7989   */\n  0x02\n    /* \"#utility.yul\":7980:7986   */\n  dup9\n    /* \"#utility.yul\":7976:7990   */\n  mul\n    /* \"#utility.yul\":7972:7994   */\n  add\n    /* \"#utility.yul\":7966:7970   */\n  dup9\n    /* \"#utility.yul\":7959:7995   */\n  sstore\n    /* \"#utility.yul\":7394:8005   */\n  pop\n  pop\n  pop\n    /* \"#utility.yul\":7357:8244   */\ntag_191:\n  pop\n    /* \"#utility.yul\":6947:8250   */\n  pop\n  pop\n  pop\n    /* \"#utility.yul\":6855:8250   */\n  pop\n  pop\n  jump\t// out\n    /* \"#utility.yul\":8256:8333   */\ntag_89:\n    /* \"#utility.yul\":8293:8300   */\n  0x00\n    /* \"#utility.yul\":8322:8327   */\n  dup2\n    /* \"#utility.yul\":8311:8327   */\n  swap1\n  pop\n    /* \"#utility.yul\":8256:8333   */\n  swap2\n  swap1\n  pop\n  jump\t// out\n    /* \"#utility.yul\":8339:8457   */\ntag_90:\n    /* \"#utility.yul\":8426:8450   */\n  tag_203\n    /* \"#utility.yul\":8444:8449   */\n  dup2\n    /* \"#utility.yul\":8426:8450   */\n  tag_89\n  jump\t// in\ntag_203:\n    /* \"#utility.yul\":8421:8424   */\n  dup3\n    /* \"#utility.yul\":8414:8451   */\n  mstore\n    /* \"#utility.yul\":8339:8457   */\n  pop\n  pop\n  jump\t// out\n    /* \"#utility.yul\":8463:8581   */\ntag_91:\n    /* \"#utility.yul\":8550:8574   */\n  tag_205\n    /* \"#utility.yul\":8568:8573   */\n  dup2\n    /* \"#utility.yul\":8550:8574   */\n  tag_68\n  jump\t// in\ntag_205:\n    /* \"#utility.yul\":8545:8548   */\n  dup3\n    /* \"#utility.yul\":8538:8575   */\n  mstore\n    /* \"#utility.yul\":8463:8581   */\n  pop\n  pop\n  jump\t// out\n    /* \"#utility.yul\":8587:8713   */\ntag_92:\n    /* \"#utility.yul\":8624:8631   */\n  0x00\n    /* \"#utility.yul\":8664:8706   */\n  0xffffffffffffffffffffffffffffffffffffffff\n    /* \"#utility.yul\":8657:8662   */\n  dup3\n    /* \"#utility.yul\":8653:8707   */\n  and\n    /* \"#utility.yul\":8642:8707   */\n  swap1\n  pop\n    /* \"#utility.yul\":8587:8713   */\n  swap2\n  swap1\n  pop\n  jump\t// out\n    /* \"#utility.yul\":8719:8815   */\ntag_93:\n    /* \"#utility.yul\":8756:8763   */\n  0x00\n    /* \"#utility.yul\":8785:8809   */\n  tag_208\n    /* \"#utility.yul\":8803:8808   */\n  dup3\n    /* \"#utility.yul\":8785:8809   */\n  tag_92\n  jump\t// in\ntag_208:\n    /* \"#utility.yul\":8774:8809   */\n  swap1\n  pop\n    /* \"#utility.yul\":8719:8815   */\n  swap2\n  swap1\n  pop\n  jump\t// out\n    /* \"#utility.yul\":8821:8939   */\ntag_94:\n    /* \"#utility.yul\":8908:8932   */\n  tag_210\n    /* \"#utility.yul\":8926:8931   */\n  dup2\n    /* \"#utility.yul\":8908:8932   */\n  tag_93\n  jump\t// in\ntag_210:\n    /* \"#utility.yul\":8903:8906   */\n  dup3\n    /* \"#utility.yul\":8896:8933   */\n  mstore\n    /* \"#utility.yul\":8821:8939   */\n  pop\n  pop\n  jump\t// out\n    /* \"#utility.yul\":8945:9609   */\ntag_38:\n    /* \"#utility.yul\":9150:9154   */\n  0x00\n    /* \"#utility.yul\":9188:9191   */\n  0xa0\n    /* \"#utility.yul\":9177:9186   */\n  dup3\n    /* \"#utility.yul\":9173:9192   */\n  add\n    /* \"#utility.yul\":9165:9192   */\n  swap1\n  pop\n    /* \"#utility.yul\":9202:9273   */\n  tag_212\n    /* \"#utility.yul\":9270:9271   */\n  0x00\n    /* \"#utility.yul\":9259:9268   */\n  dup4\n    /* \"#utility.yul\":9255:9272   */\n  add\n    /* \"#utility.yul\":9246:9252   */\n  dup9\n    /* \"#utility.yul\":9202:9273   */\n  tag_90\n  jump\t// in\ntag_212:\n    /* \"#utility.yul\":9283:9355   */\n  tag_213\n    /* \"#utility.yul\":9351:9353   */\n  0x20\n    /* \"#utility.yul\":9340:9349   */\n  dup4\n    /* \"#utility.yul\":9336:9354   */\n  add\n    /* \"#utility.yul\":9327:9333   */\n  dup8\n    /* \"#utility.yul\":9283:9355   */\n  tag_90\n  jump\t// in\ntag_213:\n    /* \"#utility.yul\":9365:9437   */\n  tag_214\n    /* \"#utility.yul\":9433:9435   */\n  0x40\n    /* \"#utility.yul\":9422:9431   */\n  dup4\n    /* \"#utility.yul\":9418:9436   */\n  add\n    /* \"#utility.yul\":9409:9415   */\n  dup7\n    /* \"#utility.yul\":9365:9437   */\n  tag_90\n  jump\t// in\ntag_214:\n    /* \"#utility.yul\":9447:9519   */\n  tag_215\n    /* \"#utility.yul\":9515:9517   */\n  0x60\n    /* \"#utility.yul\":9504:9513   */\n  dup4\n    /* \"#utility.yul\":9500:9518   */\n  add\n    /* \"#utility.yul\":9491:9497   */\n  dup6\n    /* \"#utility.yul\":9447:9519   */\n  tag_91\n  jump\t// in\ntag_215:\n    /* \"#utility.yul\":9529:9602   */\n  tag_216\n    /* \"#utility.yul\":9597:9600   */\n  0x80\n    /* \"#utility.yul\":9586:9595   */\n  dup4\n    /* \"#utility.yul\":9582:9601   */\n  add\n    /* \"#utility.yul\":9573:9579   */\n  dup5\n    /* \"#utility.yul\":9529:9602   */\n  tag_94\n  jump\t// in\ntag_216:\n    /* \"#utility.yul\":8945:9609   */\n  swap7\n  swap6\n  pop\n  pop\n  pop\n  pop\n  pop\n  pop\n  jump\t// out\n    /* \"#utility.yul\":9615:9837   */\ntag_42:\n    /* \"#utility.yul\":9708:9712   */\n  0x00\n    /* \"#utility.yul\":9746:9748   */\n  0x20\n    /* \"#utility.yul\":9735:9744   */\n  dup3\n    /* \"#utility.yul\":9731:9749   */\n  add\n    /* \"#utility.yul\":9723:9749   */\n  swap1\n  pop\n    /* \"#utility.yul\":9759:9830   */\n  tag_218\n    /* \"#utility.yul\":9827:9828   */\n  0x00\n    /* \"#utility.yul\":9816:9825   */\n  dup4\n    /* \"#utility.yul\":9812:9829   */\n  add\n    /* \"#utility.yul\":9803:9809   */\n  dup5\n    /* \"#utility.yul\":9759:9830   */\n  tag_94\n  jump\t// in\ntag_218:\n    /* \"#utility.yul\":9615:9837   */\n  swap3\n  swap2\n  pop\n  pop\n  jump\t// out\n    /* \"#utility.yul\":9843:10012   */\ntag_95:\n    /* \"#utility.yul\":9927:9938   */\n  0x00\n    /* \"#utility.yul\":9961:9967   */\n  dup3\n    /* \"#utility.yul\":9956:9959   */\n  dup3\n    /* \"#utility.yul\":9949:9968   */\n  mstore\n    /* \"#utility.yul\":10001:10005   */\n  0x20\n    /* \"#utility.yul\":9996:9999   */\n  dup3\n    /* \"#utility.yul\":9992:10006   */\n  add\n    /* \"#utility.yul\":9977:10006   */\n  swap1\n  pop\n    /* \"#utility.yul\":9843:10012   */\n  swap3\n  swap2\n  pop\n  pop\n  jump\t// out\n    /* \"#utility.yul\":10018:10157   */\ntag_96:\n    /* \"#utility.yul\":10107:10113   */\n  dup3\n    /* \"#utility.yul\":10102:10105   */\n  dup2\n    /* \"#utility.yul\":10097:10100   */\n  dup4\n    /* \"#utility.yul\":10091:10114   */\n  mcopy\n    /* \"#utility.yul\":10148:10149   */\n  0x00\n    /* \"#utility.yul\":10139:10145   */\n  dup4\n    /* \"#utility.yul\":10134:10137   */\n  dup4\n    /* \"#utility.yul\":10130:10146   */\n  add\n    /* \"#utility.yul\":10123:10150   */\n  mstore\n    /* \"#utility.yul\":10018:10157   */\n  pop\n  pop\n  pop\n  jump\t// out\n    /* \"#utility.yul\":10163:10265   */\ntag_97:\n    /* \"#utility.yul\":10204:10210   */\n  0x00\n    /* \"#utility.yul\":10255:10257   */\n  0x1f\n    /* \"#utility.yul\":10251:10258   */\n  not\n    /* \"#utility.yul\":10246:10248   */\n  0x1f\n    /* \"#utility.yul\":10239:10244   */\n  dup4\n    /* \"#utility.yul\":10235:10249   */\n  add\n    /* \"#utility.yul\":10231:10259   */\n  and\n    /* \"#utility.yul\":10221:10259   */\n  swap1\n  pop\n    /* \"#utility.yul\":10163:10265   */\n  swap2\n  swap1\n  pop\n  jump\t// out\n    /* \"#utility.yul\":10271:10648   */\ntag_98:\n    /* \"#utility.yul\":10359:10362   */\n  0x00\n    /* \"#utility.yul\":10387:10426   */\n  tag_223\n    /* \"#utility.yul\":10420:10425   */\n  dup3\n    /* \"#utility.yul\":10387:10426   */\n  tag_70\n  jump\t// in\ntag_223:\n    /* \"#utility.yul\":10442:10513   */\n  tag_224\n    /* \"#utility.yul\":10506:10512   */\n  dup2\n    /* \"#utility.yul\":10501:10504   */\n  dup6\n    /* \"#utility.yul\":10442:10513   */\n  tag_95\n  jump\t// in\ntag_224:\n    /* \"#utility.yul\":10435:10513   */\n  swap4\n  pop\n    /* \"#utility.yul\":10522:10587   */\n  tag_225\n    /* \"#utility.yul\":10580:10586   */\n  dup2\n    /* \"#utility.yul\":10575:10578   */\n  dup6\n    /* \"#utility.yul\":10568:10572   */\n  0x20\n    /* \"#utility.yul\":10561:10566   */\n  dup7\n    /* \"#utility.yul\":10557:10573   */\n  add\n    /* \"#utility.yul\":10522:10587   */\n  tag_96\n  jump\t// in\ntag_225:\n    /* \"#utility.yul\":10612:10641   */\n  tag_226\n    /* \"#utility.yul\":10634:10640   */\n  dup2\n    /* \"#utility.yul\":10612:10641   */\n  tag_97\n  jump\t// in\ntag_226:\n    /* \"#utility.yul\":10607:10610   */\n  dup5\n    /* \"#utility.yul\":10603:10642   */\n  add\n    /* \"#utility.yul\":10596:10642   */\n  swap2\n  pop\n    /* \"#utility.yul\":10363:10648   */\n  pop\n    /* \"#utility.yul\":10271:10648   */\n  swap3\n  swap2\n  pop\n  pop\n  jump\t// out\n    /* \"#utility.yul\":10654:10967   */\ntag_48:\n    /* \"#utility.yul\":10767:10771   */\n  0x00\n    /* \"#utility.yul\":10805:10807   */\n  0x20\n    /* \"#utility.yul\":10794:10803   */\n  dup3\n    /* \"#utility.yul\":10790:10808   */\n  add\n    /* \"#utility.yul\":10782:10808   */\n  swap1\n  pop\n    /* \"#utility.yul\":10854:10863   */\n  dup2\n    /* \"#utility.yul\":10848:10852   */\n  dup2\n    /* \"#utility.yul\":10844:10864   */\n  sub\n    /* \"#utility.yul\":10840:10841   */\n  0x00\n    /* \"#utility.yul\":10829:10838   */\n  dup4\n    /* \"#utility.yul\":10825:10842   */\n  add\n    /* \"#utility.yul\":10818:10865   */\n  mstore\n    /* \"#utility.yul\":10882:10960   */\n  tag_228\n    /* \"#utility.yul\":10955:10959   */\n  dup2\n    /* \"#utility.yul\":10946:10952   */\n  dup5\n    /* \"#utility.yul\":10882:10960   */\n  tag_98\n  jump\t// in\ntag_228:\n    /* \"#utility.yul\":10874:10960   */\n  swap1\n  pop\n    /* \"#utility.yul\":10654:10967   */\n  swap3\n  swap2\n  pop\n  pop\n  jump\t// out\n    /* \"#utility.yul\":10973:11071   */\ntag_99:\n    /* \"#utility.yul\":11024:11030   */\n  0x00\n    /* \"#utility.yul\":11058:11063   */\n  dup2\n    /* \"#utility.yul\":11052:11064   */\n  mload\n    /* \"#utility.yul\":11042:11064   */\n  swap1\n  pop\n    /* \"#utility.yul\":10973:11071   */\n  swap2\n  swap1\n  pop\n  jump\t// out\n    /* \"#utility.yul\":11077:11193   */\ntag_100:\n    /* \"#utility.yul\":11128:11132   */\n  0x00\n    /* \"#utility.yul\":11151:11154   */\n  dup2\n    /* \"#utility.yul\":11143:11154   */\n  swap1\n  pop\n    /* \"#utility.yul\":11181:11185   */\n  0x20\n    /* \"#utility.yul\":11176:11179   */\n  dup3\n    /* \"#utility.yul\":11172:11186   */\n  add\n    /* \"#utility.yul\":11164:11186   */\n  swap1\n  pop\n    /* \"#utility.yul\":11077:11193   */\n  swap2\n  swap1\n  pop\n  jump\t// out\n    /* \"#utility.yul\":11199:11353   */\ntag_101:\n    /* \"#utility.yul\":11242:11253   */\n  0x00\n    /* \"#utility.yul\":11278:11307   */\n  tag_232\n    /* \"#utility.yul\":11302:11305   */\n  dup3\n    /* \"#utility.yul\":11296:11306   */\n  mload\n    /* \"#utility.yul\":11278:11307   */\n  tag_89\n  jump\t// in\ntag_232:\n    /* \"#utility.yul\":11341:11346   */\n  dup1\n    /* \"#utility.yul\":11317:11346   */\n  swap2\n  pop\n    /* \"#utility.yul\":11254:11353   */\n  pop\n    /* \"#utility.yul\":11199:11353   */\n  swap2\n  swap1\n  pop\n  jump\t// out\n    /* \"#utility.yul\":11359:11953   */\ntag_50:\n    /* \"#utility.yul\":11443:11448   */\n  0x00\n    /* \"#utility.yul\":11474:11512   */\n  tag_234\n    /* \"#utility.yul\":11506:11511   */\n  dup3\n    /* \"#utility.yul\":11474:11512   */\n  tag_99\n  jump\t// in\ntag_234:\n    /* \"#utility.yul\":11537:11542   */\n  dup3\n    /* \"#utility.yul\":11564:11604   */\n  tag_235\n    /* \"#utility.yul\":11598:11603   */\n  dup5\n    /* \"#utility.yul\":11564:11604   */\n  tag_100\n  jump\t// in\ntag_235:\n    /* \"#utility.yul\":11552:11604   */\n  swap1\n  pop\n    /* \"#utility.yul\":11623:11658   */\n  tag_236\n    /* \"#utility.yul\":11649:11657   */\n  dup2\n    /* \"#utility.yul\":11623:11658   */\n  tag_101\n  jump\t// in\ntag_236:\n    /* \"#utility.yul\":11614:11658   */\n  swap3\n  pop\n    /* \"#utility.yul\":11682:11684   */\n  0x20\n    /* \"#utility.yul\":11674:11680   */\n  dup3\n    /* \"#utility.yul\":11671:11685   */\n  lt\n    /* \"#utility.yul\":11668:11946   */\n  iszero\n  tag_237\n  jumpi\n    /* \"#utility.yul\":11753:11922   */\n  tag_238\n    /* \"#utility.yul\":11838:11904   */\n  0xffffffffffffffffffffffffffffffffffffffffffffffffffffffffffffffff\n    /* \"#utility.yul\":11808:11814   */\n  dup4\n    /* \"#utility.yul\":11804:11806   */\n  0x20\n    /* \"#utility.yul\":11800:11815   */\n  sub\n    /* \"#utility.yul\":11797:11798   */\n  0x08\n    /* \"#utility.yul\":11793:11816   */\n  mul\n    /* \"#utility.yul\":11753:11922   */\n  tag_76\n  jump\t// in\ntag_238:\n    /* \"#utility.yul\":11730:11735   */\n  dup4\n    /* \"#utility.yul\":11709:11936   */\n  and\n    /* \"#utility.yul\":11700:11936   */\n  swap3\n  pop\n    /* \"#utility.yul\":11668:11946   */\ntag_237:\n    /* \"#utility.yul\":11449:11953   */\n  pop\n  pop\n    /* \"#utility.yul\":11359:11953   */\n  swap2\n  swap1\n  pop\n  jump\t// out\n    /* \"#utility.yul\":11959:12150   */\ntag_55:\n    /* \"#utility.yul\":11999:12002   */\n  0x00\n    /* \"#utility.yul\":12018:12038   */\n  tag_240\n    /* \"#utility.yul\":12036:12037   */\n  dup3\n    /* \"#utility.yul\":12018:12038   */\n  tag_68\n  jump\t// in\ntag_240:\n    /* \"#utility.yul\":12013:12038   */\n  swap2\n  pop\n    /* \"#utility.yul\":12052:12072   */\n  tag_241\n    /* \"#utility.yul\":12070:12071   */\n  dup4\n    /* \"#utility.yul\":12052:12072   */\n  tag_68\n  jump\t// in\ntag_241:\n    /* \"#utility.yul\":12047:12072   */\n  swap3\n  pop\n    /* \"#utility.yul\":12095:12096   */\n  dup3\n    /* \"#utility.yul\":12092:12093   */\n  dup3\n    /* \"#utility.yul\":12088:12097   */\n  add\n    /* \"#utility.yul\":12081:12097   */\n  swap1\n  pop\n    /* \"#utility.yul\":12116:12119   */\n  dup1\n    /* \"#utility.yul\":12113:12114   */\n  dup3\n    /* \"#utility.yul\":12110:12120   */\n  gt\n    /* \"#utility.yul\":12107:12143   */\n  iszero\n  tag_242\n  jumpi\n    /* \"#utility.yul\":12123:12141   */\n  tag_243\n  tag_64\n  jump\t// in\ntag_243:\n    /* \"#utility.yul\":12107:12143   */\ntag_242:\n    /* \"#utility.yul\":11959:12150   */\n  swap3\n  swap2\n  pop\n  pop\n  jump\t// out\n    /* \"#utility.yul\":12156:12598   */\ntag_59:\n    /* \"#utility.yul\":12305:12309   */\n  0x00\n    /* \"#utility.yul\":12343:12345   */\n  0x60\n    /* \"#utility.yul\":12332:12341   */\n  dup3\n    /* \"#utility.yul\":12328:12346   */\n  add\n    /* \"#utility.yul\":12320:12346   */\n  swap1\n  pop\n    /* \"#utility.yul\":12356:12427   */\n  tag_245\n    /* \"#utility.yul\":12424:12425   */\n  0x00\n    /* \"#utility.yul\":12413:12422   */\n  dup4\n    /* \"#utility.yul\":12409:12426   */\n  add\n    /* \"#utility.yul\":12400:12406   */\n  dup7\n    /* \"#utility.yul\":12356:12427   */\n  tag_94\n  jump\t// in\ntag_245:\n    /* \"#utility.yul\":12437:12509   */\n  tag_246\n    /* \"#utility.yul\":12505:12507   */\n  0x20\n    /* \"#utility.yul\":12494:12503   */\n  dup4\n    /* \"#utility.yul\":12490:12508   */\n  add\n    /* \"#utility.yul\":12481:12487   */\n  dup6\n    /* \"#utility.yul\":12437:12509   */\n  tag_91\n  jump\t// in\ntag_246:\n    /* \"#utility.yul\":12519:12591   */\n  tag_247\n    /* \"#utility.yul\":12587:12589   */\n  0x40\n    /* \"#utility.yul\":12576:12585   */\n  dup4\n    /* \"#utility.yul\":12572:12590   */\n  add\n    /* \"#utility.yul\":12563:12569   */\n  dup5\n    /* \"#utility.yul\":12519:12591   */\n  tag_91\n  jump\t// in\ntag_247:\n    /* \"#utility.yul\":12156:12598   */\n  swap5\n  swap4\n  pop\n  pop\n  pop\n  pop\n  jump\t// out\n    /* \"#utility.yul\":12604:12826   */\ntag_63:\n    /* \"#utility.yul\":12697:12701   */\n  0x00\n    /* \"#utility.yul\":12735:12737   */\n  0x20\n    /* \"#utility.yul\":12724:12733   */\n  dup3\n    /* \"#utility.yul\":12720:12738   */\n  add\n    /* \"#utility.yul\":12712:12738   */\n  swap1\n  pop\n    /* \"#utility.yul\":12748:12819   */\n  tag_249\n    /* \"#utility.yul\":12816:12817   */\n  0x00\n    /* \"#utility.yul\":12805:12814   */\n  dup4\n    /* \"#utility.yul\":12801:12818   */\n  add\n    /* \"#utility.yul\":12792:12798   */\n  dup5\n    /* \"#utility.yul\":12748:12819   */\n  tag_91\n  jump\t// in\ntag_249:\n    /* \"#utility.yul\":12604:12826   */\n  swap3\n  swap2\n  pop\n  pop\n  jump\t// out\n    /* \"contracts/tokenA.sol\":188:496  contract tokenA is ERC20, ERC20Permit {... */\ntag_26:\n  mload(0x80)\n  mload(0xa0)\n  mload(0xc0)\n  mload(0xe0)\n  mload(0x0100)\n  mload(0x0120)\n  mload(0x0140)\n  codecopy(0x00, dataOffset(sub_0), dataSize(sub_0))\n  0x00\n  assignImmutable(\"0xe156ff544111f0d61300ce79ff347b01537432ccb5ab72ff35b2177c2ed3fa4b\")\n  0x00\n  assignImmutable(\"0x57650568a02a7887f4f4e1ae3b5071ca25e4fb181c1b7adfd0d312e8c663feb3\")\n  0x00\n  assignImmutable(\"0xf22c5b16043446a68d62f47815793cbbc874be5b2e65e9e313507336d6583f6d\")\n  0x00\n  assignImmutable(\"0x7046b97b103039cb97ea5110f1f4832d5d00e701e21d67c9f93f60c215815d45\")\n  0x00\n  assignImmutable(\"0x45583c716935567ea164771749ab630fc2584e89eead72531f29ea474918321a\")\n  0x00\n  assignImmutable(\"0x2eb9a99718a5ddb41634aa3a127c1821b30a0e7db3d87b6203b71d7595223311\")\n  0x00\n  assignImmutable(\"0xb775854bb325b699ccfc2a72dec93b06810d465e2ba7b7ffc485571437231d1a\")\n  return(0x00, dataSize(sub_0))\nstop\n\nsub_0: assembly {\n        /* \"contracts/tokenA.sol\":188:496  contract tokenA is ERC20, ERC20Permit {... */\n      mstore(0x40, 0x80)\n      callvalue\n      dup1\n      iszero\n      tag_1\n      jumpi\n      0x00\n      dup1\n      revert\n    tag_1:\n      pop\n      jumpi(tag_2, lt(calldatasize, 0x04))\n      shr(0xe0, calldataload(0x00))\n      dup1\n      0x40c10f19\n      gt\n      tag_18\n      jumpi\n      dup1\n      0x95d89b41\n      gt\n      tag_19\n      jumpi\n      dup1\n      0x95d89b41\n      eq\n      tag_14\n      jumpi\n      dup1\n      0xa9059cbb\n      eq\n      tag_15\n      jumpi\n      dup1\n      0xd505accf\n      eq\n      tag_16\n      jumpi\n      dup1\n      0xdd62ed3e\n      eq\n      tag_17\n      jumpi\n      jump(tag_2)\n    tag_19:\n      dup1\n      0x40c10f19\n      eq\n      tag_10\n      jumpi\n      dup1\n      0x70a08231\n      eq\n      tag_11\n      jumpi\n      dup1\n      0x7ecebe00\n      eq\n      tag_12\n      jumpi\n      dup1\n      0x84b0196e\n      eq\n      tag_13\n      jumpi\n      jump(tag_2)\n    tag_18:\n      dup1\n      0x23b872dd\n      gt\n      tag_20\n      jumpi\n      dup1\n      0x23b872dd\n      eq\n      tag_6\n      jumpi\n      dup1\n      0x2ff2e9dc\n      eq\n      tag_7\n      jumpi\n      dup1\n      0x313ce567\n      eq\n      tag_8\n      jumpi\n      dup1\n      0x3644e515\n      eq\n      tag_9\n      jumpi\n      jump(tag_2)\n    tag_20:\n      dup1\n      0x06fdde03\n      eq\n      tag_3\n      jumpi\n      dup1\n      0x095ea7b3\n      eq\n      tag_4\n      jumpi\n      dup1\n      0x18160ddd\n      eq\n      tag_5\n      jumpi\n    tag_2:\n      0x00\n      dup1\n      revert\n        /* \"@openzeppelin/contracts/token/ERC20/ERC20.sol\":2074:2163  function name() public view virtual returns (string memory) {... */\n    tag_3:\n      tag_21\n      tag_22\n      jump\t// in\n    tag_21:\n      mload(0x40)\n      tag_23\n      swap2\n      swap1\n      tag_24\n      jump\t// in\n    tag_23:\n      mload(0x40)\n      dup1\n      swap2\n      sub\n      swap1\n      return\n        /* \"@openzeppelin/contracts/token/ERC20/ERC20.sol\":4293:4479  function approve(address spender, uint256 value) public virtual returns (bool) {... */\n    tag_4:\n      tag_25\n      0x04\n      dup1\n      calldatasize\n      sub\n      dup2\n      add\n      swap1\n      tag_26\n      swap2\n      swap1\n      tag_27\n      jump\t// in\n    tag_26:\n      tag_28\n      jump\t// in\n    tag_25:\n      mload(0x40)\n      tag_29\n      swap2\n      swap1\n      tag_30\n      jump\t// in\n    tag_29:\n      mload(0x40)\n      dup1\n      swap2\n      sub\n      swap1\n      return\n        /* \"@openzeppelin/contracts/token/ERC20/ERC20.sol\":3144:3241  function totalSupply() public view virtual returns (uint256) {... */\n    tag_5:\n      tag_31\n      tag_32\n      jump\t// in\n    tag_31:\n      mload(0x40)\n      tag_33\n      swap2\n      swap1\n      tag_34\n      jump\t// in\n    tag_33:\n      mload(0x40)\n      dup1\n      swap2\n      sub\n      swap1\n      return\n        /* \"@openzeppelin/contracts/token/ERC20/ERC20.sol\":5039:5283  function transferFrom(address from, address to, uint256 value) public virtual returns (bool) {... */\n    tag_6:\n      tag_35\n      0x04\n      dup1\n      calldatasize\n      sub\n      dup2\n      add\n      swap1\n      tag_36\n      swap2\n      swap1\n      tag_37\n      jump\t// in\n    tag_36:\n      tag_38\n      jump\t// in\n    tag_35:\n      mload(0x40)\n      tag_39\n      swap2\n      swap1\n      tag_30\n      jump\t// in\n    tag_39:\n      mload(0x40)\n      dup1\n      swap2\n      sub\n      swap1\n      return\n        /* \"contracts/tokenA.sol\":232:288  uint256 public INITIAL_SUPPLY = 1000000 * 10**decimals() */\n    tag_7:\n      tag_40\n      tag_41\n      jump\t// in\n    tag_40:\n      mload(0x40)\n      tag_42\n      swap2\n      swap1\n      tag_34\n      jump\t// in\n    tag_42:\n      mload(0x40)\n      dup1\n      swap2\n      sub\n      swap1\n      return\n        /* \"@openzeppelin/contracts/token/ERC20/ERC20.sol\":3002:3084  function decimals() public view virtual returns (uint8) {... */\n    tag_8:\n      tag_43\n      tag_44\n      jump\t// in\n    tag_43:\n      mload(0x40)\n      tag_45\n      swap2\n      swap1\n      tag_46\n      jump\t// in\n    tag_45:\n      mload(0x40)\n      dup1\n      swap2\n      sub\n      swap1\n      return\n        /* \"@openzeppelin/contracts/token/ERC20/extensions/ERC20Permit.sol\":2656:2768  function DOMAIN_SEPARATOR() external view virtual returns (bytes32) {... */\n    tag_9:\n      tag_47\n      tag_48\n      jump\t// in\n    tag_47:\n      mload(0x40)\n      tag_49\n      swap2\n      swap1\n      tag_50\n      jump\t// in\n    tag_49:\n      mload(0x40)\n      dup1\n      swap2\n      sub\n      swap1\n      return\n        /* \"contracts/tokenA.sol\":411:494  function mint(address to, uint256 amount) public {... */\n    tag_10:\n      tag_51\n      0x04\n      dup1\n      calldatasize\n      sub\n      dup2\n      add\n      swap1\n      tag_52\n      swap2\n      swap1\n      tag_27\n      jump\t// in\n    tag_52:\n      tag_53\n      jump\t// in\n    tag_51:\n      stop\n        /* \"@openzeppelin/contracts/token/ERC20/ERC20.sol\":3299:3415  function balanceOf(address account) public view virtual returns (uint256) {... */\n    tag_11:\n      tag_54\n      0x04\n      dup1\n      calldatasize\n      sub\n      dup2\n      add\n      swap1\n      tag_55\n      swap2\n      swap1\n      tag_56\n      jump\t// in\n    tag_55:\n      tag_57\n      jump\t// in\n    tag_54:\n      mload(0x40)\n      tag_58\n      swap2\n      swap1\n      tag_34\n      jump\t// in\n    tag_58:\n      mload(0x40)\n      dup1\n      swap2\n      sub\n      swap1\n      return\n        /* \"@openzeppelin/contracts/token/ERC20/extensions/ERC20Permit.sol\":2406:2549  function nonces(address owner) public view virtual override(IERC20Permit, Nonces) returns (uint256) {... */\n    tag_12:\n      tag_59\n      0x04\n      dup1\n      calldatasize\n      sub\n      dup2\n      add\n      swap1\n      tag_60\n      swap2\n      swap1\n      tag_56\n      jump\t// in\n    tag_60:\n      tag_61\n      jump\t// in\n    tag_59:\n      mload(0x40)\n      tag_62\n      swap2\n      swap1\n      tag_34\n      jump\t// in\n    tag_62:\n      mload(0x40)\n      dup1\n      swap2\n      sub\n      swap1\n      return\n        /* \"@openzeppelin/contracts/utils/cryptography/EIP712.sol\":5144:5701  function eip712Domain()... */\n    tag_13:\n      tag_63\n      tag_64\n      jump\t// in\n    tag_63:\n      mload(0x40)\n      tag_65\n      swap8\n      swap7\n      swap6\n      swap5\n      swap4\n      swap3\n      swap2\n      swap1\n      tag_66\n      jump\t// in\n    tag_65:\n      mload(0x40)\n      dup1\n      swap2\n      sub\n      swap1\n      return\n        /* \"@openzeppelin/contracts/token/ERC20/ERC20.sol\":2276:2369  function symbol() public view virtual returns (string memory) {... */\n    tag_14:\n      tag_67\n      tag_68\n      jump\t// in\n    tag_67:\n      mload(0x40)\n      tag_69\n      swap2\n      swap1\n      tag_24\n      jump\t// in\n    tag_69:\n      mload(0x40)\n      dup1\n      swap2\n      sub\n      swap1\n      return\n        /* \"@openzeppelin/contracts/token/ERC20/ERC20.sol\":3610:3788  function transfer(address to, uint256 value) public virtual returns (bool) {... */\n    tag_15:\n      tag_70\n      0x04\n      dup1\n      calldatasize\n      sub\n      dup2\n      add\n      swap1\n      tag_71\n      swap2\n      swap1\n      tag_27\n      jump\t// in\n    tag_71:\n      tag_72\n      jump\t// in\n    tag_70:\n      mload(0x40)\n      tag_73\n      swap2\n      swap1\n      tag_30\n      jump\t// in\n    tag_73:\n      mload(0x40)\n      dup1\n      swap2\n      sub\n      swap1\n      return\n        /* \"@openzeppelin/contracts/token/ERC20/extensions/ERC20Permit.sol\":1680:2352  function permit(... */\n    tag_16:\n      tag_74\n      0x04\n      dup1\n      calldatasize\n      sub\n      dup2\n      add\n      swap1\n      tag_75\n      swap2\n      swap1\n      tag_76\n      jump\t// in\n    tag_75:\n      tag_77\n      jump\t// in\n    tag_74:\n      stop\n        /* \"@openzeppelin/contracts/token/ERC20/ERC20.sol\":3846:3986  function allowance(address owner, address spender) public view virtual returns (uint256) {... */\n    tag_17:\n      tag_78\n      0x04\n      dup1\n      calldatasize\n      sub\n      dup2\n      add\n      swap1\n      tag_79\n      swap2\n      swap1\n      tag_80\n      jump\t// in\n    tag_79:\n      tag_81\n      jump\t// in\n    tag_78:\n      mload(0x40)\n      tag_82\n      swap2\n      swap1\n      tag_34\n      jump\t// in\n    tag_82:\n      mload(0x40)\n      dup1\n      swap2\n      sub\n      swap1\n      return\n        /* \"@openzeppelin/contracts/token/ERC20/ERC20.sol\":2074:2163  function name() public view virtual returns (string memory) {... */\n    tag_22:\n        /* \"@openzeppelin/contracts/token/ERC20/ERC20.sol\":2119:2132  string memory */\n      0x60\n        /* \"@openzeppelin/contracts/token/ERC20/ERC20.sol\":2151:2156  _name */\n      0x03\n        /* \"@openzeppelin/contracts/token/ERC20/ERC20.sol\":2144:2156  return _name */\n      dup1\n      sload\n      tag_84\n      swap1\n      tag_85\n      jump\t// in\n    tag_84:\n      dup1\n      0x1f\n      add\n      0x20\n      dup1\n      swap2\n      div\n      mul\n      0x20\n      add\n      mload(0x40)\n      swap1\n      dup2\n      add\n      0x40\n      mstore\n      dup1\n      swap3\n      swap2\n      swap1\n      dup2\n      dup2\n      mstore\n      0x20\n      add\n      dup3\n      dup1\n      sload\n      tag_86\n      swap1\n      tag_85\n      jump\t// in\n    tag_86:\n      dup1\n      iszero\n      tag_87\n      jumpi\n      dup1\n      0x1f\n      lt\n      tag_88\n      jumpi\n      0x0100\n      dup1\n      dup4\n      sload\n      div\n      mul\n      dup4\n      mstore\n      swap2\n      0x20\n      add\n      swap2\n      jump(tag_87)\n    tag_88:\n      dup3\n      add\n      swap2\n      swap1\n      0x00\n      mstore\n      keccak256(0x00, 0x20)\n      swap1\n    tag_89:\n      dup2\n      sload\n      dup2\n      mstore\n      swap1\n      0x01\n      add\n      swap1\n      0x20\n      add\n      dup1\n      dup4\n      gt\n      tag_89\n      jumpi\n      dup3\n      swap1\n      sub\n      0x1f\n      and\n      dup3\n      add\n      swap2\n    tag_87:\n      pop\n      pop\n      pop\n      pop\n      pop\n      swap1\n      pop\n        /* \"@openzeppelin/contracts/token/ERC20/ERC20.sol\":2074:2163  function name() public view virtual returns (string memory) {... */\n      swap1\n      jump\t// out\n        /* \"@openzeppelin/contracts/token/ERC20/ERC20.sol\":4293:4479  function approve(address spender, uint256 value) public virtual returns (bool) {... */\n    tag_28:\n        /* \"@openzeppelin/contracts/token/ERC20/ERC20.sol\":4366:4370  bool */\n      0x00\n        /* \"@openzeppelin/contracts/token/ERC20/ERC20.sol\":4382:4395  address owner */\n      dup1\n        /* \"@openzeppelin/contracts/token/ERC20/ERC20.sol\":4398:4410  _msgSender() */\n      tag_91\n        /* \"@openzeppelin/contracts/token/ERC20/ERC20.sol\":4398:4408  _msgSender */\n      tag_92\n        /* \"@openzeppelin/contracts/token/ERC20/ERC20.sol\":4398:4410  _msgSender() */\n      jump\t// in\n    tag_91:\n        /* \"@openzeppelin/contracts/token/ERC20/ERC20.sol\":4382:4410  address owner = _msgSender() */\n      swap1\n      pop\n        /* \"@openzeppelin/contracts/token/ERC20/ERC20.sol\":4420:4451  _approve(owner, spender, value) */\n      tag_93\n        /* \"@openzeppelin/contracts/token/ERC20/ERC20.sol\":4429:4434  owner */\n      dup2\n        /* \"@openzeppelin/contracts/token/ERC20/ERC20.sol\":4436:4443  spender */\n      dup6\n        /* \"@openzeppelin/contracts/token/ERC20/ERC20.sol\":4445:4450  value */\n      dup6\n        /* \"@openzeppelin/contracts/token/ERC20/ERC20.sol\":4420:4428  _approve */\n      tag_94\n        /* \"@openzeppelin/contracts/token/ERC20/ERC20.sol\":4420:4451  _approve(owner, spender, value) */\n      jump\t// in\n    tag_93:\n        /* \"@openzeppelin/contracts/token/ERC20/ERC20.sol\":4468:4472  true */\n      0x01\n        /* \"@openzeppelin/contracts/token/ERC20/ERC20.sol\":4461:4472  return true */\n      swap2\n      pop\n      pop\n        /* \"@openzeppelin/contracts/token/ERC20/ERC20.sol\":4293:4479  function approve(address spender, uint256 value) public virtual returns (bool) {... */\n      swap3\n      swap2\n      pop\n      pop\n      jump\t// out\n        /* \"@openzeppelin/contracts/token/ERC20/ERC20.sol\":3144:3241  function totalSupply() public view virtual returns (uint256) {... */\n    tag_32:\n        /* \"@openzeppelin/contracts/token/ERC20/ERC20.sol\":3196:3203  uint256 */\n      0x00\n        /* \"@openzeppelin/contracts/token/ERC20/ERC20.sol\":3222:3234  _totalSupply */\n      sload(0x02)\n        /* \"@openzeppelin/contracts/token/ERC20/ERC20.sol\":3215:3234  return _totalSupply */\n      swap1\n      pop\n        /* \"@openzeppelin/contracts/token/ERC20/ERC20.sol\":3144:3241  function totalSupply() public view virtual returns (uint256) {... */\n      swap1\n      jump\t// out\n        /* \"@openzeppelin/contracts/token/ERC20/ERC20.sol\":5039:5283  function transferFrom(address from, address to, uint256 value) public virtual returns (bool) {... */\n    tag_38:\n        /* \"@openzeppelin/contracts/token/ERC20/ERC20.sol\":5126:5130  bool */\n      0x00\n        /* \"@openzeppelin/contracts/token/ERC20/ERC20.sol\":5142:5157  address spender */\n      dup1\n        /* \"@openzeppelin/contracts/token/ERC20/ERC20.sol\":5160:5172  _msgSender() */\n      tag_97\n        /* \"@openzeppelin/contracts/token/ERC20/ERC20.sol\":5160:5170  _msgSender */\n      tag_92\n        /* \"@openzeppelin/contracts/token/ERC20/ERC20.sol\":5160:5172  _msgSender() */\n      jump\t// in\n    tag_97:\n        /* \"@openzeppelin/contracts/token/ERC20/ERC20.sol\":5142:5172  address spender = _msgSender() */\n      swap1\n      pop\n        /* \"@openzeppelin/contracts/token/ERC20/ERC20.sol\":5182:5219  _spendAllowance(from, spender, value) */\n      tag_98\n        /* \"@openzeppelin/contracts/token/ERC20/ERC20.sol\":5198:5202  from */\n      dup6\n        /* \"@openzeppelin/contracts/token/ERC20/ERC20.sol\":5204:5211  spender */\n      dup3\n        /* \"@openzeppelin/contracts/token/ERC20/ERC20.sol\":5213:5218  value */\n      dup6\n        /* \"@openzeppelin/contracts/token/ERC20/ERC20.sol\":5182:5197  _spendAllowance */\n      tag_99\n        /* \"@openzeppelin/contracts/token/ERC20/ERC20.sol\":5182:5219  _spendAllowance(from, spender, value) */\n      jump\t// in\n    tag_98:\n        /* \"@openzeppelin/contracts/token/ERC20/ERC20.sol\":5229:5255  _transfer(from, to, value) */\n      tag_100\n        /* \"@openzeppelin/contracts/token/ERC20/ERC20.sol\":5239:5243  from */\n      dup6\n        /* \"@openzeppelin/contracts/token/ERC20/ERC20.sol\":5245:5247  to */\n      dup6\n        /* \"@openzeppelin/contracts/token/ERC20/ERC20.sol\":5249:5254  value */\n      dup6\n        /* \"@openzeppelin/contracts/token/ERC20/ERC20.sol\":5229:5238  _transfer */\n      tag_101\n        /* \"@openzeppelin/contracts/token/ERC20/ERC20.sol\":5229:5255  _transfer(from, to, value) */\n      jump\t// in\n    tag_100:\n        /* \"@openzeppelin/contracts/token/ERC20/ERC20.sol\":5272:5276  true */\n      0x01\n        /* \"@openzeppelin/contracts/token/ERC20/ERC20.sol\":5265:5276  return true */\n      swap2\n      pop\n      pop\n        /* \"@openzeppelin/contracts/token/ERC20/ERC20.sol\":5039:5283  function transferFrom(address from, address to, uint256 value) public virtual returns (bool) {... */\n      swap4\n      swap3\n      pop\n      pop\n      pop\n      jump\t// out\n        /* \"contracts/tokenA.sol\":232:288  uint256 public INITIAL_SUPPLY = 1000000 * 10**decimals() */\n    tag_41:\n      sload(0x08)\n      dup2\n      jump\t// out\n        /* \"@openzeppelin/contracts/token/ERC20/ERC20.sol\":3002:3084  function decimals() public view virtual returns (uint8) {... */\n    tag_44:\n        /* \"@openzeppelin/contracts/token/ERC20/ERC20.sol\":3051:3056  uint8 */\n      0x00\n        /* \"@openzeppelin/contracts/token/ERC20/ERC20.sol\":3075:3077  18 */\n      0x12\n        /* \"@openzeppelin/contracts/token/ERC20/ERC20.sol\":3068:3077  return 18 */\n      swap1\n      pop\n        /* \"@openzeppelin/contracts/token/ERC20/ERC20.sol\":3002:3084  function decimals() public view virtual returns (uint8) {... */\n      swap1\n      jump\t// out\n        /* \"@openzeppelin/contracts/token/ERC20/extensions/ERC20Permit.sol\":2656:2768  function DOMAIN_SEPARATOR() external view virtual returns (bytes32) {... */\n    tag_48:\n        /* \"@openzeppelin/contracts/token/ERC20/extensions/ERC20Permit.sol\":2715:2722  bytes32 */\n      0x00\n        /* \"@openzeppelin/contracts/token/ERC20/extensions/ERC20Permit.sol\":2741:2761  _domainSeparatorV4() */\n      tag_104\n        /* \"@openzeppelin/contracts/token/ERC20/extensions/ERC20Permit.sol\":2741:2759  _domainSeparatorV4 */\n      tag_105\n        /* \"@openzeppelin/contracts/token/ERC20/extensions/ERC20Permit.sol\":2741:2761  _domainSeparatorV4() */\n      jump\t// in\n    tag_104:\n        /* \"@openzeppelin/contracts/token/ERC20/extensions/ERC20Permit.sol\":2734:2761  return _domainSeparatorV4() */\n      swap1\n      pop\n        /* \"@openzeppelin/contracts/token/ERC20/extensions/ERC20Permit.sol\":2656:2768  function DOMAIN_SEPARATOR() external view virtual returns (bytes32) {... */\n      swap1\n      jump\t// out\n        /* \"contracts/tokenA.sol\":411:494  function mint(address to, uint256 amount) public {... */\n    tag_53:\n        /* \"contracts/tokenA.sol\":470:487  _mint(to, amount) */\n      tag_107\n        /* \"contracts/tokenA.sol\":476:478  to */\n      dup3\n        /* \"contracts/tokenA.sol\":480:486  amount */\n      dup3\n        /* \"contracts/tokenA.sol\":470:475  _mint */\n      tag_108\n        /* \"contracts/tokenA.sol\":470:487  _mint(to, amount) */\n      jump\t// in\n    tag_107:\n        /* \"contracts/tokenA.sol\":411:494  function mint(address to, uint256 amount) public {... */\n      pop\n      pop\n      jump\t// out\n        /* \"@openzeppelin/contracts/token/ERC20/ERC20.sol\":3299:3415  function balanceOf(address account) public view virtual returns (uint256) {... */\n    tag_57:\n        /* \"@openzeppelin/contracts/token/ERC20/ERC20.sol\":3364:3371  uint256 */\n      0x00\n        /* \"@openzeppelin/contracts/token/ERC20/ERC20.sol\":3390:3399  _balances */\n      dup1\n        /* \"@openzeppelin/contracts/token/ERC20/ERC20.sol\":3390:3408  _balances[account] */\n      0x00\n        /* \"@openzeppelin/contracts/token/ERC20/ERC20.sol\":3400:3407  account */\n      dup4\n        /* \"@openzeppelin/contracts/token/ERC20/ERC20.sol\":3390:3408  _balances[account] */\n      0xffffffffffffffffffffffffffffffffffffffff\n      and\n      0xffffffffffffffffffffffffffffffffffffffff\n      and\n      dup2\n      mstore\n      0x20\n      add\n      swap1\n      dup2\n      mstore\n      0x20\n      add\n      0x00\n      keccak256\n      sload\n        /* \"@openzeppelin/contracts/token/ERC20/ERC20.sol\":3383:3408  return _balances[account] */\n      swap1\n      pop\n        /* \"@openzeppelin/contracts/token/ERC20/ERC20.sol\":3299:3415  function balanceOf(address account) public view virtual returns (uint256) {... */\n      swap2\n      swap1\n      pop\n      jump\t// out\n        /* \"@openzeppelin/contracts/token/ERC20/extensions/ERC20Permit.sol\":2406:2549  function nonces(address owner) public view virtual override(IERC20Permit, Nonces) returns (uint256) {... */\n    tag_61:\n        /* \"@openzeppelin/contracts/token/ERC20/extensions/ERC20Permit.sol\":2497:2504  uint256 */\n      0x00\n        /* \"@openzeppelin/contracts/token/ERC20/extensions/ERC20Permit.sol\":2523:2542  super.nonces(owner) */\n      tag_111\n        /* \"@openzeppelin/contracts/token/ERC20/extensions/ERC20Permit.sol\":2536:2541  owner */\n      dup3\n        /* \"@openzeppelin/contracts/token/ERC20/extensions/ERC20Permit.sol\":2523:2535  super.nonces */\n      tag_112\n        /* \"@openzeppelin/contracts/token/ERC20/extensions/ERC20Permit.sol\":2523:2542  super.nonces(owner) */\n      jump\t// in\n    tag_111:\n        /* \"@openzeppelin/contracts/token/ERC20/extensions/ERC20Permit.sol\":2516:2542  return super.nonces(owner) */\n      swap1\n      pop\n        /* \"@openzeppelin/contracts/token/ERC20/extensions/ERC20Permit.sol\":2406:2549  function nonces(address owner) public view virtual override(IERC20Permit, Nonces) returns (uint256) {... */\n      swap2\n      swap1\n      pop\n      jump\t// out\n        /* \"@openzeppelin/contracts/utils/cryptography/EIP712.sol\":5144:5701  function eip712Domain()... */\n    tag_64:\n        /* \"@openzeppelin/contracts/utils/cryptography/EIP712.sol\":5242:5255  bytes1 fields */\n      0x00\n        /* \"@openzeppelin/contracts/utils/cryptography/EIP712.sol\":5269:5287  string memory name */\n      0x60\n        /* \"@openzeppelin/contracts/utils/cryptography/EIP712.sol\":5301:5322  string memory version */\n      dup1\n        /* \"@openzeppelin/contracts/utils/cryptography/EIP712.sol\":5336:5351  uint256 chainId */\n      0x00\n        /* \"@openzeppelin/contracts/utils/cryptography/EIP712.sol\":5365:5390  address verifyingContract */\n      dup1\n        /* \"@openzeppelin/contracts/utils/cryptography/EIP712.sol\":5404:5416  bytes32 salt */\n      0x00\n        /* \"@openzeppelin/contracts/utils/cryptography/EIP712.sol\":5430:5457  uint256[] memory extensions */\n      0x60\n        /* \"@openzeppelin/contracts/utils/cryptography/EIP712.sol\":5533:5546  _EIP712Name() */\n      tag_114\n        /* \"@openzeppelin/contracts/utils/cryptography/EIP712.sol\":5533:5544  _EIP712Name */\n      tag_115\n        /* \"@openzeppelin/contracts/utils/cryptography/EIP712.sol\":5533:5546  _EIP712Name() */\n      jump\t// in\n    tag_114:\n        /* \"@openzeppelin/contracts/utils/cryptography/EIP712.sol\":5560:5576  _EIP712Version() */\n      tag_116\n        /* \"@openzeppelin/contracts/utils/cryptography/EIP712.sol\":5560:5574  _EIP712Version */\n      tag_117\n        /* \"@openzeppelin/contracts/utils/cryptography/EIP712.sol\":5560:5576  _EIP712Version() */\n      jump\t// in\n    tag_116:\n        /* \"@openzeppelin/contracts/utils/cryptography/EIP712.sol\":5590:5603  block.chainid */\n      chainid\n        /* \"@openzeppelin/contracts/utils/cryptography/EIP712.sol\":5625:5629  this */\n      address\n        /* \"@openzeppelin/contracts/utils/cryptography/EIP712.sol\":5652:5653  0 */\n      0x00\n        /* \"@openzeppelin/contracts/utils/cryptography/EIP712.sol\":5644:5654  bytes32(0) */\n      dup1\n      shl\n        /* \"@openzeppelin/contracts/utils/cryptography/EIP712.sol\":5682:5683  0 */\n      0x00\n        /* \"@openzeppelin/contracts/utils/cryptography/EIP712.sol\":5668:5684  new uint256[](0) */\n      0xffffffffffffffff\n      dup2\n      gt\n      iszero\n      tag_118\n      jumpi\n      tag_119\n      tag_120\n      jump\t// in\n    tag_119:\n    tag_118:\n      mload(0x40)\n      swap1\n      dup1\n      dup3\n      mstore\n      dup1\n      0x20\n      mul\n      0x20\n      add\n      dup3\n      add\n      0x40\n      mstore\n      dup1\n      iszero\n      tag_121\n      jumpi\n      dup2\n      0x20\n      add\n      0x20\n      dup3\n      mul\n      dup1\n      calldatasize\n      dup4\n      calldatacopy\n      dup1\n      dup3\n      add\n      swap2\n      pop\n      pop\n      swap1\n      pop\n    tag_121:\n      pop\n        /* \"@openzeppelin/contracts/utils/cryptography/EIP712.sol\":5482:5694  return (... */\n      0x0f00000000000000000000000000000000000000000000000000000000000000\n      swap6\n      swap5\n      swap4\n      swap3\n      swap2\n      swap1\n      swap7\n      pop\n      swap7\n      pop\n      swap7\n      pop\n      swap7\n      pop\n      swap7\n      pop\n      swap7\n      pop\n      swap7\n      pop\n        /* \"@openzeppelin/contracts/utils/cryptography/EIP712.sol\":5144:5701  function eip712Domain()... */\n      swap1\n      swap2\n      swap3\n      swap4\n      swap5\n      swap6\n      swap7\n      jump\t// out\n        /* \"@openzeppelin/contracts/token/ERC20/ERC20.sol\":2276:2369  function symbol() public view virtual returns (string memory) {... */\n    tag_68:\n        /* \"@openzeppelin/contracts/token/ERC20/ERC20.sol\":2323:2336  string memory */\n      0x60\n        /* \"@openzeppelin/contracts/token/ERC20/ERC20.sol\":2355:2362  _symbol */\n      0x04\n        /* \"@openzeppelin/contracts/token/ERC20/ERC20.sol\":2348:2362  return _symbol */\n      dup1\n      sload\n      tag_123\n      swap1\n      tag_85\n      jump\t// in\n    tag_123:\n      dup1\n      0x1f\n      add\n      0x20\n      dup1\n      swap2\n      div\n      mul\n      0x20\n      add\n      mload(0x40)\n      swap1\n      dup2\n      add\n      0x40\n      mstore\n      dup1\n      swap3\n      swap2\n      swap1\n      dup2\n      dup2\n      mstore\n      0x20\n      add\n      dup3\n      dup1\n      sload\n      tag_124\n      swap1\n      tag_85\n      jump\t// in\n    tag_124:\n      dup1\n      iszero\n      tag_125\n      jumpi\n      dup1\n      0x1f\n      lt\n      tag_126\n      jumpi\n      0x0100\n      dup1\n      dup4\n      sload\n      div\n      mul\n      dup4\n      mstore\n      swap2\n      0x20\n      add\n      swap2\n      jump(tag_125)\n    tag_126:\n      dup3\n      add\n      swap2\n      swap1\n      0x00\n      mstore\n      keccak256(0x00, 0x20)\n      swap1\n    tag_127:\n      dup2\n      sload\n      dup2\n      mstore\n      swap1\n      0x01\n      add\n      swap1\n      0x20\n      add\n      dup1\n      dup4\n      gt\n      tag_127\n      jumpi\n      dup3\n      swap1\n      sub\n      0x1f\n      and\n      dup3\n      add\n      swap2\n    tag_125:\n      pop\n      pop\n      pop\n      pop\n      pop\n      swap1\n      pop\n        /* \"@openzeppelin/contracts/token/ERC20/ERC20.sol\":2276:2369  function symbol() public view virtual returns (string memory) {... */\n      swap1\n      jump\t// out\n        /* \"@openzeppelin/contracts/token/ERC20/ERC20.sol\":3610:3788  function transfer(address to, uint256 value) public virtual returns (bool) {... */\n    tag_72:\n        /* \"@openzeppelin/contracts/token/ERC20/ERC20.sol\":3679:3683  bool */\n      0x00\n        /* \"@openzeppelin/contracts/token/ERC20/ERC20.sol\":3695:3708  address owner */\n      dup1\n        /* \"@openzeppelin/contracts/token/ERC20/ERC20.sol\":3711:3723  _msgSender() */\n      tag_129\n        /* \"@openzeppelin/contracts/token/ERC20/ERC20.sol\":3711:3721  _msgSender */\n      tag_92\n        /* \"@openzeppelin/contracts/token/ERC20/ERC20.sol\":3711:3723  _msgSender() */\n      jump\t// in\n    tag_129:\n        /* \"@openzeppelin/contracts/token/ERC20/ERC20.sol\":3695:3723  address owner = _msgSender() */\n      swap1\n      pop\n        /* \"@openzeppelin/contracts/token/ERC20/ERC20.sol\":3733:3760  _transfer(owner, to, value) */\n      tag_130\n        /* \"@openzeppelin/contracts/token/ERC20/ERC20.sol\":3743:3748  owner */\n      dup2\n        /* \"@openzeppelin/contracts/token/ERC20/ERC20.sol\":3750:3752  to */\n      dup6\n        /* \"@openzeppelin/contracts/token/ERC20/ERC20.sol\":3754:3759  value */\n      dup6\n        /* \"@openzeppelin/contracts/token/ERC20/ERC20.sol\":3733:3742  _transfer */\n      tag_101\n        /* \"@openzeppelin/contracts/token/ERC20/ERC20.sol\":3733:3760  _transfer(owner, to, value) */\n      jump\t// in\n    tag_130:\n        /* \"@openzeppelin/contracts/token/ERC20/ERC20.sol\":3777:3781  true */\n      0x01\n        /* \"@openzeppelin/contracts/token/ERC20/ERC20.sol\":3770:3781  return true */\n      swap2\n      pop\n      pop\n        /* \"@openzeppelin/contracts/token/ERC20/ERC20.sol\":3610:3788  function transfer(address to, uint256 value) public virtual returns (bool) {... */\n      swap3\n      swap2\n      pop\n      pop\n      jump\t// out\n        /* \"@openzeppelin/contracts/token/ERC20/extensions/ERC20Permit.sol\":1680:2352  function permit(... */\n    tag_77:\n        /* \"@openzeppelin/contracts/token/ERC20/extensions/ERC20Permit.sol\":1901:1909  deadline */\n      dup4\n        /* \"@openzeppelin/contracts/token/ERC20/extensions/ERC20Permit.sol\":1883:1898  block.timestamp */\n      timestamp\n        /* \"@openzeppelin/contracts/token/ERC20/extensions/ERC20Permit.sol\":1883:1909  block.timestamp > deadline */\n      gt\n        /* \"@openzeppelin/contracts/token/ERC20/extensions/ERC20Permit.sol\":1879:1976  if (block.timestamp > deadline) {... */\n      iszero\n      tag_132\n      jumpi\n        /* \"@openzeppelin/contracts/token/ERC20/extensions/ERC20Permit.sol\":1956:1964  deadline */\n      dup4\n        /* \"@openzeppelin/contracts/token/ERC20/extensions/ERC20Permit.sol\":1932:1965  ERC2612ExpiredSignature(deadline) */\n      mload(0x40)\n      0x6279130200000000000000000000000000000000000000000000000000000000\n      dup2\n      mstore\n      0x04\n      add\n      tag_133\n      swap2\n      swap1\n      tag_34\n      jump\t// in\n    tag_133:\n      mload(0x40)\n      dup1\n      swap2\n      sub\n      swap1\n      revert\n        /* \"@openzeppelin/contracts/token/ERC20/extensions/ERC20Permit.sol\":1879:1976  if (block.timestamp > deadline) {... */\n    tag_132:\n        /* \"@openzeppelin/contracts/token/ERC20/extensions/ERC20Permit.sol\":1986:2004  bytes32 structHash */\n      0x00\n        /* \"@openzeppelin/contracts/token/ERC20/extensions/ERC20Permit.sol\":1022:1117  keccak256(\"Permit(address owner,address spender,uint256 value,uint256 nonce,uint256 deadline)\") */\n      0x6e71edae12b1b97f4d1f60370fef10105fa2faae0126114a169c64845d6126c9\n        /* \"@openzeppelin/contracts/token/ERC20/extensions/ERC20Permit.sol\":2045:2050  owner */\n      dup9\n        /* \"@openzeppelin/contracts/token/ERC20/extensions/ERC20Permit.sol\":2052:2059  spender */\n      dup9\n        /* \"@openzeppelin/contracts/token/ERC20/extensions/ERC20Permit.sol\":2061:2066  value */\n      dup9\n        /* \"@openzeppelin/contracts/token/ERC20/extensions/ERC20Permit.sol\":2068:2084  _useNonce(owner) */\n      tag_134\n        /* \"@openzeppelin/contracts/token/ERC20/extensions/ERC20Permit.sol\":2078:2083  owner */\n      dup13\n        /* \"@openzeppelin/contracts/token/ERC20/extensions/ERC20Permit.sol\":2068:2077  _useNonce */\n      tag_135\n        /* \"@openzeppelin/contracts/token/ERC20/extensions/ERC20Permit.sol\":2068:2084  _useNonce(owner) */\n      jump\t// in\n    tag_134:\n        /* \"@openzeppelin/contracts/token/ERC20/extensions/ERC20Permit.sol\":2086:2094  deadline */\n      dup10\n        /* \"@openzeppelin/contracts/token/ERC20/extensions/ERC20Permit.sol\":2017:2095  abi.encode(PERMIT_TYPEHASH, owner, spender, value, _useNonce(owner), deadline) */\n      add(0x20, mload(0x40))\n      tag_136\n      swap7\n      swap6\n      swap5\n      swap4\n      swap3\n      swap2\n      swap1\n      tag_137\n      jump\t// in\n    tag_136:\n      mload(0x40)\n      0x20\n      dup2\n      dup4\n      sub\n      sub\n      dup2\n      mstore\n      swap1\n      0x40\n      mstore\n        /* \"@openzeppelin/contracts/token/ERC20/extensions/ERC20Permit.sol\":2007:2096  keccak256(abi.encode(PERMIT_TYPEHASH, owner, spender, value, _useNonce(owner), deadline)) */\n      dup1\n      mload\n      swap1\n      0x20\n      add\n      keccak256\n        /* \"@openzeppelin/contracts/token/ERC20/extensions/ERC20Permit.sol\":1986:2096  bytes32 structHash = keccak256(abi.encode(PERMIT_TYPEHASH, owner, spender, value, _useNonce(owner), deadline)) */\n      swap1\n      pop\n        /* \"@openzeppelin/contracts/token/ERC20/extensions/ERC20Permit.sol\":2107:2119  bytes32 hash */\n      0x00\n        /* \"@openzeppelin/contracts/token/ERC20/extensions/ERC20Permit.sol\":2122:2150  _hashTypedDataV4(structHash) */\n      tag_138\n        /* \"@openzeppelin/contracts/token/ERC20/extensions/ERC20Permit.sol\":2139:2149  structHash */\n      dup3\n        /* \"@openzeppelin/contracts/token/ERC20/extensions/ERC20Permit.sol\":2122:2138  _hashTypedDataV4 */\n      tag_139\n        /* \"@openzeppelin/contracts/token/ERC20/extensions/ERC20Permit.sol\":2122:2150  _hashTypedDataV4(structHash) */\n      jump\t// in\n    tag_138:\n        /* \"@openzeppelin/contracts/token/ERC20/extensions/ERC20Permit.sol\":2107:2150  bytes32 hash = _hashTypedDataV4(structHash) */\n      swap1\n      pop\n        /* \"@openzeppelin/contracts/token/ERC20/extensions/ERC20Permit.sol\":2161:2175  address signer */\n      0x00\n        /* \"@openzeppelin/contracts/token/ERC20/extensions/ERC20Permit.sol\":2178:2206  ECDSA.recover(hash, v, r, s) */\n      tag_140\n        /* \"@openzeppelin/contracts/token/ERC20/extensions/ERC20Permit.sol\":2192:2196  hash */\n      dup3\n        /* \"@openzeppelin/contracts/token/ERC20/extensions/ERC20Permit.sol\":2198:2199  v */\n      dup8\n        /* \"@openzeppelin/contracts/token/ERC20/extensions/ERC20Permit.sol\":2201:2202  r */\n      dup8\n        /* \"@openzeppelin/contracts/token/ERC20/extensions/ERC20Permit.sol\":2204:2205  s */\n      dup8\n        /* \"@openzeppelin/contracts/token/ERC20/extensions/ERC20Permit.sol\":2178:2191  ECDSA.recover */\n      tag_141\n        /* \"@openzeppelin/contracts/token/ERC20/extensions/ERC20Permit.sol\":2178:2206  ECDSA.recover(hash, v, r, s) */\n      jump\t// in\n    tag_140:\n        /* \"@openzeppelin/contracts/token/ERC20/extensions/ERC20Permit.sol\":2161:2206  address signer = ECDSA.recover(hash, v, r, s) */\n      swap1\n      pop\n        /* \"@openzeppelin/contracts/token/ERC20/extensions/ERC20Permit.sol\":2230:2235  owner */\n      dup10\n        /* \"@openzeppelin/contracts/token/ERC20/extensions/ERC20Permit.sol\":2220:2235  signer != owner */\n      0xffffffffffffffffffffffffffffffffffffffff\n      and\n        /* \"@openzeppelin/contracts/token/ERC20/extensions/ERC20Permit.sol\":2220:2226  signer */\n      dup2\n        /* \"@openzeppelin/contracts/token/ERC20/extensions/ERC20Permit.sol\":2220:2235  signer != owner */\n      0xffffffffffffffffffffffffffffffffffffffff\n      and\n      eq\n        /* \"@openzeppelin/contracts/token/ERC20/extensions/ERC20Permit.sol\":2216:2304  if (signer != owner) {... */\n      tag_142\n      jumpi\n        /* \"@openzeppelin/contracts/token/ERC20/extensions/ERC20Permit.sol\":2279:2285  signer */\n      dup1\n        /* \"@openzeppelin/contracts/token/ERC20/extensions/ERC20Permit.sol\":2287:2292  owner */\n      dup11\n        /* \"@openzeppelin/contracts/token/ERC20/extensions/ERC20Permit.sol\":2258:2293  ERC2612InvalidSigner(signer, owner) */\n      mload(0x40)\n      0x4b800e4600000000000000000000000000000000000000000000000000000000\n      dup2\n      mstore\n      0x04\n      add\n      tag_143\n      swap3\n      swap2\n      swap1\n      tag_144\n      jump\t// in\n    tag_143:\n      mload(0x40)\n      dup1\n      swap2\n      sub\n      swap1\n      revert\n        /* \"@openzeppelin/contracts/token/ERC20/extensions/ERC20Permit.sol\":2216:2304  if (signer != owner) {... */\n    tag_142:\n        /* \"@openzeppelin/contracts/token/ERC20/extensions/ERC20Permit.sol\":2314:2345  _approve(owner, spender, value) */\n      tag_145\n        /* \"@openzeppelin/contracts/token/ERC20/extensions/ERC20Permit.sol\":2323:2328  owner */\n      dup11\n        /* \"@openzeppelin/contracts/token/ERC20/extensions/ERC20Permit.sol\":2330:2337  spender */\n      dup11\n        /* \"@openzeppelin/contracts/token/ERC20/extensions/ERC20Permit.sol\":2339:2344  value */\n      dup11\n        /* \"@openzeppelin/contracts/token/ERC20/extensions/ERC20Permit.sol\":2314:2322  _approve */\n      tag_94\n        /* \"@openzeppelin/contracts/token/ERC20/extensions/ERC20Permit.sol\":2314:2345  _approve(owner, spender, value) */\n      jump\t// in\n    tag_145:\n        /* \"@openzeppelin/contracts/token/ERC20/extensions/ERC20Permit.sol\":1869:2352  {... */\n      pop\n      pop\n      pop\n        /* \"@openzeppelin/contracts/token/ERC20/extensions/ERC20Permit.sol\":1680:2352  function permit(... */\n      pop\n      pop\n      pop\n      pop\n      pop\n      pop\n      pop\n      jump\t// out\n        /* \"@openzeppelin/contracts/token/ERC20/ERC20.sol\":3846:3986  function allowance(address owner, address spender) public view virtual returns (uint256) {... */\n    tag_81:\n        /* \"@openzeppelin/contracts/token/ERC20/ERC20.sol\":3926:3933  uint256 */\n      0x00\n        /* \"@openzeppelin/contracts/token/ERC20/ERC20.sol\":3952:3963  _allowances */\n      0x01\n        /* \"@openzeppelin/contracts/token/ERC20/ERC20.sol\":3952:3970  _allowances[owner] */\n      0x00\n        /* \"@openzeppelin/contracts/token/ERC20/ERC20.sol\":3964:3969  owner */\n      dup5\n        /* \"@openzeppelin/contracts/token/ERC20/ERC20.sol\":3952:3970  _allowances[owner] */\n      0xffffffffffffffffffffffffffffffffffffffff\n      and\n      0xffffffffffffffffffffffffffffffffffffffff\n      and\n      dup2\n      mstore\n      0x20\n      add\n      swap1\n      dup2\n      mstore\n      0x20\n      add\n      0x00\n      keccak256\n        /* \"@openzeppelin/contracts/token/ERC20/ERC20.sol\":3952:3979  _allowances[owner][spender] */\n      0x00\n        /* \"@openzeppelin/contracts/token/ERC20/ERC20.sol\":3971:3978  spender */\n      dup4\n        /* \"@openzeppelin/contracts/token/ERC20/ERC20.sol\":3952:3979  _allowances[owner][spender] */\n      0xffffffffffffffffffffffffffffffffffffffff\n      and\n      0xffffffffffffffffffffffffffffffffffffffff\n      and\n      dup2\n      mstore\n      0x20\n      add\n      swap1\n      dup2\n      mstore\n      0x20\n      add\n      0x00\n      keccak256\n      sload\n        /* \"@openzeppelin/contracts/token/ERC20/ERC20.sol\":3945:3979  return _allowances[owner][spender] */\n      swap1\n      pop\n        /* \"@openzeppelin/contracts/token/ERC20/ERC20.sol\":3846:3986  function allowance(address owner, address spender) public view virtual returns (uint256) {... */\n      swap3\n      swap2\n      pop\n      pop\n      jump\t// out\n        /* \"@openzeppelin/contracts/utils/Context.sol\":656:752  function _msgSender() internal view virtual returns (address) {... */\n    tag_92:\n        /* \"@openzeppelin/contracts/utils/Context.sol\":709:716  address */\n      0x00\n        /* \"@openzeppelin/contracts/utils/Context.sol\":735:745  msg.sender */\n      caller\n        /* \"@openzeppelin/contracts/utils/Context.sol\":728:745  return msg.sender */\n      swap1\n      pop\n        /* \"@openzeppelin/contracts/utils/Context.sol\":656:752  function _msgSender() internal view virtual returns (address) {... */\n      swap1\n      jump\t// out\n        /* \"@openzeppelin/contracts/token/ERC20/ERC20.sol\":8989:9117  function _approve(address owner, address spender, uint256 value) internal {... */\n    tag_94:\n        /* \"@openzeppelin/contracts/token/ERC20/ERC20.sol\":9073:9110  _approve(owner, spender, value, true) */\n      tag_149\n        /* \"@openzeppelin/contracts/token/ERC20/ERC20.sol\":9082:9087  owner */\n      dup4\n        /* \"@openzeppelin/contracts/token/ERC20/ERC20.sol\":9089:9096  spender */\n      dup4\n        /* \"@openzeppelin/contracts/token/ERC20/ERC20.sol\":9098:9103  value */\n      dup4\n        /* \"@openzeppelin/contracts/token/ERC20/ERC20.sol\":9105:9109  true */\n      0x01\n        /* \"@openzeppelin/contracts/token/ERC20/ERC20.sol\":9073:9081  _approve */\n      tag_150\n        /* \"@openzeppelin/contracts/token/ERC20/ERC20.sol\":9073:9110  _approve(owner, spender, value, true) */\n      jump\t// in\n    tag_149:\n        /* \"@openzeppelin/contracts/token/ERC20/ERC20.sol\":8989:9117  function _approve(address owner, address spender, uint256 value) internal {... */\n      pop\n      pop\n      pop\n      jump\t// out\n        /* \"@openzeppelin/contracts/token/ERC20/ERC20.sol\":10663:11140  function _spendAllowance(address owner, address spender, uint256 value) internal virtual {... */\n    tag_99:\n        /* \"@openzeppelin/contracts/token/ERC20/ERC20.sol\":10762:10786  uint256 currentAllowance */\n      0x00\n        /* \"@openzeppelin/contracts/token/ERC20/ERC20.sol\":10789:10814  allowance(owner, spender) */\n      tag_152\n        /* \"@openzeppelin/contracts/token/ERC20/ERC20.sol\":10799:10804  owner */\n      dup5\n        /* \"@openzeppelin/contracts/token/ERC20/ERC20.sol\":10806:10813  spender */\n      dup5\n        /* \"@openzeppelin/contracts/token/ERC20/ERC20.sol\":10789:10798  allowance */\n      tag_81\n        /* \"@openzeppelin/contracts/token/ERC20/ERC20.sol\":10789:10814  allowance(owner, spender) */\n      jump\t// in\n    tag_152:\n        /* \"@openzeppelin/contracts/token/ERC20/ERC20.sol\":10762:10814  uint256 currentAllowance = allowance(owner, spender) */\n      swap1\n      pop\n        /* \"@openzeppelin/contracts/token/ERC20/ERC20.sol\":10848:10865  type(uint256).max */\n      0xffffffffffffffffffffffffffffffffffffffffffffffffffffffffffffffff\n        /* \"@openzeppelin/contracts/token/ERC20/ERC20.sol\":10828:10844  currentAllowance */\n      dup2\n        /* \"@openzeppelin/contracts/token/ERC20/ERC20.sol\":10828:10865  currentAllowance != type(uint256).max */\n      eq\n        /* \"@openzeppelin/contracts/token/ERC20/ERC20.sol\":10824:11134  if (currentAllowance != type(uint256).max) {... */\n      tag_153\n      jumpi\n        /* \"@openzeppelin/contracts/token/ERC20/ERC20.sol\":10904:10909  value */\n      dup2\n        /* \"@openzeppelin/contracts/token/ERC20/ERC20.sol\":10885:10901  currentAllowance */\n      dup2\n        /* \"@openzeppelin/contracts/token/ERC20/ERC20.sol\":10885:10909  currentAllowance < value */\n      lt\n        /* \"@openzeppelin/contracts/token/ERC20/ERC20.sol\":10881:11011  if (currentAllowance < value) {... */\n      iszero\n      tag_154\n      jumpi\n        /* \"@openzeppelin/contracts/token/ERC20/ERC20.sol\":10963:10970  spender */\n      dup3\n        /* \"@openzeppelin/contracts/token/ERC20/ERC20.sol\":10972:10988  currentAllowance */\n      dup2\n        /* \"@openzeppelin/contracts/token/ERC20/ERC20.sol\":10990:10995  value */\n      dup4\n        /* \"@openzeppelin/contracts/token/ERC20/ERC20.sol\":10936:10996  ERC20InsufficientAllowance(spender, currentAllowance, value) */\n      mload(0x40)\n      0xfb8f41b200000000000000000000000000000000000000000000000000000000\n      dup2\n      mstore\n      0x04\n      add\n      tag_155\n      swap4\n      swap3\n      swap2\n      swap1\n      tag_156\n      jump\t// in\n    tag_155:\n      mload(0x40)\n      dup1\n      swap2\n      sub\n      swap1\n      revert\n        /* \"@openzeppelin/contracts/token/ERC20/ERC20.sol\":10881:11011  if (currentAllowance < value) {... */\n    tag_154:\n        /* \"@openzeppelin/contracts/token/ERC20/ERC20.sol\":11052:11109  _approve(owner, spender, currentAllowance - value, false) */\n      tag_157\n        /* \"@openzeppelin/contracts/token/ERC20/ERC20.sol\":11061:11066  owner */\n      dup5\n        /* \"@openzeppelin/contracts/token/ERC20/ERC20.sol\":11068:11075  spender */\n      dup5\n        /* \"@openzeppelin/contracts/token/ERC20/ERC20.sol\":11096:11101  value */\n      dup5\n        /* \"@openzeppelin/contracts/token/ERC20/ERC20.sol\":11077:11093  currentAllowance */\n      dup5\n        /* \"@openzeppelin/contracts/token/ERC20/ERC20.sol\":11077:11101  currentAllowance - value */\n      sub\n        /* \"@openzeppelin/contracts/token/ERC20/ERC20.sol\":11103:11108  false */\n      0x00\n        /* \"@openzeppelin/contracts/token/ERC20/ERC20.sol\":11052:11060  _approve */\n      tag_150\n        /* \"@openzeppelin/contracts/token/ERC20/ERC20.sol\":11052:11109  _approve(owner, spender, currentAllowance - value, false) */\n      jump\t// in\n    tag_157:\n        /* \"@openzeppelin/contracts/token/ERC20/ERC20.sol\":10824:11134  if (currentAllowance != type(uint256).max) {... */\n    tag_153:\n        /* \"@openzeppelin/contracts/token/ERC20/ERC20.sol\":10752:11140  {... */\n      pop\n        /* \"@openzeppelin/contracts/token/ERC20/ERC20.sol\":10663:11140  function _spendAllowance(address owner, address spender, uint256 value) internal virtual {... */\n      pop\n      pop\n      pop\n      jump\t// out\n        /* \"@openzeppelin/contracts/token/ERC20/ERC20.sol\":5656:5956  function _transfer(address from, address to, uint256 value) internal {... */\n    tag_101:\n        /* \"@openzeppelin/contracts/token/ERC20/ERC20.sol\":5755:5756  0 */\n      0x00\n        /* \"@openzeppelin/contracts/token/ERC20/ERC20.sol\":5739:5757  from == address(0) */\n      0xffffffffffffffffffffffffffffffffffffffff\n      and\n        /* \"@openzeppelin/contracts/token/ERC20/ERC20.sol\":5739:5743  from */\n      dup4\n        /* \"@openzeppelin/contracts/token/ERC20/ERC20.sol\":5739:5757  from == address(0) */\n      0xffffffffffffffffffffffffffffffffffffffff\n      and\n      sub\n        /* \"@openzeppelin/contracts/token/ERC20/ERC20.sol\":5735:5821  if (from == address(0)) {... */\n      tag_159\n      jumpi\n        /* \"@openzeppelin/contracts/token/ERC20/ERC20.sol\":5807:5808  0 */\n      0x00\n        /* \"@openzeppelin/contracts/token/ERC20/ERC20.sol\":5780:5810  ERC20InvalidSender(address(0)) */\n      mload(0x40)\n      0x96c6fd1e00000000000000000000000000000000000000000000000000000000\n      dup2\n      mstore\n      0x04\n      add\n      tag_160\n      swap2\n      swap1\n      tag_161\n      jump\t// in\n    tag_160:\n      mload(0x40)\n      dup1\n      swap2\n      sub\n      swap1\n      revert\n        /* \"@openzeppelin/contracts/token/ERC20/ERC20.sol\":5735:5821  if (from == address(0)) {... */\n    tag_159:\n        /* \"@openzeppelin/contracts/token/ERC20/ERC20.sol\":5848:5849  0 */\n      0x00\n        /* \"@openzeppelin/contracts/token/ERC20/ERC20.sol\":5834:5850  to == address(0) */\n      0xffffffffffffffffffffffffffffffffffffffff\n      and\n        /* \"@openzeppelin/contracts/token/ERC20/ERC20.sol\":5834:5836  to */\n      dup3\n        /* \"@openzeppelin/contracts/token/ERC20/ERC20.sol\":5834:5850  to == address(0) */\n      0xffffffffffffffffffffffffffffffffffffffff\n      and\n      sub\n        /* \"@openzeppelin/contracts/token/ERC20/ERC20.sol\":5830:5916  if (to == address(0)) {... */\n      tag_162\n      jumpi\n        /* \"@openzeppelin/contracts/token/ERC20/ERC20.sol\":5902:5903  0 */\n      0x00\n        /* \"@openzeppelin/contracts/token/ERC20/ERC20.sol\":5873:5905  ERC20InvalidReceiver(address(0)) */\n      mload(0x40)\n      0xec442f0500000000000000000000000000000000000000000000000000000000\n      dup2\n      mstore\n      0x04\n      add\n      tag_163\n      swap2\n      swap1\n      tag_161\n      jump\t// in\n    tag_163:\n      mload(0x40)\n      dup1\n      swap2\n      sub\n      swap1\n      revert\n        /* \"@openzeppelin/contracts/token/ERC20/ERC20.sol\":5830:5916  if (to == address(0)) {... */\n    tag_162:\n        /* \"@openzeppelin/contracts/token/ERC20/ERC20.sol\":5925:5949  _update(from, to, value) */\n      tag_164\n        /* \"@openzeppelin/contracts/token/ERC20/ERC20.sol\":5933:5937  from */\n      dup4\n        /* \"@openzeppelin/contracts/token/ERC20/ERC20.sol\":5939:5941  to */\n      dup4\n        /* \"@openzeppelin/contracts/token/ERC20/ERC20.sol\":5943:5948  value */\n      dup4\n        /* \"@openzeppelin/contracts/token/ERC20/ERC20.sol\":5925:5932  _update */\n      tag_165\n        /* \"@openzeppelin/contracts/token/ERC20/ERC20.sol\":5925:5949  _update(from, to, value) */\n      jump\t// in\n    tag_164:\n        /* \"@openzeppelin/contracts/token/ERC20/ERC20.sol\":5656:5956  function _transfer(address from, address to, uint256 value) internal {... */\n      pop\n      pop\n      pop\n      jump\t// out\n        /* \"@openzeppelin/contracts/utils/cryptography/EIP712.sol\":3845:4107  function _domainSeparatorV4() internal view returns (bytes32) {... */\n    tag_105:\n        /* \"@openzeppelin/contracts/utils/cryptography/EIP712.sol\":3898:3905  bytes32 */\n      0x00\n        /* \"@openzeppelin/contracts/utils/cryptography/EIP712.sol\":3938:3949  _cachedThis */\n      immutable(\"0x45583c716935567ea164771749ab630fc2584e89eead72531f29ea474918321a\")\n        /* \"@openzeppelin/contracts/utils/cryptography/EIP712.sol\":3921:3949  address(this) == _cachedThis */\n      0xffffffffffffffffffffffffffffffffffffffff\n      and\n        /* \"@openzeppelin/contracts/utils/cryptography/EIP712.sol\":3929:3933  this */\n      address\n        /* \"@openzeppelin/contracts/utils/cryptography/EIP712.sol\":3921:3949  address(this) == _cachedThis */\n      0xffffffffffffffffffffffffffffffffffffffff\n      and\n      eq\n        /* \"@openzeppelin/contracts/utils/cryptography/EIP712.sol\":3921:3984  address(this) == _cachedThis && block.chainid == _cachedChainId */\n      dup1\n      iszero\n      tag_167\n      jumpi\n      pop\n        /* \"@openzeppelin/contracts/utils/cryptography/EIP712.sol\":3970:3984  _cachedChainId */\n      immutable(\"0x2eb9a99718a5ddb41634aa3a127c1821b30a0e7db3d87b6203b71d7595223311\")\n        /* \"@openzeppelin/contracts/utils/cryptography/EIP712.sol\":3953:3966  block.chainid */\n      chainid\n        /* \"@openzeppelin/contracts/utils/cryptography/EIP712.sol\":3953:3984  block.chainid == _cachedChainId */\n      eq\n        /* \"@openzeppelin/contracts/utils/cryptography/EIP712.sol\":3921:3984  address(this) == _cachedThis && block.chainid == _cachedChainId */\n    tag_167:\n        /* \"@openzeppelin/contracts/utils/cryptography/EIP712.sol\":3917:4101  if (address(this) == _cachedThis && block.chainid == _cachedChainId) {... */\n      iszero\n      tag_168\n      jumpi\n        /* \"@openzeppelin/contracts/utils/cryptography/EIP712.sol\":4007:4029  _cachedDomainSeparator */\n      immutable(\"0xb775854bb325b699ccfc2a72dec93b06810d465e2ba7b7ffc485571437231d1a\")\n        /* \"@openzeppelin/contracts/utils/cryptography/EIP712.sol\":4000:4029  return _cachedDomainSeparator */\n      swap1\n      pop\n      jump(tag_166)\n        /* \"@openzeppelin/contracts/utils/cryptography/EIP712.sol\":3917:4101  if (address(this) == _cachedThis && block.chainid == _cachedChainId) {... */\n    tag_168:\n        /* \"@openzeppelin/contracts/utils/cryptography/EIP712.sol\":4067:4090  _buildDomainSeparator() */\n      tag_170\n        /* \"@openzeppelin/contracts/utils/cryptography/EIP712.sol\":4067:4088  _buildDomainSeparator */\n      tag_171\n        /* \"@openzeppelin/contracts/utils/cryptography/EIP712.sol\":4067:4090  _buildDomainSeparator() */\n      jump\t// in\n    tag_170:\n        /* \"@openzeppelin/contracts/utils/cryptography/EIP712.sol\":4060:4090  return _buildDomainSeparator() */\n      swap1\n      pop\n        /* \"@openzeppelin/contracts/utils/cryptography/EIP712.sol\":3845:4107  function _domainSeparatorV4() internal view returns (bytes32) {... */\n    tag_166:\n      swap1\n      jump\t// out\n        /* \"@openzeppelin/contracts/token/ERC20/ERC20.sol\":7721:7929  function _mint(address account, uint256 value) internal {... */\n    tag_108:\n        /* \"@openzeppelin/contracts/token/ERC20/ERC20.sol\":7810:7811  0 */\n      0x00\n        /* \"@openzeppelin/contracts/token/ERC20/ERC20.sol\":7791:7812  account == address(0) */\n      0xffffffffffffffffffffffffffffffffffffffff\n      and\n        /* \"@openzeppelin/contracts/token/ERC20/ERC20.sol\":7791:7798  account */\n      dup3\n        /* \"@openzeppelin/contracts/token/ERC20/ERC20.sol\":7791:7812  account == address(0) */\n      0xffffffffffffffffffffffffffffffffffffffff\n      and\n      sub\n        /* \"@openzeppelin/contracts/token/ERC20/ERC20.sol\":7787:7878  if (account == address(0)) {... */\n      tag_173\n      jumpi\n        /* \"@openzeppelin/contracts/token/ERC20/ERC20.sol\":7864:7865  0 */\n      0x00\n        /* \"@openzeppelin/contracts/token/ERC20/ERC20.sol\":7835:7867  ERC20InvalidReceiver(address(0)) */\n      mload(0x40)\n      0xec442f0500000000000000000000000000000000000000000000000000000000\n      dup2\n      mstore\n      0x04\n      add\n      tag_174\n      swap2\n      swap1\n      tag_161\n      jump\t// in\n    tag_174:\n      mload(0x40)\n      dup1\n      swap2\n      sub\n      swap1\n      revert\n        /* \"@openzeppelin/contracts/token/ERC20/ERC20.sol\":7787:7878  if (account == address(0)) {... */\n    tag_173:\n        /* \"@openzeppelin/contracts/token/ERC20/ERC20.sol\":7887:7922  _update(address(0), account, value) */\n      tag_175\n        /* \"@openzeppelin/contracts/token/ERC20/ERC20.sol\":7903:7904  0 */\n      0x00\n        /* \"@openzeppelin/contracts/token/ERC20/ERC20.sol\":7907:7914  account */\n      dup4\n        /* \"@openzeppelin/contracts/token/ERC20/ERC20.sol\":7916:7921  value */\n      dup4\n        /* \"@openzeppelin/contracts/token/ERC20/ERC20.sol\":7887:7894  _update */\n      tag_165\n        /* \"@openzeppelin/contracts/token/ERC20/ERC20.sol\":7887:7922  _update(address(0), account, value) */\n      jump\t// in\n    tag_175:\n        /* \"@openzeppelin/contracts/token/ERC20/ERC20.sol\":7721:7929  function _mint(address account, uint256 value) internal {... */\n      pop\n      pop\n      jump\t// out\n        /* \"@openzeppelin/contracts/utils/Nonces.sol\":538:645  function nonces(address owner) public view virtual returns (uint256) {... */\n    tag_112:\n        /* \"@openzeppelin/contracts/utils/Nonces.sol\":598:605  uint256 */\n      0x00\n        /* \"@openzeppelin/contracts/utils/Nonces.sol\":624:631  _nonces */\n      0x07\n        /* \"@openzeppelin/contracts/utils/Nonces.sol\":624:638  _nonces[owner] */\n      0x00\n        /* \"@openzeppelin/contracts/utils/Nonces.sol\":632:637  owner */\n      dup4\n        /* \"@openzeppelin/contracts/utils/Nonces.sol\":624:638  _nonces[owner] */\n      0xffffffffffffffffffffffffffffffffffffffff\n      and\n      0xffffffffffffffffffffffffffffffffffffffff\n      and\n      dup2\n      mstore\n      0x20\n      add\n      swap1\n      dup2\n      mstore\n      0x20\n      add\n      0x00\n      keccak256\n      sload\n        /* \"@openzeppelin/contracts/utils/Nonces.sol\":617:638  return _nonces[owner] */\n      swap1\n      pop\n        /* \"@openzeppelin/contracts/utils/Nonces.sol\":538:645  function nonces(address owner) public view virtual returns (uint256) {... */\n      swap2\n      swap1\n      pop\n      jump\t// out\n        /* \"@openzeppelin/contracts/utils/cryptography/EIP712.sol\":6021:6147  function _EIP712Name() internal view returns (string memory) {... */\n    tag_115:\n        /* \"@openzeppelin/contracts/utils/cryptography/EIP712.sol\":6067:6080  string memory */\n      0x60\n        /* \"@openzeppelin/contracts/utils/cryptography/EIP712.sol\":6099:6140  _name.toStringWithFallback(_nameFallback) */\n      tag_178\n        /* \"@openzeppelin/contracts/utils/cryptography/EIP712.sol\":6126:6139  _nameFallback */\n      0x05\n        /* \"@openzeppelin/contracts/utils/cryptography/EIP712.sol\":6099:6104  _name */\n      immutable(\"0x57650568a02a7887f4f4e1ae3b5071ca25e4fb181c1b7adfd0d312e8c663feb3\")\n        /* \"@openzeppelin/contracts/utils/cryptography/EIP712.sol\":6099:6125  _name.toStringWithFallback */\n      tag_179\n      swap1\n        /* \"@openzeppelin/contracts/utils/cryptography/EIP712.sol\":6099:6140  _name.toStringWithFallback(_nameFallback) */\n      swap2\n      swap1\n      0xffffffff\n      and\n      jump\t// in\n    tag_178:\n        /* \"@openzeppelin/contracts/utils/cryptography/EIP712.sol\":6092:6140  return _name.toStringWithFallback(_nameFallback) */\n      swap1\n      pop\n        /* \"@openzeppelin/contracts/utils/cryptography/EIP712.sol\":6021:6147  function _EIP712Name() internal view returns (string memory) {... */\n      swap1\n      jump\t// out\n        /* \"@openzeppelin/contracts/utils/cryptography/EIP712.sol\":6473:6608  function _EIP712Version() internal view returns (string memory) {... */\n    tag_117:\n        /* \"@openzeppelin/contracts/utils/cryptography/EIP712.sol\":6522:6535  string memory */\n      0x60\n        /* \"@openzeppelin/contracts/utils/cryptography/EIP712.sol\":6554:6601  _version.toStringWithFallback(_versionFallback) */\n      tag_181\n        /* \"@openzeppelin/contracts/utils/cryptography/EIP712.sol\":6584:6600  _versionFallback */\n      0x06\n        /* \"@openzeppelin/contracts/utils/cryptography/EIP712.sol\":6554:6562  _version */\n      immutable(\"0xe156ff544111f0d61300ce79ff347b01537432ccb5ab72ff35b2177c2ed3fa4b\")\n        /* \"@openzeppelin/contracts/utils/cryptography/EIP712.sol\":6554:6583  _version.toStringWithFallback */\n      tag_179\n      swap1\n        /* \"@openzeppelin/contracts/utils/cryptography/EIP712.sol\":6554:6601  _version.toStringWithFallback(_versionFallback) */\n      swap2\n      swap1\n      0xffffffff\n      and\n      jump\t// in\n    tag_181:\n        /* \"@openzeppelin/contracts/utils/cryptography/EIP712.sol\":6547:6601  return _version.toStringWithFallback(_versionFallback) */\n      swap1\n      pop\n        /* \"@openzeppelin/contracts/utils/cryptography/EIP712.sol\":6473:6608  function _EIP712Version() internal view returns (string memory) {... */\n      swap1\n      jump\t// out\n        /* \"@openzeppelin/contracts/utils/Nonces.sol\":759:1154  function _useNonce(address owner) internal virtual returns (uint256) {... */\n    tag_135:\n        /* \"@openzeppelin/contracts/utils/Nonces.sol\":819:826  uint256 */\n      0x00\n        /* \"@openzeppelin/contracts/utils/Nonces.sol\":1121:1128  _nonces */\n      0x07\n        /* \"@openzeppelin/contracts/utils/Nonces.sol\":1121:1135  _nonces[owner] */\n      0x00\n        /* \"@openzeppelin/contracts/utils/Nonces.sol\":1129:1134  owner */\n      dup4\n        /* \"@openzeppelin/contracts/utils/Nonces.sol\":1121:1135  _nonces[owner] */\n      0xffffffffffffffffffffffffffffffffffffffff\n      and\n      0xffffffffffffffffffffffffffffffffffffffff\n      and\n      dup2\n      mstore\n      0x20\n      add\n      swap1\n      dup2\n      mstore\n      0x20\n      add\n      0x00\n      keccak256\n      0x00\n        /* \"@openzeppelin/contracts/utils/Nonces.sol\":1121:1137  _nonces[owner]++ */\n      dup2\n      sload\n      dup1\n      swap3\n      swap2\n      swap1\n      0x01\n      add\n      swap2\n      swap1\n      pop\n      sstore\n        /* \"@openzeppelin/contracts/utils/Nonces.sol\":1114:1137  return _nonces[owner]++ */\n      swap1\n      pop\n        /* \"@openzeppelin/contracts/utils/Nonces.sol\":759:1154  function _useNonce(address owner) internal virtual returns (uint256) {... */\n      swap2\n      swap1\n      pop\n      jump\t// out\n        /* \"@openzeppelin/contracts/utils/cryptography/EIP712.sol\":4917:5093  function _hashTypedDataV4(bytes32 structHash) internal view virtual returns (bytes32) {... */\n    tag_139:\n        /* \"@openzeppelin/contracts/utils/cryptography/EIP712.sol\":4994:5001  bytes32 */\n      0x00\n        /* \"@openzeppelin/contracts/utils/cryptography/EIP712.sol\":5020:5086  MessageHashUtils.toTypedDataHash(_domainSeparatorV4(), structHash) */\n      tag_184\n        /* \"@openzeppelin/contracts/utils/cryptography/EIP712.sol\":5053:5073  _domainSeparatorV4() */\n      tag_185\n        /* \"@openzeppelin/contracts/utils/cryptography/EIP712.sol\":5053:5071  _domainSeparatorV4 */\n      tag_105\n        /* \"@openzeppelin/contracts/utils/cryptography/EIP712.sol\":5053:5073  _domainSeparatorV4() */\n      jump\t// in\n    tag_185:\n        /* \"@openzeppelin/contracts/utils/cryptography/EIP712.sol\":5075:5085  structHash */\n      dup4\n        /* \"@openzeppelin/contracts/utils/cryptography/EIP712.sol\":5020:5052  MessageHashUtils.toTypedDataHash */\n      tag_186\n        /* \"@openzeppelin/contracts/utils/cryptography/EIP712.sol\":5020:5086  MessageHashUtils.toTypedDataHash(_domainSeparatorV4(), structHash) */\n      jump\t// in\n    tag_184:\n        /* \"@openzeppelin/contracts/utils/cryptography/EIP712.sol\":5013:5086  return MessageHashUtils.toTypedDataHash(_domainSeparatorV4(), structHash) */\n      swap1\n      pop\n        /* \"@openzeppelin/contracts/utils/cryptography/EIP712.sol\":4917:5093  function _hashTypedDataV4(bytes32 structHash) internal view virtual returns (bytes32) {... */\n      swap2\n      swap1\n      pop\n      jump\t// out\n        /* \"@openzeppelin/contracts/utils/cryptography/ECDSA.sol\":6803:7063  function recover(bytes32 hash, uint8 v, bytes32 r, bytes32 s) internal pure returns (address) {... */\n    tag_141:\n        /* \"@openzeppelin/contracts/utils/cryptography/ECDSA.sol\":6888:6895  address */\n      0x00\n        /* \"@openzeppelin/contracts/utils/cryptography/ECDSA.sol\":6908:6925  address recovered */\n      dup1\n        /* \"@openzeppelin/contracts/utils/cryptography/ECDSA.sol\":6927:6945  RecoverError error */\n      0x00\n        /* \"@openzeppelin/contracts/utils/cryptography/ECDSA.sol\":6947:6963  bytes32 errorArg */\n      dup1\n        /* \"@openzeppelin/contracts/utils/cryptography/ECDSA.sol\":6967:6992  tryRecover(hash, v, r, s) */\n      tag_188\n        /* \"@openzeppelin/contracts/utils/cryptography/ECDSA.sol\":6978:6982  hash */\n      dup9\n        /* \"@openzeppelin/contracts/utils/cryptography/ECDSA.sol\":6984:6985  v */\n      dup9\n        /* \"@openzeppelin/contracts/utils/cryptography/ECDSA.sol\":6987:6988  r */\n      dup9\n        /* \"@openzeppelin/contracts/utils/cryptography/ECDSA.sol\":6990:6991  s */\n      dup9\n        /* \"@openzeppelin/contracts/utils/cryptography/ECDSA.sol\":6967:6977  tryRecover */\n      tag_189\n        /* \"@openzeppelin/contracts/utils/cryptography/ECDSA.sol\":6967:6992  tryRecover(hash, v, r, s) */\n      jump\t// in\n    tag_188:\n        /* \"@openzeppelin/contracts/utils/cryptography/ECDSA.sol\":6907:6992  (address recovered, RecoverError error, bytes32 errorArg) = tryRecover(hash, v, r, s) */\n      swap3\n      pop\n      swap3\n      pop\n      swap3\n      pop\n        /* \"@openzeppelin/contracts/utils/cryptography/ECDSA.sol\":7002:7030  _throwError(error, errorArg) */\n      tag_190\n        /* \"@openzeppelin/contracts/utils/cryptography/ECDSA.sol\":7014:7019  error */\n      dup3\n        /* \"@openzeppelin/contracts/utils/cryptography/ECDSA.sol\":7021:7029  errorArg */\n      dup3\n        /* \"@openzeppelin/contracts/utils/cryptography/ECDSA.sol\":7002:7013  _throwError */\n      tag_191\n        /* \"@openzeppelin/contracts/utils/cryptography/ECDSA.sol\":7002:7030  _throwError(error, errorArg) */\n      jump\t// in\n    tag_190:\n        /* \"@openzeppelin/contracts/utils/cryptography/ECDSA.sol\":7047:7056  recovered */\n      dup3\n        /* \"@openzeppelin/contracts/utils/cryptography/ECDSA.sol\":7040:7056  return recovered */\n      swap4\n      pop\n      pop\n      pop\n      pop\n        /* \"@openzeppelin/contracts/utils/cryptography/ECDSA.sol\":6803:7063  function recover(bytes32 hash, uint8 v, bytes32 r, bytes32 s) internal pure returns (address) {... */\n      swap5\n      swap4\n      pop\n      pop\n      pop\n      pop\n      jump\t// out\n        /* \"@openzeppelin/contracts/token/ERC20/ERC20.sol\":9949:10381  function _approve(address owner, address spender, uint256 value, bool emitEvent) internal virtual {... */\n    tag_150:\n        /* \"@openzeppelin/contracts/token/ERC20/ERC20.sol\":10078:10079  0 */\n      0x00\n        /* \"@openzeppelin/contracts/token/ERC20/ERC20.sol\":10061:10080  owner == address(0) */\n      0xffffffffffffffffffffffffffffffffffffffff\n      and\n        /* \"@openzeppelin/contracts/token/ERC20/ERC20.sol\":10061:10066  owner */\n      dup5\n        /* \"@openzeppelin/contracts/token/ERC20/ERC20.sol\":10061:10080  owner == address(0) */\n      0xffffffffffffffffffffffffffffffffffffffff\n      and\n      sub\n        /* \"@openzeppelin/contracts/token/ERC20/ERC20.sol\":10057:10146  if (owner == address(0)) {... */\n      tag_193\n      jumpi\n        /* \"@openzeppelin/contracts/token/ERC20/ERC20.sol\":10132:10133  0 */\n      0x00\n        /* \"@openzeppelin/contracts/token/ERC20/ERC20.sol\":10103:10135  ERC20InvalidApprover(address(0)) */\n      mload(0x40)\n      0xe602df0500000000000000000000000000000000000000000000000000000000\n      dup2\n      mstore\n      0x04\n      add\n      tag_194\n      swap2\n      swap1\n      tag_161\n      jump\t// in\n    tag_194:\n      mload(0x40)\n      dup1\n      swap2\n      sub\n      swap1\n      revert\n        /* \"@openzeppelin/contracts/token/ERC20/ERC20.sol\":10057:10146  if (owner == address(0)) {... */\n    tag_193:\n        /* \"@openzeppelin/contracts/token/ERC20/ERC20.sol\":10178:10179  0 */\n      0x00\n        /* \"@openzeppelin/contracts/token/ERC20/ERC20.sol\":10159:10180  spender == address(0) */\n      0xffffffffffffffffffffffffffffffffffffffff\n      and\n        /* \"@openzeppelin/contracts/token/ERC20/ERC20.sol\":10159:10166  spender */\n      dup4\n        /* \"@openzeppelin/contracts/token/ERC20/ERC20.sol\":10159:10180  spender == address(0) */\n      0xffffffffffffffffffffffffffffffffffffffff\n      and\n      sub\n        /* \"@openzeppelin/contracts/token/ERC20/ERC20.sol\":10155:10245  if (spender == address(0)) {... */\n      tag_195\n      jumpi\n        /* \"@openzeppelin/contracts/token/ERC20/ERC20.sol\":10231:10232  0 */\n      0x00\n        /* \"@openzeppelin/contracts/token/ERC20/ERC20.sol\":10203:10234  ERC20InvalidSpender(address(0)) */\n      mload(0x40)\n      0x94280d6200000000000000000000000000000000000000000000000000000000\n      dup2\n      mstore\n      0x04\n      add\n      tag_196\n      swap2\n      swap1\n      tag_161\n      jump\t// in\n    tag_196:\n      mload(0x40)\n      dup1\n      swap2\n      sub\n      swap1\n      revert\n        /* \"@openzeppelin/contracts/token/ERC20/ERC20.sol\":10155:10245  if (spender == address(0)) {... */\n    tag_195:\n        /* \"@openzeppelin/contracts/token/ERC20/ERC20.sol\":10284:10289  value */\n      dup2\n        /* \"@openzeppelin/contracts/token/ERC20/ERC20.sol\":10254:10265  _allowances */\n      0x01\n        /* \"@openzeppelin/contracts/token/ERC20/ERC20.sol\":10254:10272  _allowances[owner] */\n      0x00\n        /* \"@openzeppelin/contracts/token/ERC20/ERC20.sol\":10266:10271  owner */\n      dup7\n        /* \"@openzeppelin/contracts/token/ERC20/ERC20.sol\":10254:10272  _allowances[owner] */\n      0xffffffffffffffffffffffffffffffffffffffff\n      and\n      0xffffffffffffffffffffffffffffffffffffffff\n      and\n      dup2\n      mstore\n      0x20\n      add\n      swap1\n      dup2\n      mstore\n      0x20\n      add\n      0x00\n      keccak256\n        /* \"@openzeppelin/contracts/token/ERC20/ERC20.sol\":10254:10281  _allowances[owner][spender] */\n      0x00\n        /* \"@openzeppelin/contracts/token/ERC20/ERC20.sol\":10273:10280  spender */\n      dup6\n        /* \"@openzeppelin/contracts/token/ERC20/ERC20.sol\":10254:10281  _allowances[owner][spender] */\n      0xffffffffffffffffffffffffffffffffffffffff\n      and\n      0xffffffffffffffffffffffffffffffffffffffff\n      and\n      dup2\n      mstore\n      0x20\n      add\n      swap1\n      dup2\n      mstore\n      0x20\n      add\n      0x00\n      keccak256\n        /* \"@openzeppelin/contracts/token/ERC20/ERC20.sol\":10254:10289  _allowances[owner][spender] = value */\n      dup2\n      swap1\n      sstore\n      pop\n        /* \"@openzeppelin/contracts/token/ERC20/ERC20.sol\":10303:10312  emitEvent */\n      dup1\n        /* \"@openzeppelin/contracts/token/ERC20/ERC20.sol\":10299:10375  if (emitEvent) {... */\n      iszero\n      tag_197\n      jumpi\n        /* \"@openzeppelin/contracts/token/ERC20/ERC20.sol\":10349:10356  spender */\n      dup3\n        /* \"@openzeppelin/contracts/token/ERC20/ERC20.sol\":10333:10364  Approval(owner, spender, value) */\n      0xffffffffffffffffffffffffffffffffffffffff\n      and\n        /* \"@openzeppelin/contracts/token/ERC20/ERC20.sol\":10342:10347  owner */\n      dup5\n        /* \"@openzeppelin/contracts/token/ERC20/ERC20.sol\":10333:10364  Approval(owner, spender, value) */\n      0xffffffffffffffffffffffffffffffffffffffff\n      and\n      0x8c5be1e5ebec7d5bd14f71427d1e84f3dd0314c0f7b2291e5b200ac8c7c3b925\n        /* \"@openzeppelin/contracts/token/ERC20/ERC20.sol\":10358:10363  value */\n      dup5\n        /* \"@openzeppelin/contracts/token/ERC20/ERC20.sol\":10333:10364  Approval(owner, spender, value) */\n      mload(0x40)\n      tag_198\n      swap2\n      swap1\n      tag_34\n      jump\t// in\n    tag_198:\n      mload(0x40)\n      dup1\n      swap2\n      sub\n      swap1\n      log3\n        /* \"@openzeppelin/contracts/token/ERC20/ERC20.sol\":10299:10375  if (emitEvent) {... */\n    tag_197:\n        /* \"@openzeppelin/contracts/token/ERC20/ERC20.sol\":9949:10381  function _approve(address owner, address spender, uint256 value, bool emitEvent) internal virtual {... */\n      pop\n      pop\n      pop\n      pop\n      jump\t// out\n        /* \"@openzeppelin/contracts/token/ERC20/ERC20.sol\":6271:7378  function _update(address from, address to, uint256 value) internal virtual {... */\n    tag_165:\n        /* \"@openzeppelin/contracts/token/ERC20/ERC20.sol\":6376:6377  0 */\n      0x00\n        /* \"@openzeppelin/contracts/token/ERC20/ERC20.sol\":6360:6378  from == address(0) */\n      0xffffffffffffffffffffffffffffffffffffffff\n      and\n        /* \"@openzeppelin/contracts/token/ERC20/ERC20.sol\":6360:6364  from */\n      dup4\n        /* \"@openzeppelin/contracts/token/ERC20/ERC20.sol\":6360:6378  from == address(0) */\n      0xffffffffffffffffffffffffffffffffffffffff\n      and\n      sub\n        /* \"@openzeppelin/contracts/token/ERC20/ERC20.sol\":6356:6896  if (from == address(0)) {... */\n      tag_200\n      jumpi\n        /* \"@openzeppelin/contracts/token/ERC20/ERC20.sol\":6512:6517  value */\n      dup1\n        /* \"@openzeppelin/contracts/token/ERC20/ERC20.sol\":6496:6508  _totalSupply */\n      0x02\n      0x00\n        /* \"@openzeppelin/contracts/token/ERC20/ERC20.sol\":6496:6517  _totalSupply += value */\n      dup3\n      dup3\n      sload\n      tag_201\n      swap2\n      swap1\n      tag_202\n      jump\t// in\n    tag_201:\n      swap3\n      pop\n      pop\n      dup2\n      swap1\n      sstore\n      pop\n        /* \"@openzeppelin/contracts/token/ERC20/ERC20.sol\":6356:6896  if (from == address(0)) {... */\n      jump(tag_203)\n    tag_200:\n        /* \"@openzeppelin/contracts/token/ERC20/ERC20.sol\":6548:6567  uint256 fromBalance */\n      0x00\n        /* \"@openzeppelin/contracts/token/ERC20/ERC20.sol\":6570:6579  _balances */\n      dup1\n        /* \"@openzeppelin/contracts/token/ERC20/ERC20.sol\":6570:6585  _balances[from] */\n      0x00\n        /* \"@openzeppelin/contracts/token/ERC20/ERC20.sol\":6580:6584  from */\n      dup6\n        /* \"@openzeppelin/contracts/token/ERC20/ERC20.sol\":6570:6585  _balances[from] */\n      0xffffffffffffffffffffffffffffffffffffffff\n      and\n      0xffffffffffffffffffffffffffffffffffffffff\n      and\n      dup2\n      mstore\n      0x20\n      add\n      swap1\n      dup2\n      mstore\n      0x20\n      add\n      0x00\n      keccak256\n      sload\n        /* \"@openzeppelin/contracts/token/ERC20/ERC20.sol\":6548:6585  uint256 fromBalance = _balances[from] */\n      swap1\n      pop\n        /* \"@openzeppelin/contracts/token/ERC20/ERC20.sol\":6617:6622  value */\n      dup2\n        /* \"@openzeppelin/contracts/token/ERC20/ERC20.sol\":6603:6614  fromBalance */\n      dup2\n        /* \"@openzeppelin/contracts/token/ERC20/ERC20.sol\":6603:6622  fromBalance < value */\n      lt\n        /* \"@openzeppelin/contracts/token/ERC20/ERC20.sol\":6599:6714  if (fromBalance < value) {... */\n      iszero\n      tag_204\n      jumpi\n        /* \"@openzeppelin/contracts/token/ERC20/ERC20.sol\":6674:6678  from */\n      dup4\n        /* \"@openzeppelin/contracts/token/ERC20/ERC20.sol\":6680:6691  fromBalance */\n      dup2\n        /* \"@openzeppelin/contracts/token/ERC20/ERC20.sol\":6693:6698  value */\n      dup4\n        /* \"@openzeppelin/contracts/token/ERC20/ERC20.sol\":6649:6699  ERC20InsufficientBalance(from, fromBalance, value) */\n      mload(0x40)\n      0xe450d38c00000000000000000000000000000000000000000000000000000000\n      dup2\n      mstore\n      0x04\n      add\n      tag_205\n      swap4\n      swap3\n      swap2\n      swap1\n      tag_156\n      jump\t// in\n    tag_205:\n      mload(0x40)\n      dup1\n      swap2\n      sub\n      swap1\n      revert\n        /* \"@openzeppelin/contracts/token/ERC20/ERC20.sol\":6599:6714  if (fromBalance < value) {... */\n    tag_204:\n        /* \"@openzeppelin/contracts/token/ERC20/ERC20.sol\":6866:6871  value */\n      dup2\n        /* \"@openzeppelin/contracts/token/ERC20/ERC20.sol\":6852:6863  fromBalance */\n      dup2\n        /* \"@openzeppelin/contracts/token/ERC20/ERC20.sol\":6852:6871  fromBalance - value */\n      sub\n        /* \"@openzeppelin/contracts/token/ERC20/ERC20.sol\":6834:6843  _balances */\n      0x00\n        /* \"@openzeppelin/contracts/token/ERC20/ERC20.sol\":6834:6849  _balances[from] */\n      dup1\n        /* \"@openzeppelin/contracts/token/ERC20/ERC20.sol\":6844:6848  from */\n      dup7\n        /* \"@openzeppelin/contracts/token/ERC20/ERC20.sol\":6834:6849  _balances[from] */\n      0xffffffffffffffffffffffffffffffffffffffff\n      and\n      0xffffffffffffffffffffffffffffffffffffffff\n      and\n      dup2\n      mstore\n      0x20\n      add\n      swap1\n      dup2\n      mstore\n      0x20\n      add\n      0x00\n      keccak256\n        /* \"@openzeppelin/contracts/token/ERC20/ERC20.sol\":6834:6871  _balances[from] = fromBalance - value */\n      dup2\n      swap1\n      sstore\n      pop\n        /* \"@openzeppelin/contracts/token/ERC20/ERC20.sol\":6534:6896  {... */\n      pop\n        /* \"@openzeppelin/contracts/token/ERC20/ERC20.sol\":6356:6896  if (from == address(0)) {... */\n    tag_203:\n        /* \"@openzeppelin/contracts/token/ERC20/ERC20.sol\":6924:6925  0 */\n      0x00\n        /* \"@openzeppelin/contracts/token/ERC20/ERC20.sol\":6910:6926  to == address(0) */\n      0xffffffffffffffffffffffffffffffffffffffff\n      and\n        /* \"@openzeppelin/contracts/token/ERC20/ERC20.sol\":6910:6912  to */\n      dup3\n        /* \"@openzeppelin/contracts/token/ERC20/ERC20.sol\":6910:6926  to == address(0) */\n      0xffffffffffffffffffffffffffffffffffffffff\n      and\n      sub\n        /* \"@openzeppelin/contracts/token/ERC20/ERC20.sol\":6906:7331  if (to == address(0)) {... */\n      tag_206\n      jumpi\n        /* \"@openzeppelin/contracts/token/ERC20/ERC20.sol\":7089:7094  value */\n      dup1\n        /* \"@openzeppelin/contracts/token/ERC20/ERC20.sol\":7073:7085  _totalSupply */\n      0x02\n      0x00\n        /* \"@openzeppelin/contracts/token/ERC20/ERC20.sol\":7073:7094  _totalSupply -= value */\n      dup3\n      dup3\n      sload\n      sub\n      swap3\n      pop\n      pop\n      dup2\n      swap1\n      sstore\n      pop\n        /* \"@openzeppelin/contracts/token/ERC20/ERC20.sol\":6906:7331  if (to == address(0)) {... */\n      jump(tag_207)\n    tag_206:\n        /* \"@openzeppelin/contracts/token/ERC20/ERC20.sol\":7301:7306  value */\n      dup1\n        /* \"@openzeppelin/contracts/token/ERC20/ERC20.sol\":7284:7293  _balances */\n      0x00\n        /* \"@openzeppelin/contracts/token/ERC20/ERC20.sol\":7284:7297  _balances[to] */\n      dup1\n        /* \"@openzeppelin/contracts/token/ERC20/ERC20.sol\":7294:7296  to */\n      dup5\n        /* \"@openzeppelin/contracts/token/ERC20/ERC20.sol\":7284:7297  _balances[to] */\n      0xffffffffffffffffffffffffffffffffffffffff\n      and\n      0xffffffffffffffffffffffffffffffffffffffff\n      and\n      dup2\n      mstore\n      0x20\n      add\n      swap1\n      dup2\n      mstore\n      0x20\n      add\n      0x00\n      keccak256\n      0x00\n        /* \"@openzeppelin/contracts/token/ERC20/ERC20.sol\":7284:7306  _balances[to] += value */\n      dup3\n      dup3\n      sload\n      add\n      swap3\n      pop\n      pop\n      dup2\n      swap1\n      sstore\n      pop\n        /* \"@openzeppelin/contracts/token/ERC20/ERC20.sol\":6906:7331  if (to == address(0)) {... */\n    tag_207:\n        /* \"@openzeppelin/contracts/token/ERC20/ERC20.sol\":7361:7363  to */\n      dup2\n        /* \"@openzeppelin/contracts/token/ERC20/ERC20.sol\":7346:7371  Transfer(from, to, value) */\n      0xffffffffffffffffffffffffffffffffffffffff\n      and\n        /* \"@openzeppelin/contracts/token/ERC20/ERC20.sol\":7355:7359  from */\n      dup4\n        /* \"@openzeppelin/contracts/token/ERC20/ERC20.sol\":7346:7371  Transfer(from, to, value) */\n      0xffffffffffffffffffffffffffffffffffffffff\n      and\n      0xddf252ad1be2c89b69c2b068fc378daa952ba7f163c4a11628f55a4df523b3ef\n        /* \"@openzeppelin/contracts/token/ERC20/ERC20.sol\":7365:7370  value */\n      dup4\n        /* \"@openzeppelin/contracts/token/ERC20/ERC20.sol\":7346:7371  Transfer(from, to, value) */\n      mload(0x40)\n      tag_208\n      swap2\n      swap1\n      tag_34\n      jump\t// in\n    tag_208:\n      mload(0x40)\n      dup1\n      swap2\n      sub\n      swap1\n      log3\n        /* \"@openzeppelin/contracts/token/ERC20/ERC20.sol\":6271:7378  function _update(address from, address to, uint256 value) internal virtual {... */\n      pop\n      pop\n      pop\n      jump\t// out\n        /* \"@openzeppelin/contracts/utils/cryptography/EIP712.sol\":4113:4292  function _buildDomainSeparator() private view returns (bytes32) {... */\n    tag_171:\n        /* \"@openzeppelin/contracts/utils/cryptography/EIP712.sol\":4168:4175  bytes32 */\n      0x00\n        /* \"@openzeppelin/contracts/utils/cryptography/EIP712.sol\":2079:2174  keccak256(\"EIP712Domain(string name,string version,uint256 chainId,address verifyingContract)\") */\n      0x8b73c3c69bb8fe3d512ecc4cf759cc79239f7b179b0ffacaa9a75d522b39400f\n        /* \"@openzeppelin/contracts/utils/cryptography/EIP712.sol\":4226:4237  _hashedName */\n      immutable(\"0x7046b97b103039cb97ea5110f1f4832d5d00e701e21d67c9f93f60c215815d45\")\n        /* \"@openzeppelin/contracts/utils/cryptography/EIP712.sol\":4239:4253  _hashedVersion */\n      immutable(\"0xf22c5b16043446a68d62f47815793cbbc874be5b2e65e9e313507336d6583f6d\")\n        /* \"@openzeppelin/contracts/utils/cryptography/EIP712.sol\":4255:4268  block.chainid */\n      chainid\n        /* \"@openzeppelin/contracts/utils/cryptography/EIP712.sol\":4278:4282  this */\n      address\n        /* \"@openzeppelin/contracts/utils/cryptography/EIP712.sol\":4204:4284  abi.encode(TYPE_HASH, _hashedName, _hashedVersion, block.chainid, address(this)) */\n      add(0x20, mload(0x40))\n      tag_210\n      swap6\n      swap5\n      swap4\n      swap3\n      swap2\n      swap1\n      tag_211\n      jump\t// in\n    tag_210:\n      mload(0x40)\n      0x20\n      dup2\n      dup4\n      sub\n      sub\n      dup2\n      mstore\n      swap1\n      0x40\n      mstore\n        /* \"@openzeppelin/contracts/utils/cryptography/EIP712.sol\":4194:4285  keccak256(abi.encode(TYPE_HASH, _hashedName, _hashedVersion, block.chainid, address(this))) */\n      dup1\n      mload\n      swap1\n      0x20\n      add\n      keccak256\n        /* \"@openzeppelin/contracts/utils/cryptography/EIP712.sol\":4187:4285  return keccak256(abi.encode(TYPE_HASH, _hashedName, _hashedVersion, block.chainid, address(this))) */\n      swap1\n      pop\n        /* \"@openzeppelin/contracts/utils/cryptography/EIP712.sol\":4113:4292  function _buildDomainSeparator() private view returns (bytes32) {... */\n      swap1\n      jump\t// out\n        /* \"@openzeppelin/contracts/utils/ShortStrings.sol\":3385:3652  function toStringWithFallback(ShortString value, string storage store) internal pure returns (string memory) {... */\n    tag_179:\n        /* \"@openzeppelin/contracts/utils/ShortStrings.sol\":3479:3492  string memory */\n      0x60\n        /* \"@openzeppelin/contracts/utils/ShortStrings.sol\":1390:1456  0x00000000000000000000000000000000000000000000000000000000000000FF */\n      0xff\n        /* \"@openzeppelin/contracts/utils/ShortStrings.sol\":3537:3554  FALLBACK_SENTINEL */\n      0x00\n      shl\n        /* \"@openzeppelin/contracts/utils/ShortStrings.sol\":3527:3532  value */\n      dup4\n        /* \"@openzeppelin/contracts/utils/ShortStrings.sol\":3508:3554  ShortString.unwrap(value) != FALLBACK_SENTINEL */\n      eq\n        /* \"@openzeppelin/contracts/utils/ShortStrings.sol\":3504:3646  if (ShortString.unwrap(value) != FALLBACK_SENTINEL) {... */\n      tag_213\n      jumpi\n        /* \"@openzeppelin/contracts/utils/ShortStrings.sol\":3577:3592  toString(value) */\n      tag_214\n        /* \"@openzeppelin/contracts/utils/ShortStrings.sol\":3586:3591  value */\n      dup4\n        /* \"@openzeppelin/contracts/utils/ShortStrings.sol\":3577:3585  toString */\n      tag_215\n        /* \"@openzeppelin/contracts/utils/ShortStrings.sol\":3577:3592  toString(value) */\n      jump\t// in\n    tag_214:\n        /* \"@openzeppelin/contracts/utils/ShortStrings.sol\":3570:3592  return toString(value) */\n      swap1\n      pop\n      jump(tag_212)\n        /* \"@openzeppelin/contracts/utils/ShortStrings.sol\":3504:3646  if (ShortString.unwrap(value) != FALLBACK_SENTINEL) {... */\n    tag_213:\n        /* \"@openzeppelin/contracts/utils/ShortStrings.sol\":3630:3635  store */\n      dup2\n        /* \"@openzeppelin/contracts/utils/ShortStrings.sol\":3623:3635  return store */\n      dup1\n      sload\n      tag_217\n      swap1\n      tag_85\n      jump\t// in\n    tag_217:\n      dup1\n      0x1f\n      add\n      0x20\n      dup1\n      swap2\n      div\n      mul\n      0x20\n      add\n      mload(0x40)\n      swap1\n      dup2\n      add\n      0x40\n      mstore\n      dup1\n      swap3\n      swap2\n      swap1\n      dup2\n      dup2\n      mstore\n      0x20\n      add\n      dup3\n      dup1\n      sload\n      tag_218\n      swap1\n      tag_85\n      jump\t// in\n    tag_218:\n      dup1\n      iszero\n      tag_219\n      jumpi\n      dup1\n      0x1f\n      lt\n      tag_220\n      jumpi\n      0x0100\n      dup1\n      dup4\n      sload\n      div\n      mul\n      dup4\n      mstore\n      swap2\n      0x20\n      add\n      swap2\n      jump(tag_219)\n    tag_220:\n      dup3\n      add\n      swap2\n      swap1\n      0x00\n      mstore\n      keccak256(0x00, 0x20)\n      swap1\n    tag_221:\n      dup2\n      sload\n      dup2\n      mstore\n      swap1\n      0x01\n      add\n      swap1\n      0x20\n      add\n      dup1\n      dup4\n      gt\n      tag_221\n      jumpi\n      dup3\n      swap1\n      sub\n      0x1f\n      and\n      dup3\n      add\n      swap2\n    tag_219:\n      pop\n      pop\n      pop\n      pop\n      pop\n      swap1\n      pop\n        /* \"@openzeppelin/contracts/utils/ShortStrings.sol\":3385:3652  function toStringWithFallback(ShortString value, string storage store) internal pure returns (string memory) {... */\n    tag_212:\n      swap3\n      swap2\n      pop\n      pop\n      jump\t// out\n        /* \"@openzeppelin/contracts/utils/cryptography/MessageHashUtils.sol\":3353:3754  function toTypedDataHash(bytes32 domainSeparator, bytes32 structHash) internal pure returns (bytes32 digest) {... */\n    tag_186:\n        /* \"@openzeppelin/contracts/utils/cryptography/MessageHashUtils.sol\":3446:3460  bytes32 digest */\n      0x00\n        /* \"@openzeppelin/contracts/utils/cryptography/MessageHashUtils.sol\":3555:3559  0x40 */\n      0x40\n        /* \"@openzeppelin/contracts/utils/cryptography/MessageHashUtils.sol\":3549:3560  mload(0x40) */\n      mload\n        /* \"@openzeppelin/contracts/utils/cryptography/MessageHashUtils.sol\":3585:3595  hex\"19_01\" */\n      0x1901000000000000000000000000000000000000000000000000000000000000\n        /* \"@openzeppelin/contracts/utils/cryptography/MessageHashUtils.sol\":3580:3583  ptr */\n      dup2\n        /* \"@openzeppelin/contracts/utils/cryptography/MessageHashUtils.sol\":3573:3596  mstore(ptr, hex\"19_01\") */\n      mstore\n        /* \"@openzeppelin/contracts/utils/cryptography/MessageHashUtils.sol\":3632:3647  domainSeparator */\n      dup4\n        /* \"@openzeppelin/contracts/utils/cryptography/MessageHashUtils.sol\":3625:3629  0x02 */\n      0x02\n        /* \"@openzeppelin/contracts/utils/cryptography/MessageHashUtils.sol\":3620:3623  ptr */\n      dup3\n        /* \"@openzeppelin/contracts/utils/cryptography/MessageHashUtils.sol\":3616:3630  add(ptr, 0x02) */\n      add\n        /* \"@openzeppelin/contracts/utils/cryptography/MessageHashUtils.sol\":3609:3648  mstore(add(ptr, 0x02), domainSeparator) */\n      mstore\n        /* \"@openzeppelin/contracts/utils/cryptography/MessageHashUtils.sol\":3684:3694  structHash */\n      dup3\n        /* \"@openzeppelin/contracts/utils/cryptography/MessageHashUtils.sol\":3677:3681  0x22 */\n      0x22\n        /* \"@openzeppelin/contracts/utils/cryptography/MessageHashUtils.sol\":3672:3675  ptr */\n      dup3\n        /* \"@openzeppelin/contracts/utils/cryptography/MessageHashUtils.sol\":3668:3682  add(ptr, 0x22) */\n      add\n        /* \"@openzeppelin/contracts/utils/cryptography/MessageHashUtils.sol\":3661:3695  mstore(add(ptr, 0x22), structHash) */\n      mstore\n        /* \"@openzeppelin/contracts/utils/cryptography/MessageHashUtils.sol\":3733:3737  0x42 */\n      0x42\n        /* \"@openzeppelin/contracts/utils/cryptography/MessageHashUtils.sol\":3728:3731  ptr */\n      dup2\n        /* \"@openzeppelin/contracts/utils/cryptography/MessageHashUtils.sol\":3718:3738  keccak256(ptr, 0x42) */\n      keccak256\n        /* \"@openzeppelin/contracts/utils/cryptography/MessageHashUtils.sol\":3708:3738  digest := keccak256(ptr, 0x42) */\n      swap2\n      pop\n        /* \"@openzeppelin/contracts/utils/cryptography/MessageHashUtils.sol\":3524:3748  {... */\n      pop\n        /* \"@openzeppelin/contracts/utils/cryptography/MessageHashUtils.sol\":3353:3754  function toTypedDataHash(bytes32 domainSeparator, bytes32 structHash) internal pure returns (bytes32 digest) {... */\n      swap3\n      swap2\n      pop\n      pop\n      jump\t// out\n        /* \"@openzeppelin/contracts/utils/cryptography/ECDSA.sol\":5140:6670  function tryRecover(... */\n    tag_189:\n        /* \"@openzeppelin/contracts/utils/cryptography/ECDSA.sol\":5266:5273  address */\n      0x00\n        /* \"@openzeppelin/contracts/utils/cryptography/ECDSA.sol\":5275:5287  RecoverError */\n      dup1\n        /* \"@openzeppelin/contracts/utils/cryptography/ECDSA.sol\":5289:5296  bytes32 */\n      0x00\n        /* \"@openzeppelin/contracts/utils/cryptography/ECDSA.sol\":6199:6265  0x7FFFFFFFFFFFFFFFFFFFFFFFFFFFFFFF5D576E7357A4501DDFE92F46681B20A0 */\n      0x7fffffffffffffffffffffffffffffff5d576e7357a4501ddfe92f46681b20a0\n        /* \"@openzeppelin/contracts/utils/cryptography/ECDSA.sol\":6194:6195  s */\n      dup5\n        /* \"@openzeppelin/contracts/utils/cryptography/ECDSA.sol\":6186:6196  uint256(s) */\n      0x00\n      shr\n        /* \"@openzeppelin/contracts/utils/cryptography/ECDSA.sol\":6186:6265  uint256(s) > 0x7FFFFFFFFFFFFFFFFFFFFFFFFFFFFFFF5D576E7357A4501DDFE92F46681B20A0 */\n      gt\n        /* \"@openzeppelin/contracts/utils/cryptography/ECDSA.sol\":6182:6346  if (uint256(s) > 0x7FFFFFFFFFFFFFFFFFFFFFFFFFFFFFFF5D576E7357A4501DDFE92F46681B20A0) {... */\n      iszero\n      tag_224\n      jumpi\n        /* \"@openzeppelin/contracts/utils/cryptography/ECDSA.sol\":6297:6298  0 */\n      0x00\n        /* \"@openzeppelin/contracts/utils/cryptography/ECDSA.sol\":6301:6331  RecoverError.InvalidSignatureS */\n      0x03\n        /* \"@openzeppelin/contracts/utils/cryptography/ECDSA.sol\":6333:6334  s */\n      dup6\n        /* \"@openzeppelin/contracts/utils/cryptography/ECDSA.sol\":6281:6335  return (address(0), RecoverError.InvalidSignatureS, s) */\n      swap3\n      pop\n      swap3\n      pop\n      swap3\n      pop\n      jump(tag_223)\n        /* \"@openzeppelin/contracts/utils/cryptography/ECDSA.sol\":6182:6346  if (uint256(s) > 0x7FFFFFFFFFFFFFFFFFFFFFFFFFFFFFFF5D576E7357A4501DDFE92F46681B20A0) {... */\n    tag_224:\n        /* \"@openzeppelin/contracts/utils/cryptography/ECDSA.sol\":6440:6454  address signer */\n      0x00\n        /* \"@openzeppelin/contracts/utils/cryptography/ECDSA.sol\":6457:6481  ecrecover(hash, v, r, s) */\n      0x01\n        /* \"@openzeppelin/contracts/utils/cryptography/ECDSA.sol\":6467:6471  hash */\n      dup9\n        /* \"@openzeppelin/contracts/utils/cryptography/ECDSA.sol\":6473:6474  v */\n      dup9\n        /* \"@openzeppelin/contracts/utils/cryptography/ECDSA.sol\":6476:6477  r */\n      dup9\n        /* \"@openzeppelin/contracts/utils/cryptography/ECDSA.sol\":6479:6480  s */\n      dup9\n        /* \"@openzeppelin/contracts/utils/cryptography/ECDSA.sol\":6457:6481  ecrecover(hash, v, r, s) */\n      mload(0x40)\n      0x00\n      dup2\n      mstore\n      0x20\n      add\n      0x40\n      mstore\n      mload(0x40)\n      tag_225\n      swap5\n      swap4\n      swap3\n      swap2\n      swap1\n      tag_226\n      jump\t// in\n    tag_225:\n      0x20\n      mload(0x40)\n      0x20\n      dup2\n      sub\n      swap1\n      dup1\n      dup5\n      sub\n      swap1\n      dup6\n      gas\n      staticcall\n      iszero\n      dup1\n      iszero\n      tag_228\n      jumpi\n      returndatasize\n      0x00\n      dup1\n      returndatacopy\n      revert(0x00, returndatasize)\n    tag_228:\n      pop\n      pop\n      pop\n      mload(sub(mload(0x40), 0x20))\n        /* \"@openzeppelin/contracts/utils/cryptography/ECDSA.sol\":6440:6481  address signer = ecrecover(hash, v, r, s) */\n      swap1\n      pop\n        /* \"@openzeppelin/contracts/utils/cryptography/ECDSA.sol\":6513:6514  0 */\n      0x00\n        /* \"@openzeppelin/contracts/utils/cryptography/ECDSA.sol\":6495:6515  signer == address(0) */\n      0xffffffffffffffffffffffffffffffffffffffff\n      and\n        /* \"@openzeppelin/contracts/utils/cryptography/ECDSA.sol\":6495:6501  signer */\n      dup2\n        /* \"@openzeppelin/contracts/utils/cryptography/ECDSA.sol\":6495:6515  signer == address(0) */\n      0xffffffffffffffffffffffffffffffffffffffff\n      and\n      sub\n        /* \"@openzeppelin/contracts/utils/cryptography/ECDSA.sol\":6491:6604  if (signer == address(0)) {... */\n      tag_229\n      jumpi\n        /* \"@openzeppelin/contracts/utils/cryptography/ECDSA.sol\":6547:6548  0 */\n      0x00\n        /* \"@openzeppelin/contracts/utils/cryptography/ECDSA.sol\":6551:6580  RecoverError.InvalidSignature */\n      0x01\n        /* \"@openzeppelin/contracts/utils/cryptography/ECDSA.sol\":6590:6591  0 */\n      0x00\n        /* \"@openzeppelin/contracts/utils/cryptography/ECDSA.sol\":6582:6592  bytes32(0) */\n      dup1\n      shl\n        /* \"@openzeppelin/contracts/utils/cryptography/ECDSA.sol\":6531:6593  return (address(0), RecoverError.InvalidSignature, bytes32(0)) */\n      swap4\n      pop\n      swap4\n      pop\n      swap4\n      pop\n      pop\n      jump(tag_223)\n        /* \"@openzeppelin/contracts/utils/cryptography/ECDSA.sol\":6491:6604  if (signer == address(0)) {... */\n    tag_229:\n        /* \"@openzeppelin/contracts/utils/cryptography/ECDSA.sol\":6622:6628  signer */\n      dup1\n        /* \"@openzeppelin/contracts/utils/cryptography/ECDSA.sol\":6630:6650  RecoverError.NoError */\n      0x00\n        /* \"@openzeppelin/contracts/utils/cryptography/ECDSA.sol\":6660:6661  0 */\n      dup1\n        /* \"@openzeppelin/contracts/utils/cryptography/ECDSA.sol\":6652:6662  bytes32(0) */\n      0x00\n      shl\n        /* \"@openzeppelin/contracts/utils/cryptography/ECDSA.sol\":6614:6663  return (signer, RecoverError.NoError, bytes32(0)) */\n      swap4\n      pop\n      swap4\n      pop\n      swap4\n      pop\n      pop\n        /* \"@openzeppelin/contracts/utils/cryptography/ECDSA.sol\":5140:6670  function tryRecover(... */\n    tag_223:\n      swap5\n      pop\n      swap5\n      pop\n      swap5\n      swap2\n      pop\n      pop\n      jump\t// out\n        /* \"@openzeppelin/contracts/utils/cryptography/ECDSA.sol\":7196:7728  function _throwError(RecoverError error, bytes32 errorArg) private pure {... */\n    tag_191:\n        /* \"@openzeppelin/contracts/utils/cryptography/ECDSA.sol\":7291:7311  RecoverError.NoError */\n      0x00\n        /* \"@openzeppelin/contracts/utils/cryptography/ECDSA.sol\":7282:7311  error == RecoverError.NoError */\n      0x03\n      dup2\n      gt\n      iszero\n      tag_231\n      jumpi\n      tag_232\n      tag_233\n      jump\t// in\n    tag_232:\n    tag_231:\n        /* \"@openzeppelin/contracts/utils/cryptography/ECDSA.sol\":7282:7287  error */\n      dup3\n        /* \"@openzeppelin/contracts/utils/cryptography/ECDSA.sol\":7282:7311  error == RecoverError.NoError */\n      0x03\n      dup2\n      gt\n      iszero\n      tag_234\n      jumpi\n      tag_235\n      tag_233\n      jump\t// in\n    tag_235:\n    tag_234:\n      sub\n        /* \"@openzeppelin/contracts/utils/cryptography/ECDSA.sol\":7278:7722  if (error == RecoverError.NoError) {... */\n      iszero\n        /* \"@openzeppelin/contracts/utils/cryptography/ECDSA.sol\":7327:7334  return; */\n      tag_230\n        /* \"@openzeppelin/contracts/utils/cryptography/ECDSA.sol\":7278:7722  if (error == RecoverError.NoError) {... */\n      jumpi\n        /* \"@openzeppelin/contracts/utils/cryptography/ECDSA.sol\":7387:7416  RecoverError.InvalidSignature */\n      0x01\n        /* \"@openzeppelin/contracts/utils/cryptography/ECDSA.sol\":7378:7416  error == RecoverError.InvalidSignature */\n      0x03\n      dup2\n      gt\n      iszero\n      tag_238\n      jumpi\n      tag_239\n      tag_233\n      jump\t// in\n    tag_239:\n    tag_238:\n        /* \"@openzeppelin/contracts/utils/cryptography/ECDSA.sol\":7378:7383  error */\n      dup3\n        /* \"@openzeppelin/contracts/utils/cryptography/ECDSA.sol\":7378:7416  error == RecoverError.InvalidSignature */\n      0x03\n      dup2\n      gt\n      iszero\n      tag_240\n      jumpi\n      tag_241\n      tag_233\n      jump\t// in\n    tag_241:\n    tag_240:\n      sub\n        /* \"@openzeppelin/contracts/utils/cryptography/ECDSA.sol\":7374:7722  if (error == RecoverError.InvalidSignature) {... */\n      tag_242\n      jumpi\n        /* \"@openzeppelin/contracts/utils/cryptography/ECDSA.sol\":7439:7462  ECDSAInvalidSignature() */\n      mload(0x40)\n      0xf645eedf00000000000000000000000000000000000000000000000000000000\n      dup2\n      mstore\n      0x04\n      add\n      mload(0x40)\n      dup1\n      swap2\n      sub\n      swap1\n      revert\n        /* \"@openzeppelin/contracts/utils/cryptography/ECDSA.sol\":7374:7722  if (error == RecoverError.InvalidSignature) {... */\n    tag_242:\n        /* \"@openzeppelin/contracts/utils/cryptography/ECDSA.sol\":7492:7527  RecoverError.InvalidSignatureLength */\n      0x02\n        /* \"@openzeppelin/contracts/utils/cryptography/ECDSA.sol\":7483:7527  error == RecoverError.InvalidSignatureLength */\n      0x03\n      dup2\n      gt\n      iszero\n      tag_244\n      jumpi\n      tag_245\n      tag_233\n      jump\t// in\n    tag_245:\n    tag_244:\n        /* \"@openzeppelin/contracts/utils/cryptography/ECDSA.sol\":7483:7488  error */\n      dup3\n        /* \"@openzeppelin/contracts/utils/cryptography/ECDSA.sol\":7483:7527  error == RecoverError.InvalidSignatureLength */\n      0x03\n      dup2\n      gt\n      iszero\n      tag_246\n      jumpi\n      tag_247\n      tag_233\n      jump\t// in\n    tag_247:\n    tag_246:\n      sub\n        /* \"@openzeppelin/contracts/utils/cryptography/ECDSA.sol\":7479:7722  if (error == RecoverError.InvalidSignatureLength) {... */\n      tag_248\n      jumpi\n        /* \"@openzeppelin/contracts/utils/cryptography/ECDSA.sol\":7586:7594  errorArg */\n      dup1\n        /* \"@openzeppelin/contracts/utils/cryptography/ECDSA.sol\":7578:7595  uint256(errorArg) */\n      0x00\n      shr\n        /* \"@openzeppelin/contracts/utils/cryptography/ECDSA.sol\":7550:7596  ECDSAInvalidSignatureLength(uint256(errorArg)) */\n      mload(0x40)\n      0xfce698f700000000000000000000000000000000000000000000000000000000\n      dup2\n      mstore\n      0x04\n      add\n      tag_249\n      swap2\n      swap1\n      tag_34\n      jump\t// in\n    tag_249:\n      mload(0x40)\n      dup1\n      swap2\n      sub\n      swap1\n      revert\n        /* \"@openzeppelin/contracts/utils/cryptography/ECDSA.sol\":7479:7722  if (error == RecoverError.InvalidSignatureLength) {... */\n    tag_248:\n        /* \"@openzeppelin/contracts/utils/cryptography/ECDSA.sol\":7626:7656  RecoverError.InvalidSignatureS */\n      0x03\n        /* \"@openzeppelin/contracts/utils/cryptography/ECDSA.sol\":7617:7656  error == RecoverError.InvalidSignatureS */\n      dup1\n      dup2\n      gt\n      iszero\n      tag_251\n      jumpi\n      tag_252\n      tag_233\n      jump\t// in\n    tag_252:\n    tag_251:\n        /* \"@openzeppelin/contracts/utils/cryptography/ECDSA.sol\":7617:7622  error */\n      dup3\n        /* \"@openzeppelin/contracts/utils/cryptography/ECDSA.sol\":7617:7656  error == RecoverError.InvalidSignatureS */\n      0x03\n      dup2\n      gt\n      iszero\n      tag_253\n      jumpi\n      tag_254\n      tag_233\n      jump\t// in\n    tag_254:\n    tag_253:\n      sub\n        /* \"@openzeppelin/contracts/utils/cryptography/ECDSA.sol\":7613:7722  if (error == RecoverError.InvalidSignatureS) {... */\n      tag_255\n      jumpi\n        /* \"@openzeppelin/contracts/utils/cryptography/ECDSA.sol\":7702:7710  errorArg */\n      dup1\n        /* \"@openzeppelin/contracts/utils/cryptography/ECDSA.sol\":7679:7711  ECDSAInvalidSignatureS(errorArg) */\n      mload(0x40)\n      0xd78bce0c00000000000000000000000000000000000000000000000000000000\n      dup2\n      mstore\n      0x04\n      add\n      tag_256\n      swap2\n      swap1\n      tag_50\n      jump\t// in\n    tag_256:\n      mload(0x40)\n      dup1\n      swap2\n      sub\n      swap1\n      revert\n        /* \"@openzeppelin/contracts/utils/cryptography/ECDSA.sol\":7613:7722  if (error == RecoverError.InvalidSignatureS) {... */\n    tag_255:\n        /* \"@openzeppelin/contracts/utils/cryptography/ECDSA.sol\":7196:7728  function _throwError(RecoverError error, bytes32 errorArg) private pure {... */\n    tag_230:\n      pop\n      pop\n      jump\t// out\n        /* \"@openzeppelin/contracts/utils/ShortStrings.sol\":2078:2483  function toString(ShortString sstr) internal pure returns (string memory) {... */\n    tag_215:\n        /* \"@openzeppelin/contracts/utils/ShortStrings.sol\":2137:2150  string memory */\n      0x60\n        /* \"@openzeppelin/contracts/utils/ShortStrings.sol\":2162:2173  uint256 len */\n      0x00\n        /* \"@openzeppelin/contracts/utils/ShortStrings.sol\":2176:2192  byteLength(sstr) */\n      tag_258\n        /* \"@openzeppelin/contracts/utils/ShortStrings.sol\":2187:2191  sstr */\n      dup4\n        /* \"@openzeppelin/contracts/utils/ShortStrings.sol\":2176:2186  byteLength */\n      tag_259\n        /* \"@openzeppelin/contracts/utils/ShortStrings.sol\":2176:2192  byteLength(sstr) */\n      jump\t// in\n    tag_258:\n        /* \"@openzeppelin/contracts/utils/ShortStrings.sol\":2162:2192  uint256 len = byteLength(sstr) */\n      swap1\n      pop\n        /* \"@openzeppelin/contracts/utils/ShortStrings.sol\":2280:2297  string memory str */\n      0x00\n        /* \"@openzeppelin/contracts/utils/ShortStrings.sol\":2311:2313  32 */\n      0x20\n        /* \"@openzeppelin/contracts/utils/ShortStrings.sol\":2300:2314  new string(32) */\n      0xffffffffffffffff\n      dup2\n      gt\n      iszero\n      tag_260\n      jumpi\n      tag_261\n      tag_120\n      jump\t// in\n    tag_261:\n    tag_260:\n      mload(0x40)\n      swap1\n      dup1\n      dup3\n      mstore\n      dup1\n      0x1f\n      add\n      not(0x1f)\n      and\n      0x20\n      add\n      dup3\n      add\n      0x40\n      mstore\n      dup1\n      iszero\n      tag_262\n      jumpi\n      dup2\n      0x20\n      add\n      0x01\n      dup3\n      mul\n      dup1\n      calldatasize\n      dup4\n      calldatacopy\n      dup1\n      dup3\n      add\n      swap2\n      pop\n      pop\n      swap1\n      pop\n    tag_262:\n      pop\n        /* \"@openzeppelin/contracts/utils/ShortStrings.sol\":2280:2314  string memory str = new string(32) */\n      swap1\n      pop\n        /* \"@openzeppelin/contracts/utils/ShortStrings.sol\":2402:2405  len */\n      dup2\n        /* \"@openzeppelin/contracts/utils/ShortStrings.sol\":2397:2400  str */\n      dup2\n        /* \"@openzeppelin/contracts/utils/ShortStrings.sol\":2390:2406  mstore(str, len) */\n      mstore\n        /* \"@openzeppelin/contracts/utils/ShortStrings.sol\":2442:2446  sstr */\n      dup4\n        /* \"@openzeppelin/contracts/utils/ShortStrings.sol\":2435:2439  0x20 */\n      0x20\n        /* \"@openzeppelin/contracts/utils/ShortStrings.sol\":2430:2433  str */\n      dup3\n        /* \"@openzeppelin/contracts/utils/ShortStrings.sol\":2426:2440  add(str, 0x20) */\n      add\n        /* \"@openzeppelin/contracts/utils/ShortStrings.sol\":2419:2447  mstore(add(str, 0x20), sstr) */\n      mstore\n        /* \"@openzeppelin/contracts/utils/ShortStrings.sol\":2473:2476  str */\n      dup1\n        /* \"@openzeppelin/contracts/utils/ShortStrings.sol\":2466:2476  return str */\n      swap3\n      pop\n      pop\n      pop\n        /* \"@openzeppelin/contracts/utils/ShortStrings.sol\":2078:2483  function toString(ShortString sstr) internal pure returns (string memory) {... */\n      swap2\n      swap1\n      pop\n      jump\t// out\n        /* \"@openzeppelin/contracts/utils/ShortStrings.sol\":2555:2800  function byteLength(ShortString sstr) internal pure returns (uint256) {... */\n    tag_259:\n        /* \"@openzeppelin/contracts/utils/ShortStrings.sol\":2616:2623  uint256 */\n      0x00\n        /* \"@openzeppelin/contracts/utils/ShortStrings.sol\":2635:2649  uint256 result */\n      dup1\n        /* \"@openzeppelin/contracts/utils/ShortStrings.sol\":2688:2692  0xFF */\n      0xff\n        /* \"@openzeppelin/contracts/utils/ShortStrings.sol\":2679:2683  sstr */\n      dup4\n        /* \"@openzeppelin/contracts/utils/ShortStrings.sol\":2652:2685  uint256(ShortString.unwrap(sstr)) */\n      0x00\n      shr\n        /* \"@openzeppelin/contracts/utils/ShortStrings.sol\":2652:2692  uint256(ShortString.unwrap(sstr)) & 0xFF */\n      and\n        /* \"@openzeppelin/contracts/utils/ShortStrings.sol\":2635:2692  uint256 result = uint256(ShortString.unwrap(sstr)) & 0xFF */\n      swap1\n      pop\n        /* \"@openzeppelin/contracts/utils/ShortStrings.sol\":2715:2717  31 */\n      0x1f\n        /* \"@openzeppelin/contracts/utils/ShortStrings.sol\":2706:2712  result */\n      dup2\n        /* \"@openzeppelin/contracts/utils/ShortStrings.sol\":2706:2717  result > 31 */\n      gt\n        /* \"@openzeppelin/contracts/utils/ShortStrings.sol\":2702:2771  if (result > 31) {... */\n      iszero\n      tag_264\n      jumpi\n        /* \"@openzeppelin/contracts/utils/ShortStrings.sol\":2740:2760  InvalidShortString() */\n      mload(0x40)\n      0xb3512b0c00000000000000000000000000000000000000000000000000000000\n      dup2\n      mstore\n      0x04\n      add\n      mload(0x40)\n      dup1\n      swap2\n      sub\n      swap1\n      revert\n        /* \"@openzeppelin/contracts/utils/ShortStrings.sol\":2702:2771  if (result > 31) {... */\n    tag_264:\n        /* \"@openzeppelin/contracts/utils/ShortStrings.sol\":2787:2793  result */\n      dup1\n        /* \"@openzeppelin/contracts/utils/ShortStrings.sol\":2780:2793  return result */\n      swap2\n      pop\n      pop\n        /* \"@openzeppelin/contracts/utils/ShortStrings.sol\":2555:2800  function byteLength(ShortString sstr) internal pure returns (uint256) {... */\n      swap2\n      swap1\n      pop\n      jump\t// out\n        /* \"#utility.yul\":7:106   */\n    tag_265:\n        /* \"#utility.yul\":59:65   */\n      0x00\n        /* \"#utility.yul\":93:98   */\n      dup2\n        /* \"#utility.yul\":87:99   */\n      mload\n        /* \"#utility.yul\":77:99   */\n      swap1\n      pop\n        /* \"#utility.yul\":7:106   */\n      swap2\n      swap1\n      pop\n      jump\t// out\n        /* \"#utility.yul\":112:281   */\n    tag_266:\n        /* \"#utility.yul\":196:207   */\n      0x00\n        /* \"#utility.yul\":230:236   */\n      dup3\n        /* \"#utility.yul\":225:228   */\n      dup3\n        /* \"#utility.yul\":218:237   */\n      mstore\n        /* \"#utility.yul\":270:274   */\n      0x20\n        /* \"#utility.yul\":265:268   */\n      dup3\n        /* \"#utility.yul\":261:275   */\n      add\n        /* \"#utility.yul\":246:275   */\n      swap1\n      pop\n        /* \"#utility.yul\":112:281   */\n      swap3\n      swap2\n      pop\n      pop\n      jump\t// out\n        /* \"#utility.yul\":287:426   */\n    tag_267:\n        /* \"#utility.yul\":376:382   */\n      dup3\n        /* \"#utility.yul\":371:374   */\n      dup2\n        /* \"#utility.yul\":366:369   */\n      dup4\n        /* \"#utility.yul\":360:383   */\n      mcopy\n        /* \"#utility.yul\":417:418   */\n      0x00\n        /* \"#utility.yul\":408:414   */\n      dup4\n        /* \"#utility.yul\":403:406   */\n      dup4\n        /* \"#utility.yul\":399:415   */\n      add\n        /* \"#utility.yul\":392:419   */\n      mstore\n        /* \"#utility.yul\":287:426   */\n      pop\n      pop\n      pop\n      jump\t// out\n        /* \"#utility.yul\":432:534   */\n    tag_268:\n        /* \"#utility.yul\":473:479   */\n      0x00\n        /* \"#utility.yul\":524:526   */\n      0x1f\n        /* \"#utility.yul\":520:527   */\n      not\n        /* \"#utility.yul\":515:517   */\n      0x1f\n        /* \"#utility.yul\":508:513   */\n      dup4\n        /* \"#utility.yul\":504:518   */\n      add\n        /* \"#utility.yul\":500:528   */\n      and\n        /* \"#utility.yul\":490:528   */\n      swap1\n      pop\n        /* \"#utility.yul\":432:534   */\n      swap2\n      swap1\n      pop\n      jump\t// out\n        /* \"#utility.yul\":540:917   */\n    tag_269:\n        /* \"#utility.yul\":628:631   */\n      0x00\n        /* \"#utility.yul\":656:695   */\n      tag_309\n        /* \"#utility.yul\":689:694   */\n      dup3\n        /* \"#utility.yul\":656:695   */\n      tag_265\n      jump\t// in\n    tag_309:\n        /* \"#utility.yul\":711:782   */\n      tag_310\n        /* \"#utility.yul\":775:781   */\n      dup2\n        /* \"#utility.yul\":770:773   */\n      dup6\n        /* \"#utility.yul\":711:782   */\n      tag_266\n      jump\t// in\n    tag_310:\n        /* \"#utility.yul\":704:782   */\n      swap4\n      pop\n        /* \"#utility.yul\":791:856   */\n      tag_311\n        /* \"#utility.yul\":849:855   */\n      dup2\n        /* \"#utility.yul\":844:847   */\n      dup6\n        /* \"#utility.yul\":837:841   */\n      0x20\n        /* \"#utility.yul\":830:835   */\n      dup7\n        /* \"#utility.yul\":826:842   */\n      add\n        /* \"#utility.yul\":791:856   */\n      tag_267\n      jump\t// in\n    tag_311:\n        /* \"#utility.yul\":881:910   */\n      tag_312\n        /* \"#utility.yul\":903:909   */\n      dup2\n        /* \"#utility.yul\":881:910   */\n      tag_268\n      jump\t// in\n    tag_312:\n        /* \"#utility.yul\":876:879   */\n      dup5\n        /* \"#utility.yul\":872:911   */\n      add\n        /* \"#utility.yul\":865:911   */\n      swap2\n      pop\n        /* \"#utility.yul\":632:917   */\n      pop\n        /* \"#utility.yul\":540:917   */\n      swap3\n      swap2\n      pop\n      pop\n      jump\t// out\n        /* \"#utility.yul\":923:1236   */\n    tag_24:\n        /* \"#utility.yul\":1036:1040   */\n      0x00\n        /* \"#utility.yul\":1074:1076   */\n      0x20\n        /* \"#utility.yul\":1063:1072   */\n      dup3\n        /* \"#utility.yul\":1059:1077   */\n      add\n        /* \"#utility.yul\":1051:1077   */\n      swap1\n      pop\n        /* \"#utility.yul\":1123:1132   */\n      dup2\n        /* \"#utility.yul\":1117:1121   */\n      dup2\n        /* \"#utility.yul\":1113:1133   */\n      sub\n        /* \"#utility.yul\":1109:1110   */\n      0x00\n        /* \"#utility.yul\":1098:1107   */\n      dup4\n        /* \"#utility.yul\":1094:1111   */\n      add\n        /* \"#utility.yul\":1087:1134   */\n      mstore\n        /* \"#utility.yul\":1151:1229   */\n      tag_314\n        /* \"#utility.yul\":1224:1228   */\n      dup2\n        /* \"#utility.yul\":1215:1221   */\n      dup5\n        /* \"#utility.yul\":1151:1229   */\n      tag_269\n      jump\t// in\n    tag_314:\n        /* \"#utility.yul\":1143:1229   */\n      swap1\n      pop\n        /* \"#utility.yul\":923:1236   */\n      swap3\n      swap2\n      pop\n      pop\n      jump\t// out\n        /* \"#utility.yul\":1323:1440   */\n    tag_271:\n        /* \"#utility.yul\":1432:1433   */\n      0x00\n        /* \"#utility.yul\":1429:1430   */\n      dup1\n        /* \"#utility.yul\":1422:1434   */\n      revert\n        /* \"#utility.yul\":1569:1695   */\n    tag_273:\n        /* \"#utility.yul\":1606:1613   */\n      0x00\n        /* \"#utility.yul\":1646:1688   */\n      0xffffffffffffffffffffffffffffffffffffffff\n        /* \"#utility.yul\":1639:1644   */\n      dup3\n        /* \"#utility.yul\":1635:1689   */\n      and\n        /* \"#utility.yul\":1624:1689   */\n      swap1\n      pop\n        /* \"#utility.yul\":1569:1695   */\n      swap2\n      swap1\n      pop\n      jump\t// out\n        /* \"#utility.yul\":1701:1797   */\n    tag_274:\n        /* \"#utility.yul\":1738:1745   */\n      0x00\n        /* \"#utility.yul\":1767:1791   */\n      tag_320\n        /* \"#utility.yul\":1785:1790   */\n      dup3\n        /* \"#utility.yul\":1767:1791   */\n      tag_273\n      jump\t// in\n    tag_320:\n        /* \"#utility.yul\":1756:1791   */\n      swap1\n      pop\n        /* \"#utility.yul\":1701:1797   */\n      swap2\n      swap1\n      pop\n      jump\t// out\n        /* \"#utility.yul\":1803:1925   */\n    tag_275:\n        /* \"#utility.yul\":1876:1900   */\n      tag_322\n        /* \"#utility.yul\":1894:1899   */\n      dup2\n        /* \"#utility.yul\":1876:1900   */\n      tag_274\n      jump\t// in\n    tag_322:\n        /* \"#utility.yul\":1869:1874   */\n      dup2\n        /* \"#utility.yul\":1866:1901   */\n      eq\n        /* \"#utility.yul\":1856:1919   */\n      tag_323\n      jumpi\n        /* \"#utility.yul\":1915:1916   */\n      0x00\n        /* \"#utility.yul\":1912:1913   */\n      dup1\n        /* \"#utility.yul\":1905:1917   */\n      revert\n        /* \"#utility.yul\":1856:1919   */\n    tag_323:\n        /* \"#utility.yul\":1803:1925   */\n      pop\n      jump\t// out\n        /* \"#utility.yul\":1931:2070   */\n    tag_276:\n        /* \"#utility.yul\":1977:1982   */\n      0x00\n        /* \"#utility.yul\":2015:2021   */\n      dup2\n        /* \"#utility.yul\":2002:2022   */\n      calldataload\n        /* \"#utility.yul\":1993:2022   */\n      swap1\n      pop\n        /* \"#utility.yul\":2031:2064   */\n      tag_325\n        /* \"#utility.yul\":2058:2063   */\n      dup2\n        /* \"#utility.yul\":2031:2064   */\n      tag_275\n      jump\t// in\n    tag_325:\n        /* \"#utility.yul\":1931:2070   */\n      swap3\n      swap2\n      pop\n      pop\n      jump\t// out\n        /* \"#utility.yul\":2076:2153   */\n    tag_277:\n        /* \"#utility.yul\":2113:2120   */\n      0x00\n        /* \"#utility.yul\":2142:2147   */\n      dup2\n        /* \"#utility.yul\":2131:2147   */\n      swap1\n      pop\n        /* \"#utility.yul\":2076:2153   */\n      swap2\n      swap1\n      pop\n      jump\t// out\n        /* \"#utility.yul\":2159:2281   */\n    tag_278:\n        /* \"#utility.yul\":2232:2256   */\n      tag_328\n        /* \"#utility.yul\":2250:2255   */\n      dup2\n        /* \"#utility.yul\":2232:2256   */\n      tag_277\n      jump\t// in\n    tag_328:\n        /* \"#utility.yul\":2225:2230   */\n      dup2\n        /* \"#utility.yul\":2222:2257   */\n      eq\n        /* \"#utility.yul\":2212:2275   */\n      tag_329\n      jumpi\n        /* \"#utility.yul\":2271:2272   */\n      0x00\n        /* \"#utility.yul\":2268:2269   */\n      dup1\n        /* \"#utility.yul\":2261:2273   */\n      revert\n        /* \"#utility.yul\":2212:2275   */\n    tag_329:\n        /* \"#utility.yul\":2159:2281   */\n      pop\n      jump\t// out\n        /* \"#utility.yul\":2287:2426   */\n    tag_279:\n        /* \"#utility.yul\":2333:2338   */\n      0x00\n        /* \"#utility.yul\":2371:2377   */\n      dup2\n        /* \"#utility.yul\":2358:2378   */\n      calldataload\n        /* \"#utility.yul\":2349:2378   */\n      swap1\n      pop\n        /* \"#utility.yul\":2387:2420   */\n      tag_331\n        /* \"#utility.yul\":2414:2419   */\n      dup2\n        /* \"#utility.yul\":2387:2420   */\n      tag_278\n      jump\t// in\n    tag_331:\n        /* \"#utility.yul\":2287:2426   */\n      swap3\n      swap2\n      pop\n      pop\n      jump\t// out\n        /* \"#utility.yul\":2432:2906   */\n    tag_27:\n        /* \"#utility.yul\":2500:2506   */\n      0x00\n        /* \"#utility.yul\":2508:2514   */\n      dup1\n        /* \"#utility.yul\":2557:2559   */\n      0x40\n        /* \"#utility.yul\":2545:2554   */\n      dup4\n        /* \"#utility.yul\":2536:2543   */\n      dup6\n        /* \"#utility.yul\":2532:2555   */\n      sub\n        /* \"#utility.yul\":2528:2560   */\n      slt\n        /* \"#utility.yul\":2525:2644   */\n      iszero\n      tag_333\n      jumpi\n        /* \"#utility.yul\":2563:2642   */\n      tag_334\n      tag_271\n      jump\t// in\n    tag_334:\n        /* \"#utility.yul\":2525:2644   */\n    tag_333:\n        /* \"#utility.yul\":2683:2684   */\n      0x00\n        /* \"#utility.yul\":2708:2761   */\n      tag_335\n        /* \"#utility.yul\":2753:2760   */\n      dup6\n        /* \"#utility.yul\":2744:2750   */\n      dup3\n        /* \"#utility.yul\":2733:2742   */\n      dup7\n        /* \"#utility.yul\":2729:2751   */\n      add\n        /* \"#utility.yul\":2708:2761   */\n      tag_276\n      jump\t// in\n    tag_335:\n        /* \"#utility.yul\":2698:2761   */\n      swap3\n      pop\n        /* \"#utility.yul\":2654:2771   */\n      pop\n        /* \"#utility.yul\":2810:2812   */\n      0x20\n        /* \"#utility.yul\":2836:2889   */\n      tag_336\n        /* \"#utility.yul\":2881:2888   */\n      dup6\n        /* \"#utility.yul\":2872:2878   */\n      dup3\n        /* \"#utility.yul\":2861:2870   */\n      dup7\n        /* \"#utility.yul\":2857:2879   */\n      add\n        /* \"#utility.yul\":2836:2889   */\n      tag_279\n      jump\t// in\n    tag_336:\n        /* \"#utility.yul\":2826:2889   */\n      swap2\n      pop\n        /* \"#utility.yul\":2781:2899   */\n      pop\n        /* \"#utility.yul\":2432:2906   */\n      swap3\n      pop\n      swap3\n      swap1\n      pop\n      jump\t// out\n        /* \"#utility.yul\":2912:3002   */\n    tag_280:\n        /* \"#utility.yul\":2946:2953   */\n      0x00\n        /* \"#utility.yul\":2989:2994   */\n      dup2\n        /* \"#utility.yul\":2982:2995   */\n      iszero\n        /* \"#utility.yul\":2975:2996   */\n      iszero\n        /* \"#utility.yul\":2964:2996   */\n      swap1\n      pop\n        /* \"#utility.yul\":2912:3002   */\n      swap2\n      swap1\n      pop\n      jump\t// out\n        /* \"#utility.yul\":3008:3117   */\n    tag_281:\n        /* \"#utility.yul\":3089:3110   */\n      tag_339\n        /* \"#utility.yul\":3104:3109   */\n      dup2\n        /* \"#utility.yul\":3089:3110   */\n      tag_280\n      jump\t// in\n    tag_339:\n        /* \"#utility.yul\":3084:3087   */\n      dup3\n        /* \"#utility.yul\":3077:3111   */\n      mstore\n        /* \"#utility.yul\":3008:3117   */\n      pop\n      pop\n      jump\t// out\n        /* \"#utility.yul\":3123:3333   */\n    tag_30:\n        /* \"#utility.yul\":3210:3214   */\n      0x00\n        /* \"#utility.yul\":3248:3250   */\n      0x20\n        /* \"#utility.yul\":3237:3246   */\n      dup3\n        /* \"#utility.yul\":3233:3251   */\n      add\n        /* \"#utility.yul\":3225:3251   */\n      swap1\n      pop\n        /* \"#utility.yul\":3261:3326   */\n      tag_341\n        /* \"#utility.yul\":3323:3324   */\n      0x00\n        /* \"#utility.yul\":3312:3321   */\n      dup4\n        /* \"#utility.yul\":3308:3325   */\n      add\n        /* \"#utility.yul\":3299:3305   */\n      dup5\n        /* \"#utility.yul\":3261:3326   */\n      tag_281\n      jump\t// in\n    tag_341:\n        /* \"#utility.yul\":3123:3333   */\n      swap3\n      swap2\n      pop\n      pop\n      jump\t// out\n        /* \"#utility.yul\":3339:3457   */\n    tag_282:\n        /* \"#utility.yul\":3426:3450   */\n      tag_343\n        /* \"#utility.yul\":3444:3449   */\n      dup2\n        /* \"#utility.yul\":3426:3450   */\n      tag_277\n      jump\t// in\n    tag_343:\n        /* \"#utility.yul\":3421:3424   */\n      dup3\n        /* \"#utility.yul\":3414:3451   */\n      mstore\n        /* \"#utility.yul\":3339:3457   */\n      pop\n      pop\n      jump\t// out\n        /* \"#utility.yul\":3463:3685   */\n    tag_34:\n        /* \"#utility.yul\":3556:3560   */\n      0x00\n        /* \"#utility.yul\":3594:3596   */\n      0x20\n        /* \"#utility.yul\":3583:3592   */\n      dup3\n        /* \"#utility.yul\":3579:3597   */\n      add\n        /* \"#utility.yul\":3571:3597   */\n      swap1\n      pop\n        /* \"#utility.yul\":3607:3678   */\n      tag_345\n        /* \"#utility.yul\":3675:3676   */\n      0x00\n        /* \"#utility.yul\":3664:3673   */\n      dup4\n        /* \"#utility.yul\":3660:3677   */\n      add\n        /* \"#utility.yul\":3651:3657   */\n      dup5\n        /* \"#utility.yul\":3607:3678   */\n      tag_282\n      jump\t// in\n    tag_345:\n        /* \"#utility.yul\":3463:3685   */\n      swap3\n      swap2\n      pop\n      pop\n      jump\t// out\n        /* \"#utility.yul\":3691:4310   */\n    tag_37:\n        /* \"#utility.yul\":3768:3774   */\n      0x00\n        /* \"#utility.yul\":3776:3782   */\n      dup1\n        /* \"#utility.yul\":3784:3790   */\n      0x00\n        /* \"#utility.yul\":3833:3835   */\n      0x60\n        /* \"#utility.yul\":3821:3830   */\n      dup5\n        /* \"#utility.yul\":3812:3819   */\n      dup7\n        /* \"#utility.yul\":3808:3831   */\n      sub\n        /* \"#utility.yul\":3804:3836   */\n      slt\n        /* \"#utility.yul\":3801:3920   */\n      iszero\n      tag_347\n      jumpi\n        /* \"#utility.yul\":3839:3918   */\n      tag_348\n      tag_271\n      jump\t// in\n    tag_348:\n        /* \"#utility.yul\":3801:3920   */\n    tag_347:\n        /* \"#utility.yul\":3959:3960   */\n      0x00\n        /* \"#utility.yul\":3984:4037   */\n      tag_349\n        /* \"#utility.yul\":4029:4036   */\n      dup7\n        /* \"#utility.yul\":4020:4026   */\n      dup3\n        /* \"#utility.yul\":4009:4018   */\n      dup8\n        /* \"#utility.yul\":4005:4027   */\n      add\n        /* \"#utility.yul\":3984:4037   */\n      tag_276\n      jump\t// in\n    tag_349:\n        /* \"#utility.yul\":3974:4037   */\n      swap4\n      pop\n        /* \"#utility.yul\":3930:4047   */\n      pop\n        /* \"#utility.yul\":4086:4088   */\n      0x20\n        /* \"#utility.yul\":4112:4165   */\n      tag_350\n        /* \"#utility.yul\":4157:4164   */\n      dup7\n        /* \"#utility.yul\":4148:4154   */\n      dup3\n        /* \"#utility.yul\":4137:4146   */\n      dup8\n        /* \"#utility.yul\":4133:4155   */\n      add\n        /* \"#utility.yul\":4112:4165   */\n      tag_276\n      jump\t// in\n    tag_350:\n        /* \"#utility.yul\":4102:4165   */\n      swap3\n      pop\n        /* \"#utility.yul\":4057:4175   */\n      pop\n        /* \"#utility.yul\":4214:4216   */\n      0x40\n        /* \"#utility.yul\":4240:4293   */\n      tag_351\n        /* \"#utility.yul\":4285:4292   */\n      dup7\n        /* \"#utility.yul\":4276:4282   */\n      dup3\n        /* \"#utility.yul\":4265:4274   */\n      dup8\n        /* \"#utility.yul\":4261:4283   */\n      add\n        /* \"#utility.yul\":4240:4293   */\n      tag_279\n      jump\t// in\n    tag_351:\n        /* \"#utility.yul\":4230:4293   */\n      swap2\n      pop\n        /* \"#utility.yul\":4185:4303   */\n      pop\n        /* \"#utility.yul\":3691:4310   */\n      swap3\n      pop\n      swap3\n      pop\n      swap3\n      jump\t// out\n        /* \"#utility.yul\":4316:4402   */\n    tag_283:\n        /* \"#utility.yul\":4351:4358   */\n      0x00\n        /* \"#utility.yul\":4391:4395   */\n      0xff\n        /* \"#utility.yul\":4384:4389   */\n      dup3\n        /* \"#utility.yul\":4380:4396   */\n      and\n        /* \"#utility.yul\":4369:4396   */\n      swap1\n      pop\n        /* \"#utility.yul\":4316:4402   */\n      swap2\n      swap1\n      pop\n      jump\t// out\n        /* \"#utility.yul\":4408:4520   */\n    tag_284:\n        /* \"#utility.yul\":4491:4513   */\n      tag_354\n        /* \"#utility.yul\":4507:4512   */\n      dup2\n        /* \"#utility.yul\":4491:4513   */\n      tag_283\n      jump\t// in\n    tag_354:\n        /* \"#utility.yul\":4486:4489   */\n      dup3\n        /* \"#utility.yul\":4479:4514   */\n      mstore\n        /* \"#utility.yul\":4408:4520   */\n      pop\n      pop\n      jump\t// out\n        /* \"#utility.yul\":4526:4740   */\n    tag_46:\n        /* \"#utility.yul\":4615:4619   */\n      0x00\n        /* \"#utility.yul\":4653:4655   */\n      0x20\n        /* \"#utility.yul\":4642:4651   */\n      dup3\n        /* \"#utility.yul\":4638:4656   */\n      add\n        /* \"#utility.yul\":4630:4656   */\n      swap1\n      pop\n        /* \"#utility.yul\":4666:4733   */\n      tag_356\n        /* \"#utility.yul\":4730:4731   */\n      0x00\n        /* \"#utility.yul\":4719:4728   */\n      dup4\n        /* \"#utility.yul\":4715:4732   */\n      add\n        /* \"#utility.yul\":4706:4712   */\n      dup5\n        /* \"#utility.yul\":4666:4733   */\n      tag_284\n      jump\t// in\n    tag_356:\n        /* \"#utility.yul\":4526:4740   */\n      swap3\n      swap2\n      pop\n      pop\n      jump\t// out\n        /* \"#utility.yul\":4746:4823   */\n    tag_285:\n        /* \"#utility.yul\":4783:4790   */\n      0x00\n        /* \"#utility.yul\":4812:4817   */\n      dup2\n        /* \"#utility.yul\":4801:4817   */\n      swap1\n      pop\n        /* \"#utility.yul\":4746:4823   */\n      swap2\n      swap1\n      pop\n      jump\t// out\n        /* \"#utility.yul\":4829:4947   */\n    tag_286:\n        /* \"#utility.yul\":4916:4940   */\n      tag_359\n        /* \"#utility.yul\":4934:4939   */\n      dup2\n        /* \"#utility.yul\":4916:4940   */\n      tag_285\n      jump\t// in\n    tag_359:\n        /* \"#utility.yul\":4911:4914   */\n      dup3\n        /* \"#utility.yul\":4904:4941   */\n      mstore\n        /* \"#utility.yul\":4829:4947   */\n      pop\n      pop\n      jump\t// out\n        /* \"#utility.yul\":4953:5175   */\n    tag_50:\n        /* \"#utility.yul\":5046:5050   */\n      0x00\n        /* \"#utility.yul\":5084:5086   */\n      0x20\n        /* \"#utility.yul\":5073:5082   */\n      dup3\n        /* \"#utility.yul\":5069:5087   */\n      add\n        /* \"#utility.yul\":5061:5087   */\n      swap1\n      pop\n        /* \"#utility.yul\":5097:5168   */\n      tag_361\n        /* \"#utility.yul\":5165:5166   */\n      0x00\n        /* \"#utility.yul\":5154:5163   */\n      dup4\n        /* \"#utility.yul\":5150:5167   */\n      add\n        /* \"#utility.yul\":5141:5147   */\n      dup5\n        /* \"#utility.yul\":5097:5168   */\n      tag_286\n      jump\t// in\n    tag_361:\n        /* \"#utility.yul\":4953:5175   */\n      swap3\n      swap2\n      pop\n      pop\n      jump\t// out\n        /* \"#utility.yul\":5181:5510   */\n    tag_56:\n        /* \"#utility.yul\":5240:5246   */\n      0x00\n        /* \"#utility.yul\":5289:5291   */\n      0x20\n        /* \"#utility.yul\":5277:5286   */\n      dup3\n        /* \"#utility.yul\":5268:5275   */\n      dup5\n        /* \"#utility.yul\":5264:5287   */\n      sub\n        /* \"#utility.yul\":5260:5292   */\n      slt\n        /* \"#utility.yul\":5257:5376   */\n      iszero\n      tag_363\n      jumpi\n        /* \"#utility.yul\":5295:5374   */\n      tag_364\n      tag_271\n      jump\t// in\n    tag_364:\n        /* \"#utility.yul\":5257:5376   */\n    tag_363:\n        /* \"#utility.yul\":5415:5416   */\n      0x00\n        /* \"#utility.yul\":5440:5493   */\n      tag_365\n        /* \"#utility.yul\":5485:5492   */\n      dup5\n        /* \"#utility.yul\":5476:5482   */\n      dup3\n        /* \"#utility.yul\":5465:5474   */\n      dup6\n        /* \"#utility.yul\":5461:5483   */\n      add\n        /* \"#utility.yul\":5440:5493   */\n      tag_276\n      jump\t// in\n    tag_365:\n        /* \"#utility.yul\":5430:5493   */\n      swap2\n      pop\n        /* \"#utility.yul\":5386:5503   */\n      pop\n        /* \"#utility.yul\":5181:5510   */\n      swap3\n      swap2\n      pop\n      pop\n      jump\t// out\n        /* \"#utility.yul\":5516:5665   */\n    tag_287:\n        /* \"#utility.yul\":5552:5559   */\n      0x00\n        /* \"#utility.yul\":5592:5658   */\n      0xff00000000000000000000000000000000000000000000000000000000000000\n        /* \"#utility.yul\":5585:5590   */\n      dup3\n        /* \"#utility.yul\":5581:5659   */\n      and\n        /* \"#utility.yul\":5570:5659   */\n      swap1\n      pop\n        /* \"#utility.yul\":5516:5665   */\n      swap2\n      swap1\n      pop\n      jump\t// out\n        /* \"#utility.yul\":5671:5786   */\n    tag_288:\n        /* \"#utility.yul\":5756:5779   */\n      tag_368\n        /* \"#utility.yul\":5773:5778   */\n      dup2\n        /* \"#utility.yul\":5756:5779   */\n      tag_287\n      jump\t// in\n    tag_368:\n        /* \"#utility.yul\":5751:5754   */\n      dup3\n        /* \"#utility.yul\":5744:5780   */\n      mstore\n        /* \"#utility.yul\":5671:5786   */\n      pop\n      pop\n      jump\t// out\n        /* \"#utility.yul\":5792:5910   */\n    tag_289:\n        /* \"#utility.yul\":5879:5903   */\n      tag_370\n        /* \"#utility.yul\":5897:5902   */\n      dup2\n        /* \"#utility.yul\":5879:5903   */\n      tag_274\n      jump\t// in\n    tag_370:\n        /* \"#utility.yul\":5874:5877   */\n      dup3\n        /* \"#utility.yul\":5867:5904   */\n      mstore\n        /* \"#utility.yul\":5792:5910   */\n      pop\n      pop\n      jump\t// out\n        /* \"#utility.yul\":5916:6030   */\n    tag_290:\n        /* \"#utility.yul\":5983:5989   */\n      0x00\n        /* \"#utility.yul\":6017:6022   */\n      dup2\n        /* \"#utility.yul\":6011:6023   */\n      mload\n        /* \"#utility.yul\":6001:6023   */\n      swap1\n      pop\n        /* \"#utility.yul\":5916:6030   */\n      swap2\n      swap1\n      pop\n      jump\t// out\n        /* \"#utility.yul\":6036:6220   */\n    tag_291:\n        /* \"#utility.yul\":6135:6146   */\n      0x00\n        /* \"#utility.yul\":6169:6175   */\n      dup3\n        /* \"#utility.yul\":6164:6167   */\n      dup3\n        /* \"#utility.yul\":6157:6176   */\n      mstore\n        /* \"#utility.yul\":6209:6213   */\n      0x20\n        /* \"#utility.yul\":6204:6207   */\n      dup3\n        /* \"#utility.yul\":6200:6214   */\n      add\n        /* \"#utility.yul\":6185:6214   */\n      swap1\n      pop\n        /* \"#utility.yul\":6036:6220   */\n      swap3\n      swap2\n      pop\n      pop\n      jump\t// out\n        /* \"#utility.yul\":6226:6358   */\n    tag_292:\n        /* \"#utility.yul\":6293:6297   */\n      0x00\n        /* \"#utility.yul\":6316:6319   */\n      dup2\n        /* \"#utility.yul\":6308:6319   */\n      swap1\n      pop\n        /* \"#utility.yul\":6346:6350   */\n      0x20\n        /* \"#utility.yul\":6341:6344   */\n      dup3\n        /* \"#utility.yul\":6337:6351   */\n      add\n        /* \"#utility.yul\":6329:6351   */\n      swap1\n      pop\n        /* \"#utility.yul\":6226:6358   */\n      swap2\n      swap1\n      pop\n      jump\t// out\n        /* \"#utility.yul\":6364:6472   */\n    tag_293:\n        /* \"#utility.yul\":6441:6465   */\n      tag_375\n        /* \"#utility.yul\":6459:6464   */\n      dup2\n        /* \"#utility.yul\":6441:6465   */\n      tag_277\n      jump\t// in\n    tag_375:\n        /* \"#utility.yul\":6436:6439   */\n      dup3\n        /* \"#utility.yul\":6429:6466   */\n      mstore\n        /* \"#utility.yul\":6364:6472   */\n      pop\n      pop\n      jump\t// out\n        /* \"#utility.yul\":6478:6657   */\n    tag_294:\n        /* \"#utility.yul\":6547:6557   */\n      0x00\n        /* \"#utility.yul\":6568:6614   */\n      tag_377\n        /* \"#utility.yul\":6610:6613   */\n      dup4\n        /* \"#utility.yul\":6602:6608   */\n      dup4\n        /* \"#utility.yul\":6568:6614   */\n      tag_293\n      jump\t// in\n    tag_377:\n        /* \"#utility.yul\":6646:6650   */\n      0x20\n        /* \"#utility.yul\":6641:6644   */\n      dup4\n        /* \"#utility.yul\":6637:6651   */\n      add\n        /* \"#utility.yul\":6623:6651   */\n      swap1\n      pop\n        /* \"#utility.yul\":6478:6657   */\n      swap3\n      swap2\n      pop\n      pop\n      jump\t// out\n        /* \"#utility.yul\":6663:6776   */\n    tag_295:\n        /* \"#utility.yul\":6733:6737   */\n      0x00\n        /* \"#utility.yul\":6765:6769   */\n      0x20\n        /* \"#utility.yul\":6760:6763   */\n      dup3\n        /* \"#utility.yul\":6756:6770   */\n      add\n        /* \"#utility.yul\":6748:6770   */\n      swap1\n      pop\n        /* \"#utility.yul\":6663:6776   */\n      swap2\n      swap1\n      pop\n      jump\t// out\n        /* \"#utility.yul\":6812:7544   */\n    tag_296:\n        /* \"#utility.yul\":6931:6934   */\n      0x00\n        /* \"#utility.yul\":6960:7014   */\n      tag_380\n        /* \"#utility.yul\":7008:7013   */\n      dup3\n        /* \"#utility.yul\":6960:7014   */\n      tag_290\n      jump\t// in\n    tag_380:\n        /* \"#utility.yul\":7030:7116   */\n      tag_381\n        /* \"#utility.yul\":7109:7115   */\n      dup2\n        /* \"#utility.yul\":7104:7107   */\n      dup6\n        /* \"#utility.yul\":7030:7116   */\n      tag_291\n      jump\t// in\n    tag_381:\n        /* \"#utility.yul\":7023:7116   */\n      swap4\n      pop\n        /* \"#utility.yul\":7140:7196   */\n      tag_382\n        /* \"#utility.yul\":7190:7195   */\n      dup4\n        /* \"#utility.yul\":7140:7196   */\n      tag_292\n      jump\t// in\n    tag_382:\n        /* \"#utility.yul\":7219:7226   */\n      dup1\n        /* \"#utility.yul\":7250:7251   */\n      0x00\n        /* \"#utility.yul\":7235:7519   */\n    tag_383:\n        /* \"#utility.yul\":7260:7266   */\n      dup4\n        /* \"#utility.yul\":7257:7258   */\n      dup2\n        /* \"#utility.yul\":7254:7267   */\n      lt\n        /* \"#utility.yul\":7235:7519   */\n      iszero\n      tag_385\n      jumpi\n        /* \"#utility.yul\":7336:7342   */\n      dup2\n        /* \"#utility.yul\":7330:7343   */\n      mload\n        /* \"#utility.yul\":7363:7426   */\n      tag_386\n        /* \"#utility.yul\":7422:7425   */\n      dup9\n        /* \"#utility.yul\":7407:7420   */\n      dup3\n        /* \"#utility.yul\":7363:7426   */\n      tag_294\n      jump\t// in\n    tag_386:\n        /* \"#utility.yul\":7356:7426   */\n      swap8\n      pop\n        /* \"#utility.yul\":7449:7509   */\n      tag_387\n        /* \"#utility.yul\":7502:7508   */\n      dup4\n        /* \"#utility.yul\":7449:7509   */\n      tag_295\n      jump\t// in\n    tag_387:\n        /* \"#utility.yul\":7439:7509   */\n      swap3\n      pop\n        /* \"#utility.yul\":7295:7519   */\n      pop\n        /* \"#utility.yul\":7282:7283   */\n      0x01\n        /* \"#utility.yul\":7279:7280   */\n      dup2\n        /* \"#utility.yul\":7275:7284   */\n      add\n        /* \"#utility.yul\":7270:7284   */\n      swap1\n      pop\n        /* \"#utility.yul\":7235:7519   */\n      jump(tag_383)\n    tag_385:\n        /* \"#utility.yul\":7239:7253   */\n      pop\n        /* \"#utility.yul\":7535:7538   */\n      dup6\n        /* \"#utility.yul\":7528:7538   */\n      swap4\n      pop\n        /* \"#utility.yul\":6936:7544   */\n      pop\n      pop\n      pop\n        /* \"#utility.yul\":6812:7544   */\n      swap3\n      swap2\n      pop\n      pop\n      jump\t// out\n        /* \"#utility.yul\":7550:8765   */\n    tag_66:\n        /* \"#utility.yul\":7899:7903   */\n      0x00\n        /* \"#utility.yul\":7937:7940   */\n      0xe0\n        /* \"#utility.yul\":7926:7935   */\n      dup3\n        /* \"#utility.yul\":7922:7941   */\n      add\n        /* \"#utility.yul\":7914:7941   */\n      swap1\n      pop\n        /* \"#utility.yul\":7951:8020   */\n      tag_389\n        /* \"#utility.yul\":8017:8018   */\n      0x00\n        /* \"#utility.yul\":8006:8015   */\n      dup4\n        /* \"#utility.yul\":8002:8019   */\n      add\n        /* \"#utility.yul\":7993:7999   */\n      dup11\n        /* \"#utility.yul\":7951:8020   */\n      tag_288\n      jump\t// in\n    tag_389:\n        /* \"#utility.yul\":8067:8076   */\n      dup2\n        /* \"#utility.yul\":8061:8065   */\n      dup2\n        /* \"#utility.yul\":8057:8077   */\n      sub\n        /* \"#utility.yul\":8052:8054   */\n      0x20\n        /* \"#utility.yul\":8041:8050   */\n      dup4\n        /* \"#utility.yul\":8037:8055   */\n      add\n        /* \"#utility.yul\":8030:8078   */\n      mstore\n        /* \"#utility.yul\":8095:8173   */\n      tag_390\n        /* \"#utility.yul\":8168:8172   */\n      dup2\n        /* \"#utility.yul\":8159:8165   */\n      dup10\n        /* \"#utility.yul\":8095:8173   */\n      tag_269\n      jump\t// in\n    tag_390:\n        /* \"#utility.yul\":8087:8173   */\n      swap1\n      pop\n        /* \"#utility.yul\":8220:8229   */\n      dup2\n        /* \"#utility.yul\":8214:8218   */\n      dup2\n        /* \"#utility.yul\":8210:8230   */\n      sub\n        /* \"#utility.yul\":8205:8207   */\n      0x40\n        /* \"#utility.yul\":8194:8203   */\n      dup4\n        /* \"#utility.yul\":8190:8208   */\n      add\n        /* \"#utility.yul\":8183:8231   */\n      mstore\n        /* \"#utility.yul\":8248:8326   */\n      tag_391\n        /* \"#utility.yul\":8321:8325   */\n      dup2\n        /* \"#utility.yul\":8312:8318   */\n      dup9\n        /* \"#utility.yul\":8248:8326   */\n      tag_269\n      jump\t// in\n    tag_391:\n        /* \"#utility.yul\":8240:8326   */\n      swap1\n      pop\n        /* \"#utility.yul\":8336:8408   */\n      tag_392\n        /* \"#utility.yul\":8404:8406   */\n      0x60\n        /* \"#utility.yul\":8393:8402   */\n      dup4\n        /* \"#utility.yul\":8389:8407   */\n      add\n        /* \"#utility.yul\":8380:8386   */\n      dup8\n        /* \"#utility.yul\":8336:8408   */\n      tag_282\n      jump\t// in\n    tag_392:\n        /* \"#utility.yul\":8418:8491   */\n      tag_393\n        /* \"#utility.yul\":8486:8489   */\n      0x80\n        /* \"#utility.yul\":8475:8484   */\n      dup4\n        /* \"#utility.yul\":8471:8490   */\n      add\n        /* \"#utility.yul\":8462:8468   */\n      dup7\n        /* \"#utility.yul\":8418:8491   */\n      tag_289\n      jump\t// in\n    tag_393:\n        /* \"#utility.yul\":8501:8574   */\n      tag_394\n        /* \"#utility.yul\":8569:8572   */\n      0xa0\n        /* \"#utility.yul\":8558:8567   */\n      dup4\n        /* \"#utility.yul\":8554:8573   */\n      add\n        /* \"#utility.yul\":8545:8551   */\n      dup6\n        /* \"#utility.yul\":8501:8574   */\n      tag_286\n      jump\t// in\n    tag_394:\n        /* \"#utility.yul\":8622:8631   */\n      dup2\n        /* \"#utility.yul\":8616:8620   */\n      dup2\n        /* \"#utility.yul\":8612:8632   */\n      sub\n        /* \"#utility.yul\":8606:8609   */\n      0xc0\n        /* \"#utility.yul\":8595:8604   */\n      dup4\n        /* \"#utility.yul\":8591:8610   */\n      add\n        /* \"#utility.yul\":8584:8633   */\n      mstore\n        /* \"#utility.yul\":8650:8758   */\n      tag_395\n        /* \"#utility.yul\":8753:8757   */\n      dup2\n        /* \"#utility.yul\":8744:8750   */\n      dup5\n        /* \"#utility.yul\":8650:8758   */\n      tag_296\n      jump\t// in\n    tag_395:\n        /* \"#utility.yul\":8642:8758   */\n      swap1\n      pop\n        /* \"#utility.yul\":7550:8765   */\n      swap9\n      swap8\n      pop\n      pop\n      pop\n      pop\n      pop\n      pop\n      pop\n      pop\n      jump\t// out\n        /* \"#utility.yul\":8771:8889   */\n    tag_297:\n        /* \"#utility.yul\":8842:8864   */\n      tag_397\n        /* \"#utility.yul\":8858:8863   */\n      dup2\n        /* \"#utility.yul\":8842:8864   */\n      tag_283\n      jump\t// in\n    tag_397:\n        /* \"#utility.yul\":8835:8840   */\n      dup2\n        /* \"#utility.yul\":8832:8865   */\n      eq\n        /* \"#utility.yul\":8822:8883   */\n      tag_398\n      jumpi\n        /* \"#utility.yul\":8879:8880   */\n      0x00\n        /* \"#utility.yul\":8876:8877   */\n      dup1\n        /* \"#utility.yul\":8869:8881   */\n      revert\n        /* \"#utility.yul\":8822:8883   */\n    tag_398:\n        /* \"#utility.yul\":8771:8889   */\n      pop\n      jump\t// out\n        /* \"#utility.yul\":8895:9030   */\n    tag_298:\n        /* \"#utility.yul\":8939:8944   */\n      0x00\n        /* \"#utility.yul\":8977:8983   */\n      dup2\n        /* \"#utility.yul\":8964:8984   */\n      calldataload\n        /* \"#utility.yul\":8955:8984   */\n      swap1\n      pop\n        /* \"#utility.yul\":8993:9024   */\n      tag_400\n        /* \"#utility.yul\":9018:9023   */\n      dup2\n        /* \"#utility.yul\":8993:9024   */\n      tag_297\n      jump\t// in\n    tag_400:\n        /* \"#utility.yul\":8895:9030   */\n      swap3\n      swap2\n      pop\n      pop\n      jump\t// out\n        /* \"#utility.yul\":9036:9158   */\n    tag_299:\n        /* \"#utility.yul\":9109:9133   */\n      tag_402\n        /* \"#utility.yul\":9127:9132   */\n      dup2\n        /* \"#utility.yul\":9109:9133   */\n      tag_285\n      jump\t// in\n    tag_402:\n        /* \"#utility.yul\":9102:9107   */\n      dup2\n        /* \"#utility.yul\":9099:9134   */\n      eq\n        /* \"#utility.yul\":9089:9152   */\n      tag_403\n      jumpi\n        /* \"#utility.yul\":9148:9149   */\n      0x00\n        /* \"#utility.yul\":9145:9146   */\n      dup1\n        /* \"#utility.yul\":9138:9150   */\n      revert\n        /* \"#utility.yul\":9089:9152   */\n    tag_403:\n        /* \"#utility.yul\":9036:9158   */\n      pop\n      jump\t// out\n        /* \"#utility.yul\":9164:9303   */\n    tag_300:\n        /* \"#utility.yul\":9210:9215   */\n      0x00\n        /* \"#utility.yul\":9248:9254   */\n      dup2\n        /* \"#utility.yul\":9235:9255   */\n      calldataload\n        /* \"#utility.yul\":9226:9255   */\n      swap1\n      pop\n        /* \"#utility.yul\":9264:9297   */\n      tag_405\n        /* \"#utility.yul\":9291:9296   */\n      dup2\n        /* \"#utility.yul\":9264:9297   */\n      tag_299\n      jump\t// in\n    tag_405:\n        /* \"#utility.yul\":9164:9303   */\n      swap3\n      swap2\n      pop\n      pop\n      jump\t// out\n        /* \"#utility.yul\":9309:10508   */\n    tag_76:\n        /* \"#utility.yul\":9420:9426   */\n      0x00\n        /* \"#utility.yul\":9428:9434   */\n      dup1\n        /* \"#utility.yul\":9436:9442   */\n      0x00\n        /* \"#utility.yul\":9444:9450   */\n      dup1\n        /* \"#utility.yul\":9452:9458   */\n      0x00\n        /* \"#utility.yul\":9460:9466   */\n      dup1\n        /* \"#utility.yul\":9468:9474   */\n      0x00\n        /* \"#utility.yul\":9517:9520   */\n      0xe0\n        /* \"#utility.yul\":9505:9514   */\n      dup9\n        /* \"#utility.yul\":9496:9503   */\n      dup11\n        /* \"#utility.yul\":9492:9515   */\n      sub\n        /* \"#utility.yul\":9488:9521   */\n      slt\n        /* \"#utility.yul\":9485:9605   */\n      iszero\n      tag_407\n      jumpi\n        /* \"#utility.yul\":9524:9603   */\n      tag_408\n      tag_271\n      jump\t// in\n    tag_408:\n        /* \"#utility.yul\":9485:9605   */\n    tag_407:\n        /* \"#utility.yul\":9644:9645   */\n      0x00\n        /* \"#utility.yul\":9669:9722   */\n      tag_409\n        /* \"#utility.yul\":9714:9721   */\n      dup11\n        /* \"#utility.yul\":9705:9711   */\n      dup3\n        /* \"#utility.yul\":9694:9703   */\n      dup12\n        /* \"#utility.yul\":9690:9712   */\n      add\n        /* \"#utility.yul\":9669:9722   */\n      tag_276\n      jump\t// in\n    tag_409:\n        /* \"#utility.yul\":9659:9722   */\n      swap8\n      pop\n        /* \"#utility.yul\":9615:9732   */\n      pop\n        /* \"#utility.yul\":9771:9773   */\n      0x20\n        /* \"#utility.yul\":9797:9850   */\n      tag_410\n        /* \"#utility.yul\":9842:9849   */\n      dup11\n        /* \"#utility.yul\":9833:9839   */\n      dup3\n        /* \"#utility.yul\":9822:9831   */\n      dup12\n        /* \"#utility.yul\":9818:9840   */\n      add\n        /* \"#utility.yul\":9797:9850   */\n      tag_276\n      jump\t// in\n    tag_410:\n        /* \"#utility.yul\":9787:9850   */\n      swap7\n      pop\n        /* \"#utility.yul\":9742:9860   */\n      pop\n        /* \"#utility.yul\":9899:9901   */\n      0x40\n        /* \"#utility.yul\":9925:9978   */\n      tag_411\n        /* \"#utility.yul\":9970:9977   */\n      dup11\n        /* \"#utility.yul\":9961:9967   */\n      dup3\n        /* \"#utility.yul\":9950:9959   */\n      dup12\n        /* \"#utility.yul\":9946:9968   */\n      add\n        /* \"#utility.yul\":9925:9978   */\n      tag_279\n      jump\t// in\n    tag_411:\n        /* \"#utility.yul\":9915:9978   */\n      swap6\n      pop\n        /* \"#utility.yul\":9870:9988   */\n      pop\n        /* \"#utility.yul\":10027:10029   */\n      0x60\n        /* \"#utility.yul\":10053:10106   */\n      tag_412\n        /* \"#utility.yul\":10098:10105   */\n      dup11\n        /* \"#utility.yul\":10089:10095   */\n      dup3\n        /* \"#utility.yul\":10078:10087   */\n      dup12\n        /* \"#utility.yul\":10074:10096   */\n      add\n        /* \"#utility.yul\":10053:10106   */\n      tag_279\n      jump\t// in\n    tag_412:\n        /* \"#utility.yul\":10043:10106   */\n      swap5\n      pop\n        /* \"#utility.yul\":9998:10116   */\n      pop\n        /* \"#utility.yul\":10155:10158   */\n      0x80\n        /* \"#utility.yul\":10182:10233   */\n      tag_413\n        /* \"#utility.yul\":10225:10232   */\n      dup11\n        /* \"#utility.yul\":10216:10222   */\n      dup3\n        /* \"#utility.yul\":10205:10214   */\n      dup12\n        /* \"#utility.yul\":10201:10223   */\n      add\n        /* \"#utility.yul\":10182:10233   */\n      tag_298\n      jump\t// in\n    tag_413:\n        /* \"#utility.yul\":10172:10233   */\n      swap4\n      pop\n        /* \"#utility.yul\":10126:10243   */\n      pop\n        /* \"#utility.yul\":10282:10285   */\n      0xa0\n        /* \"#utility.yul\":10309:10362   */\n      tag_414\n        /* \"#utility.yul\":10354:10361   */\n      dup11\n        /* \"#utility.yul\":10345:10351   */\n      dup3\n        /* \"#utility.yul\":10334:10343   */\n      dup12\n        /* \"#utility.yul\":10330:10352   */\n      add\n        /* \"#utility.yul\":10309:10362   */\n      tag_300\n      jump\t// in\n    tag_414:\n        /* \"#utility.yul\":10299:10362   */\n      swap3\n      pop\n        /* \"#utility.yul\":10253:10372   */\n      pop\n        /* \"#utility.yul\":10411:10414   */\n      0xc0\n        /* \"#utility.yul\":10438:10491   */\n      tag_415\n        /* \"#utility.yul\":10483:10490   */\n      dup11\n        /* \"#utility.yul\":10474:10480   */\n      dup3\n        /* \"#utility.yul\":10463:10472   */\n      dup12\n        /* \"#utility.yul\":10459:10481   */\n      add\n        /* \"#utility.yul\":10438:10491   */\n      tag_300\n      jump\t// in\n    tag_415:\n        /* \"#utility.yul\":10428:10491   */\n      swap2\n      pop\n        /* \"#utility.yul\":10382:10501   */\n      pop\n        /* \"#utility.yul\":9309:10508   */\n      swap3\n      swap6\n      swap9\n      swap2\n      swap5\n      swap8\n      pop\n      swap3\n      swap6\n      pop\n      jump\t// out\n        /* \"#utility.yul\":10514:10988   */\n    tag_80:\n        /* \"#utility.yul\":10582:10588   */\n      0x00\n        /* \"#utility.yul\":10590:10596   */\n      dup1\n        /* \"#utility.yul\":10639:10641   */\n      0x40\n        /* \"#utility.yul\":10627:10636   */\n      dup4\n        /* \"#utility.yul\":10618:10625   */\n      dup6\n        /* \"#utility.yul\":10614:10637   */\n      sub\n        /* \"#utility.yul\":10610:10642   */\n      slt\n        /* \"#utility.yul\":10607:10726   */\n      iszero\n      tag_417\n      jumpi\n        /* \"#utility.yul\":10645:10724   */\n      tag_418\n      tag_271\n      jump\t// in\n    tag_418:\n        /* \"#utility.yul\":10607:10726   */\n    tag_417:\n        /* \"#utility.yul\":10765:10766   */\n      0x00\n        /* \"#utility.yul\":10790:10843   */\n      tag_419\n        /* \"#utility.yul\":10835:10842   */\n      dup6\n        /* \"#utility.yul\":10826:10832   */\n      dup3\n        /* \"#utility.yul\":10815:10824   */\n      dup7\n        /* \"#utility.yul\":10811:10833   */\n      add\n        /* \"#utility.yul\":10790:10843   */\n      tag_276\n      jump\t// in\n    tag_419:\n        /* \"#utility.yul\":10780:10843   */\n      swap3\n      pop\n        /* \"#utility.yul\":10736:10853   */\n      pop\n        /* \"#utility.yul\":10892:10894   */\n      0x20\n        /* \"#utility.yul\":10918:10971   */\n      tag_420\n        /* \"#utility.yul\":10963:10970   */\n      dup6\n        /* \"#utility.yul\":10954:10960   */\n      dup3\n        /* \"#utility.yul\":10943:10952   */\n      dup7\n        /* \"#utility.yul\":10939:10961   */\n      add\n        /* \"#utility.yul\":10918:10971   */\n      tag_276\n      jump\t// in\n    tag_420:\n        /* \"#utility.yul\":10908:10971   */\n      swap2\n      pop\n        /* \"#utility.yul\":10863:10981   */\n      pop\n        /* \"#utility.yul\":10514:10988   */\n      swap3\n      pop\n      swap3\n      swap1\n      pop\n      jump\t// out\n        /* \"#utility.yul\":10994:11174   */\n    tag_301:\n        /* \"#utility.yul\":11042:11119   */\n      0x4e487b7100000000000000000000000000000000000000000000000000000000\n        /* \"#utility.yul\":11039:11040   */\n      0x00\n        /* \"#utility.yul\":11032:11120   */\n      mstore\n        /* \"#utility.yul\":11139:11143   */\n      0x22\n        /* \"#utility.yul\":11136:11137   */\n      0x04\n        /* \"#utility.yul\":11129:11144   */\n      mstore\n        /* \"#utility.yul\":11163:11167   */\n      0x24\n        /* \"#utility.yul\":11160:11161   */\n      0x00\n        /* \"#utility.yul\":11153:11168   */\n      revert\n        /* \"#utility.yul\":11180:11500   */\n    tag_85:\n        /* \"#utility.yul\":11224:11230   */\n      0x00\n        /* \"#utility.yul\":11261:11262   */\n      0x02\n        /* \"#utility.yul\":11255:11259   */\n      dup3\n        /* \"#utility.yul\":11251:11263   */\n      div\n        /* \"#utility.yul\":11241:11263   */\n      swap1\n      pop\n        /* \"#utility.yul\":11308:11309   */\n      0x01\n        /* \"#utility.yul\":11302:11306   */\n      dup3\n        /* \"#utility.yul\":11298:11310   */\n      and\n        /* \"#utility.yul\":11329:11347   */\n      dup1\n        /* \"#utility.yul\":11319:11400   */\n      tag_423\n      jumpi\n        /* \"#utility.yul\":11385:11389   */\n      0x7f\n        /* \"#utility.yul\":11377:11383   */\n      dup3\n        /* \"#utility.yul\":11373:11390   */\n      and\n        /* \"#utility.yul\":11363:11390   */\n      swap2\n      pop\n        /* \"#utility.yul\":11319:11400   */\n    tag_423:\n        /* \"#utility.yul\":11447:11449   */\n      0x20\n        /* \"#utility.yul\":11439:11445   */\n      dup3\n        /* \"#utility.yul\":11436:11450   */\n      lt\n        /* \"#utility.yul\":11416:11434   */\n      dup2\n        /* \"#utility.yul\":11413:11451   */\n      sub\n        /* \"#utility.yul\":11410:11494   */\n      tag_424\n      jumpi\n        /* \"#utility.yul\":11466:11484   */\n      tag_425\n      tag_301\n      jump\t// in\n    tag_425:\n        /* \"#utility.yul\":11410:11494   */\n    tag_424:\n        /* \"#utility.yul\":11231:11500   */\n      pop\n        /* \"#utility.yul\":11180:11500   */\n      swap2\n      swap1\n      pop\n      jump\t// out\n        /* \"#utility.yul\":11506:11686   */\n    tag_120:\n        /* \"#utility.yul\":11554:11631   */\n      0x4e487b7100000000000000000000000000000000000000000000000000000000\n        /* \"#utility.yul\":11551:11552   */\n      0x00\n        /* \"#utility.yul\":11544:11632   */\n      mstore\n        /* \"#utility.yul\":11651:11655   */\n      0x41\n        /* \"#utility.yul\":11648:11649   */\n      0x04\n        /* \"#utility.yul\":11641:11656   */\n      mstore\n        /* \"#utility.yul\":11675:11679   */\n      0x24\n        /* \"#utility.yul\":11672:11673   */\n      0x00\n        /* \"#utility.yul\":11665:11680   */\n      revert\n        /* \"#utility.yul\":11692:12467   */\n    tag_137:\n        /* \"#utility.yul\":11925:11929   */\n      0x00\n        /* \"#utility.yul\":11963:11966   */\n      0xc0\n        /* \"#utility.yul\":11952:11961   */\n      dup3\n        /* \"#utility.yul\":11948:11967   */\n      add\n        /* \"#utility.yul\":11940:11967   */\n      swap1\n      pop\n        /* \"#utility.yul\":11977:12048   */\n      tag_428\n        /* \"#utility.yul\":12045:12046   */\n      0x00\n        /* \"#utility.yul\":12034:12043   */\n      dup4\n        /* \"#utility.yul\":12030:12047   */\n      add\n        /* \"#utility.yul\":12021:12027   */\n      dup10\n        /* \"#utility.yul\":11977:12048   */\n      tag_286\n      jump\t// in\n    tag_428:\n        /* \"#utility.yul\":12058:12130   */\n      tag_429\n        /* \"#utility.yul\":12126:12128   */\n      0x20\n        /* \"#utility.yul\":12115:12124   */\n      dup4\n        /* \"#utility.yul\":12111:12129   */\n      add\n        /* \"#utility.yul\":12102:12108   */\n      dup9\n        /* \"#utility.yul\":12058:12130   */\n      tag_289\n      jump\t// in\n    tag_429:\n        /* \"#utility.yul\":12140:12212   */\n      tag_430\n        /* \"#utility.yul\":12208:12210   */\n      0x40\n        /* \"#utility.yul\":12197:12206   */\n      dup4\n        /* \"#utility.yul\":12193:12211   */\n      add\n        /* \"#utility.yul\":12184:12190   */\n      dup8\n        /* \"#utility.yul\":12140:12212   */\n      tag_289\n      jump\t// in\n    tag_430:\n        /* \"#utility.yul\":12222:12294   */\n      tag_431\n        /* \"#utility.yul\":12290:12292   */\n      0x60\n        /* \"#utility.yul\":12279:12288   */\n      dup4\n        /* \"#utility.yul\":12275:12293   */\n      add\n        /* \"#utility.yul\":12266:12272   */\n      dup7\n        /* \"#utility.yul\":12222:12294   */\n      tag_282\n      jump\t// in\n    tag_431:\n        /* \"#utility.yul\":12304:12377   */\n      tag_432\n        /* \"#utility.yul\":12372:12375   */\n      0x80\n        /* \"#utility.yul\":12361:12370   */\n      dup4\n        /* \"#utility.yul\":12357:12376   */\n      add\n        /* \"#utility.yul\":12348:12354   */\n      dup6\n        /* \"#utility.yul\":12304:12377   */\n      tag_282\n      jump\t// in\n    tag_432:\n        /* \"#utility.yul\":12387:12460   */\n      tag_433\n        /* \"#utility.yul\":12455:12458   */\n      0xa0\n        /* \"#utility.yul\":12444:12453   */\n      dup4\n        /* \"#utility.yul\":12440:12459   */\n      add\n        /* \"#utility.yul\":12431:12437   */\n      dup5\n        /* \"#utility.yul\":12387:12460   */\n      tag_282\n      jump\t// in\n    tag_433:\n        /* \"#utility.yul\":11692:12467   */\n      swap8\n      swap7\n      pop\n      pop\n      pop\n      pop\n      pop\n      pop\n      pop\n      jump\t// out\n        /* \"#utility.yul\":12473:12805   */\n    tag_144:\n        /* \"#utility.yul\":12594:12598   */\n      0x00\n        /* \"#utility.yul\":12632:12634   */\n      0x40\n        /* \"#utility.yul\":12621:12630   */\n      dup3\n        /* \"#utility.yul\":12617:12635   */\n      add\n        /* \"#utility.yul\":12609:12635   */\n      swap1\n      pop\n        /* \"#utility.yul\":12645:12716   */\n      tag_435\n        /* \"#utility.yul\":12713:12714   */\n      0x00\n        /* \"#utility.yul\":12702:12711   */\n      dup4\n        /* \"#utility.yul\":12698:12715   */\n      add\n        /* \"#utility.yul\":12689:12695   */\n      dup6\n        /* \"#utility.yul\":12645:12716   */\n      tag_289\n      jump\t// in\n    tag_435:\n        /* \"#utility.yul\":12726:12798   */\n      tag_436\n        /* \"#utility.yul\":12794:12796   */\n      0x20\n        /* \"#utility.yul\":12783:12792   */\n      dup4\n        /* \"#utility.yul\":12779:12797   */\n      add\n        /* \"#utility.yul\":12770:12776   */\n      dup5\n        /* \"#utility.yul\":12726:12798   */\n      tag_289\n      jump\t// in\n    tag_436:\n        /* \"#utility.yul\":12473:12805   */\n      swap4\n      swap3\n      pop\n      pop\n      pop\n      jump\t// out\n        /* \"#utility.yul\":12811:13253   */\n    tag_156:\n        /* \"#utility.yul\":12960:12964   */\n      0x00\n        /* \"#utility.yul\":12998:13000   */\n      0x60\n        /* \"#utility.yul\":12987:12996   */\n      dup3\n        /* \"#utility.yul\":12983:13001   */\n      add\n        /* \"#utility.yul\":12975:13001   */\n      swap1\n      pop\n        /* \"#utility.yul\":13011:13082   */\n      tag_438\n        /* \"#utility.yul\":13079:13080   */\n      0x00\n        /* \"#utility.yul\":13068:13077   */\n      dup4\n        /* \"#utility.yul\":13064:13081   */\n      add\n        /* \"#utility.yul\":13055:13061   */\n      dup7\n        /* \"#utility.yul\":13011:13082   */\n      tag_289\n      jump\t// in\n    tag_438:\n        /* \"#utility.yul\":13092:13164   */\n      tag_439\n        /* \"#utility.yul\":13160:13162   */\n      0x20\n        /* \"#utility.yul\":13149:13158   */\n      dup4\n        /* \"#utility.yul\":13145:13163   */\n      add\n        /* \"#utility.yul\":13136:13142   */\n      dup6\n        /* \"#utility.yul\":13092:13164   */\n      tag_282\n      jump\t// in\n    tag_439:\n        /* \"#utility.yul\":13174:13246   */\n      tag_440\n        /* \"#utility.yul\":13242:13244   */\n      0x40\n        /* \"#utility.yul\":13231:13240   */\n      dup4\n        /* \"#utility.yul\":13227:13245   */\n      add\n        /* \"#utility.yul\":13218:13224   */\n      dup5\n        /* \"#utility.yul\":13174:13246   */\n      tag_282\n      jump\t// in\n    tag_440:\n        /* \"#utility.yul\":12811:13253   */\n      swap5\n      swap4\n      pop\n      pop\n      pop\n      pop\n      jump\t// out\n        /* \"#utility.yul\":13259:13481   */\n    tag_161:\n        /* \"#utility.yul\":13352:13356   */\n      0x00\n        /* \"#utility.yul\":13390:13392   */\n      0x20\n        /* \"#utility.yul\":13379:13388   */\n      dup3\n        /* \"#utility.yul\":13375:13393   */\n      add\n        /* \"#utility.yul\":13367:13393   */\n      swap1\n      pop\n        /* \"#utility.yul\":13403:13474   */\n      tag_442\n        /* \"#utility.yul\":13471:13472   */\n      0x00\n        /* \"#utility.yul\":13460:13469   */\n      dup4\n        /* \"#utility.yul\":13456:13473   */\n      add\n        /* \"#utility.yul\":13447:13453   */\n      dup5\n        /* \"#utility.yul\":13403:13474   */\n      tag_289\n      jump\t// in\n    tag_442:\n        /* \"#utility.yul\":13259:13481   */\n      swap3\n      swap2\n      pop\n      pop\n      jump\t// out\n        /* \"#utility.yul\":13487:13667   */\n    tag_302:\n        /* \"#utility.yul\":13535:13612   */\n      0x4e487b7100000000000000000000000000000000000000000000000000000000\n        /* \"#utility.yul\":13532:13533   */\n      0x00\n        /* \"#utility.yul\":13525:13613   */\n      mstore\n        /* \"#utility.yul\":13632:13636   */\n      0x11\n        /* \"#utility.yul\":13629:13630   */\n      0x04\n        /* \"#utility.yul\":13622:13637   */\n      mstore\n        /* \"#utility.yul\":13656:13660   */\n      0x24\n        /* \"#utility.yul\":13653:13654   */\n      0x00\n        /* \"#utility.yul\":13646:13661   */\n      revert\n        /* \"#utility.yul\":13673:13864   */\n    tag_202:\n        /* \"#utility.yul\":13713:13716   */\n      0x00\n        /* \"#utility.yul\":13732:13752   */\n      tag_445\n        /* \"#utility.yul\":13750:13751   */\n      dup3\n        /* \"#utility.yul\":13732:13752   */\n      tag_277\n      jump\t// in\n    tag_445:\n        /* \"#utility.yul\":13727:13752   */\n      swap2\n      pop\n        /* \"#utility.yul\":13766:13786   */\n      tag_446\n        /* \"#utility.yul\":13784:13785   */\n      dup4\n        /* \"#utility.yul\":13766:13786   */\n      tag_277\n      jump\t// in\n    tag_446:\n        /* \"#utility.yul\":13761:13786   */\n      swap3\n      pop\n        /* \"#utility.yul\":13809:13810   */\n      dup3\n        /* \"#utility.yul\":13806:13807   */\n      dup3\n        /* \"#utility.yul\":13802:13811   */\n      add\n        /* \"#utility.yul\":13795:13811   */\n      swap1\n      pop\n        /* \"#utility.yul\":13830:13833   */\n      dup1\n        /* \"#utility.yul\":13827:13828   */\n      dup3\n        /* \"#utility.yul\":13824:13834   */\n      gt\n        /* \"#utility.yul\":13821:13857   */\n      iszero\n      tag_447\n      jumpi\n        /* \"#utility.yul\":13837:13855   */\n      tag_448\n      tag_302\n      jump\t// in\n    tag_448:\n        /* \"#utility.yul\":13821:13857   */\n    tag_447:\n        /* \"#utility.yul\":13673:13864   */\n      swap3\n      swap2\n      pop\n      pop\n      jump\t// out\n        /* \"#utility.yul\":13870:14534   */\n    tag_211:\n        /* \"#utility.yul\":14075:14079   */\n      0x00\n        /* \"#utility.yul\":14113:14116   */\n      0xa0\n        /* \"#utility.yul\":14102:14111   */\n      dup3\n        /* \"#utility.yul\":14098:14117   */\n      add\n        /* \"#utility.yul\":14090:14117   */\n      swap1\n      pop\n        /* \"#utility.yul\":14127:14198   */\n      tag_450\n        /* \"#utility.yul\":14195:14196   */\n      0x00\n        /* \"#utility.yul\":14184:14193   */\n      dup4\n        /* \"#utility.yul\":14180:14197   */\n      add\n        /* \"#utility.yul\":14171:14177   */\n      dup9\n        /* \"#utility.yul\":14127:14198   */\n      tag_286\n      jump\t// in\n    tag_450:\n        /* \"#utility.yul\":14208:14280   */\n      tag_451\n        /* \"#utility.yul\":14276:14278   */\n      0x20\n        /* \"#utility.yul\":14265:14274   */\n      dup4\n        /* \"#utility.yul\":14261:14279   */\n      add\n        /* \"#utility.yul\":14252:14258   */\n      dup8\n        /* \"#utility.yul\":14208:14280   */\n      tag_286\n      jump\t// in\n    tag_451:\n        /* \"#utility.yul\":14290:14362   */\n      tag_452\n        /* \"#utility.yul\":14358:14360   */\n      0x40\n        /* \"#utility.yul\":14347:14356   */\n      dup4\n        /* \"#utility.yul\":14343:14361   */\n      add\n        /* \"#utility.yul\":14334:14340   */\n      dup7\n        /* \"#utility.yul\":14290:14362   */\n      tag_286\n      jump\t// in\n    tag_452:\n        /* \"#utility.yul\":14372:14444   */\n      tag_453\n        /* \"#utility.yul\":14440:14442   */\n      0x60\n        /* \"#utility.yul\":14429:14438   */\n      dup4\n        /* \"#utility.yul\":14425:14443   */\n      add\n        /* \"#utility.yul\":14416:14422   */\n      dup6\n        /* \"#utility.yul\":14372:14444   */\n      tag_282\n      jump\t// in\n    tag_453:\n        /* \"#utility.yul\":14454:14527   */\n      tag_454\n        /* \"#utility.yul\":14522:14525   */\n      0x80\n        /* \"#utility.yul\":14511:14520   */\n      dup4\n        /* \"#utility.yul\":14507:14526   */\n      add\n        /* \"#utility.yul\":14498:14504   */\n      dup5\n        /* \"#utility.yul\":14454:14527   */\n      tag_289\n      jump\t// in\n    tag_454:\n        /* \"#utility.yul\":13870:14534   */\n      swap7\n      swap6\n      pop\n      pop\n      pop\n      pop\n      pop\n      pop\n      jump\t// out\n        /* \"#utility.yul\":14540:15085   */\n    tag_226:\n        /* \"#utility.yul\":14713:14717   */\n      0x00\n        /* \"#utility.yul\":14751:14754   */\n      0x80\n        /* \"#utility.yul\":14740:14749   */\n      dup3\n        /* \"#utility.yul\":14736:14755   */\n      add\n        /* \"#utility.yul\":14728:14755   */\n      swap1\n      pop\n        /* \"#utility.yul\":14765:14836   */\n      tag_456\n        /* \"#utility.yul\":14833:14834   */\n      0x00\n        /* \"#utility.yul\":14822:14831   */\n      dup4\n        /* \"#utility.yul\":14818:14835   */\n      add\n        /* \"#utility.yul\":14809:14815   */\n      dup8\n        /* \"#utility.yul\":14765:14836   */\n      tag_286\n      jump\t// in\n    tag_456:\n        /* \"#utility.yul\":14846:14914   */\n      tag_457\n        /* \"#utility.yul\":14910:14912   */\n      0x20\n        /* \"#utility.yul\":14899:14908   */\n      dup4\n        /* \"#utility.yul\":14895:14913   */\n      add\n        /* \"#utility.yul\":14886:14892   */\n      dup7\n        /* \"#utility.yul\":14846:14914   */\n      tag_284\n      jump\t// in\n    tag_457:\n        /* \"#utility.yul\":14924:14996   */\n      tag_458\n        /* \"#utility.yul\":14992:14994   */\n      0x40\n        /* \"#utility.yul\":14981:14990   */\n      dup4\n        /* \"#utility.yul\":14977:14995   */\n      add\n        /* \"#utility.yul\":14968:14974   */\n      dup6\n        /* \"#utility.yul\":14924:14996   */\n      tag_286\n      jump\t// in\n    tag_458:\n        /* \"#utility.yul\":15006:15078   */\n      tag_459\n        /* \"#utility.yul\":15074:15076   */\n      0x60\n        /* \"#utility.yul\":15063:15072   */\n      dup4\n        /* \"#utility.yul\":15059:15077   */\n      add\n        /* \"#utility.yul\":15050:15056   */\n      dup5\n        /* \"#utility.yul\":15006:15078   */\n      tag_286\n      jump\t// in\n    tag_459:\n        /* \"#utility.yul\":14540:15085   */\n      swap6\n      swap5\n      pop\n      pop\n      pop\n      pop\n      pop\n      jump\t// out\n        /* \"#utility.yul\":15091:15271   */\n    tag_233:\n        /* \"#utility.yul\":15139:15216   */\n      0x4e487b7100000000000000000000000000000000000000000000000000000000\n        /* \"#utility.yul\":15136:15137   */\n      0x00\n        /* \"#utility.yul\":15129:15217   */\n      mstore\n        /* \"#utility.yul\":15236:15240   */\n      0x21\n        /* \"#utility.yul\":15233:15234   */\n      0x04\n        /* \"#utility.yul\":15226:15241   */\n      mstore\n        /* \"#utility.yul\":15260:15264   */\n      0x24\n        /* \"#utility.yul\":15257:15258   */\n      0x00\n        /* \"#utility.yul\":15250:15265   */\n      revert\n\n    auxdata: 0xa264697066735822122020e810dc400b757eec358ef220bbf19e104d83d657cedc5b2f68c245644da5bb64736f6c63430008190033\n}\n",
				"bytecode": {
					"linkReferences": {},
					"object": "6101606040526100136101f960201b60201c565b600a61001f9190610725565b620f424061002d919061076f565b60085534801561003b575f80fd5b506040518060400160405280600681526020017f746f6b656e410000000000000000000000000000000000000000000000000000815250806040518060400160405280600181526020017f31000000000000000000000000000000000000000000000000000000000000008152506040518060400160405280600681526020017f746f6b656e4100000000000000000000000000000000000000000000000000008152506040518060400160405280600381526020017f544f410000000000000000000000000000000000000000000000000000000000815250816003908161012491906109e1565b50806004908161013491906109e1565b50505061014b60058361020160201b90919060201c565b610120818152505061016760068261020160201b90919060201c565b6101408181525050818051906020012060e08181525050808051906020012061010081815250504660a081815250506101a461024e60201b60201c565b608081815250503073ffffffffffffffffffffffffffffffffffffffff1660c08173ffffffffffffffffffffffffffffffffffffffff16815250505050506101f4336008546102a860201b60201c565b610d1a565b5f6012905090565b5f6020835110156102225761021b8361032d60201b60201c565b9050610248565b826102328361039260201b60201c565b5f01908161024091906109e1565b5060ff5f1b90505b92915050565b5f7f8b73c3c69bb8fe3d512ecc4cf759cc79239f7b179b0ffacaa9a75d522b39400f60e05161010051463060405160200161028d959493929190610b16565b60405160208183030381529060405280519060200120905090565b5f73ffffffffffffffffffffffffffffffffffffffff168273ffffffffffffffffffffffffffffffffffffffff1603610318575f6040517fec442f0500000000000000000000000000000000000000000000000000000000815260040161030f9190610b67565b60405180910390fd5b6103295f838361039b60201b60201c565b5050565b5f80829050601f8151111561037957826040517f305a27a90000000000000000000000000000000000000000000000000000000081526004016103709190610be6565b60405180910390fd5b80518161038590610c33565b5f1c175f1b915050919050565b5f819050919050565b5f73ffffffffffffffffffffffffffffffffffffffff168373ffffffffffffffffffffffffffffffffffffffff16036103eb578060025f8282546103df9190610c99565b925050819055506104b9565b5f805f8573ffffffffffffffffffffffffffffffffffffffff1673ffffffffffffffffffffffffffffffffffffffff1681526020019081526020015f2054905081811015610474578381836040517fe450d38c00000000000000000000000000000000000000000000000000000000815260040161046b93929190610ccc565b60405180910390fd5b8181035f808673ffffffffffffffffffffffffffffffffffffffff1673ffffffffffffffffffffffffffffffffffffffff1681526020019081526020015f2081905550505b5f73ffffffffffffffffffffffffffffffffffffffff168273ffffffffffffffffffffffffffffffffffffffff1603610500578060025f828254039250508190555061054a565b805f808473ffffffffffffffffffffffffffffffffffffffff1673ffffffffffffffffffffffffffffffffffffffff1681526020019081526020015f205f82825401925050819055505b8173ffffffffffffffffffffffffffffffffffffffff168373ffffffffffffffffffffffffffffffffffffffff167fddf252ad1be2c89b69c2b068fc378daa952ba7f163c4a11628f55a4df523b3ef836040516105a79190610d01565b60405180910390a3505050565b7f4e487b71000000000000000000000000000000000000000000000000000000005f52601160045260245ffd5b5f8160011c9050919050565b5f808291508390505b600185111561063657808604811115610612576106116105b4565b5b60018516156106215780820291505b808102905061062f856105e1565b94506105f6565b94509492505050565b5f8261064e5760019050610709565b8161065b575f9050610709565b8160018114610671576002811461067b576106aa565b6001915050610709565b60ff84111561068d5761068c6105b4565b5b8360020a9150848211156106a4576106a36105b4565b5b50610709565b5060208310610133831016604e8410600b84101617156106df5782820a9050838111156106da576106d96105b4565b5b610709565b6106ec84848460016105ed565b92509050818404811115610703576107026105b4565b5b81810290505b9392505050565b5f819050919050565b5f60ff82169050919050565b5f61072f82610710565b915061073a83610719565b92506107677fffffffffffffffffffffffffffffffffffffffffffffffffffffffffffffffff848461063f565b905092915050565b5f61077982610710565b915061078483610710565b925082820261079281610710565b915082820484148315176107a9576107a86105b4565b5b5092915050565b5f81519050919050565b7f4e487b71000000000000000000000000000000000000000000000000000000005f52604160045260245ffd5b7f4e487b71000000000000000000000000000000000000000000000000000000005f52602260045260245ffd5b5f600282049050600182168061082b57607f821691505b60208210810361083e5761083d6107e7565b5b50919050565b5f819050815f5260205f209050919050565b5f6020601f8301049050919050565b5f82821b905092915050565b5f600883026108a07fffffffffffffffffffffffffffffffffffffffffffffffffffffffffffffffff82610865565b6108aa8683610865565b95508019841693508086168417925050509392505050565b5f819050919050565b5f6108e56108e06108db84610710565b6108c2565b610710565b9050919050565b5f819050919050565b6108fe836108cb565b61091261090a826108ec565b848454610871565b825550505050565b5f90565b61092661091a565b6109318184846108f5565b505050565b5b81811015610954576109495f8261091e565b600181019050610937565b5050565b601f8211156109995761096a81610844565b61097384610856565b81016020851015610982578190505b61099661098e85610856565b830182610936565b50505b505050565b5f82821c905092915050565b5f6109b95f198460080261099e565b1980831691505092915050565b5f6109d183836109aa565b9150826002028217905092915050565b6109ea826107b0565b67ffffffffffffffff811115610a0357610a026107ba565b5b610a0d8254610814565b610a18828285610958565b5f60209050601f831160018114610a49575f8415610a37578287015190505b610a4185826109c6565b865550610aa8565b601f198416610a5786610844565b5f5b82811015610a7e57848901518255600182019150602085019450602081019050610a59565b86831015610a9b5784890151610a97601f8916826109aa565b8355505b6001600288020188555050505b505050505050565b5f819050919050565b610ac281610ab0565b82525050565b610ad181610710565b82525050565b5f73ffffffffffffffffffffffffffffffffffffffff82169050919050565b5f610b0082610ad7565b9050919050565b610b1081610af6565b82525050565b5f60a082019050610b295f830188610ab9565b610b366020830187610ab9565b610b436040830186610ab9565b610b506060830185610ac8565b610b5d6080830184610b07565b9695505050505050565b5f602082019050610b7a5f830184610b07565b92915050565b5f82825260208201905092915050565b8281835e5f83830152505050565b5f601f19601f8301169050919050565b5f610bb8826107b0565b610bc28185610b80565b9350610bd2818560208601610b90565b610bdb81610b9e565b840191505092915050565b5f6020820190508181035f830152610bfe8184610bae565b905092915050565b5f81519050919050565b5f819050602082019050919050565b5f610c2a8251610ab0565b80915050919050565b5f610c3d82610c06565b82610c4784610c10565b9050610c5281610c1f565b92506020821015610c9257610c8d7fffffffffffffffffffffffffffffffffffffffffffffffffffffffffffffffff83602003600802610865565b831692505b5050919050565b5f610ca382610710565b9150610cae83610710565b9250828201905080821115610cc657610cc56105b4565b5b92915050565b5f606082019050610cdf5f830186610b07565b610cec6020830185610ac8565b610cf96040830184610ac8565b949350505050565b5f602082019050610d145f830184610ac8565b92915050565b60805160a05160c05160e051610100516101205161014051611c47610d6b5f395f610b0801525f610acd01525f61100101525f610fe001525f61094c01525f6109a201525f6109cb0152611c475ff3fe608060405234801561000f575f80fd5b50600436106100f3575f3560e01c806340c10f191161009557806395d89b411161006457806395d89b411461028d578063a9059cbb146102ab578063d505accf146102db578063dd62ed3e146102f7576100f3565b806340c10f19146101ed57806370a08231146102095780637ecebe001461023957806384b0196e14610269576100f3565b806323b872dd116100d157806323b872dd146101635780632ff2e9dc14610193578063313ce567146101b15780633644e515146101cf576100f3565b806306fdde03146100f7578063095ea7b31461011557806318160ddd14610145575b5f80fd5b6100ff610327565b60405161010c91906114b7565b60405180910390f35b61012f600480360381019061012a9190611568565b6103b7565b60405161013c91906115c0565b60405180910390f35b61014d6103d9565b60405161015a91906115e8565b60405180910390f35b61017d60048036038101906101789190611601565b6103e2565b60405161018a91906115c0565b60405180910390f35b61019b610410565b6040516101a891906115e8565b60405180910390f35b6101b9610416565b6040516101c6919061166c565b60405180910390f35b6101d761041e565b6040516101e4919061169d565b60405180910390f35b61020760048036038101906102029190611568565b61042c565b005b610223600480360381019061021e91906116b6565b61043a565b60405161023091906115e8565b60405180910390f35b610253600480360381019061024e91906116b6565b61047f565b60405161026091906115e8565b60405180910390f35b610271610490565b60405161028497969594939291906117e1565b60405180910390f35b610295610535565b6040516102a291906114b7565b60405180910390f35b6102c560048036038101906102c09190611568565b6105c5565b6040516102d291906115c0565b60405180910390f35b6102f560048036038101906102f091906118b7565b6105e7565b005b610311600480360381019061030c9190611954565b61072c565b60405161031e91906115e8565b60405180910390f35b606060038054610336906119bf565b80601f0160208091040260200160405190810160405280929190818152602001828054610362906119bf565b80156103ad5780601f10610384576101008083540402835291602001916103ad565b820191905f5260205f20905b81548152906001019060200180831161039057829003601f168201915b5050505050905090565b5f806103c16107ae565b90506103ce8185856107b5565b600191505092915050565b5f600254905090565b5f806103ec6107ae565b90506103f98582856107c7565b610404858585610859565b60019150509392505050565b60085481565b5f6012905090565b5f610427610949565b905090565b61043682826109ff565b5050565b5f805f8373ffffffffffffffffffffffffffffffffffffffff1673ffffffffffffffffffffffffffffffffffffffff1681526020019081526020015f20549050919050565b5f61048982610a7e565b9050919050565b5f6060805f805f60606104a1610ac4565b6104a9610aff565b46305f801b5f67ffffffffffffffff8111156104c8576104c76119ef565b5b6040519080825280602002602001820160405280156104f65781602001602082028036833780820191505090505b507f0f00000000000000000000000000000000000000000000000000000000000000959493929190965096509650965096509650965090919293949596565b606060048054610544906119bf565b80601f0160208091040260200160405190810160405280929190818152602001828054610570906119bf565b80156105bb5780601f10610592576101008083540402835291602001916105bb565b820191905f5260205f20905b81548152906001019060200180831161059e57829003601f168201915b5050505050905090565b5f806105cf6107ae565b90506105dc818585610859565b600191505092915050565b8342111561062c57836040517f6279130200000000000000000000000000000000000000000000000000000000815260040161062391906115e8565b60405180910390fd5b5f7f6e71edae12b1b97f4d1f60370fef10105fa2faae0126114a169c64845d6126c988888861065a8c610b3a565b8960405160200161067096959493929190611a1c565b6040516020818303038152906040528051906020012090505f61069282610b8d565b90505f6106a182878787610ba6565b90508973ffffffffffffffffffffffffffffffffffffffff168173ffffffffffffffffffffffffffffffffffffffff161461071557808a6040517f4b800e4600000000000000000000000000000000000000000000000000000000815260040161070c929190611a7b565b60405180910390fd5b6107208a8a8a6107b5565b50505050505050505050565b5f60015f8473ffffffffffffffffffffffffffffffffffffffff1673ffffffffffffffffffffffffffffffffffffffff1681526020019081526020015f205f8373ffffffffffffffffffffffffffffffffffffffff1673ffffffffffffffffffffffffffffffffffffffff1681526020019081526020015f2054905092915050565b5f33905090565b6107c28383836001610bd4565b505050565b5f6107d2848461072c565b90507fffffffffffffffffffffffffffffffffffffffffffffffffffffffffffffffff81146108535781811015610844578281836040517ffb8f41b200000000000000000000000000000000000000000000000000000000815260040161083b93929190611aa2565b60405180910390fd5b61085284848484035f610bd4565b5b50505050565b5f73ffffffffffffffffffffffffffffffffffffffff168373ffffffffffffffffffffffffffffffffffffffff16036108c9575f6040517f96c6fd1e0000000000000000000000000000000000000000000000000000000081526004016108c09190611ad7565b60405180910390fd5b5f73ffffffffffffffffffffffffffffffffffffffff168273ffffffffffffffffffffffffffffffffffffffff1603610939575f6040517fec442f050000000000000000000000000000000000000000000000000000000081526004016109309190611ad7565b60405180910390fd5b610944838383610da3565b505050565b5f7f000000000000000000000000000000000000000000000000000000000000000073ffffffffffffffffffffffffffffffffffffffff163073ffffffffffffffffffffffffffffffffffffffff161480156109c457507f000000000000000000000000000000000000000000000000000000000000000046145b156109f1577f000000000000000000000000000000000000000000000000000000000000000090506109fc565b6109f9610fbc565b90505b90565b5f73ffffffffffffffffffffffffffffffffffffffff168273ffffffffffffffffffffffffffffffffffffffff1603610a6f575f6040517fec442f05000000000000000000000000000000000000000000000000000000008152600401610a669190611ad7565b60405180910390fd5b610a7a5f8383610da3565b5050565b5f60075f8373ffffffffffffffffffffffffffffffffffffffff1673ffffffffffffffffffffffffffffffffffffffff1681526020019081526020015f20549050919050565b6060610afa60057f000000000000000000000000000000000000000000000000000000000000000061105190919063ffffffff16565b905090565b6060610b3560067f000000000000000000000000000000000000000000000000000000000000000061105190919063ffffffff16565b905090565b5f60075f8373ffffffffffffffffffffffffffffffffffffffff1673ffffffffffffffffffffffffffffffffffffffff1681526020019081526020015f205f815480929190600101919050559050919050565b5f610b9f610b99610949565b836110fe565b9050919050565b5f805f80610bb68888888861113e565b925092509250610bc68282611225565b829350505050949350505050565b5f73ffffffffffffffffffffffffffffffffffffffff168473ffffffffffffffffffffffffffffffffffffffff1603610c44575f6040517fe602df05000000000000000000000000000000000000000000000000000000008152600401610c3b9190611ad7565b60405180910390fd5b5f73ffffffffffffffffffffffffffffffffffffffff168373ffffffffffffffffffffffffffffffffffffffff1603610cb4575f6040517f94280d62000000000000000000000000000000000000000000000000000000008152600401610cab9190611ad7565b60405180910390fd5b8160015f8673ffffffffffffffffffffffffffffffffffffffff1673ffffffffffffffffffffffffffffffffffffffff1681526020019081526020015f205f8573ffffffffffffffffffffffffffffffffffffffff1673ffffffffffffffffffffffffffffffffffffffff1681526020019081526020015f20819055508015610d9d578273ffffffffffffffffffffffffffffffffffffffff168473ffffffffffffffffffffffffffffffffffffffff167f8c5be1e5ebec7d5bd14f71427d1e84f3dd0314c0f7b2291e5b200ac8c7c3b92584604051610d9491906115e8565b60405180910390a35b50505050565b5f73ffffffffffffffffffffffffffffffffffffffff168373ffffffffffffffffffffffffffffffffffffffff1603610df3578060025f828254610de79190611b1d565b92505081905550610ec1565b5f805f8573ffffffffffffffffffffffffffffffffffffffff1673ffffffffffffffffffffffffffffffffffffffff1681526020019081526020015f2054905081811015610e7c578381836040517fe450d38c000000000000000000000000000000000000000000000000000000008152600401610e7393929190611aa2565b60405180910390fd5b8181035f808673ffffffffffffffffffffffffffffffffffffffff1673ffffffffffffffffffffffffffffffffffffffff1681526020019081526020015f2081905550505b5f73ffffffffffffffffffffffffffffffffffffffff168273ffffffffffffffffffffffffffffffffffffffff1603610f08578060025f8282540392505081905550610f52565b805f808473ffffffffffffffffffffffffffffffffffffffff1673ffffffffffffffffffffffffffffffffffffffff1681526020019081526020015f205f82825401925050819055505b8173ffffffffffffffffffffffffffffffffffffffff168373ffffffffffffffffffffffffffffffffffffffff167fddf252ad1be2c89b69c2b068fc378daa952ba7f163c4a11628f55a4df523b3ef83604051610faf91906115e8565b60405180910390a3505050565b5f7f8b73c3c69bb8fe3d512ecc4cf759cc79239f7b179b0ffacaa9a75d522b39400f7f00000000000000000000000000000000000000000000000000000000000000007f00000000000000000000000000000000000000000000000000000000000000004630604051602001611036959493929190611b50565b60405160208183030381529060405280519060200120905090565b606060ff5f1b831461106d5761106683611387565b90506110f8565b818054611079906119bf565b80601f01602080910402602001604051908101604052809291908181526020018280546110a5906119bf565b80156110f05780601f106110c7576101008083540402835291602001916110f0565b820191905f5260205f20905b8154815290600101906020018083116110d357829003601f168201915b505050505090505b92915050565b5f6040517f190100000000000000000000000000000000000000000000000000000000000081528360028201528260228201526042812091505092915050565b5f805f7f7fffffffffffffffffffffffffffffff5d576e7357a4501ddfe92f46681b20a0845f1c111561117a575f60038592509250925061121b565b5f6001888888886040515f815260200160405260405161119d9493929190611ba1565b6020604051602081039080840390855afa1580156111bd573d5f803e3d5ffd5b5050506020604051035190505f73ffffffffffffffffffffffffffffffffffffffff168173ffffffffffffffffffffffffffffffffffffffff160361120e575f60015f801b9350935093505061121b565b805f805f1b935093509350505b9450945094915050565b5f600381111561123857611237611be4565b5b82600381111561124b5761124a611be4565b5b0315611383576001600381111561126557611264611be4565b5b82600381111561127857611277611be4565b5b036112af576040517ff645eedf00000000000000000000000000000000000000000000000000000000815260040160405180910390fd5b600260038111156112c3576112c2611be4565b5b8260038111156112d6576112d5611be4565b5b0361131a57805f1c6040517ffce698f700000000000000000000000000000000000000000000000000000000815260040161131191906115e8565b60405180910390fd5b60038081111561132d5761132c611be4565b5b8260038111156113405761133f611be4565b5b0361138257806040517fd78bce0c000000000000000000000000000000000000000000000000000000008152600401611379919061169d565b60405180910390fd5b5b5050565b60605f611393836113f9565b90505f602067ffffffffffffffff8111156113b1576113b06119ef565b5b6040519080825280601f01601f1916602001820160405280156113e35781602001600182028036833780820191505090505b5090508181528360208201528092505050919050565b5f8060ff835f1c169050601f81111561143e576040517fb3512b0c00000000000000000000000000000000000000000000000000000000815260040160405180910390fd5b80915050919050565b5f81519050919050565b5f82825260208201905092915050565b8281835e5f83830152505050565b5f601f19601f8301169050919050565b5f61148982611447565b6114938185611451565b93506114a3818560208601611461565b6114ac8161146f565b840191505092915050565b5f6020820190508181035f8301526114cf818461147f565b905092915050565b5f80fd5b5f73ffffffffffffffffffffffffffffffffffffffff82169050919050565b5f611504826114db565b9050919050565b611514816114fa565b811461151e575f80fd5b50565b5f8135905061152f8161150b565b92915050565b5f819050919050565b61154781611535565b8114611551575f80fd5b50565b5f813590506115628161153e565b92915050565b5f806040838503121561157e5761157d6114d7565b5b5f61158b85828601611521565b925050602061159c85828601611554565b9150509250929050565b5f8115159050919050565b6115ba816115a6565b82525050565b5f6020820190506115d35f8301846115b1565b92915050565b6115e281611535565b82525050565b5f6020820190506115fb5f8301846115d9565b92915050565b5f805f60608486031215611618576116176114d7565b5b5f61162586828701611521565b935050602061163686828701611521565b925050604061164786828701611554565b9150509250925092565b5f60ff82169050919050565b61166681611651565b82525050565b5f60208201905061167f5f83018461165d565b92915050565b5f819050919050565b61169781611685565b82525050565b5f6020820190506116b05f83018461168e565b92915050565b5f602082840312156116cb576116ca6114d7565b5b5f6116d884828501611521565b91505092915050565b5f7fff0000000000000000000000000000000000000000000000000000000000000082169050919050565b611715816116e1565b82525050565b611724816114fa565b82525050565b5f81519050919050565b5f82825260208201905092915050565b5f819050602082019050919050565b61175c81611535565b82525050565b5f61176d8383611753565b60208301905092915050565b5f602082019050919050565b5f61178f8261172a565b6117998185611734565b93506117a483611744565b805f5b838110156117d45781516117bb8882611762565b97506117c683611779565b9250506001810190506117a7565b5085935050505092915050565b5f60e0820190506117f45f83018a61170c565b8181036020830152611806818961147f565b9050818103604083015261181a818861147f565b905061182960608301876115d9565b611836608083018661171b565b61184360a083018561168e565b81810360c08301526118558184611785565b905098975050505050505050565b61186c81611651565b8114611876575f80fd5b50565b5f8135905061188781611863565b92915050565b61189681611685565b81146118a0575f80fd5b50565b5f813590506118b18161188d565b92915050565b5f805f805f805f60e0888a0312156118d2576118d16114d7565b5b5f6118df8a828b01611521565b97505060206118f08a828b01611521565b96505060406119018a828b01611554565b95505060606119128a828b01611554565b94505060806119238a828b01611879565b93505060a06119348a828b016118a3565b92505060c06119458a828b016118a3565b91505092959891949750929550565b5f806040838503121561196a576119696114d7565b5b5f61197785828601611521565b925050602061198885828601611521565b9150509250929050565b7f4e487b71000000000000000000000000000000000000000000000000000000005f52602260045260245ffd5b5f60028204905060018216806119d657607f821691505b6020821081036119e9576119e8611992565b5b50919050565b7f4e487b71000000000000000000000000000000000000000000000000000000005f52604160045260245ffd5b5f60c082019050611a2f5f83018961168e565b611a3c602083018861171b565b611a49604083018761171b565b611a5660608301866115d9565b611a6360808301856115d9565b611a7060a08301846115d9565b979650505050505050565b5f604082019050611a8e5f83018561171b565b611a9b602083018461171b565b9392505050565b5f606082019050611ab55f83018661171b565b611ac260208301856115d9565b611acf60408301846115d9565b949350505050565b5f602082019050611aea5f83018461171b565b92915050565b7f4e487b71000000000000000000000000000000000000000000000000000000005f52601160045260245ffd5b5f611b2782611535565b9150611b3283611535565b9250828201905080821115611b4a57611b49611af0565b5b92915050565b5f60a082019050611b635f83018861168e565b611b70602083018761168e565b611b7d604083018661168e565b611b8a60608301856115d9565b611b97608083018461171b565b9695505050505050565b5f608082019050611bb45f83018761168e565b611bc1602083018661165d565b611bce604083018561168e565b611bdb606083018461168e565b95945050505050565b7f4e487b71000000000000000000000000000000000000000000000000000000005f52602160045260245ffdfea264697066735822122020e810dc400b757eec358ef220bbf19e104d83d657cedc5b2f68c245644da5bb64736f6c63430008190033",
					"opcodes": "PUSH2 0x160 PUSH1 0x40 MSTORE PUSH2 0x13 PUSH2 0x1F9 PUSH1 0x20 SHL PUSH1 0x20 SHR JUMP JUMPDEST PUSH1 0xA PUSH2 0x1F SWAP2 SWAP1 PUSH2 0x725 JUMP JUMPDEST PUSH3 0xF4240 PUSH2 0x2D SWAP2 SWAP1 PUSH2 0x76F JUMP JUMPDEST PUSH1 0x8 SSTORE CALLVALUE DUP1 ISZERO PUSH2 0x3B JUMPI PUSH0 DUP1 REVERT JUMPDEST POP PUSH1 0x40 MLOAD DUP1 PUSH1 0x40 ADD PUSH1 0x40 MSTORE DUP1 PUSH1 0x6 DUP2 MSTORE PUSH1 0x20 ADD PUSH32 0x746F6B656E410000000000000000000000000000000000000000000000000000 DUP2 MSTORE POP DUP1 PUSH1 0x40 MLOAD DUP1 PUSH1 0x40 ADD PUSH1 0x40 MSTORE DUP1 PUSH1 0x1 DUP2 MSTORE PUSH1 0x20 ADD PUSH32 0x3100000000000000000000000000000000000000000000000000000000000000 DUP2 MSTORE POP PUSH1 0x40 MLOAD DUP1 PUSH1 0x40 ADD PUSH1 0x40 MSTORE DUP1 PUSH1 0x6 DUP2 MSTORE PUSH1 0x20 ADD PUSH32 0x746F6B656E410000000000000000000000000000000000000000000000000000 DUP2 MSTORE POP PUSH1 0x40 MLOAD DUP1 PUSH1 0x40 ADD PUSH1 0x40 MSTORE DUP1 PUSH1 0x3 DUP2 MSTORE PUSH1 0x20 ADD PUSH32 0x544F410000000000000000000000000000000000000000000000000000000000 DUP2 MSTORE POP DUP2 PUSH1 0x3 SWAP1 DUP2 PUSH2 0x124 SWAP2 SWAP1 PUSH2 0x9E1 JUMP JUMPDEST POP DUP1 PUSH1 0x4 SWAP1 DUP2 PUSH2 0x134 SWAP2 SWAP1 PUSH2 0x9E1 JUMP JUMPDEST POP POP POP PUSH2 0x14B PUSH1 0x5 DUP4 PUSH2 0x201 PUSH1 0x20 SHL SWAP1 SWAP2 SWAP1 PUSH1 0x20 SHR JUMP JUMPDEST PUSH2 0x120 DUP2 DUP2 MSTORE POP POP PUSH2 0x167 PUSH1 0x6 DUP3 PUSH2 0x201 PUSH1 0x20 SHL SWAP1 SWAP2 SWAP1 PUSH1 0x20 SHR JUMP JUMPDEST PUSH2 0x140 DUP2 DUP2 MSTORE POP POP DUP2 DUP1 MLOAD SWAP1 PUSH1 0x20 ADD KECCAK256 PUSH1 0xE0 DUP2 DUP2 MSTORE POP POP DUP1 DUP1 MLOAD SWAP1 PUSH1 0x20 ADD KECCAK256 PUSH2 0x100 DUP2 DUP2 MSTORE POP POP CHAINID PUSH1 0xA0 DUP2 DUP2 MSTORE POP POP PUSH2 0x1A4 PUSH2 0x24E PUSH1 0x20 SHL PUSH1 0x20 SHR JUMP JUMPDEST PUSH1 0x80 DUP2 DUP2 MSTORE POP POP ADDRESS PUSH20 0xFFFFFFFFFFFFFFFFFFFFFFFFFFFFFFFFFFFFFFFF AND PUSH1 0xC0 DUP2 PUSH20 0xFFFFFFFFFFFFFFFFFFFFFFFFFFFFFFFFFFFFFFFF AND DUP2 MSTORE POP POP POP POP POP PUSH2 0x1F4 CALLER PUSH1 0x8 SLOAD PUSH2 0x2A8 PUSH1 0x20 SHL PUSH1 0x20 SHR JUMP JUMPDEST PUSH2 0xD1A JUMP JUMPDEST PUSH0 PUSH1 0x12 SWAP1 POP SWAP1 JUMP JUMPDEST PUSH0 PUSH1 0x20 DUP4 MLOAD LT ISZERO PUSH2 0x222 JUMPI PUSH2 0x21B DUP4 PUSH2 0x32D PUSH1 0x20 SHL PUSH1 0x20 SHR JUMP JUMPDEST SWAP1 POP PUSH2 0x248 JUMP JUMPDEST DUP3 PUSH2 0x232 DUP4 PUSH2 0x392 PUSH1 0x20 SHL PUSH1 0x20 SHR JUMP JUMPDEST PUSH0 ADD SWAP1 DUP2 PUSH2 0x240 SWAP2 SWAP1 PUSH2 0x9E1 JUMP JUMPDEST POP PUSH1 0xFF PUSH0 SHL SWAP1 POP JUMPDEST SWAP3 SWAP2 POP POP JUMP JUMPDEST PUSH0 PUSH32 0x8B73C3C69BB8FE3D512ECC4CF759CC79239F7B179B0FFACAA9A75D522B39400F PUSH1 0xE0 MLOAD PUSH2 0x100 MLOAD CHAINID ADDRESS PUSH1 0x40 MLOAD PUSH1 0x20 ADD PUSH2 0x28D SWAP6 SWAP5 SWAP4 SWAP3 SWAP2 SWAP1 PUSH2 0xB16 JUMP JUMPDEST PUSH1 0x40 MLOAD PUSH1 0x20 DUP2 DUP4 SUB SUB DUP2 MSTORE SWAP1 PUSH1 0x40 MSTORE DUP1 MLOAD SWAP1 PUSH1 0x20 ADD KECCAK256 SWAP1 POP SWAP1 JUMP JUMPDEST PUSH0 PUSH20 0xFFFFFFFFFFFFFFFFFFFFFFFFFFFFFFFFFFFFFFFF AND DUP3 PUSH20 0xFFFFFFFFFFFFFFFFFFFFFFFFFFFFFFFFFFFFFFFF AND SUB PUSH2 0x318 JUMPI PUSH0 PUSH1 0x40 MLOAD PUSH32 0xEC442F0500000000000000000000000000000000000000000000000000000000 DUP2 MSTORE PUSH1 0x4 ADD PUSH2 0x30F SWAP2 SWAP1 PUSH2 0xB67 JUMP JUMPDEST PUSH1 0x40 MLOAD DUP1 SWAP2 SUB SWAP1 REVERT JUMPDEST PUSH2 0x329 PUSH0 DUP4 DUP4 PUSH2 0x39B PUSH1 0x20 SHL PUSH1 0x20 SHR JUMP JUMPDEST POP POP JUMP JUMPDEST PUSH0 DUP1 DUP3 SWAP1 POP PUSH1 0x1F DUP2 MLOAD GT ISZERO PUSH2 0x379 JUMPI DUP3 PUSH1 0x40 MLOAD PUSH32 0x305A27A900000000000000000000000000000000000000000000000000000000 DUP2 MSTORE PUSH1 0x4 ADD PUSH2 0x370 SWAP2 SWAP1 PUSH2 0xBE6 JUMP JUMPDEST PUSH1 0x40 MLOAD DUP1 SWAP2 SUB SWAP1 REVERT JUMPDEST DUP1 MLOAD DUP2 PUSH2 0x385 SWAP1 PUSH2 0xC33 JUMP JUMPDEST PUSH0 SHR OR PUSH0 SHL SWAP2 POP POP SWAP2 SWAP1 POP JUMP JUMPDEST PUSH0 DUP2 SWAP1 POP SWAP2 SWAP1 POP JUMP JUMPDEST PUSH0 PUSH20 0xFFFFFFFFFFFFFFFFFFFFFFFFFFFFFFFFFFFFFFFF AND DUP4 PUSH20 0xFFFFFFFFFFFFFFFFFFFFFFFFFFFFFFFFFFFFFFFF AND SUB PUSH2 0x3EB JUMPI DUP1 PUSH1 0x2 PUSH0 DUP3 DUP3 SLOAD PUSH2 0x3DF SWAP2 SWAP1 PUSH2 0xC99 JUMP JUMPDEST SWAP3 POP POP DUP2 SWAP1 SSTORE POP PUSH2 0x4B9 JUMP JUMPDEST PUSH0 DUP1 PUSH0 DUP6 PUSH20 0xFFFFFFFFFFFFFFFFFFFFFFFFFFFFFFFFFFFFFFFF AND PUSH20 0xFFFFFFFFFFFFFFFFFFFFFFFFFFFFFFFFFFFFFFFF AND DUP2 MSTORE PUSH1 0x20 ADD SWAP1 DUP2 MSTORE PUSH1 0x20 ADD PUSH0 KECCAK256 SLOAD SWAP1 POP DUP2 DUP2 LT ISZERO PUSH2 0x474 JUMPI DUP4 DUP2 DUP4 PUSH1 0x40 MLOAD PUSH32 0xE450D38C00000000000000000000000000000000000000000000000000000000 DUP2 MSTORE PUSH1 0x4 ADD PUSH2 0x46B SWAP4 SWAP3 SWAP2 SWAP1 PUSH2 0xCCC JUMP JUMPDEST PUSH1 0x40 MLOAD DUP1 SWAP2 SUB SWAP1 REVERT JUMPDEST DUP2 DUP2 SUB PUSH0 DUP1 DUP7 PUSH20 0xFFFFFFFFFFFFFFFFFFFFFFFFFFFFFFFFFFFFFFFF AND PUSH20 0xFFFFFFFFFFFFFFFFFFFFFFFFFFFFFFFFFFFFFFFF AND DUP2 MSTORE PUSH1 0x20 ADD SWAP1 DUP2 MSTORE PUSH1 0x20 ADD PUSH0 KECCAK256 DUP2 SWAP1 SSTORE POP POP JUMPDEST PUSH0 PUSH20 0xFFFFFFFFFFFFFFFFFFFFFFFFFFFFFFFFFFFFFFFF AND DUP3 PUSH20 0xFFFFFFFFFFFFFFFFFFFFFFFFFFFFFFFFFFFFFFFF AND SUB PUSH2 0x500 JUMPI DUP1 PUSH1 0x2 PUSH0 DUP3 DUP3 SLOAD SUB SWAP3 POP POP DUP2 SWAP1 SSTORE POP PUSH2 0x54A JUMP JUMPDEST DUP1 PUSH0 DUP1 DUP5 PUSH20 0xFFFFFFFFFFFFFFFFFFFFFFFFFFFFFFFFFFFFFFFF AND PUSH20 0xFFFFFFFFFFFFFFFFFFFFFFFFFFFFFFFFFFFFFFFF AND DUP2 MSTORE PUSH1 0x20 ADD SWAP1 DUP2 MSTORE PUSH1 0x20 ADD PUSH0 KECCAK256 PUSH0 DUP3 DUP3 SLOAD ADD SWAP3 POP POP DUP2 SWAP1 SSTORE POP JUMPDEST DUP2 PUSH20 0xFFFFFFFFFFFFFFFFFFFFFFFFFFFFFFFFFFFFFFFF AND DUP4 PUSH20 0xFFFFFFFFFFFFFFFFFFFFFFFFFFFFFFFFFFFFFFFF AND PUSH32 0xDDF252AD1BE2C89B69C2B068FC378DAA952BA7F163C4A11628F55A4DF523B3EF DUP4 PUSH1 0x40 MLOAD PUSH2 0x5A7 SWAP2 SWAP1 PUSH2 0xD01 JUMP JUMPDEST PUSH1 0x40 MLOAD DUP1 SWAP2 SUB SWAP1 LOG3 POP POP POP JUMP JUMPDEST PUSH32 0x4E487B7100000000000000000000000000000000000000000000000000000000 PUSH0 MSTORE PUSH1 0x11 PUSH1 0x4 MSTORE PUSH1 0x24 PUSH0 REVERT JUMPDEST PUSH0 DUP2 PUSH1 0x1 SHR SWAP1 POP SWAP2 SWAP1 POP JUMP JUMPDEST PUSH0 DUP1 DUP3 SWAP2 POP DUP4 SWAP1 POP JUMPDEST PUSH1 0x1 DUP6 GT ISZERO PUSH2 0x636 JUMPI DUP1 DUP7 DIV DUP2 GT ISZERO PUSH2 0x612 JUMPI PUSH2 0x611 PUSH2 0x5B4 JUMP JUMPDEST JUMPDEST PUSH1 0x1 DUP6 AND ISZERO PUSH2 0x621 JUMPI DUP1 DUP3 MUL SWAP2 POP JUMPDEST DUP1 DUP2 MUL SWAP1 POP PUSH2 0x62F DUP6 PUSH2 0x5E1 JUMP JUMPDEST SWAP5 POP PUSH2 0x5F6 JUMP JUMPDEST SWAP5 POP SWAP5 SWAP3 POP POP POP JUMP JUMPDEST PUSH0 DUP3 PUSH2 0x64E JUMPI PUSH1 0x1 SWAP1 POP PUSH2 0x709 JUMP JUMPDEST DUP2 PUSH2 0x65B JUMPI PUSH0 SWAP1 POP PUSH2 0x709 JUMP JUMPDEST DUP2 PUSH1 0x1 DUP2 EQ PUSH2 0x671 JUMPI PUSH1 0x2 DUP2 EQ PUSH2 0x67B JUMPI PUSH2 0x6AA JUMP JUMPDEST PUSH1 0x1 SWAP2 POP POP PUSH2 0x709 JUMP JUMPDEST PUSH1 0xFF DUP5 GT ISZERO PUSH2 0x68D JUMPI PUSH2 0x68C PUSH2 0x5B4 JUMP JUMPDEST JUMPDEST DUP4 PUSH1 0x2 EXP SWAP2 POP DUP5 DUP3 GT ISZERO PUSH2 0x6A4 JUMPI PUSH2 0x6A3 PUSH2 0x5B4 JUMP JUMPDEST JUMPDEST POP PUSH2 0x709 JUMP JUMPDEST POP PUSH1 0x20 DUP4 LT PUSH2 0x133 DUP4 LT AND PUSH1 0x4E DUP5 LT PUSH1 0xB DUP5 LT AND OR ISZERO PUSH2 0x6DF JUMPI DUP3 DUP3 EXP SWAP1 POP DUP4 DUP2 GT ISZERO PUSH2 0x6DA JUMPI PUSH2 0x6D9 PUSH2 0x5B4 JUMP JUMPDEST JUMPDEST PUSH2 0x709 JUMP JUMPDEST PUSH2 0x6EC DUP5 DUP5 DUP5 PUSH1 0x1 PUSH2 0x5ED JUMP JUMPDEST SWAP3 POP SWAP1 POP DUP2 DUP5 DIV DUP2 GT ISZERO PUSH2 0x703 JUMPI PUSH2 0x702 PUSH2 0x5B4 JUMP JUMPDEST JUMPDEST DUP2 DUP2 MUL SWAP1 POP JUMPDEST SWAP4 SWAP3 POP POP POP JUMP JUMPDEST PUSH0 DUP2 SWAP1 POP SWAP2 SWAP1 POP JUMP JUMPDEST PUSH0 PUSH1 0xFF DUP3 AND SWAP1 POP SWAP2 SWAP1 POP JUMP JUMPDEST PUSH0 PUSH2 0x72F DUP3 PUSH2 0x710 JUMP JUMPDEST SWAP2 POP PUSH2 0x73A DUP4 PUSH2 0x719 JUMP JUMPDEST SWAP3 POP PUSH2 0x767 PUSH32 0xFFFFFFFFFFFFFFFFFFFFFFFFFFFFFFFFFFFFFFFFFFFFFFFFFFFFFFFFFFFFFFFF DUP5 DUP5 PUSH2 0x63F JUMP JUMPDEST SWAP1 POP SWAP3 SWAP2 POP POP JUMP JUMPDEST PUSH0 PUSH2 0x779 DUP3 PUSH2 0x710 JUMP JUMPDEST SWAP2 POP PUSH2 0x784 DUP4 PUSH2 0x710 JUMP JUMPDEST SWAP3 POP DUP3 DUP3 MUL PUSH2 0x792 DUP2 PUSH2 0x710 JUMP JUMPDEST SWAP2 POP DUP3 DUP3 DIV DUP5 EQ DUP4 ISZERO OR PUSH2 0x7A9 JUMPI PUSH2 0x7A8 PUSH2 0x5B4 JUMP JUMPDEST JUMPDEST POP SWAP3 SWAP2 POP POP JUMP JUMPDEST PUSH0 DUP2 MLOAD SWAP1 POP SWAP2 SWAP1 POP JUMP JUMPDEST PUSH32 0x4E487B7100000000000000000000000000000000000000000000000000000000 PUSH0 MSTORE PUSH1 0x41 PUSH1 0x4 MSTORE PUSH1 0x24 PUSH0 REVERT JUMPDEST PUSH32 0x4E487B7100000000000000000000000000000000000000000000000000000000 PUSH0 MSTORE PUSH1 0x22 PUSH1 0x4 MSTORE PUSH1 0x24 PUSH0 REVERT JUMPDEST PUSH0 PUSH1 0x2 DUP3 DIV SWAP1 POP PUSH1 0x1 DUP3 AND DUP1 PUSH2 0x82B JUMPI PUSH1 0x7F DUP3 AND SWAP2 POP JUMPDEST PUSH1 0x20 DUP3 LT DUP2 SUB PUSH2 0x83E JUMPI PUSH2 0x83D PUSH2 0x7E7 JUMP JUMPDEST JUMPDEST POP SWAP2 SWAP1 POP JUMP JUMPDEST PUSH0 DUP2 SWAP1 POP DUP2 PUSH0 MSTORE PUSH1 0x20 PUSH0 KECCAK256 SWAP1 POP SWAP2 SWAP1 POP JUMP JUMPDEST PUSH0 PUSH1 0x20 PUSH1 0x1F DUP4 ADD DIV SWAP1 POP SWAP2 SWAP1 POP JUMP JUMPDEST PUSH0 DUP3 DUP3 SHL SWAP1 POP SWAP3 SWAP2 POP POP JUMP JUMPDEST PUSH0 PUSH1 0x8 DUP4 MUL PUSH2 0x8A0 PUSH32 0xFFFFFFFFFFFFFFFFFFFFFFFFFFFFFFFFFFFFFFFFFFFFFFFFFFFFFFFFFFFFFFFF DUP3 PUSH2 0x865 JUMP JUMPDEST PUSH2 0x8AA DUP7 DUP4 PUSH2 0x865 JUMP JUMPDEST SWAP6 POP DUP1 NOT DUP5 AND SWAP4 POP DUP1 DUP7 AND DUP5 OR SWAP3 POP POP POP SWAP4 SWAP3 POP POP POP JUMP JUMPDEST PUSH0 DUP2 SWAP1 POP SWAP2 SWAP1 POP JUMP JUMPDEST PUSH0 PUSH2 0x8E5 PUSH2 0x8E0 PUSH2 0x8DB DUP5 PUSH2 0x710 JUMP JUMPDEST PUSH2 0x8C2 JUMP JUMPDEST PUSH2 0x710 JUMP JUMPDEST SWAP1 POP SWAP2 SWAP1 POP JUMP JUMPDEST PUSH0 DUP2 SWAP1 POP SWAP2 SWAP1 POP JUMP JUMPDEST PUSH2 0x8FE DUP4 PUSH2 0x8CB JUMP JUMPDEST PUSH2 0x912 PUSH2 0x90A DUP3 PUSH2 0x8EC JUMP JUMPDEST DUP5 DUP5 SLOAD PUSH2 0x871 JUMP JUMPDEST DUP3 SSTORE POP POP POP POP JUMP JUMPDEST PUSH0 SWAP1 JUMP JUMPDEST PUSH2 0x926 PUSH2 0x91A JUMP JUMPDEST PUSH2 0x931 DUP2 DUP5 DUP5 PUSH2 0x8F5 JUMP JUMPDEST POP POP POP JUMP JUMPDEST JUMPDEST DUP2 DUP2 LT ISZERO PUSH2 0x954 JUMPI PUSH2 0x949 PUSH0 DUP3 PUSH2 0x91E JUMP JUMPDEST PUSH1 0x1 DUP2 ADD SWAP1 POP PUSH2 0x937 JUMP JUMPDEST POP POP JUMP JUMPDEST PUSH1 0x1F DUP3 GT ISZERO PUSH2 0x999 JUMPI PUSH2 0x96A DUP2 PUSH2 0x844 JUMP JUMPDEST PUSH2 0x973 DUP5 PUSH2 0x856 JUMP JUMPDEST DUP2 ADD PUSH1 0x20 DUP6 LT ISZERO PUSH2 0x982 JUMPI DUP2 SWAP1 POP JUMPDEST PUSH2 0x996 PUSH2 0x98E DUP6 PUSH2 0x856 JUMP JUMPDEST DUP4 ADD DUP3 PUSH2 0x936 JUMP JUMPDEST POP POP JUMPDEST POP POP POP JUMP JUMPDEST PUSH0 DUP3 DUP3 SHR SWAP1 POP SWAP3 SWAP2 POP POP JUMP JUMPDEST PUSH0 PUSH2 0x9B9 PUSH0 NOT DUP5 PUSH1 0x8 MUL PUSH2 0x99E JUMP JUMPDEST NOT DUP1 DUP4 AND SWAP2 POP POP SWAP3 SWAP2 POP POP JUMP JUMPDEST PUSH0 PUSH2 0x9D1 DUP4 DUP4 PUSH2 0x9AA JUMP JUMPDEST SWAP2 POP DUP3 PUSH1 0x2 MUL DUP3 OR SWAP1 POP SWAP3 SWAP2 POP POP JUMP JUMPDEST PUSH2 0x9EA DUP3 PUSH2 0x7B0 JUMP JUMPDEST PUSH8 0xFFFFFFFFFFFFFFFF DUP2 GT ISZERO PUSH2 0xA03 JUMPI PUSH2 0xA02 PUSH2 0x7BA JUMP JUMPDEST JUMPDEST PUSH2 0xA0D DUP3 SLOAD PUSH2 0x814 JUMP JUMPDEST PUSH2 0xA18 DUP3 DUP3 DUP6 PUSH2 0x958 JUMP JUMPDEST PUSH0 PUSH1 0x20 SWAP1 POP PUSH1 0x1F DUP4 GT PUSH1 0x1 DUP2 EQ PUSH2 0xA49 JUMPI PUSH0 DUP5 ISZERO PUSH2 0xA37 JUMPI DUP3 DUP8 ADD MLOAD SWAP1 POP JUMPDEST PUSH2 0xA41 DUP6 DUP3 PUSH2 0x9C6 JUMP JUMPDEST DUP7 SSTORE POP PUSH2 0xAA8 JUMP JUMPDEST PUSH1 0x1F NOT DUP5 AND PUSH2 0xA57 DUP7 PUSH2 0x844 JUMP JUMPDEST PUSH0 JUMPDEST DUP3 DUP2 LT ISZERO PUSH2 0xA7E JUMPI DUP5 DUP10 ADD MLOAD DUP3 SSTORE PUSH1 0x1 DUP3 ADD SWAP2 POP PUSH1 0x20 DUP6 ADD SWAP5 POP PUSH1 0x20 DUP2 ADD SWAP1 POP PUSH2 0xA59 JUMP JUMPDEST DUP7 DUP4 LT ISZERO PUSH2 0xA9B JUMPI DUP5 DUP10 ADD MLOAD PUSH2 0xA97 PUSH1 0x1F DUP10 AND DUP3 PUSH2 0x9AA JUMP JUMPDEST DUP4 SSTORE POP JUMPDEST PUSH1 0x1 PUSH1 0x2 DUP9 MUL ADD DUP9 SSTORE POP POP POP JUMPDEST POP POP POP POP POP POP JUMP JUMPDEST PUSH0 DUP2 SWAP1 POP SWAP2 SWAP1 POP JUMP JUMPDEST PUSH2 0xAC2 DUP2 PUSH2 0xAB0 JUMP JUMPDEST DUP3 MSTORE POP POP JUMP JUMPDEST PUSH2 0xAD1 DUP2 PUSH2 0x710 JUMP JUMPDEST DUP3 MSTORE POP POP JUMP JUMPDEST PUSH0 PUSH20 0xFFFFFFFFFFFFFFFFFFFFFFFFFFFFFFFFFFFFFFFF DUP3 AND SWAP1 POP SWAP2 SWAP1 POP JUMP JUMPDEST PUSH0 PUSH2 0xB00 DUP3 PUSH2 0xAD7 JUMP JUMPDEST SWAP1 POP SWAP2 SWAP1 POP JUMP JUMPDEST PUSH2 0xB10 DUP2 PUSH2 0xAF6 JUMP JUMPDEST DUP3 MSTORE POP POP JUMP JUMPDEST PUSH0 PUSH1 0xA0 DUP3 ADD SWAP1 POP PUSH2 0xB29 PUSH0 DUP4 ADD DUP9 PUSH2 0xAB9 JUMP JUMPDEST PUSH2 0xB36 PUSH1 0x20 DUP4 ADD DUP8 PUSH2 0xAB9 JUMP JUMPDEST PUSH2 0xB43 PUSH1 0x40 DUP4 ADD DUP7 PUSH2 0xAB9 JUMP JUMPDEST PUSH2 0xB50 PUSH1 0x60 DUP4 ADD DUP6 PUSH2 0xAC8 JUMP JUMPDEST PUSH2 0xB5D PUSH1 0x80 DUP4 ADD DUP5 PUSH2 0xB07 JUMP JUMPDEST SWAP7 SWAP6 POP POP POP POP POP POP JUMP JUMPDEST PUSH0 PUSH1 0x20 DUP3 ADD SWAP1 POP PUSH2 0xB7A PUSH0 DUP4 ADD DUP5 PUSH2 0xB07 JUMP JUMPDEST SWAP3 SWAP2 POP POP JUMP JUMPDEST PUSH0 DUP3 DUP3 MSTORE PUSH1 0x20 DUP3 ADD SWAP1 POP SWAP3 SWAP2 POP POP JUMP JUMPDEST DUP3 DUP2 DUP4 MCOPY PUSH0 DUP4 DUP4 ADD MSTORE POP POP POP JUMP JUMPDEST PUSH0 PUSH1 0x1F NOT PUSH1 0x1F DUP4 ADD AND SWAP1 POP SWAP2 SWAP1 POP JUMP JUMPDEST PUSH0 PUSH2 0xBB8 DUP3 PUSH2 0x7B0 JUMP JUMPDEST PUSH2 0xBC2 DUP2 DUP6 PUSH2 0xB80 JUMP JUMPDEST SWAP4 POP PUSH2 0xBD2 DUP2 DUP6 PUSH1 0x20 DUP7 ADD PUSH2 0xB90 JUMP JUMPDEST PUSH2 0xBDB DUP2 PUSH2 0xB9E JUMP JUMPDEST DUP5 ADD SWAP2 POP POP SWAP3 SWAP2 POP POP JUMP JUMPDEST PUSH0 PUSH1 0x20 DUP3 ADD SWAP1 POP DUP2 DUP2 SUB PUSH0 DUP4 ADD MSTORE PUSH2 0xBFE DUP2 DUP5 PUSH2 0xBAE JUMP JUMPDEST SWAP1 POP SWAP3 SWAP2 POP POP JUMP JUMPDEST PUSH0 DUP2 MLOAD SWAP1 POP SWAP2 SWAP1 POP JUMP JUMPDEST PUSH0 DUP2 SWAP1 POP PUSH1 0x20 DUP3 ADD SWAP1 POP SWAP2 SWAP1 POP JUMP JUMPDEST PUSH0 PUSH2 0xC2A DUP3 MLOAD PUSH2 0xAB0 JUMP JUMPDEST DUP1 SWAP2 POP POP SWAP2 SWAP1 POP JUMP JUMPDEST PUSH0 PUSH2 0xC3D DUP3 PUSH2 0xC06 JUMP JUMPDEST DUP3 PUSH2 0xC47 DUP5 PUSH2 0xC10 JUMP JUMPDEST SWAP1 POP PUSH2 0xC52 DUP2 PUSH2 0xC1F JUMP JUMPDEST SWAP3 POP PUSH1 0x20 DUP3 LT ISZERO PUSH2 0xC92 JUMPI PUSH2 0xC8D PUSH32 0xFFFFFFFFFFFFFFFFFFFFFFFFFFFFFFFFFFFFFFFFFFFFFFFFFFFFFFFFFFFFFFFF DUP4 PUSH1 0x20 SUB PUSH1 0x8 MUL PUSH2 0x865 JUMP JUMPDEST DUP4 AND SWAP3 POP JUMPDEST POP POP SWAP2 SWAP1 POP JUMP JUMPDEST PUSH0 PUSH2 0xCA3 DUP3 PUSH2 0x710 JUMP JUMPDEST SWAP2 POP PUSH2 0xCAE DUP4 PUSH2 0x710 JUMP JUMPDEST SWAP3 POP DUP3 DUP3 ADD SWAP1 POP DUP1 DUP3 GT ISZERO PUSH2 0xCC6 JUMPI PUSH2 0xCC5 PUSH2 0x5B4 JUMP JUMPDEST JUMPDEST SWAP3 SWAP2 POP POP JUMP JUMPDEST PUSH0 PUSH1 0x60 DUP3 ADD SWAP1 POP PUSH2 0xCDF PUSH0 DUP4 ADD DUP7 PUSH2 0xB07 JUMP JUMPDEST PUSH2 0xCEC PUSH1 0x20 DUP4 ADD DUP6 PUSH2 0xAC8 JUMP JUMPDEST PUSH2 0xCF9 PUSH1 0x40 DUP4 ADD DUP5 PUSH2 0xAC8 JUMP JUMPDEST SWAP5 SWAP4 POP POP POP POP JUMP JUMPDEST PUSH0 PUSH1 0x20 DUP3 ADD SWAP1 POP PUSH2 0xD14 PUSH0 DUP4 ADD DUP5 PUSH2 0xAC8 JUMP JUMPDEST SWAP3 SWAP2 POP POP JUMP JUMPDEST PUSH1 0x80 MLOAD PUSH1 0xA0 MLOAD PUSH1 0xC0 MLOAD PUSH1 0xE0 MLOAD PUSH2 0x100 MLOAD PUSH2 0x120 MLOAD PUSH2 0x140 MLOAD PUSH2 0x1C47 PUSH2 0xD6B PUSH0 CODECOPY PUSH0 PUSH2 0xB08 ADD MSTORE PUSH0 PUSH2 0xACD ADD MSTORE PUSH0 PUSH2 0x1001 ADD MSTORE PUSH0 PUSH2 0xFE0 ADD MSTORE PUSH0 PUSH2 0x94C ADD MSTORE PUSH0 PUSH2 0x9A2 ADD MSTORE PUSH0 PUSH2 0x9CB ADD MSTORE PUSH2 0x1C47 PUSH0 RETURN INVALID PUSH1 0x80 PUSH1 0x40 MSTORE CALLVALUE DUP1 ISZERO PUSH2 0xF JUMPI PUSH0 DUP1 REVERT JUMPDEST POP PUSH1 0x4 CALLDATASIZE LT PUSH2 0xF3 JUMPI PUSH0 CALLDATALOAD PUSH1 0xE0 SHR DUP1 PUSH4 0x40C10F19 GT PUSH2 0x95 JUMPI DUP1 PUSH4 0x95D89B41 GT PUSH2 0x64 JUMPI DUP1 PUSH4 0x95D89B41 EQ PUSH2 0x28D JUMPI DUP1 PUSH4 0xA9059CBB EQ PUSH2 0x2AB JUMPI DUP1 PUSH4 0xD505ACCF EQ PUSH2 0x2DB JUMPI DUP1 PUSH4 0xDD62ED3E EQ PUSH2 0x2F7 JUMPI PUSH2 0xF3 JUMP JUMPDEST DUP1 PUSH4 0x40C10F19 EQ PUSH2 0x1ED JUMPI DUP1 PUSH4 0x70A08231 EQ PUSH2 0x209 JUMPI DUP1 PUSH4 0x7ECEBE00 EQ PUSH2 0x239 JUMPI DUP1 PUSH4 0x84B0196E EQ PUSH2 0x269 JUMPI PUSH2 0xF3 JUMP JUMPDEST DUP1 PUSH4 0x23B872DD GT PUSH2 0xD1 JUMPI DUP1 PUSH4 0x23B872DD EQ PUSH2 0x163 JUMPI DUP1 PUSH4 0x2FF2E9DC EQ PUSH2 0x193 JUMPI DUP1 PUSH4 0x313CE567 EQ PUSH2 0x1B1 JUMPI DUP1 PUSH4 0x3644E515 EQ PUSH2 0x1CF JUMPI PUSH2 0xF3 JUMP JUMPDEST DUP1 PUSH4 0x6FDDE03 EQ PUSH2 0xF7 JUMPI DUP1 PUSH4 0x95EA7B3 EQ PUSH2 0x115 JUMPI DUP1 PUSH4 0x18160DDD EQ PUSH2 0x145 JUMPI JUMPDEST PUSH0 DUP1 REVERT JUMPDEST PUSH2 0xFF PUSH2 0x327 JUMP JUMPDEST PUSH1 0x40 MLOAD PUSH2 0x10C SWAP2 SWAP1 PUSH2 0x14B7 JUMP JUMPDEST PUSH1 0x40 MLOAD DUP1 SWAP2 SUB SWAP1 RETURN JUMPDEST PUSH2 0x12F PUSH1 0x4 DUP1 CALLDATASIZE SUB DUP2 ADD SWAP1 PUSH2 0x12A SWAP2 SWAP1 PUSH2 0x1568 JUMP JUMPDEST PUSH2 0x3B7 JUMP JUMPDEST PUSH1 0x40 MLOAD PUSH2 0x13C SWAP2 SWAP1 PUSH2 0x15C0 JUMP JUMPDEST PUSH1 0x40 MLOAD DUP1 SWAP2 SUB SWAP1 RETURN JUMPDEST PUSH2 0x14D PUSH2 0x3D9 JUMP JUMPDEST PUSH1 0x40 MLOAD PUSH2 0x15A SWAP2 SWAP1 PUSH2 0x15E8 JUMP JUMPDEST PUSH1 0x40 MLOAD DUP1 SWAP2 SUB SWAP1 RETURN JUMPDEST PUSH2 0x17D PUSH1 0x4 DUP1 CALLDATASIZE SUB DUP2 ADD SWAP1 PUSH2 0x178 SWAP2 SWAP1 PUSH2 0x1601 JUMP JUMPDEST PUSH2 0x3E2 JUMP JUMPDEST PUSH1 0x40 MLOAD PUSH2 0x18A SWAP2 SWAP1 PUSH2 0x15C0 JUMP JUMPDEST PUSH1 0x40 MLOAD DUP1 SWAP2 SUB SWAP1 RETURN JUMPDEST PUSH2 0x19B PUSH2 0x410 JUMP JUMPDEST PUSH1 0x40 MLOAD PUSH2 0x1A8 SWAP2 SWAP1 PUSH2 0x15E8 JUMP JUMPDEST PUSH1 0x40 MLOAD DUP1 SWAP2 SUB SWAP1 RETURN JUMPDEST PUSH2 0x1B9 PUSH2 0x416 JUMP JUMPDEST PUSH1 0x40 MLOAD PUSH2 0x1C6 SWAP2 SWAP1 PUSH2 0x166C JUMP JUMPDEST PUSH1 0x40 MLOAD DUP1 SWAP2 SUB SWAP1 RETURN JUMPDEST PUSH2 0x1D7 PUSH2 0x41E JUMP JUMPDEST PUSH1 0x40 MLOAD PUSH2 0x1E4 SWAP2 SWAP1 PUSH2 0x169D JUMP JUMPDEST PUSH1 0x40 MLOAD DUP1 SWAP2 SUB SWAP1 RETURN JUMPDEST PUSH2 0x207 PUSH1 0x4 DUP1 CALLDATASIZE SUB DUP2 ADD SWAP1 PUSH2 0x202 SWAP2 SWAP1 PUSH2 0x1568 JUMP JUMPDEST PUSH2 0x42C JUMP JUMPDEST STOP JUMPDEST PUSH2 0x223 PUSH1 0x4 DUP1 CALLDATASIZE SUB DUP2 ADD SWAP1 PUSH2 0x21E SWAP2 SWAP1 PUSH2 0x16B6 JUMP JUMPDEST PUSH2 0x43A JUMP JUMPDEST PUSH1 0x40 MLOAD PUSH2 0x230 SWAP2 SWAP1 PUSH2 0x15E8 JUMP JUMPDEST PUSH1 0x40 MLOAD DUP1 SWAP2 SUB SWAP1 RETURN JUMPDEST PUSH2 0x253 PUSH1 0x4 DUP1 CALLDATASIZE SUB DUP2 ADD SWAP1 PUSH2 0x24E SWAP2 SWAP1 PUSH2 0x16B6 JUMP JUMPDEST PUSH2 0x47F JUMP JUMPDEST PUSH1 0x40 MLOAD PUSH2 0x260 SWAP2 SWAP1 PUSH2 0x15E8 JUMP JUMPDEST PUSH1 0x40 MLOAD DUP1 SWAP2 SUB SWAP1 RETURN JUMPDEST PUSH2 0x271 PUSH2 0x490 JUMP JUMPDEST PUSH1 0x40 MLOAD PUSH2 0x284 SWAP8 SWAP7 SWAP6 SWAP5 SWAP4 SWAP3 SWAP2 SWAP1 PUSH2 0x17E1 JUMP JUMPDEST PUSH1 0x40 MLOAD DUP1 SWAP2 SUB SWAP1 RETURN JUMPDEST PUSH2 0x295 PUSH2 0x535 JUMP JUMPDEST PUSH1 0x40 MLOAD PUSH2 0x2A2 SWAP2 SWAP1 PUSH2 0x14B7 JUMP JUMPDEST PUSH1 0x40 MLOAD DUP1 SWAP2 SUB SWAP1 RETURN JUMPDEST PUSH2 0x2C5 PUSH1 0x4 DUP1 CALLDATASIZE SUB DUP2 ADD SWAP1 PUSH2 0x2C0 SWAP2 SWAP1 PUSH2 0x1568 JUMP JUMPDEST PUSH2 0x5C5 JUMP JUMPDEST PUSH1 0x40 MLOAD PUSH2 0x2D2 SWAP2 SWAP1 PUSH2 0x15C0 JUMP JUMPDEST PUSH1 0x40 MLOAD DUP1 SWAP2 SUB SWAP1 RETURN JUMPDEST PUSH2 0x2F5 PUSH1 0x4 DUP1 CALLDATASIZE SUB DUP2 ADD SWAP1 PUSH2 0x2F0 SWAP2 SWAP1 PUSH2 0x18B7 JUMP JUMPDEST PUSH2 0x5E7 JUMP JUMPDEST STOP JUMPDEST PUSH2 0x311 PUSH1 0x4 DUP1 CALLDATASIZE SUB DUP2 ADD SWAP1 PUSH2 0x30C SWAP2 SWAP1 PUSH2 0x1954 JUMP JUMPDEST PUSH2 0x72C JUMP JUMPDEST PUSH1 0x40 MLOAD PUSH2 0x31E SWAP2 SWAP1 PUSH2 0x15E8 JUMP JUMPDEST PUSH1 0x40 MLOAD DUP1 SWAP2 SUB SWAP1 RETURN JUMPDEST PUSH1 0x60 PUSH1 0x3 DUP1 SLOAD PUSH2 0x336 SWAP1 PUSH2 0x19BF JUMP JUMPDEST DUP1 PUSH1 0x1F ADD PUSH1 0x20 DUP1 SWAP2 DIV MUL PUSH1 0x20 ADD PUSH1 0x40 MLOAD SWAP1 DUP2 ADD PUSH1 0x40 MSTORE DUP1 SWAP3 SWAP2 SWAP1 DUP2 DUP2 MSTORE PUSH1 0x20 ADD DUP3 DUP1 SLOAD PUSH2 0x362 SWAP1 PUSH2 0x19BF JUMP JUMPDEST DUP1 ISZERO PUSH2 0x3AD JUMPI DUP1 PUSH1 0x1F LT PUSH2 0x384 JUMPI PUSH2 0x100 DUP1 DUP4 SLOAD DIV MUL DUP4 MSTORE SWAP2 PUSH1 0x20 ADD SWAP2 PUSH2 0x3AD JUMP JUMPDEST DUP3 ADD SWAP2 SWAP1 PUSH0 MSTORE PUSH1 0x20 PUSH0 KECCAK256 SWAP1 JUMPDEST DUP2 SLOAD DUP2 MSTORE SWAP1 PUSH1 0x1 ADD SWAP1 PUSH1 0x20 ADD DUP1 DUP4 GT PUSH2 0x390 JUMPI DUP3 SWAP1 SUB PUSH1 0x1F AND DUP3 ADD SWAP2 JUMPDEST POP POP POP POP POP SWAP1 POP SWAP1 JUMP JUMPDEST PUSH0 DUP1 PUSH2 0x3C1 PUSH2 0x7AE JUMP JUMPDEST SWAP1 POP PUSH2 0x3CE DUP2 DUP6 DUP6 PUSH2 0x7B5 JUMP JUMPDEST PUSH1 0x1 SWAP2 POP POP SWAP3 SWAP2 POP POP JUMP JUMPDEST PUSH0 PUSH1 0x2 SLOAD SWAP1 POP SWAP1 JUMP JUMPDEST PUSH0 DUP1 PUSH2 0x3EC PUSH2 0x7AE JUMP JUMPDEST SWAP1 POP PUSH2 0x3F9 DUP6 DUP3 DUP6 PUSH2 0x7C7 JUMP JUMPDEST PUSH2 0x404 DUP6 DUP6 DUP6 PUSH2 0x859 JUMP JUMPDEST PUSH1 0x1 SWAP2 POP POP SWAP4 SWAP3 POP POP POP JUMP JUMPDEST PUSH1 0x8 SLOAD DUP2 JUMP JUMPDEST PUSH0 PUSH1 0x12 SWAP1 POP SWAP1 JUMP JUMPDEST PUSH0 PUSH2 0x427 PUSH2 0x949 JUMP JUMPDEST SWAP1 POP SWAP1 JUMP JUMPDEST PUSH2 0x436 DUP3 DUP3 PUSH2 0x9FF JUMP JUMPDEST POP POP JUMP JUMPDEST PUSH0 DUP1 PUSH0 DUP4 PUSH20 0xFFFFFFFFFFFFFFFFFFFFFFFFFFFFFFFFFFFFFFFF AND PUSH20 0xFFFFFFFFFFFFFFFFFFFFFFFFFFFFFFFFFFFFFFFF AND DUP2 MSTORE PUSH1 0x20 ADD SWAP1 DUP2 MSTORE PUSH1 0x20 ADD PUSH0 KECCAK256 SLOAD SWAP1 POP SWAP2 SWAP1 POP JUMP JUMPDEST PUSH0 PUSH2 0x489 DUP3 PUSH2 0xA7E JUMP JUMPDEST SWAP1 POP SWAP2 SWAP1 POP JUMP JUMPDEST PUSH0 PUSH1 0x60 DUP1 PUSH0 DUP1 PUSH0 PUSH1 0x60 PUSH2 0x4A1 PUSH2 0xAC4 JUMP JUMPDEST PUSH2 0x4A9 PUSH2 0xAFF JUMP JUMPDEST CHAINID ADDRESS PUSH0 DUP1 SHL PUSH0 PUSH8 0xFFFFFFFFFFFFFFFF DUP2 GT ISZERO PUSH2 0x4C8 JUMPI PUSH2 0x4C7 PUSH2 0x19EF JUMP JUMPDEST JUMPDEST PUSH1 0x40 MLOAD SWAP1 DUP1 DUP3 MSTORE DUP1 PUSH1 0x20 MUL PUSH1 0x20 ADD DUP3 ADD PUSH1 0x40 MSTORE DUP1 ISZERO PUSH2 0x4F6 JUMPI DUP2 PUSH1 0x20 ADD PUSH1 0x20 DUP3 MUL DUP1 CALLDATASIZE DUP4 CALLDATACOPY DUP1 DUP3 ADD SWAP2 POP POP SWAP1 POP JUMPDEST POP PUSH32 0xF00000000000000000000000000000000000000000000000000000000000000 SWAP6 SWAP5 SWAP4 SWAP3 SWAP2 SWAP1 SWAP7 POP SWAP7 POP SWAP7 POP SWAP7 POP SWAP7 POP SWAP7 POP SWAP7 POP SWAP1 SWAP2 SWAP3 SWAP4 SWAP5 SWAP6 SWAP7 JUMP JUMPDEST PUSH1 0x60 PUSH1 0x4 DUP1 SLOAD PUSH2 0x544 SWAP1 PUSH2 0x19BF JUMP JUMPDEST DUP1 PUSH1 0x1F ADD PUSH1 0x20 DUP1 SWAP2 DIV MUL PUSH1 0x20 ADD PUSH1 0x40 MLOAD SWAP1 DUP2 ADD PUSH1 0x40 MSTORE DUP1 SWAP3 SWAP2 SWAP1 DUP2 DUP2 MSTORE PUSH1 0x20 ADD DUP3 DUP1 SLOAD PUSH2 0x570 SWAP1 PUSH2 0x19BF JUMP JUMPDEST DUP1 ISZERO PUSH2 0x5BB JUMPI DUP1 PUSH1 0x1F LT PUSH2 0x592 JUMPI PUSH2 0x100 DUP1 DUP4 SLOAD DIV MUL DUP4 MSTORE SWAP2 PUSH1 0x20 ADD SWAP2 PUSH2 0x5BB JUMP JUMPDEST DUP3 ADD SWAP2 SWAP1 PUSH0 MSTORE PUSH1 0x20 PUSH0 KECCAK256 SWAP1 JUMPDEST DUP2 SLOAD DUP2 MSTORE SWAP1 PUSH1 0x1 ADD SWAP1 PUSH1 0x20 ADD DUP1 DUP4 GT PUSH2 0x59E JUMPI DUP3 SWAP1 SUB PUSH1 0x1F AND DUP3 ADD SWAP2 JUMPDEST POP POP POP POP POP SWAP1 POP SWAP1 JUMP JUMPDEST PUSH0 DUP1 PUSH2 0x5CF PUSH2 0x7AE JUMP JUMPDEST SWAP1 POP PUSH2 0x5DC DUP2 DUP6 DUP6 PUSH2 0x859 JUMP JUMPDEST PUSH1 0x1 SWAP2 POP POP SWAP3 SWAP2 POP POP JUMP JUMPDEST DUP4 TIMESTAMP GT ISZERO PUSH2 0x62C JUMPI DUP4 PUSH1 0x40 MLOAD PUSH32 0x6279130200000000000000000000000000000000000000000000000000000000 DUP2 MSTORE PUSH1 0x4 ADD PUSH2 0x623 SWAP2 SWAP1 PUSH2 0x15E8 JUMP JUMPDEST PUSH1 0x40 MLOAD DUP1 SWAP2 SUB SWAP1 REVERT JUMPDEST PUSH0 PUSH32 0x6E71EDAE12B1B97F4D1F60370FEF10105FA2FAAE0126114A169C64845D6126C9 DUP9 DUP9 DUP9 PUSH2 0x65A DUP13 PUSH2 0xB3A JUMP JUMPDEST DUP10 PUSH1 0x40 MLOAD PUSH1 0x20 ADD PUSH2 0x670 SWAP7 SWAP6 SWAP5 SWAP4 SWAP3 SWAP2 SWAP1 PUSH2 0x1A1C JUMP JUMPDEST PUSH1 0x40 MLOAD PUSH1 0x20 DUP2 DUP4 SUB SUB DUP2 MSTORE SWAP1 PUSH1 0x40 MSTORE DUP1 MLOAD SWAP1 PUSH1 0x20 ADD KECCAK256 SWAP1 POP PUSH0 PUSH2 0x692 DUP3 PUSH2 0xB8D JUMP JUMPDEST SWAP1 POP PUSH0 PUSH2 0x6A1 DUP3 DUP8 DUP8 DUP8 PUSH2 0xBA6 JUMP JUMPDEST SWAP1 POP DUP10 PUSH20 0xFFFFFFFFFFFFFFFFFFFFFFFFFFFFFFFFFFFFFFFF AND DUP2 PUSH20 0xFFFFFFFFFFFFFFFFFFFFFFFFFFFFFFFFFFFFFFFF AND EQ PUSH2 0x715 JUMPI DUP1 DUP11 PUSH1 0x40 MLOAD PUSH32 0x4B800E4600000000000000000000000000000000000000000000000000000000 DUP2 MSTORE PUSH1 0x4 ADD PUSH2 0x70C SWAP3 SWAP2 SWAP1 PUSH2 0x1A7B JUMP JUMPDEST PUSH1 0x40 MLOAD DUP1 SWAP2 SUB SWAP1 REVERT JUMPDEST PUSH2 0x720 DUP11 DUP11 DUP11 PUSH2 0x7B5 JUMP JUMPDEST POP POP POP POP POP POP POP POP POP POP JUMP JUMPDEST PUSH0 PUSH1 0x1 PUSH0 DUP5 PUSH20 0xFFFFFFFFFFFFFFFFFFFFFFFFFFFFFFFFFFFFFFFF AND PUSH20 0xFFFFFFFFFFFFFFFFFFFFFFFFFFFFFFFFFFFFFFFF AND DUP2 MSTORE PUSH1 0x20 ADD SWAP1 DUP2 MSTORE PUSH1 0x20 ADD PUSH0 KECCAK256 PUSH0 DUP4 PUSH20 0xFFFFFFFFFFFFFFFFFFFFFFFFFFFFFFFFFFFFFFFF AND PUSH20 0xFFFFFFFFFFFFFFFFFFFFFFFFFFFFFFFFFFFFFFFF AND DUP2 MSTORE PUSH1 0x20 ADD SWAP1 DUP2 MSTORE PUSH1 0x20 ADD PUSH0 KECCAK256 SLOAD SWAP1 POP SWAP3 SWAP2 POP POP JUMP JUMPDEST PUSH0 CALLER SWAP1 POP SWAP1 JUMP JUMPDEST PUSH2 0x7C2 DUP4 DUP4 DUP4 PUSH1 0x1 PUSH2 0xBD4 JUMP JUMPDEST POP POP POP JUMP JUMPDEST PUSH0 PUSH2 0x7D2 DUP5 DUP5 PUSH2 0x72C JUMP JUMPDEST SWAP1 POP PUSH32 0xFFFFFFFFFFFFFFFFFFFFFFFFFFFFFFFFFFFFFFFFFFFFFFFFFFFFFFFFFFFFFFFF DUP2 EQ PUSH2 0x853 JUMPI DUP2 DUP2 LT ISZERO PUSH2 0x844 JUMPI DUP3 DUP2 DUP4 PUSH1 0x40 MLOAD PUSH32 0xFB8F41B200000000000000000000000000000000000000000000000000000000 DUP2 MSTORE PUSH1 0x4 ADD PUSH2 0x83B SWAP4 SWAP3 SWAP2 SWAP1 PUSH2 0x1AA2 JUMP JUMPDEST PUSH1 0x40 MLOAD DUP1 SWAP2 SUB SWAP1 REVERT JUMPDEST PUSH2 0x852 DUP5 DUP5 DUP5 DUP5 SUB PUSH0 PUSH2 0xBD4 JUMP JUMPDEST JUMPDEST POP POP POP POP JUMP JUMPDEST PUSH0 PUSH20 0xFFFFFFFFFFFFFFFFFFFFFFFFFFFFFFFFFFFFFFFF AND DUP4 PUSH20 0xFFFFFFFFFFFFFFFFFFFFFFFFFFFFFFFFFFFFFFFF AND SUB PUSH2 0x8C9 JUMPI PUSH0 PUSH1 0x40 MLOAD PUSH32 0x96C6FD1E00000000000000000000000000000000000000000000000000000000 DUP2 MSTORE PUSH1 0x4 ADD PUSH2 0x8C0 SWAP2 SWAP1 PUSH2 0x1AD7 JUMP JUMPDEST PUSH1 0x40 MLOAD DUP1 SWAP2 SUB SWAP1 REVERT JUMPDEST PUSH0 PUSH20 0xFFFFFFFFFFFFFFFFFFFFFFFFFFFFFFFFFFFFFFFF AND DUP3 PUSH20 0xFFFFFFFFFFFFFFFFFFFFFFFFFFFFFFFFFFFFFFFF AND SUB PUSH2 0x939 JUMPI PUSH0 PUSH1 0x40 MLOAD PUSH32 0xEC442F0500000000000000000000000000000000000000000000000000000000 DUP2 MSTORE PUSH1 0x4 ADD PUSH2 0x930 SWAP2 SWAP1 PUSH2 0x1AD7 JUMP JUMPDEST PUSH1 0x40 MLOAD DUP1 SWAP2 SUB SWAP1 REVERT JUMPDEST PUSH2 0x944 DUP4 DUP4 DUP4 PUSH2 0xDA3 JUMP JUMPDEST POP POP POP JUMP JUMPDEST PUSH0 PUSH32 0x0 PUSH20 0xFFFFFFFFFFFFFFFFFFFFFFFFFFFFFFFFFFFFFFFF AND ADDRESS PUSH20 0xFFFFFFFFFFFFFFFFFFFFFFFFFFFFFFFFFFFFFFFF AND EQ DUP1 ISZERO PUSH2 0x9C4 JUMPI POP PUSH32 0x0 CHAINID EQ JUMPDEST ISZERO PUSH2 0x9F1 JUMPI PUSH32 0x0 SWAP1 POP PUSH2 0x9FC JUMP JUMPDEST PUSH2 0x9F9 PUSH2 0xFBC JUMP JUMPDEST SWAP1 POP JUMPDEST SWAP1 JUMP JUMPDEST PUSH0 PUSH20 0xFFFFFFFFFFFFFFFFFFFFFFFFFFFFFFFFFFFFFFFF AND DUP3 PUSH20 0xFFFFFFFFFFFFFFFFFFFFFFFFFFFFFFFFFFFFFFFF AND SUB PUSH2 0xA6F JUMPI PUSH0 PUSH1 0x40 MLOAD PUSH32 0xEC442F0500000000000000000000000000000000000000000000000000000000 DUP2 MSTORE PUSH1 0x4 ADD PUSH2 0xA66 SWAP2 SWAP1 PUSH2 0x1AD7 JUMP JUMPDEST PUSH1 0x40 MLOAD DUP1 SWAP2 SUB SWAP1 REVERT JUMPDEST PUSH2 0xA7A PUSH0 DUP4 DUP4 PUSH2 0xDA3 JUMP JUMPDEST POP POP JUMP JUMPDEST PUSH0 PUSH1 0x7 PUSH0 DUP4 PUSH20 0xFFFFFFFFFFFFFFFFFFFFFFFFFFFFFFFFFFFFFFFF AND PUSH20 0xFFFFFFFFFFFFFFFFFFFFFFFFFFFFFFFFFFFFFFFF AND DUP2 MSTORE PUSH1 0x20 ADD SWAP1 DUP2 MSTORE PUSH1 0x20 ADD PUSH0 KECCAK256 SLOAD SWAP1 POP SWAP2 SWAP1 POP JUMP JUMPDEST PUSH1 0x60 PUSH2 0xAFA PUSH1 0x5 PUSH32 0x0 PUSH2 0x1051 SWAP1 SWAP2 SWAP1 PUSH4 0xFFFFFFFF AND JUMP JUMPDEST SWAP1 POP SWAP1 JUMP JUMPDEST PUSH1 0x60 PUSH2 0xB35 PUSH1 0x6 PUSH32 0x0 PUSH2 0x1051 SWAP1 SWAP2 SWAP1 PUSH4 0xFFFFFFFF AND JUMP JUMPDEST SWAP1 POP SWAP1 JUMP JUMPDEST PUSH0 PUSH1 0x7 PUSH0 DUP4 PUSH20 0xFFFFFFFFFFFFFFFFFFFFFFFFFFFFFFFFFFFFFFFF AND PUSH20 0xFFFFFFFFFFFFFFFFFFFFFFFFFFFFFFFFFFFFFFFF AND DUP2 MSTORE PUSH1 0x20 ADD SWAP1 DUP2 MSTORE PUSH1 0x20 ADD PUSH0 KECCAK256 PUSH0 DUP2 SLOAD DUP1 SWAP3 SWAP2 SWAP1 PUSH1 0x1 ADD SWAP2 SWAP1 POP SSTORE SWAP1 POP SWAP2 SWAP1 POP JUMP JUMPDEST PUSH0 PUSH2 0xB9F PUSH2 0xB99 PUSH2 0x949 JUMP JUMPDEST DUP4 PUSH2 0x10FE JUMP JUMPDEST SWAP1 POP SWAP2 SWAP1 POP JUMP JUMPDEST PUSH0 DUP1 PUSH0 DUP1 PUSH2 0xBB6 DUP9 DUP9 DUP9 DUP9 PUSH2 0x113E JUMP JUMPDEST SWAP3 POP SWAP3 POP SWAP3 POP PUSH2 0xBC6 DUP3 DUP3 PUSH2 0x1225 JUMP JUMPDEST DUP3 SWAP4 POP POP POP POP SWAP5 SWAP4 POP POP POP POP JUMP JUMPDEST PUSH0 PUSH20 0xFFFFFFFFFFFFFFFFFFFFFFFFFFFFFFFFFFFFFFFF AND DUP5 PUSH20 0xFFFFFFFFFFFFFFFFFFFFFFFFFFFFFFFFFFFFFFFF AND SUB PUSH2 0xC44 JUMPI PUSH0 PUSH1 0x40 MLOAD PUSH32 0xE602DF0500000000000000000000000000000000000000000000000000000000 DUP2 MSTORE PUSH1 0x4 ADD PUSH2 0xC3B SWAP2 SWAP1 PUSH2 0x1AD7 JUMP JUMPDEST PUSH1 0x40 MLOAD DUP1 SWAP2 SUB SWAP1 REVERT JUMPDEST PUSH0 PUSH20 0xFFFFFFFFFFFFFFFFFFFFFFFFFFFFFFFFFFFFFFFF AND DUP4 PUSH20 0xFFFFFFFFFFFFFFFFFFFFFFFFFFFFFFFFFFFFFFFF AND SUB PUSH2 0xCB4 JUMPI PUSH0 PUSH1 0x40 MLOAD PUSH32 0x94280D6200000000000000000000000000000000000000000000000000000000 DUP2 MSTORE PUSH1 0x4 ADD PUSH2 0xCAB SWAP2 SWAP1 PUSH2 0x1AD7 JUMP JUMPDEST PUSH1 0x40 MLOAD DUP1 SWAP2 SUB SWAP1 REVERT JUMPDEST DUP2 PUSH1 0x1 PUSH0 DUP7 PUSH20 0xFFFFFFFFFFFFFFFFFFFFFFFFFFFFFFFFFFFFFFFF AND PUSH20 0xFFFFFFFFFFFFFFFFFFFFFFFFFFFFFFFFFFFFFFFF AND DUP2 MSTORE PUSH1 0x20 ADD SWAP1 DUP2 MSTORE PUSH1 0x20 ADD PUSH0 KECCAK256 PUSH0 DUP6 PUSH20 0xFFFFFFFFFFFFFFFFFFFFFFFFFFFFFFFFFFFFFFFF AND PUSH20 0xFFFFFFFFFFFFFFFFFFFFFFFFFFFFFFFFFFFFFFFF AND DUP2 MSTORE PUSH1 0x20 ADD SWAP1 DUP2 MSTORE PUSH1 0x20 ADD PUSH0 KECCAK256 DUP2 SWAP1 SSTORE POP DUP1 ISZERO PUSH2 0xD9D JUMPI DUP3 PUSH20 0xFFFFFFFFFFFFFFFFFFFFFFFFFFFFFFFFFFFFFFFF AND DUP5 PUSH20 0xFFFFFFFFFFFFFFFFFFFFFFFFFFFFFFFFFFFFFFFF AND PUSH32 0x8C5BE1E5EBEC7D5BD14F71427D1E84F3DD0314C0F7B2291E5B200AC8C7C3B925 DUP5 PUSH1 0x40 MLOAD PUSH2 0xD94 SWAP2 SWAP1 PUSH2 0x15E8 JUMP JUMPDEST PUSH1 0x40 MLOAD DUP1 SWAP2 SUB SWAP1 LOG3 JUMPDEST POP POP POP POP JUMP JUMPDEST PUSH0 PUSH20 0xFFFFFFFFFFFFFFFFFFFFFFFFFFFFFFFFFFFFFFFF AND DUP4 PUSH20 0xFFFFFFFFFFFFFFFFFFFFFFFFFFFFFFFFFFFFFFFF AND SUB PUSH2 0xDF3 JUMPI DUP1 PUSH1 0x2 PUSH0 DUP3 DUP3 SLOAD PUSH2 0xDE7 SWAP2 SWAP1 PUSH2 0x1B1D JUMP JUMPDEST SWAP3 POP POP DUP2 SWAP1 SSTORE POP PUSH2 0xEC1 JUMP JUMPDEST PUSH0 DUP1 PUSH0 DUP6 PUSH20 0xFFFFFFFFFFFFFFFFFFFFFFFFFFFFFFFFFFFFFFFF AND PUSH20 0xFFFFFFFFFFFFFFFFFFFFFFFFFFFFFFFFFFFFFFFF AND DUP2 MSTORE PUSH1 0x20 ADD SWAP1 DUP2 MSTORE PUSH1 0x20 ADD PUSH0 KECCAK256 SLOAD SWAP1 POP DUP2 DUP2 LT ISZERO PUSH2 0xE7C JUMPI DUP4 DUP2 DUP4 PUSH1 0x40 MLOAD PUSH32 0xE450D38C00000000000000000000000000000000000000000000000000000000 DUP2 MSTORE PUSH1 0x4 ADD PUSH2 0xE73 SWAP4 SWAP3 SWAP2 SWAP1 PUSH2 0x1AA2 JUMP JUMPDEST PUSH1 0x40 MLOAD DUP1 SWAP2 SUB SWAP1 REVERT JUMPDEST DUP2 DUP2 SUB PUSH0 DUP1 DUP7 PUSH20 0xFFFFFFFFFFFFFFFFFFFFFFFFFFFFFFFFFFFFFFFF AND PUSH20 0xFFFFFFFFFFFFFFFFFFFFFFFFFFFFFFFFFFFFFFFF AND DUP2 MSTORE PUSH1 0x20 ADD SWAP1 DUP2 MSTORE PUSH1 0x20 ADD PUSH0 KECCAK256 DUP2 SWAP1 SSTORE POP POP JUMPDEST PUSH0 PUSH20 0xFFFFFFFFFFFFFFFFFFFFFFFFFFFFFFFFFFFFFFFF AND DUP3 PUSH20 0xFFFFFFFFFFFFFFFFFFFFFFFFFFFFFFFFFFFFFFFF AND SUB PUSH2 0xF08 JUMPI DUP1 PUSH1 0x2 PUSH0 DUP3 DUP3 SLOAD SUB SWAP3 POP POP DUP2 SWAP1 SSTORE POP PUSH2 0xF52 JUMP JUMPDEST DUP1 PUSH0 DUP1 DUP5 PUSH20 0xFFFFFFFFFFFFFFFFFFFFFFFFFFFFFFFFFFFFFFFF AND PUSH20 0xFFFFFFFFFFFFFFFFFFFFFFFFFFFFFFFFFFFFFFFF AND DUP2 MSTORE PUSH1 0x20 ADD SWAP1 DUP2 MSTORE PUSH1 0x20 ADD PUSH0 KECCAK256 PUSH0 DUP3 DUP3 SLOAD ADD SWAP3 POP POP DUP2 SWAP1 SSTORE POP JUMPDEST DUP2 PUSH20 0xFFFFFFFFFFFFFFFFFFFFFFFFFFFFFFFFFFFFFFFF AND DUP4 PUSH20 0xFFFFFFFFFFFFFFFFFFFFFFFFFFFFFFFFFFFFFFFF AND PUSH32 0xDDF252AD1BE2C89B69C2B068FC378DAA952BA7F163C4A11628F55A4DF523B3EF DUP4 PUSH1 0x40 MLOAD PUSH2 0xFAF SWAP2 SWAP1 PUSH2 0x15E8 JUMP JUMPDEST PUSH1 0x40 MLOAD DUP1 SWAP2 SUB SWAP1 LOG3 POP POP POP JUMP JUMPDEST PUSH0 PUSH32 0x8B73C3C69BB8FE3D512ECC4CF759CC79239F7B179B0FFACAA9A75D522B39400F PUSH32 0x0 PUSH32 0x0 CHAINID ADDRESS PUSH1 0x40 MLOAD PUSH1 0x20 ADD PUSH2 0x1036 SWAP6 SWAP5 SWAP4 SWAP3 SWAP2 SWAP1 PUSH2 0x1B50 JUMP JUMPDEST PUSH1 0x40 MLOAD PUSH1 0x20 DUP2 DUP4 SUB SUB DUP2 MSTORE SWAP1 PUSH1 0x40 MSTORE DUP1 MLOAD SWAP1 PUSH1 0x20 ADD KECCAK256 SWAP1 POP SWAP1 JUMP JUMPDEST PUSH1 0x60 PUSH1 0xFF PUSH0 SHL DUP4 EQ PUSH2 0x106D JUMPI PUSH2 0x1066 DUP4 PUSH2 0x1387 JUMP JUMPDEST SWAP1 POP PUSH2 0x10F8 JUMP JUMPDEST DUP2 DUP1 SLOAD PUSH2 0x1079 SWAP1 PUSH2 0x19BF JUMP JUMPDEST DUP1 PUSH1 0x1F ADD PUSH1 0x20 DUP1 SWAP2 DIV MUL PUSH1 0x20 ADD PUSH1 0x40 MLOAD SWAP1 DUP2 ADD PUSH1 0x40 MSTORE DUP1 SWAP3 SWAP2 SWAP1 DUP2 DUP2 MSTORE PUSH1 0x20 ADD DUP3 DUP1 SLOAD PUSH2 0x10A5 SWAP1 PUSH2 0x19BF JUMP JUMPDEST DUP1 ISZERO PUSH2 0x10F0 JUMPI DUP1 PUSH1 0x1F LT PUSH2 0x10C7 JUMPI PUSH2 0x100 DUP1 DUP4 SLOAD DIV MUL DUP4 MSTORE SWAP2 PUSH1 0x20 ADD SWAP2 PUSH2 0x10F0 JUMP JUMPDEST DUP3 ADD SWAP2 SWAP1 PUSH0 MSTORE PUSH1 0x20 PUSH0 KECCAK256 SWAP1 JUMPDEST DUP2 SLOAD DUP2 MSTORE SWAP1 PUSH1 0x1 ADD SWAP1 PUSH1 0x20 ADD DUP1 DUP4 GT PUSH2 0x10D3 JUMPI DUP3 SWAP1 SUB PUSH1 0x1F AND DUP3 ADD SWAP2 JUMPDEST POP POP POP POP POP SWAP1 POP JUMPDEST SWAP3 SWAP2 POP POP JUMP JUMPDEST PUSH0 PUSH1 0x40 MLOAD PUSH32 0x1901000000000000000000000000000000000000000000000000000000000000 DUP2 MSTORE DUP4 PUSH1 0x2 DUP3 ADD MSTORE DUP3 PUSH1 0x22 DUP3 ADD MSTORE PUSH1 0x42 DUP2 KECCAK256 SWAP2 POP POP SWAP3 SWAP2 POP POP JUMP JUMPDEST PUSH0 DUP1 PUSH0 PUSH32 0x7FFFFFFFFFFFFFFFFFFFFFFFFFFFFFFF5D576E7357A4501DDFE92F46681B20A0 DUP5 PUSH0 SHR GT ISZERO PUSH2 0x117A JUMPI PUSH0 PUSH1 0x3 DUP6 SWAP3 POP SWAP3 POP SWAP3 POP PUSH2 0x121B JUMP JUMPDEST PUSH0 PUSH1 0x1 DUP9 DUP9 DUP9 DUP9 PUSH1 0x40 MLOAD PUSH0 DUP2 MSTORE PUSH1 0x20 ADD PUSH1 0x40 MSTORE PUSH1 0x40 MLOAD PUSH2 0x119D SWAP5 SWAP4 SWAP3 SWAP2 SWAP1 PUSH2 0x1BA1 JUMP JUMPDEST PUSH1 0x20 PUSH1 0x40 MLOAD PUSH1 0x20 DUP2 SUB SWAP1 DUP1 DUP5 SUB SWAP1 DUP6 GAS STATICCALL ISZERO DUP1 ISZERO PUSH2 0x11BD JUMPI RETURNDATASIZE PUSH0 DUP1 RETURNDATACOPY RETURNDATASIZE PUSH0 REVERT JUMPDEST POP POP POP PUSH1 0x20 PUSH1 0x40 MLOAD SUB MLOAD SWAP1 POP PUSH0 PUSH20 0xFFFFFFFFFFFFFFFFFFFFFFFFFFFFFFFFFFFFFFFF AND DUP2 PUSH20 0xFFFFFFFFFFFFFFFFFFFFFFFFFFFFFFFFFFFFFFFF AND SUB PUSH2 0x120E JUMPI PUSH0 PUSH1 0x1 PUSH0 DUP1 SHL SWAP4 POP SWAP4 POP SWAP4 POP POP PUSH2 0x121B JUMP JUMPDEST DUP1 PUSH0 DUP1 PUSH0 SHL SWAP4 POP SWAP4 POP SWAP4 POP POP JUMPDEST SWAP5 POP SWAP5 POP SWAP5 SWAP2 POP POP JUMP JUMPDEST PUSH0 PUSH1 0x3 DUP2 GT ISZERO PUSH2 0x1238 JUMPI PUSH2 0x1237 PUSH2 0x1BE4 JUMP JUMPDEST JUMPDEST DUP3 PUSH1 0x3 DUP2 GT ISZERO PUSH2 0x124B JUMPI PUSH2 0x124A PUSH2 0x1BE4 JUMP JUMPDEST JUMPDEST SUB ISZERO PUSH2 0x1383 JUMPI PUSH1 0x1 PUSH1 0x3 DUP2 GT ISZERO PUSH2 0x1265 JUMPI PUSH2 0x1264 PUSH2 0x1BE4 JUMP JUMPDEST JUMPDEST DUP3 PUSH1 0x3 DUP2 GT ISZERO PUSH2 0x1278 JUMPI PUSH2 0x1277 PUSH2 0x1BE4 JUMP JUMPDEST JUMPDEST SUB PUSH2 0x12AF JUMPI PUSH1 0x40 MLOAD PUSH32 0xF645EEDF00000000000000000000000000000000000000000000000000000000 DUP2 MSTORE PUSH1 0x4 ADD PUSH1 0x40 MLOAD DUP1 SWAP2 SUB SWAP1 REVERT JUMPDEST PUSH1 0x2 PUSH1 0x3 DUP2 GT ISZERO PUSH2 0x12C3 JUMPI PUSH2 0x12C2 PUSH2 0x1BE4 JUMP JUMPDEST JUMPDEST DUP3 PUSH1 0x3 DUP2 GT ISZERO PUSH2 0x12D6 JUMPI PUSH2 0x12D5 PUSH2 0x1BE4 JUMP JUMPDEST JUMPDEST SUB PUSH2 0x131A JUMPI DUP1 PUSH0 SHR PUSH1 0x40 MLOAD PUSH32 0xFCE698F700000000000000000000000000000000000000000000000000000000 DUP2 MSTORE PUSH1 0x4 ADD PUSH2 0x1311 SWAP2 SWAP1 PUSH2 0x15E8 JUMP JUMPDEST PUSH1 0x40 MLOAD DUP1 SWAP2 SUB SWAP1 REVERT JUMPDEST PUSH1 0x3 DUP1 DUP2 GT ISZERO PUSH2 0x132D JUMPI PUSH2 0x132C PUSH2 0x1BE4 JUMP JUMPDEST JUMPDEST DUP3 PUSH1 0x3 DUP2 GT ISZERO PUSH2 0x1340 JUMPI PUSH2 0x133F PUSH2 0x1BE4 JUMP JUMPDEST JUMPDEST SUB PUSH2 0x1382 JUMPI DUP1 PUSH1 0x40 MLOAD PUSH32 0xD78BCE0C00000000000000000000000000000000000000000000000000000000 DUP2 MSTORE PUSH1 0x4 ADD PUSH2 0x1379 SWAP2 SWAP1 PUSH2 0x169D JUMP JUMPDEST PUSH1 0x40 MLOAD DUP1 SWAP2 SUB SWAP1 REVERT JUMPDEST JUMPDEST POP POP JUMP JUMPDEST PUSH1 0x60 PUSH0 PUSH2 0x1393 DUP4 PUSH2 0x13F9 JUMP JUMPDEST SWAP1 POP PUSH0 PUSH1 0x20 PUSH8 0xFFFFFFFFFFFFFFFF DUP2 GT ISZERO PUSH2 0x13B1 JUMPI PUSH2 0x13B0 PUSH2 0x19EF JUMP JUMPDEST JUMPDEST PUSH1 0x40 MLOAD SWAP1 DUP1 DUP3 MSTORE DUP1 PUSH1 0x1F ADD PUSH1 0x1F NOT AND PUSH1 0x20 ADD DUP3 ADD PUSH1 0x40 MSTORE DUP1 ISZERO PUSH2 0x13E3 JUMPI DUP2 PUSH1 0x20 ADD PUSH1 0x1 DUP3 MUL DUP1 CALLDATASIZE DUP4 CALLDATACOPY DUP1 DUP3 ADD SWAP2 POP POP SWAP1 POP JUMPDEST POP SWAP1 POP DUP2 DUP2 MSTORE DUP4 PUSH1 0x20 DUP3 ADD MSTORE DUP1 SWAP3 POP POP POP SWAP2 SWAP1 POP JUMP JUMPDEST PUSH0 DUP1 PUSH1 0xFF DUP4 PUSH0 SHR AND SWAP1 POP PUSH1 0x1F DUP2 GT ISZERO PUSH2 0x143E JUMPI PUSH1 0x40 MLOAD PUSH32 0xB3512B0C00000000000000000000000000000000000000000000000000000000 DUP2 MSTORE PUSH1 0x4 ADD PUSH1 0x40 MLOAD DUP1 SWAP2 SUB SWAP1 REVERT JUMPDEST DUP1 SWAP2 POP POP SWAP2 SWAP1 POP JUMP JUMPDEST PUSH0 DUP2 MLOAD SWAP1 POP SWAP2 SWAP1 POP JUMP JUMPDEST PUSH0 DUP3 DUP3 MSTORE PUSH1 0x20 DUP3 ADD SWAP1 POP SWAP3 SWAP2 POP POP JUMP JUMPDEST DUP3 DUP2 DUP4 MCOPY PUSH0 DUP4 DUP4 ADD MSTORE POP POP POP JUMP JUMPDEST PUSH0 PUSH1 0x1F NOT PUSH1 0x1F DUP4 ADD AND SWAP1 POP SWAP2 SWAP1 POP JUMP JUMPDEST PUSH0 PUSH2 0x1489 DUP3 PUSH2 0x1447 JUMP JUMPDEST PUSH2 0x1493 DUP2 DUP6 PUSH2 0x1451 JUMP JUMPDEST SWAP4 POP PUSH2 0x14A3 DUP2 DUP6 PUSH1 0x20 DUP7 ADD PUSH2 0x1461 JUMP JUMPDEST PUSH2 0x14AC DUP2 PUSH2 0x146F JUMP JUMPDEST DUP5 ADD SWAP2 POP POP SWAP3 SWAP2 POP POP JUMP JUMPDEST PUSH0 PUSH1 0x20 DUP3 ADD SWAP1 POP DUP2 DUP2 SUB PUSH0 DUP4 ADD MSTORE PUSH2 0x14CF DUP2 DUP5 PUSH2 0x147F JUMP JUMPDEST SWAP1 POP SWAP3 SWAP2 POP POP JUMP JUMPDEST PUSH0 DUP1 REVERT JUMPDEST PUSH0 PUSH20 0xFFFFFFFFFFFFFFFFFFFFFFFFFFFFFFFFFFFFFFFF DUP3 AND SWAP1 POP SWAP2 SWAP1 POP JUMP JUMPDEST PUSH0 PUSH2 0x1504 DUP3 PUSH2 0x14DB JUMP JUMPDEST SWAP1 POP SWAP2 SWAP1 POP JUMP JUMPDEST PUSH2 0x1514 DUP2 PUSH2 0x14FA JUMP JUMPDEST DUP2 EQ PUSH2 0x151E JUMPI PUSH0 DUP1 REVERT JUMPDEST POP JUMP JUMPDEST PUSH0 DUP2 CALLDATALOAD SWAP1 POP PUSH2 0x152F DUP2 PUSH2 0x150B JUMP JUMPDEST SWAP3 SWAP2 POP POP JUMP JUMPDEST PUSH0 DUP2 SWAP1 POP SWAP2 SWAP1 POP JUMP JUMPDEST PUSH2 0x1547 DUP2 PUSH2 0x1535 JUMP JUMPDEST DUP2 EQ PUSH2 0x1551 JUMPI PUSH0 DUP1 REVERT JUMPDEST POP JUMP JUMPDEST PUSH0 DUP2 CALLDATALOAD SWAP1 POP PUSH2 0x1562 DUP2 PUSH2 0x153E JUMP JUMPDEST SWAP3 SWAP2 POP POP JUMP JUMPDEST PUSH0 DUP1 PUSH1 0x40 DUP4 DUP6 SUB SLT ISZERO PUSH2 0x157E JUMPI PUSH2 0x157D PUSH2 0x14D7 JUMP JUMPDEST JUMPDEST PUSH0 PUSH2 0x158B DUP6 DUP3 DUP7 ADD PUSH2 0x1521 JUMP JUMPDEST SWAP3 POP POP PUSH1 0x20 PUSH2 0x159C DUP6 DUP3 DUP7 ADD PUSH2 0x1554 JUMP JUMPDEST SWAP2 POP POP SWAP3 POP SWAP3 SWAP1 POP JUMP JUMPDEST PUSH0 DUP2 ISZERO ISZERO SWAP1 POP SWAP2 SWAP1 POP JUMP JUMPDEST PUSH2 0x15BA DUP2 PUSH2 0x15A6 JUMP JUMPDEST DUP3 MSTORE POP POP JUMP JUMPDEST PUSH0 PUSH1 0x20 DUP3 ADD SWAP1 POP PUSH2 0x15D3 PUSH0 DUP4 ADD DUP5 PUSH2 0x15B1 JUMP JUMPDEST SWAP3 SWAP2 POP POP JUMP JUMPDEST PUSH2 0x15E2 DUP2 PUSH2 0x1535 JUMP JUMPDEST DUP3 MSTORE POP POP JUMP JUMPDEST PUSH0 PUSH1 0x20 DUP3 ADD SWAP1 POP PUSH2 0x15FB PUSH0 DUP4 ADD DUP5 PUSH2 0x15D9 JUMP JUMPDEST SWAP3 SWAP2 POP POP JUMP JUMPDEST PUSH0 DUP1 PUSH0 PUSH1 0x60 DUP5 DUP7 SUB SLT ISZERO PUSH2 0x1618 JUMPI PUSH2 0x1617 PUSH2 0x14D7 JUMP JUMPDEST JUMPDEST PUSH0 PUSH2 0x1625 DUP7 DUP3 DUP8 ADD PUSH2 0x1521 JUMP JUMPDEST SWAP4 POP POP PUSH1 0x20 PUSH2 0x1636 DUP7 DUP3 DUP8 ADD PUSH2 0x1521 JUMP JUMPDEST SWAP3 POP POP PUSH1 0x40 PUSH2 0x1647 DUP7 DUP3 DUP8 ADD PUSH2 0x1554 JUMP JUMPDEST SWAP2 POP POP SWAP3 POP SWAP3 POP SWAP3 JUMP JUMPDEST PUSH0 PUSH1 0xFF DUP3 AND SWAP1 POP SWAP2 SWAP1 POP JUMP JUMPDEST PUSH2 0x1666 DUP2 PUSH2 0x1651 JUMP JUMPDEST DUP3 MSTORE POP POP JUMP JUMPDEST PUSH0 PUSH1 0x20 DUP3 ADD SWAP1 POP PUSH2 0x167F PUSH0 DUP4 ADD DUP5 PUSH2 0x165D JUMP JUMPDEST SWAP3 SWAP2 POP POP JUMP JUMPDEST PUSH0 DUP2 SWAP1 POP SWAP2 SWAP1 POP JUMP JUMPDEST PUSH2 0x1697 DUP2 PUSH2 0x1685 JUMP JUMPDEST DUP3 MSTORE POP POP JUMP JUMPDEST PUSH0 PUSH1 0x20 DUP3 ADD SWAP1 POP PUSH2 0x16B0 PUSH0 DUP4 ADD DUP5 PUSH2 0x168E JUMP JUMPDEST SWAP3 SWAP2 POP POP JUMP JUMPDEST PUSH0 PUSH1 0x20 DUP3 DUP5 SUB SLT ISZERO PUSH2 0x16CB JUMPI PUSH2 0x16CA PUSH2 0x14D7 JUMP JUMPDEST JUMPDEST PUSH0 PUSH2 0x16D8 DUP5 DUP3 DUP6 ADD PUSH2 0x1521 JUMP JUMPDEST SWAP2 POP POP SWAP3 SWAP2 POP POP JUMP JUMPDEST PUSH0 PUSH32 0xFF00000000000000000000000000000000000000000000000000000000000000 DUP3 AND SWAP1 POP SWAP2 SWAP1 POP JUMP JUMPDEST PUSH2 0x1715 DUP2 PUSH2 0x16E1 JUMP JUMPDEST DUP3 MSTORE POP POP JUMP JUMPDEST PUSH2 0x1724 DUP2 PUSH2 0x14FA JUMP JUMPDEST DUP3 MSTORE POP POP JUMP JUMPDEST PUSH0 DUP2 MLOAD SWAP1 POP SWAP2 SWAP1 POP JUMP JUMPDEST PUSH0 DUP3 DUP3 MSTORE PUSH1 0x20 DUP3 ADD SWAP1 POP SWAP3 SWAP2 POP POP JUMP JUMPDEST PUSH0 DUP2 SWAP1 POP PUSH1 0x20 DUP3 ADD SWAP1 POP SWAP2 SWAP1 POP JUMP JUMPDEST PUSH2 0x175C DUP2 PUSH2 0x1535 JUMP JUMPDEST DUP3 MSTORE POP POP JUMP JUMPDEST PUSH0 PUSH2 0x176D DUP4 DUP4 PUSH2 0x1753 JUMP JUMPDEST PUSH1 0x20 DUP4 ADD SWAP1 POP SWAP3 SWAP2 POP POP JUMP JUMPDEST PUSH0 PUSH1 0x20 DUP3 ADD SWAP1 POP SWAP2 SWAP1 POP JUMP JUMPDEST PUSH0 PUSH2 0x178F DUP3 PUSH2 0x172A JUMP JUMPDEST PUSH2 0x1799 DUP2 DUP6 PUSH2 0x1734 JUMP JUMPDEST SWAP4 POP PUSH2 0x17A4 DUP4 PUSH2 0x1744 JUMP JUMPDEST DUP1 PUSH0 JUMPDEST DUP4 DUP2 LT ISZERO PUSH2 0x17D4 JUMPI DUP2 MLOAD PUSH2 0x17BB DUP9 DUP3 PUSH2 0x1762 JUMP JUMPDEST SWAP8 POP PUSH2 0x17C6 DUP4 PUSH2 0x1779 JUMP JUMPDEST SWAP3 POP POP PUSH1 0x1 DUP2 ADD SWAP1 POP PUSH2 0x17A7 JUMP JUMPDEST POP DUP6 SWAP4 POP POP POP POP SWAP3 SWAP2 POP POP JUMP JUMPDEST PUSH0 PUSH1 0xE0 DUP3 ADD SWAP1 POP PUSH2 0x17F4 PUSH0 DUP4 ADD DUP11 PUSH2 0x170C JUMP JUMPDEST DUP2 DUP2 SUB PUSH1 0x20 DUP4 ADD MSTORE PUSH2 0x1806 DUP2 DUP10 PUSH2 0x147F JUMP JUMPDEST SWAP1 POP DUP2 DUP2 SUB PUSH1 0x40 DUP4 ADD MSTORE PUSH2 0x181A DUP2 DUP9 PUSH2 0x147F JUMP JUMPDEST SWAP1 POP PUSH2 0x1829 PUSH1 0x60 DUP4 ADD DUP8 PUSH2 0x15D9 JUMP JUMPDEST PUSH2 0x1836 PUSH1 0x80 DUP4 ADD DUP7 PUSH2 0x171B JUMP JUMPDEST PUSH2 0x1843 PUSH1 0xA0 DUP4 ADD DUP6 PUSH2 0x168E JUMP JUMPDEST DUP2 DUP2 SUB PUSH1 0xC0 DUP4 ADD MSTORE PUSH2 0x1855 DUP2 DUP5 PUSH2 0x1785 JUMP JUMPDEST SWAP1 POP SWAP9 SWAP8 POP POP POP POP POP POP POP POP JUMP JUMPDEST PUSH2 0x186C DUP2 PUSH2 0x1651 JUMP JUMPDEST DUP2 EQ PUSH2 0x1876 JUMPI PUSH0 DUP1 REVERT JUMPDEST POP JUMP JUMPDEST PUSH0 DUP2 CALLDATALOAD SWAP1 POP PUSH2 0x1887 DUP2 PUSH2 0x1863 JUMP JUMPDEST SWAP3 SWAP2 POP POP JUMP JUMPDEST PUSH2 0x1896 DUP2 PUSH2 0x1685 JUMP JUMPDEST DUP2 EQ PUSH2 0x18A0 JUMPI PUSH0 DUP1 REVERT JUMPDEST POP JUMP JUMPDEST PUSH0 DUP2 CALLDATALOAD SWAP1 POP PUSH2 0x18B1 DUP2 PUSH2 0x188D JUMP JUMPDEST SWAP3 SWAP2 POP POP JUMP JUMPDEST PUSH0 DUP1 PUSH0 DUP1 PUSH0 DUP1 PUSH0 PUSH1 0xE0 DUP9 DUP11 SUB SLT ISZERO PUSH2 0x18D2 JUMPI PUSH2 0x18D1 PUSH2 0x14D7 JUMP JUMPDEST JUMPDEST PUSH0 PUSH2 0x18DF DUP11 DUP3 DUP12 ADD PUSH2 0x1521 JUMP JUMPDEST SWAP8 POP POP PUSH1 0x20 PUSH2 0x18F0 DUP11 DUP3 DUP12 ADD PUSH2 0x1521 JUMP JUMPDEST SWAP7 POP POP PUSH1 0x40 PUSH2 0x1901 DUP11 DUP3 DUP12 ADD PUSH2 0x1554 JUMP JUMPDEST SWAP6 POP POP PUSH1 0x60 PUSH2 0x1912 DUP11 DUP3 DUP12 ADD PUSH2 0x1554 JUMP JUMPDEST SWAP5 POP POP PUSH1 0x80 PUSH2 0x1923 DUP11 DUP3 DUP12 ADD PUSH2 0x1879 JUMP JUMPDEST SWAP4 POP POP PUSH1 0xA0 PUSH2 0x1934 DUP11 DUP3 DUP12 ADD PUSH2 0x18A3 JUMP JUMPDEST SWAP3 POP POP PUSH1 0xC0 PUSH2 0x1945 DUP11 DUP3 DUP12 ADD PUSH2 0x18A3 JUMP JUMPDEST SWAP2 POP POP SWAP3 SWAP6 SWAP9 SWAP2 SWAP5 SWAP8 POP SWAP3 SWAP6 POP JUMP JUMPDEST PUSH0 DUP1 PUSH1 0x40 DUP4 DUP6 SUB SLT ISZERO PUSH2 0x196A JUMPI PUSH2 0x1969 PUSH2 0x14D7 JUMP JUMPDEST JUMPDEST PUSH0 PUSH2 0x1977 DUP6 DUP3 DUP7 ADD PUSH2 0x1521 JUMP JUMPDEST SWAP3 POP POP PUSH1 0x20 PUSH2 0x1988 DUP6 DUP3 DUP7 ADD PUSH2 0x1521 JUMP JUMPDEST SWAP2 POP POP SWAP3 POP SWAP3 SWAP1 POP JUMP JUMPDEST PUSH32 0x4E487B7100000000000000000000000000000000000000000000000000000000 PUSH0 MSTORE PUSH1 0x22 PUSH1 0x4 MSTORE PUSH1 0x24 PUSH0 REVERT JUMPDEST PUSH0 PUSH1 0x2 DUP3 DIV SWAP1 POP PUSH1 0x1 DUP3 AND DUP1 PUSH2 0x19D6 JUMPI PUSH1 0x7F DUP3 AND SWAP2 POP JUMPDEST PUSH1 0x20 DUP3 LT DUP2 SUB PUSH2 0x19E9 JUMPI PUSH2 0x19E8 PUSH2 0x1992 JUMP JUMPDEST JUMPDEST POP SWAP2 SWAP1 POP JUMP JUMPDEST PUSH32 0x4E487B7100000000000000000000000000000000000000000000000000000000 PUSH0 MSTORE PUSH1 0x41 PUSH1 0x4 MSTORE PUSH1 0x24 PUSH0 REVERT JUMPDEST PUSH0 PUSH1 0xC0 DUP3 ADD SWAP1 POP PUSH2 0x1A2F PUSH0 DUP4 ADD DUP10 PUSH2 0x168E JUMP JUMPDEST PUSH2 0x1A3C PUSH1 0x20 DUP4 ADD DUP9 PUSH2 0x171B JUMP JUMPDEST PUSH2 0x1A49 PUSH1 0x40 DUP4 ADD DUP8 PUSH2 0x171B JUMP JUMPDEST PUSH2 0x1A56 PUSH1 0x60 DUP4 ADD DUP7 PUSH2 0x15D9 JUMP JUMPDEST PUSH2 0x1A63 PUSH1 0x80 DUP4 ADD DUP6 PUSH2 0x15D9 JUMP JUMPDEST PUSH2 0x1A70 PUSH1 0xA0 DUP4 ADD DUP5 PUSH2 0x15D9 JUMP JUMPDEST SWAP8 SWAP7 POP POP POP POP POP POP POP JUMP JUMPDEST PUSH0 PUSH1 0x40 DUP3 ADD SWAP1 POP PUSH2 0x1A8E PUSH0 DUP4 ADD DUP6 PUSH2 0x171B JUMP JUMPDEST PUSH2 0x1A9B PUSH1 0x20 DUP4 ADD DUP5 PUSH2 0x171B JUMP JUMPDEST SWAP4 SWAP3 POP POP POP JUMP JUMPDEST PUSH0 PUSH1 0x60 DUP3 ADD SWAP1 POP PUSH2 0x1AB5 PUSH0 DUP4 ADD DUP7 PUSH2 0x171B JUMP JUMPDEST PUSH2 0x1AC2 PUSH1 0x20 DUP4 ADD DUP6 PUSH2 0x15D9 JUMP JUMPDEST PUSH2 0x1ACF PUSH1 0x40 DUP4 ADD DUP5 PUSH2 0x15D9 JUMP JUMPDEST SWAP5 SWAP4 POP POP POP POP JUMP JUMPDEST PUSH0 PUSH1 0x20 DUP3 ADD SWAP1 POP PUSH2 0x1AEA PUSH0 DUP4 ADD DUP5 PUSH2 0x171B JUMP JUMPDEST SWAP3 SWAP2 POP POP JUMP JUMPDEST PUSH32 0x4E487B7100000000000000000000000000000000000000000000000000000000 PUSH0 MSTORE PUSH1 0x11 PUSH1 0x4 MSTORE PUSH1 0x24 PUSH0 REVERT JUMPDEST PUSH0 PUSH2 0x1B27 DUP3 PUSH2 0x1535 JUMP JUMPDEST SWAP2 POP PUSH2 0x1B32 DUP4 PUSH2 0x1535 JUMP JUMPDEST SWAP3 POP DUP3 DUP3 ADD SWAP1 POP DUP1 DUP3 GT ISZERO PUSH2 0x1B4A JUMPI PUSH2 0x1B49 PUSH2 0x1AF0 JUMP JUMPDEST JUMPDEST SWAP3 SWAP2 POP POP JUMP JUMPDEST PUSH0 PUSH1 0xA0 DUP3 ADD SWAP1 POP PUSH2 0x1B63 PUSH0 DUP4 ADD DUP9 PUSH2 0x168E JUMP JUMPDEST PUSH2 0x1B70 PUSH1 0x20 DUP4 ADD DUP8 PUSH2 0x168E JUMP JUMPDEST PUSH2 0x1B7D PUSH1 0x40 DUP4 ADD DUP7 PUSH2 0x168E JUMP JUMPDEST PUSH2 0x1B8A PUSH1 0x60 DUP4 ADD DUP6 PUSH2 0x15D9 JUMP JUMPDEST PUSH2 0x1B97 PUSH1 0x80 DUP4 ADD DUP5 PUSH2 0x171B JUMP JUMPDEST SWAP7 SWAP6 POP POP POP POP POP POP JUMP JUMPDEST PUSH0 PUSH1 0x80 DUP3 ADD SWAP1 POP PUSH2 0x1BB4 PUSH0 DUP4 ADD DUP8 PUSH2 0x168E JUMP JUMPDEST PUSH2 0x1BC1 PUSH1 0x20 DUP4 ADD DUP7 PUSH2 0x165D JUMP JUMPDEST PUSH2 0x1BCE PUSH1 0x40 DUP4 ADD DUP6 PUSH2 0x168E JUMP JUMPDEST PUSH2 0x1BDB PUSH1 0x60 DUP4 ADD DUP5 PUSH2 0x168E JUMP JUMPDEST SWAP6 SWAP5 POP POP POP POP POP JUMP JUMPDEST PUSH32 0x4E487B7100000000000000000000000000000000000000000000000000000000 PUSH0 MSTORE PUSH1 0x21 PUSH1 0x4 MSTORE PUSH1 0x24 PUSH0 REVERT INVALID LOG2 PUSH5 0x6970667358 0x22 SLT KECCAK256 KECCAK256 0xE8 LT 0xDC BLOCKHASH SIGNEXTEND PUSH22 0x7EEC358EF220BBF19E104D83D657CEDC5B2F68C24564 0x4D 0xA5 0xBB PUSH5 0x736F6C6343 STOP ADDMOD NOT STOP CALLER "
				},
				"gasEstimates": {
					"creation": {
						"codeDepositCost": "1447800",
						"executionCost": "infinite",
						"totalCost": "infinite"
					},
					"external": {
						"DOMAIN_SEPARATOR()": "infinite",
						"INITIAL_SUPPLY()": "2470",
						"allowance(address,address)": "infinite",
						"approve(address,uint256)": "infinite",
						"balanceOf(address)": "2874",
						"decimals()": "405",
						"eip712Domain()": "infinite",
						"mint(address,uint256)": "infinite",
						"name()": "infinite",
						"nonces(address)": "2938",
						"permit(address,address,uint256,uint256,uint8,bytes32,bytes32)": "infinite",
						"symbol()": "infinite",
						"totalSupply()": "2500",
						"transfer(address,uint256)": "infinite",
						"transferFrom(address,address,uint256)": "infinite"
					}
				},
				"methodIdentifiers": {
					"DOMAIN_SEPARATOR()": "3644e515",
					"INITIAL_SUPPLY()": "2ff2e9dc",
					"allowance(address,address)": "dd62ed3e",
					"approve(address,uint256)": "095ea7b3",
					"balanceOf(address)": "70a08231",
					"decimals()": "313ce567",
					"eip712Domain()": "84b0196e",
					"mint(address,uint256)": "40c10f19",
					"name()": "06fdde03",
					"nonces(address)": "7ecebe00",
					"permit(address,address,uint256,uint256,uint8,bytes32,bytes32)": "d505accf",
					"symbol()": "95d89b41",
					"totalSupply()": "18160ddd",
					"transfer(address,uint256)": "a9059cbb",
					"transferFrom(address,address,uint256)": "23b872dd"
				}
			},
			"storageLayout": {
				"storage": [
					{
						"astId": 184,
						"contract": "contracts/tokenA.sol:tokenA",
						"label": "_balances",
						"offset": 0,
						"slot": "0",
						"type": "t_mapping(t_address,t_uint256)"
					},
					{
						"astId": 190,
						"contract": "contracts/tokenA.sol:tokenA",
						"label": "_allowances",
						"offset": 0,
						"slot": "1",
						"type": "t_mapping(t_address,t_mapping(t_address,t_uint256))"
					},
					{
						"astId": 192,
						"contract": "contracts/tokenA.sol:tokenA",
						"label": "_totalSupply",
						"offset": 0,
						"slot": "2",
						"type": "t_uint256"
					},
					{
						"astId": 194,
						"contract": "contracts/tokenA.sol:tokenA",
						"label": "_name",
						"offset": 0,
						"slot": "3",
						"type": "t_string_storage"
					},
					{
						"astId": 196,
						"contract": "contracts/tokenA.sol:tokenA",
						"label": "_symbol",
						"offset": 0,
						"slot": "4",
						"type": "t_string_storage"
					},
					{
						"astId": 2035,
						"contract": "contracts/tokenA.sol:tokenA",
						"label": "_nameFallback",
						"offset": 0,
						"slot": "5",
						"type": "t_string_storage"
					},
					{
						"astId": 2037,
						"contract": "contracts/tokenA.sol:tokenA",
						"label": "_versionFallback",
						"offset": 0,
						"slot": "6",
						"type": "t_string_storage"
					},
					{
						"astId": 1014,
						"contract": "contracts/tokenA.sol:tokenA",
						"label": "_nonces",
						"offset": 0,
						"slot": "7",
						"type": "t_mapping(t_address,t_uint256)"
					},
					{
						"astId": 3474,
						"contract": "contracts/tokenA.sol:tokenA",
						"label": "INITIAL_SUPPLY",
						"offset": 0,
						"slot": "8",
						"type": "t_uint256"
					}
				],
				"types": {
					"t_address": {
						"encoding": "inplace",
						"label": "address",
						"numberOfBytes": "20"
					},
					"t_mapping(t_address,t_mapping(t_address,t_uint256))": {
						"encoding": "mapping",
						"key": "t_address",
						"label": "mapping(address => mapping(address => uint256))",
						"numberOfBytes": "32",
						"value": "t_mapping(t_address,t_uint256)"
					},
					"t_mapping(t_address,t_uint256)": {
						"encoding": "mapping",
						"key": "t_address",
						"label": "mapping(address => uint256)",
						"numberOfBytes": "32",
						"value": "t_uint256"
					},
					"t_string_storage": {
						"encoding": "bytes",
						"label": "string",
						"numberOfBytes": "32"
					},
					"t_uint256": {
						"encoding": "inplace",
						"label": "uint256",
						"numberOfBytes": "32"
					}
				}
			},
			"userdoc": {
				"kind": "user",
				"methods": {},
				"version": 1
			}
		}
	}
}